{
	"contracts/challenges/ch6.sol": {
		"Stuff": {
			"abi": [
				{
					"inputs": [
						{
							"internalType": "string",
							"name": "x",
							"type": "string"
						},
						{
							"internalType": "string",
							"name": "y",
							"type": "string"
						}
					],
					"name": "concatenate2",
					"outputs": [],
					"stateMutability": "nonpayable",
					"type": "function"
				},
				{
					"inputs": [],
					"name": "str",
					"outputs": [
						{
							"internalType": "string",
							"name": "",
							"type": "string"
						}
					],
					"stateMutability": "view",
					"type": "function"
				}
			],
			"devdoc": {
				"kind": "dev",
				"methods": {},
				"version": 1
			},
			"evm": {
				"assembly": "    /* \"contracts/challenges/ch6.sol\":71:232  contract Stuff{... */\n  mstore(0x40, 0x80)\n  callvalue\n  dup1\n  iszero\n  tag_1\n  jumpi\n  0x00\n  dup1\n  revert\ntag_1:\n  pop\n  dataSize(sub_0)\n  dup1\n  dataOffset(sub_0)\n  0x00\n  codecopy\n  0x00\n  return\nstop\n\nsub_0: assembly {\n        /* \"contracts/challenges/ch6.sol\":71:232  contract Stuff{... */\n      mstore(0x40, 0x80)\n      callvalue\n      dup1\n      iszero\n      tag_1\n      jumpi\n      0x00\n      dup1\n      revert\n    tag_1:\n      pop\n      jumpi(tag_2, lt(calldatasize, 0x04))\n      shr(0xe0, calldataload(0x00))\n      dup1\n      0x0bd0eba0\n      eq\n      tag_3\n      jumpi\n      dup1\n      0xc15bae84\n      eq\n      tag_4\n      jumpi\n    tag_2:\n      0x00\n      dup1\n      revert\n        /* \"contracts/challenges/ch6.sol\":115:230  function concatenate2(string memory x, string memory y) public{... */\n    tag_3:\n      tag_5\n      0x04\n      dup1\n      calldatasize\n      sub\n      dup2\n      add\n      swap1\n      tag_6\n      swap2\n      swap1\n      tag_7\n      jump\t// in\n    tag_6:\n      tag_8\n      jump\t// in\n    tag_5:\n      stop\n        /* \"contracts/challenges/ch6.sol\":91:108  string public str */\n    tag_4:\n      tag_9\n      tag_10\n      jump\t// in\n    tag_9:\n      mload(0x40)\n      tag_11\n      swap2\n      swap1\n      tag_12\n      jump\t// in\n    tag_11:\n      mload(0x40)\n      dup1\n      swap2\n      sub\n      swap1\n      return\n        /* \"contracts/challenges/ch6.sol\":115:230  function concatenate2(string memory x, string memory y) public{... */\n    tag_8:\n        /* \"contracts/challenges/ch6.sol\":217:218  x */\n      dup2\n        /* \"contracts/challenges/ch6.sol\":220:221  y */\n      dup2\n        /* \"contracts/challenges/ch6.sol\":200:222  abi.encodePacked(x, y) */\n      add(0x20, mload(0x40))\n      tag_14\n      swap3\n      swap2\n      swap1\n      tag_15\n      jump\t// in\n    tag_14:\n      mload(0x40)\n      0x20\n      dup2\n      dup4\n      sub\n      sub\n      dup2\n      mstore\n      swap1\n      0x40\n      mstore\n        /* \"contracts/challenges/ch6.sol\":187:190  str */\n      0x00\n        /* \"contracts/challenges/ch6.sol\":187:223  str = string(abi.encodePacked(x, y)) */\n      swap1\n      dup1\n      mload\n      swap1\n      0x20\n      add\n      swap1\n      tag_16\n      swap3\n      swap2\n      swap1\n      tag_17\n      jump\t// in\n    tag_16:\n      pop\n        /* \"contracts/challenges/ch6.sol\":115:230  function concatenate2(string memory x, string memory y) public{... */\n      pop\n      pop\n      jump\t// out\n        /* \"contracts/challenges/ch6.sol\":91:108  string public str */\n    tag_10:\n      0x00\n      dup1\n      sload\n      tag_18\n      swap1\n      tag_19\n      jump\t// in\n    tag_18:\n      dup1\n      0x1f\n      add\n      0x20\n      dup1\n      swap2\n      div\n      mul\n      0x20\n      add\n      mload(0x40)\n      swap1\n      dup2\n      add\n      0x40\n      mstore\n      dup1\n      swap3\n      swap2\n      swap1\n      dup2\n      dup2\n      mstore\n      0x20\n      add\n      dup3\n      dup1\n      sload\n      tag_20\n      swap1\n      tag_19\n      jump\t// in\n    tag_20:\n      dup1\n      iszero\n      tag_21\n      jumpi\n      dup1\n      0x1f\n      lt\n      tag_22\n      jumpi\n      0x0100\n      dup1\n      dup4\n      sload\n      div\n      mul\n      dup4\n      mstore\n      swap2\n      0x20\n      add\n      swap2\n      jump(tag_21)\n    tag_22:\n      dup3\n      add\n      swap2\n      swap1\n      0x00\n      mstore\n      keccak256(0x00, 0x20)\n      swap1\n    tag_23:\n      dup2\n      sload\n      dup2\n      mstore\n      swap1\n      0x01\n      add\n      swap1\n      0x20\n      add\n      dup1\n      dup4\n      gt\n      tag_23\n      jumpi\n      dup3\n      swap1\n      sub\n      0x1f\n      and\n      dup3\n      add\n      swap2\n    tag_21:\n      pop\n      pop\n      pop\n      pop\n      pop\n      dup2\n      jump\t// out\n    tag_17:\n      dup3\n      dup1\n      sload\n      tag_24\n      swap1\n      tag_19\n      jump\t// in\n    tag_24:\n      swap1\n      0x00\n      mstore\n      keccak256(0x00, 0x20)\n      swap1\n      0x1f\n      add\n      0x20\n      swap1\n      div\n      dup2\n      add\n      swap3\n      dup3\n      tag_26\n      jumpi\n      0x00\n      dup6\n      sstore\n      jump(tag_25)\n    tag_26:\n      dup3\n      0x1f\n      lt\n      tag_27\n      jumpi\n      dup1\n      mload\n      not(0xff)\n      and\n      dup4\n      dup1\n      add\n      or\n      dup6\n      sstore\n      jump(tag_25)\n    tag_27:\n      dup3\n      dup1\n      add\n      0x01\n      add\n      dup6\n      sstore\n      dup3\n      iszero\n      tag_25\n      jumpi\n      swap2\n      dup3\n      add\n    tag_28:\n      dup3\n      dup2\n      gt\n      iszero\n      tag_29\n      jumpi\n      dup3\n      mload\n      dup3\n      sstore\n      swap2\n      0x20\n      add\n      swap2\n      swap1\n      0x01\n      add\n      swap1\n      jump(tag_28)\n    tag_29:\n    tag_25:\n      pop\n      swap1\n      pop\n      tag_30\n      swap2\n      swap1\n      tag_31\n      jump\t// in\n    tag_30:\n      pop\n      swap1\n      jump\t// out\n    tag_31:\n    tag_32:\n      dup1\n      dup3\n      gt\n      iszero\n      tag_33\n      jumpi\n      0x00\n      dup2\n      0x00\n      swap1\n      sstore\n      pop\n      0x01\n      add\n      jump(tag_32)\n    tag_33:\n      pop\n      swap1\n      jump\t// out\n        /* \"#utility.yul\":7:419   */\n    tag_35:\n        /* \"#utility.yul\":85:90   */\n      0x00\n        /* \"#utility.yul\":110:176   */\n      tag_37\n        /* \"#utility.yul\":126:175   */\n      tag_38\n        /* \"#utility.yul\":168:174   */\n      dup5\n        /* \"#utility.yul\":126:175   */\n      tag_39\n      jump\t// in\n    tag_38:\n        /* \"#utility.yul\":110:176   */\n      tag_40\n      jump\t// in\n    tag_37:\n        /* \"#utility.yul\":101:176   */\n      swap1\n      pop\n        /* \"#utility.yul\":199:205   */\n      dup3\n        /* \"#utility.yul\":192:197   */\n      dup2\n        /* \"#utility.yul\":185:206   */\n      mstore\n        /* \"#utility.yul\":237:241   */\n      0x20\n        /* \"#utility.yul\":230:235   */\n      dup2\n        /* \"#utility.yul\":226:242   */\n      add\n        /* \"#utility.yul\":275:278   */\n      dup5\n        /* \"#utility.yul\":266:272   */\n      dup5\n        /* \"#utility.yul\":261:264   */\n      dup5\n        /* \"#utility.yul\":257:273   */\n      add\n        /* \"#utility.yul\":254:279   */\n      gt\n        /* \"#utility.yul\":251:363   */\n      iszero\n      tag_41\n      jumpi\n        /* \"#utility.yul\":282:361   */\n      tag_42\n      tag_43\n      jump\t// in\n    tag_42:\n        /* \"#utility.yul\":251:363   */\n    tag_41:\n        /* \"#utility.yul\":372:413   */\n      tag_44\n        /* \"#utility.yul\":406:412   */\n      dup5\n        /* \"#utility.yul\":401:404   */\n      dup3\n        /* \"#utility.yul\":396:399   */\n      dup6\n        /* \"#utility.yul\":372:413   */\n      tag_45\n      jump\t// in\n    tag_44:\n        /* \"#utility.yul\":91:419   */\n      pop\n        /* \"#utility.yul\":7:419   */\n      swap4\n      swap3\n      pop\n      pop\n      pop\n      jump\t// out\n        /* \"#utility.yul\":439:779   */\n    tag_46:\n        /* \"#utility.yul\":495:500   */\n      0x00\n        /* \"#utility.yul\":544:547   */\n      dup3\n        /* \"#utility.yul\":537:541   */\n      0x1f\n        /* \"#utility.yul\":529:535   */\n      dup4\n        /* \"#utility.yul\":525:542   */\n      add\n        /* \"#utility.yul\":521:548   */\n      slt\n        /* \"#utility.yul\":511:633   */\n      tag_48\n      jumpi\n        /* \"#utility.yul\":552:631   */\n      tag_49\n      tag_50\n      jump\t// in\n    tag_49:\n        /* \"#utility.yul\":511:633   */\n    tag_48:\n        /* \"#utility.yul\":669:675   */\n      dup2\n        /* \"#utility.yul\":656:676   */\n      calldataload\n        /* \"#utility.yul\":694:773   */\n      tag_51\n        /* \"#utility.yul\":769:772   */\n      dup5\n        /* \"#utility.yul\":761:767   */\n      dup3\n        /* \"#utility.yul\":754:758   */\n      0x20\n        /* \"#utility.yul\":746:752   */\n      dup7\n        /* \"#utility.yul\":742:759   */\n      add\n        /* \"#utility.yul\":694:773   */\n      tag_35\n      jump\t// in\n    tag_51:\n        /* \"#utility.yul\":685:773   */\n      swap2\n      pop\n        /* \"#utility.yul\":501:779   */\n      pop\n        /* \"#utility.yul\":439:779   */\n      swap3\n      swap2\n      pop\n      pop\n      jump\t// out\n        /* \"#utility.yul\":785:1619   */\n    tag_7:\n        /* \"#utility.yul\":873:879   */\n      0x00\n        /* \"#utility.yul\":881:887   */\n      dup1\n        /* \"#utility.yul\":930:932   */\n      0x40\n        /* \"#utility.yul\":918:927   */\n      dup4\n        /* \"#utility.yul\":909:916   */\n      dup6\n        /* \"#utility.yul\":905:928   */\n      sub\n        /* \"#utility.yul\":901:933   */\n      slt\n        /* \"#utility.yul\":898:1017   */\n      iszero\n      tag_53\n      jumpi\n        /* \"#utility.yul\":936:1015   */\n      tag_54\n      tag_55\n      jump\t// in\n    tag_54:\n        /* \"#utility.yul\":898:1017   */\n    tag_53:\n        /* \"#utility.yul\":1084:1085   */\n      0x00\n        /* \"#utility.yul\":1073:1082   */\n      dup4\n        /* \"#utility.yul\":1069:1086   */\n      add\n        /* \"#utility.yul\":1056:1087   */\n      calldataload\n        /* \"#utility.yul\":1114:1132   */\n      0xffffffffffffffff\n        /* \"#utility.yul\":1106:1112   */\n      dup2\n        /* \"#utility.yul\":1103:1133   */\n      gt\n        /* \"#utility.yul\":1100:1217   */\n      iszero\n      tag_56\n      jumpi\n        /* \"#utility.yul\":1136:1215   */\n      tag_57\n      tag_58\n      jump\t// in\n    tag_57:\n        /* \"#utility.yul\":1100:1217   */\n    tag_56:\n        /* \"#utility.yul\":1241:1304   */\n      tag_59\n        /* \"#utility.yul\":1296:1303   */\n      dup6\n        /* \"#utility.yul\":1287:1293   */\n      dup3\n        /* \"#utility.yul\":1276:1285   */\n      dup7\n        /* \"#utility.yul\":1272:1294   */\n      add\n        /* \"#utility.yul\":1241:1304   */\n      tag_46\n      jump\t// in\n    tag_59:\n        /* \"#utility.yul\":1231:1304   */\n      swap3\n      pop\n        /* \"#utility.yul\":1027:1314   */\n      pop\n        /* \"#utility.yul\":1381:1383   */\n      0x20\n        /* \"#utility.yul\":1370:1379   */\n      dup4\n        /* \"#utility.yul\":1366:1384   */\n      add\n        /* \"#utility.yul\":1353:1385   */\n      calldataload\n        /* \"#utility.yul\":1412:1430   */\n      0xffffffffffffffff\n        /* \"#utility.yul\":1404:1410   */\n      dup2\n        /* \"#utility.yul\":1401:1431   */\n      gt\n        /* \"#utility.yul\":1398:1515   */\n      iszero\n      tag_60\n      jumpi\n        /* \"#utility.yul\":1434:1513   */\n      tag_61\n      tag_58\n      jump\t// in\n    tag_61:\n        /* \"#utility.yul\":1398:1515   */\n    tag_60:\n        /* \"#utility.yul\":1539:1602   */\n      tag_62\n        /* \"#utility.yul\":1594:1601   */\n      dup6\n        /* \"#utility.yul\":1585:1591   */\n      dup3\n        /* \"#utility.yul\":1574:1583   */\n      dup7\n        /* \"#utility.yul\":1570:1592   */\n      add\n        /* \"#utility.yul\":1539:1602   */\n      tag_46\n      jump\t// in\n    tag_62:\n        /* \"#utility.yul\":1529:1602   */\n      swap2\n      pop\n        /* \"#utility.yul\":1324:1612   */\n      pop\n        /* \"#utility.yul\":785:1619   */\n      swap3\n      pop\n      swap3\n      swap1\n      pop\n      jump\t// out\n        /* \"#utility.yul\":1625:1989   */\n    tag_63:\n        /* \"#utility.yul\":1713:1716   */\n      0x00\n        /* \"#utility.yul\":1741:1780   */\n      tag_65\n        /* \"#utility.yul\":1774:1779   */\n      dup3\n        /* \"#utility.yul\":1741:1780   */\n      tag_66\n      jump\t// in\n    tag_65:\n        /* \"#utility.yul\":1796:1867   */\n      tag_67\n        /* \"#utility.yul\":1860:1866   */\n      dup2\n        /* \"#utility.yul\":1855:1858   */\n      dup6\n        /* \"#utility.yul\":1796:1867   */\n      tag_68\n      jump\t// in\n    tag_67:\n        /* \"#utility.yul\":1789:1867   */\n      swap4\n      pop\n        /* \"#utility.yul\":1876:1928   */\n      tag_69\n        /* \"#utility.yul\":1921:1927   */\n      dup2\n        /* \"#utility.yul\":1916:1919   */\n      dup6\n        /* \"#utility.yul\":1909:1913   */\n      0x20\n        /* \"#utility.yul\":1902:1907   */\n      dup7\n        /* \"#utility.yul\":1898:1914   */\n      add\n        /* \"#utility.yul\":1876:1928   */\n      tag_70\n      jump\t// in\n    tag_69:\n        /* \"#utility.yul\":1953:1982   */\n      tag_71\n        /* \"#utility.yul\":1975:1981   */\n      dup2\n        /* \"#utility.yul\":1953:1982   */\n      tag_72\n      jump\t// in\n    tag_71:\n        /* \"#utility.yul\":1948:1951   */\n      dup5\n        /* \"#utility.yul\":1944:1983   */\n      add\n        /* \"#utility.yul\":1937:1983   */\n      swap2\n      pop\n        /* \"#utility.yul\":1717:1989   */\n      pop\n        /* \"#utility.yul\":1625:1989   */\n      swap3\n      swap2\n      pop\n      pop\n      jump\t// out\n        /* \"#utility.yul\":1995:2372   */\n    tag_73:\n        /* \"#utility.yul\":2101:2104   */\n      0x00\n        /* \"#utility.yul\":2129:2168   */\n      tag_75\n        /* \"#utility.yul\":2162:2167   */\n      dup3\n        /* \"#utility.yul\":2129:2168   */\n      tag_66\n      jump\t// in\n    tag_75:\n        /* \"#utility.yul\":2184:2273   */\n      tag_76\n        /* \"#utility.yul\":2266:2272   */\n      dup2\n        /* \"#utility.yul\":2261:2264   */\n      dup6\n        /* \"#utility.yul\":2184:2273   */\n      tag_77\n      jump\t// in\n    tag_76:\n        /* \"#utility.yul\":2177:2273   */\n      swap4\n      pop\n        /* \"#utility.yul\":2282:2334   */\n      tag_78\n        /* \"#utility.yul\":2327:2333   */\n      dup2\n        /* \"#utility.yul\":2322:2325   */\n      dup6\n        /* \"#utility.yul\":2315:2319   */\n      0x20\n        /* \"#utility.yul\":2308:2313   */\n      dup7\n        /* \"#utility.yul\":2304:2320   */\n      add\n        /* \"#utility.yul\":2282:2334   */\n      tag_70\n      jump\t// in\n    tag_78:\n        /* \"#utility.yul\":2359:2365   */\n      dup1\n        /* \"#utility.yul\":2354:2357   */\n      dup5\n        /* \"#utility.yul\":2350:2366   */\n      add\n        /* \"#utility.yul\":2343:2366   */\n      swap2\n      pop\n        /* \"#utility.yul\":2105:2372   */\n      pop\n        /* \"#utility.yul\":1995:2372   */\n      swap3\n      swap2\n      pop\n      pop\n      jump\t// out\n        /* \"#utility.yul\":2378:2813   */\n    tag_15:\n        /* \"#utility.yul\":2558:2561   */\n      0x00\n        /* \"#utility.yul\":2580:2675   */\n      tag_80\n        /* \"#utility.yul\":2671:2674   */\n      dup3\n        /* \"#utility.yul\":2662:2668   */\n      dup6\n        /* \"#utility.yul\":2580:2675   */\n      tag_73\n      jump\t// in\n    tag_80:\n        /* \"#utility.yul\":2573:2675   */\n      swap2\n      pop\n        /* \"#utility.yul\":2692:2787   */\n      tag_81\n        /* \"#utility.yul\":2783:2786   */\n      dup3\n        /* \"#utility.yul\":2774:2780   */\n      dup5\n        /* \"#utility.yul\":2692:2787   */\n      tag_73\n      jump\t// in\n    tag_81:\n        /* \"#utility.yul\":2685:2787   */\n      swap2\n      pop\n        /* \"#utility.yul\":2804:2807   */\n      dup2\n        /* \"#utility.yul\":2797:2807   */\n      swap1\n      pop\n        /* \"#utility.yul\":2378:2813   */\n      swap4\n      swap3\n      pop\n      pop\n      pop\n      jump\t// out\n        /* \"#utility.yul\":2819:3132   */\n    tag_12:\n        /* \"#utility.yul\":2932:2936   */\n      0x00\n        /* \"#utility.yul\":2970:2972   */\n      0x20\n        /* \"#utility.yul\":2959:2968   */\n      dup3\n        /* \"#utility.yul\":2955:2973   */\n      add\n        /* \"#utility.yul\":2947:2973   */\n      swap1\n      pop\n        /* \"#utility.yul\":3019:3028   */\n      dup2\n        /* \"#utility.yul\":3013:3017   */\n      dup2\n        /* \"#utility.yul\":3009:3029   */\n      sub\n        /* \"#utility.yul\":3005:3006   */\n      0x00\n        /* \"#utility.yul\":2994:3003   */\n      dup4\n        /* \"#utility.yul\":2990:3007   */\n      add\n        /* \"#utility.yul\":2983:3030   */\n      mstore\n        /* \"#utility.yul\":3047:3125   */\n      tag_83\n        /* \"#utility.yul\":3120:3124   */\n      dup2\n        /* \"#utility.yul\":3111:3117   */\n      dup5\n        /* \"#utility.yul\":3047:3125   */\n      tag_63\n      jump\t// in\n    tag_83:\n        /* \"#utility.yul\":3039:3125   */\n      swap1\n      pop\n        /* \"#utility.yul\":2819:3132   */\n      swap3\n      swap2\n      pop\n      pop\n      jump\t// out\n        /* \"#utility.yul\":3138:3267   */\n    tag_40:\n        /* \"#utility.yul\":3172:3178   */\n      0x00\n        /* \"#utility.yul\":3199:3219   */\n      tag_85\n      tag_86\n      jump\t// in\n    tag_85:\n        /* \"#utility.yul\":3189:3219   */\n      swap1\n      pop\n        /* \"#utility.yul\":3228:3261   */\n      tag_87\n        /* \"#utility.yul\":3256:3260   */\n      dup3\n        /* \"#utility.yul\":3248:3254   */\n      dup3\n        /* \"#utility.yul\":3228:3261   */\n      tag_88\n      jump\t// in\n    tag_87:\n        /* \"#utility.yul\":3138:3267   */\n      swap2\n      swap1\n      pop\n      jump\t// out\n        /* \"#utility.yul\":3273:3348   */\n    tag_86:\n        /* \"#utility.yul\":3306:3312   */\n      0x00\n        /* \"#utility.yul\":3339:3341   */\n      0x40\n        /* \"#utility.yul\":3333:3342   */\n      mload\n        /* \"#utility.yul\":3323:3342   */\n      swap1\n      pop\n        /* \"#utility.yul\":3273:3348   */\n      swap1\n      jump\t// out\n        /* \"#utility.yul\":3354:3662   */\n    tag_39:\n        /* \"#utility.yul\":3416:3420   */\n      0x00\n        /* \"#utility.yul\":3506:3524   */\n      0xffffffffffffffff\n        /* \"#utility.yul\":3498:3504   */\n      dup3\n        /* \"#utility.yul\":3495:3525   */\n      gt\n        /* \"#utility.yul\":3492:3548   */\n      iszero\n      tag_91\n      jumpi\n        /* \"#utility.yul\":3528:3546   */\n      tag_92\n      tag_93\n      jump\t// in\n    tag_92:\n        /* \"#utility.yul\":3492:3548   */\n    tag_91:\n        /* \"#utility.yul\":3566:3595   */\n      tag_94\n        /* \"#utility.yul\":3588:3594   */\n      dup3\n        /* \"#utility.yul\":3566:3595   */\n      tag_72\n      jump\t// in\n    tag_94:\n        /* \"#utility.yul\":3558:3595   */\n      swap1\n      pop\n        /* \"#utility.yul\":3650:3654   */\n      0x20\n        /* \"#utility.yul\":3644:3648   */\n      dup2\n        /* \"#utility.yul\":3640:3655   */\n      add\n        /* \"#utility.yul\":3632:3655   */\n      swap1\n      pop\n        /* \"#utility.yul\":3354:3662   */\n      swap2\n      swap1\n      pop\n      jump\t// out\n        /* \"#utility.yul\":3668:3767   */\n    tag_66:\n        /* \"#utility.yul\":3720:3726   */\n      0x00\n        /* \"#utility.yul\":3754:3759   */\n      dup2\n        /* \"#utility.yul\":3748:3760   */\n      mload\n        /* \"#utility.yul\":3738:3760   */\n      swap1\n      pop\n        /* \"#utility.yul\":3668:3767   */\n      swap2\n      swap1\n      pop\n      jump\t// out\n        /* \"#utility.yul\":3773:3942   */\n    tag_68:\n        /* \"#utility.yul\":3857:3868   */\n      0x00\n        /* \"#utility.yul\":3891:3897   */\n      dup3\n        /* \"#utility.yul\":3886:3889   */\n      dup3\n        /* \"#utility.yul\":3879:3898   */\n      mstore\n        /* \"#utility.yul\":3931:3935   */\n      0x20\n        /* \"#utility.yul\":3926:3929   */\n      dup3\n        /* \"#utility.yul\":3922:3936   */\n      add\n        /* \"#utility.yul\":3907:3936   */\n      swap1\n      pop\n        /* \"#utility.yul\":3773:3942   */\n      swap3\n      swap2\n      pop\n      pop\n      jump\t// out\n        /* \"#utility.yul\":3948:4096   */\n    tag_77:\n        /* \"#utility.yul\":4050:4061   */\n      0x00\n        /* \"#utility.yul\":4087:4090   */\n      dup2\n        /* \"#utility.yul\":4072:4090   */\n      swap1\n      pop\n        /* \"#utility.yul\":3948:4096   */\n      swap3\n      swap2\n      pop\n      pop\n      jump\t// out\n        /* \"#utility.yul\":4102:4256   */\n    tag_45:\n        /* \"#utility.yul\":4186:4192   */\n      dup3\n        /* \"#utility.yul\":4181:4184   */\n      dup2\n        /* \"#utility.yul\":4176:4179   */\n      dup4\n        /* \"#utility.yul\":4163:4193   */\n      calldatacopy\n        /* \"#utility.yul\":4248:4249   */\n      0x00\n        /* \"#utility.yul\":4239:4245   */\n      dup4\n        /* \"#utility.yul\":4234:4237   */\n      dup4\n        /* \"#utility.yul\":4230:4246   */\n      add\n        /* \"#utility.yul\":4223:4250   */\n      mstore\n        /* \"#utility.yul\":4102:4256   */\n      pop\n      pop\n      pop\n      jump\t// out\n        /* \"#utility.yul\":4262:4569   */\n    tag_70:\n        /* \"#utility.yul\":4330:4331   */\n      0x00\n        /* \"#utility.yul\":4340:4453   */\n    tag_100:\n        /* \"#utility.yul\":4354:4360   */\n      dup4\n        /* \"#utility.yul\":4351:4352   */\n      dup2\n        /* \"#utility.yul\":4348:4361   */\n      lt\n        /* \"#utility.yul\":4340:4453   */\n      iszero\n      tag_102\n      jumpi\n        /* \"#utility.yul\":4439:4440   */\n      dup1\n        /* \"#utility.yul\":4434:4437   */\n      dup3\n        /* \"#utility.yul\":4430:4441   */\n      add\n        /* \"#utility.yul\":4424:4442   */\n      mload\n        /* \"#utility.yul\":4420:4421   */\n      dup2\n        /* \"#utility.yul\":4415:4418   */\n      dup5\n        /* \"#utility.yul\":4411:4422   */\n      add\n        /* \"#utility.yul\":4404:4443   */\n      mstore\n        /* \"#utility.yul\":4376:4378   */\n      0x20\n        /* \"#utility.yul\":4373:4374   */\n      dup2\n        /* \"#utility.yul\":4369:4379   */\n      add\n        /* \"#utility.yul\":4364:4379   */\n      swap1\n      pop\n        /* \"#utility.yul\":4340:4453   */\n      jump(tag_100)\n    tag_102:\n        /* \"#utility.yul\":4471:4477   */\n      dup4\n        /* \"#utility.yul\":4468:4469   */\n      dup2\n        /* \"#utility.yul\":4465:4478   */\n      gt\n        /* \"#utility.yul\":4462:4563   */\n      iszero\n      tag_103\n      jumpi\n        /* \"#utility.yul\":4551:4552   */\n      0x00\n        /* \"#utility.yul\":4542:4548   */\n      dup5\n        /* \"#utility.yul\":4537:4540   */\n      dup5\n        /* \"#utility.yul\":4533:4549   */\n      add\n        /* \"#utility.yul\":4526:4553   */\n      mstore\n        /* \"#utility.yul\":4462:4563   */\n    tag_103:\n        /* \"#utility.yul\":4311:4569   */\n      pop\n        /* \"#utility.yul\":4262:4569   */\n      pop\n      pop\n      pop\n      jump\t// out\n        /* \"#utility.yul\":4575:4895   */\n    tag_19:\n        /* \"#utility.yul\":4619:4625   */\n      0x00\n        /* \"#utility.yul\":4656:4657   */\n      0x02\n        /* \"#utility.yul\":4650:4654   */\n      dup3\n        /* \"#utility.yul\":4646:4658   */\n      div\n        /* \"#utility.yul\":4636:4658   */\n      swap1\n      pop\n        /* \"#utility.yul\":4703:4704   */\n      0x01\n        /* \"#utility.yul\":4697:4701   */\n      dup3\n        /* \"#utility.yul\":4693:4705   */\n      and\n        /* \"#utility.yul\":4724:4742   */\n      dup1\n        /* \"#utility.yul\":4714:4795   */\n      tag_105\n      jumpi\n        /* \"#utility.yul\":4780:4784   */\n      0x7f\n        /* \"#utility.yul\":4772:4778   */\n      dup3\n        /* \"#utility.yul\":4768:4785   */\n      and\n        /* \"#utility.yul\":4758:4785   */\n      swap2\n      pop\n        /* \"#utility.yul\":4714:4795   */\n    tag_105:\n        /* \"#utility.yul\":4842:4844   */\n      0x20\n        /* \"#utility.yul\":4834:4840   */\n      dup3\n        /* \"#utility.yul\":4831:4845   */\n      lt\n        /* \"#utility.yul\":4811:4829   */\n      dup2\n        /* \"#utility.yul\":4808:4846   */\n      eq\n        /* \"#utility.yul\":4805:4889   */\n      iszero\n      tag_106\n      jumpi\n        /* \"#utility.yul\":4861:4879   */\n      tag_107\n      tag_108\n      jump\t// in\n    tag_107:\n        /* \"#utility.yul\":4805:4889   */\n    tag_106:\n        /* \"#utility.yul\":4626:4895   */\n      pop\n        /* \"#utility.yul\":4575:4895   */\n      swap2\n      swap1\n      pop\n      jump\t// out\n        /* \"#utility.yul\":4901:5182   */\n    tag_88:\n        /* \"#utility.yul\":4984:5011   */\n      tag_110\n        /* \"#utility.yul\":5006:5010   */\n      dup3\n        /* \"#utility.yul\":4984:5011   */\n      tag_72\n      jump\t// in\n    tag_110:\n        /* \"#utility.yul\":4976:4982   */\n      dup2\n        /* \"#utility.yul\":4972:5012   */\n      add\n        /* \"#utility.yul\":5114:5120   */\n      dup2\n        /* \"#utility.yul\":5102:5112   */\n      dup2\n        /* \"#utility.yul\":5099:5121   */\n      lt\n        /* \"#utility.yul\":5078:5096   */\n      0xffffffffffffffff\n        /* \"#utility.yul\":5066:5076   */\n      dup3\n        /* \"#utility.yul\":5063:5097   */\n      gt\n        /* \"#utility.yul\":5060:5122   */\n      or\n        /* \"#utility.yul\":5057:5145   */\n      iszero\n      tag_111\n      jumpi\n        /* \"#utility.yul\":5125:5143   */\n      tag_112\n      tag_93\n      jump\t// in\n    tag_112:\n        /* \"#utility.yul\":5057:5145   */\n    tag_111:\n        /* \"#utility.yul\":5165:5175   */\n      dup1\n        /* \"#utility.yul\":5161:5163   */\n      0x40\n        /* \"#utility.yul\":5154:5176   */\n      mstore\n        /* \"#utility.yul\":4944:5182   */\n      pop\n        /* \"#utility.yul\":4901:5182   */\n      pop\n      pop\n      jump\t// out\n        /* \"#utility.yul\":5188:5368   */\n    tag_108:\n        /* \"#utility.yul\":5236:5313   */\n      0x4e487b7100000000000000000000000000000000000000000000000000000000\n        /* \"#utility.yul\":5233:5234   */\n      0x00\n        /* \"#utility.yul\":5226:5314   */\n      mstore\n        /* \"#utility.yul\":5333:5337   */\n      0x22\n        /* \"#utility.yul\":5330:5331   */\n      0x04\n        /* \"#utility.yul\":5323:5338   */\n      mstore\n        /* \"#utility.yul\":5357:5361   */\n      0x24\n        /* \"#utility.yul\":5354:5355   */\n      0x00\n        /* \"#utility.yul\":5347:5362   */\n      revert\n        /* \"#utility.yul\":5374:5554   */\n    tag_93:\n        /* \"#utility.yul\":5422:5499   */\n      0x4e487b7100000000000000000000000000000000000000000000000000000000\n        /* \"#utility.yul\":5419:5420   */\n      0x00\n        /* \"#utility.yul\":5412:5500   */\n      mstore\n        /* \"#utility.yul\":5519:5523   */\n      0x41\n        /* \"#utility.yul\":5516:5517   */\n      0x04\n        /* \"#utility.yul\":5509:5524   */\n      mstore\n        /* \"#utility.yul\":5543:5547   */\n      0x24\n        /* \"#utility.yul\":5540:5541   */\n      0x00\n        /* \"#utility.yul\":5533:5548   */\n      revert\n        /* \"#utility.yul\":5560:5677   */\n    tag_50:\n        /* \"#utility.yul\":5669:5670   */\n      0x00\n        /* \"#utility.yul\":5666:5667   */\n      dup1\n        /* \"#utility.yul\":5659:5671   */\n      revert\n        /* \"#utility.yul\":5683:5800   */\n    tag_43:\n        /* \"#utility.yul\":5792:5793   */\n      0x00\n        /* \"#utility.yul\":5789:5790   */\n      dup1\n        /* \"#utility.yul\":5782:5794   */\n      revert\n        /* \"#utility.yul\":5806:5923   */\n    tag_58:\n        /* \"#utility.yul\":5915:5916   */\n      0x00\n        /* \"#utility.yul\":5912:5913   */\n      dup1\n        /* \"#utility.yul\":5905:5917   */\n      revert\n        /* \"#utility.yul\":5929:6046   */\n    tag_55:\n        /* \"#utility.yul\":6038:6039   */\n      0x00\n        /* \"#utility.yul\":6035:6036   */\n      dup1\n        /* \"#utility.yul\":6028:6040   */\n      revert\n        /* \"#utility.yul\":6052:6154   */\n    tag_72:\n        /* \"#utility.yul\":6093:6099   */\n      0x00\n        /* \"#utility.yul\":6144:6146   */\n      0x1f\n        /* \"#utility.yul\":6140:6147   */\n      not\n        /* \"#utility.yul\":6135:6137   */\n      0x1f\n        /* \"#utility.yul\":6128:6133   */\n      dup4\n        /* \"#utility.yul\":6124:6138   */\n      add\n        /* \"#utility.yul\":6120:6148   */\n      and\n        /* \"#utility.yul\":6110:6148   */\n      swap1\n      pop\n        /* \"#utility.yul\":6052:6154   */\n      swap2\n      swap1\n      pop\n      jump\t// out\n\n    auxdata: 0xa264697066735822122018aca526fc21827ba750302bc11d3a7867c49fe7ff95a90f97d51fc299c734ab64736f6c63430008070033\n}\n",
				"bytecode": {
					"linkReferences": {},
					"object": "608060405234801561001057600080fd5b50610555806100206000396000f3fe608060405234801561001057600080fd5b50600436106100365760003560e01c80630bd0eba01461003b578063c15bae8414610057575b600080fd5b61005560048036038101906100509190610252565b610075565b005b61005f6100b1565b60405161006c9190610358565b60405180910390f35b8181604051602001610088929190610334565b604051602081830303815290604052600090805190602001906100ac92919061013f565b505050565b600080546100be90610439565b80601f01602080910402602001604051908101604052809291908181526020018280546100ea90610439565b80156101375780601f1061010c57610100808354040283529160200191610137565b820191906000526020600020905b81548152906001019060200180831161011a57829003601f168201915b505050505081565b82805461014b90610439565b90600052602060002090601f01602090048101928261016d57600085556101b4565b82601f1061018657805160ff19168380011785556101b4565b828001600101855582156101b4579182015b828111156101b3578251825591602001919060010190610198565b5b5090506101c191906101c5565b5090565b5b808211156101de5760008160009055506001016101c6565b5090565b60006101f56101f08461039f565b61037a565b905082815260208101848484011115610211576102106104ff565b5b61021c8482856103f7565b509392505050565b600082601f830112610239576102386104fa565b5b81356102498482602086016101e2565b91505092915050565b6000806040838503121561026957610268610509565b5b600083013567ffffffffffffffff81111561028757610286610504565b5b61029385828601610224565b925050602083013567ffffffffffffffff8111156102b4576102b3610504565b5b6102c085828601610224565b9150509250929050565b60006102d5826103d0565b6102df81856103db565b93506102ef818560208601610406565b6102f88161050e565b840191505092915050565b600061030e826103d0565b61031881856103ec565b9350610328818560208601610406565b80840191505092915050565b60006103408285610303565b915061034c8284610303565b91508190509392505050565b6000602082019050818103600083015261037281846102ca565b905092915050565b6000610384610395565b9050610390828261046b565b919050565b6000604051905090565b600067ffffffffffffffff8211156103ba576103b96104cb565b5b6103c38261050e565b9050602081019050919050565b600081519050919050565b600082825260208201905092915050565b600081905092915050565b82818337600083830152505050565b60005b83811015610424578082015181840152602081019050610409565b83811115610433576000848401525b50505050565b6000600282049050600182168061045157607f821691505b602082108114156104655761046461049c565b5b50919050565b6104748261050e565b810181811067ffffffffffffffff82111715610493576104926104cb565b5b80604052505050565b7f4e487b7100000000000000000000000000000000000000000000000000000000600052602260045260246000fd5b7f4e487b7100000000000000000000000000000000000000000000000000000000600052604160045260246000fd5b600080fd5b600080fd5b600080fd5b600080fd5b6000601f19601f830116905091905056fea264697066735822122018aca526fc21827ba750302bc11d3a7867c49fe7ff95a90f97d51fc299c734ab64736f6c63430008070033",
					"opcodes": "PUSH1 0x80 PUSH1 0x40 MSTORE CALLVALUE DUP1 ISZERO PUSH2 0x10 JUMPI PUSH1 0x0 DUP1 REVERT JUMPDEST POP PUSH2 0x555 DUP1 PUSH2 0x20 PUSH1 0x0 CODECOPY PUSH1 0x0 RETURN INVALID PUSH1 0x80 PUSH1 0x40 MSTORE CALLVALUE DUP1 ISZERO PUSH2 0x10 JUMPI PUSH1 0x0 DUP1 REVERT JUMPDEST POP PUSH1 0x4 CALLDATASIZE LT PUSH2 0x36 JUMPI PUSH1 0x0 CALLDATALOAD PUSH1 0xE0 SHR DUP1 PUSH4 0xBD0EBA0 EQ PUSH2 0x3B JUMPI DUP1 PUSH4 0xC15BAE84 EQ PUSH2 0x57 JUMPI JUMPDEST PUSH1 0x0 DUP1 REVERT JUMPDEST PUSH2 0x55 PUSH1 0x4 DUP1 CALLDATASIZE SUB DUP2 ADD SWAP1 PUSH2 0x50 SWAP2 SWAP1 PUSH2 0x252 JUMP JUMPDEST PUSH2 0x75 JUMP JUMPDEST STOP JUMPDEST PUSH2 0x5F PUSH2 0xB1 JUMP JUMPDEST PUSH1 0x40 MLOAD PUSH2 0x6C SWAP2 SWAP1 PUSH2 0x358 JUMP JUMPDEST PUSH1 0x40 MLOAD DUP1 SWAP2 SUB SWAP1 RETURN JUMPDEST DUP2 DUP2 PUSH1 0x40 MLOAD PUSH1 0x20 ADD PUSH2 0x88 SWAP3 SWAP2 SWAP1 PUSH2 0x334 JUMP JUMPDEST PUSH1 0x40 MLOAD PUSH1 0x20 DUP2 DUP4 SUB SUB DUP2 MSTORE SWAP1 PUSH1 0x40 MSTORE PUSH1 0x0 SWAP1 DUP1 MLOAD SWAP1 PUSH1 0x20 ADD SWAP1 PUSH2 0xAC SWAP3 SWAP2 SWAP1 PUSH2 0x13F JUMP JUMPDEST POP POP POP JUMP JUMPDEST PUSH1 0x0 DUP1 SLOAD PUSH2 0xBE SWAP1 PUSH2 0x439 JUMP JUMPDEST DUP1 PUSH1 0x1F ADD PUSH1 0x20 DUP1 SWAP2 DIV MUL PUSH1 0x20 ADD PUSH1 0x40 MLOAD SWAP1 DUP2 ADD PUSH1 0x40 MSTORE DUP1 SWAP3 SWAP2 SWAP1 DUP2 DUP2 MSTORE PUSH1 0x20 ADD DUP3 DUP1 SLOAD PUSH2 0xEA SWAP1 PUSH2 0x439 JUMP JUMPDEST DUP1 ISZERO PUSH2 0x137 JUMPI DUP1 PUSH1 0x1F LT PUSH2 0x10C JUMPI PUSH2 0x100 DUP1 DUP4 SLOAD DIV MUL DUP4 MSTORE SWAP2 PUSH1 0x20 ADD SWAP2 PUSH2 0x137 JUMP JUMPDEST DUP3 ADD SWAP2 SWAP1 PUSH1 0x0 MSTORE PUSH1 0x20 PUSH1 0x0 KECCAK256 SWAP1 JUMPDEST DUP2 SLOAD DUP2 MSTORE SWAP1 PUSH1 0x1 ADD SWAP1 PUSH1 0x20 ADD DUP1 DUP4 GT PUSH2 0x11A JUMPI DUP3 SWAP1 SUB PUSH1 0x1F AND DUP3 ADD SWAP2 JUMPDEST POP POP POP POP POP DUP2 JUMP JUMPDEST DUP3 DUP1 SLOAD PUSH2 0x14B SWAP1 PUSH2 0x439 JUMP JUMPDEST SWAP1 PUSH1 0x0 MSTORE PUSH1 0x20 PUSH1 0x0 KECCAK256 SWAP1 PUSH1 0x1F ADD PUSH1 0x20 SWAP1 DIV DUP2 ADD SWAP3 DUP3 PUSH2 0x16D JUMPI PUSH1 0x0 DUP6 SSTORE PUSH2 0x1B4 JUMP JUMPDEST DUP3 PUSH1 0x1F LT PUSH2 0x186 JUMPI DUP1 MLOAD PUSH1 0xFF NOT AND DUP4 DUP1 ADD OR DUP6 SSTORE PUSH2 0x1B4 JUMP JUMPDEST DUP3 DUP1 ADD PUSH1 0x1 ADD DUP6 SSTORE DUP3 ISZERO PUSH2 0x1B4 JUMPI SWAP2 DUP3 ADD JUMPDEST DUP3 DUP2 GT ISZERO PUSH2 0x1B3 JUMPI DUP3 MLOAD DUP3 SSTORE SWAP2 PUSH1 0x20 ADD SWAP2 SWAP1 PUSH1 0x1 ADD SWAP1 PUSH2 0x198 JUMP JUMPDEST JUMPDEST POP SWAP1 POP PUSH2 0x1C1 SWAP2 SWAP1 PUSH2 0x1C5 JUMP JUMPDEST POP SWAP1 JUMP JUMPDEST JUMPDEST DUP1 DUP3 GT ISZERO PUSH2 0x1DE JUMPI PUSH1 0x0 DUP2 PUSH1 0x0 SWAP1 SSTORE POP PUSH1 0x1 ADD PUSH2 0x1C6 JUMP JUMPDEST POP SWAP1 JUMP JUMPDEST PUSH1 0x0 PUSH2 0x1F5 PUSH2 0x1F0 DUP5 PUSH2 0x39F JUMP JUMPDEST PUSH2 0x37A JUMP JUMPDEST SWAP1 POP DUP3 DUP2 MSTORE PUSH1 0x20 DUP2 ADD DUP5 DUP5 DUP5 ADD GT ISZERO PUSH2 0x211 JUMPI PUSH2 0x210 PUSH2 0x4FF JUMP JUMPDEST JUMPDEST PUSH2 0x21C DUP5 DUP3 DUP6 PUSH2 0x3F7 JUMP JUMPDEST POP SWAP4 SWAP3 POP POP POP JUMP JUMPDEST PUSH1 0x0 DUP3 PUSH1 0x1F DUP4 ADD SLT PUSH2 0x239 JUMPI PUSH2 0x238 PUSH2 0x4FA JUMP JUMPDEST JUMPDEST DUP2 CALLDATALOAD PUSH2 0x249 DUP5 DUP3 PUSH1 0x20 DUP7 ADD PUSH2 0x1E2 JUMP JUMPDEST SWAP2 POP POP SWAP3 SWAP2 POP POP JUMP JUMPDEST PUSH1 0x0 DUP1 PUSH1 0x40 DUP4 DUP6 SUB SLT ISZERO PUSH2 0x269 JUMPI PUSH2 0x268 PUSH2 0x509 JUMP JUMPDEST JUMPDEST PUSH1 0x0 DUP4 ADD CALLDATALOAD PUSH8 0xFFFFFFFFFFFFFFFF DUP2 GT ISZERO PUSH2 0x287 JUMPI PUSH2 0x286 PUSH2 0x504 JUMP JUMPDEST JUMPDEST PUSH2 0x293 DUP6 DUP3 DUP7 ADD PUSH2 0x224 JUMP JUMPDEST SWAP3 POP POP PUSH1 0x20 DUP4 ADD CALLDATALOAD PUSH8 0xFFFFFFFFFFFFFFFF DUP2 GT ISZERO PUSH2 0x2B4 JUMPI PUSH2 0x2B3 PUSH2 0x504 JUMP JUMPDEST JUMPDEST PUSH2 0x2C0 DUP6 DUP3 DUP7 ADD PUSH2 0x224 JUMP JUMPDEST SWAP2 POP POP SWAP3 POP SWAP3 SWAP1 POP JUMP JUMPDEST PUSH1 0x0 PUSH2 0x2D5 DUP3 PUSH2 0x3D0 JUMP JUMPDEST PUSH2 0x2DF DUP2 DUP6 PUSH2 0x3DB JUMP JUMPDEST SWAP4 POP PUSH2 0x2EF DUP2 DUP6 PUSH1 0x20 DUP7 ADD PUSH2 0x406 JUMP JUMPDEST PUSH2 0x2F8 DUP2 PUSH2 0x50E JUMP JUMPDEST DUP5 ADD SWAP2 POP POP SWAP3 SWAP2 POP POP JUMP JUMPDEST PUSH1 0x0 PUSH2 0x30E DUP3 PUSH2 0x3D0 JUMP JUMPDEST PUSH2 0x318 DUP2 DUP6 PUSH2 0x3EC JUMP JUMPDEST SWAP4 POP PUSH2 0x328 DUP2 DUP6 PUSH1 0x20 DUP7 ADD PUSH2 0x406 JUMP JUMPDEST DUP1 DUP5 ADD SWAP2 POP POP SWAP3 SWAP2 POP POP JUMP JUMPDEST PUSH1 0x0 PUSH2 0x340 DUP3 DUP6 PUSH2 0x303 JUMP JUMPDEST SWAP2 POP PUSH2 0x34C DUP3 DUP5 PUSH2 0x303 JUMP JUMPDEST SWAP2 POP DUP2 SWAP1 POP SWAP4 SWAP3 POP POP POP JUMP JUMPDEST PUSH1 0x0 PUSH1 0x20 DUP3 ADD SWAP1 POP DUP2 DUP2 SUB PUSH1 0x0 DUP4 ADD MSTORE PUSH2 0x372 DUP2 DUP5 PUSH2 0x2CA JUMP JUMPDEST SWAP1 POP SWAP3 SWAP2 POP POP JUMP JUMPDEST PUSH1 0x0 PUSH2 0x384 PUSH2 0x395 JUMP JUMPDEST SWAP1 POP PUSH2 0x390 DUP3 DUP3 PUSH2 0x46B JUMP JUMPDEST SWAP2 SWAP1 POP JUMP JUMPDEST PUSH1 0x0 PUSH1 0x40 MLOAD SWAP1 POP SWAP1 JUMP JUMPDEST PUSH1 0x0 PUSH8 0xFFFFFFFFFFFFFFFF DUP3 GT ISZERO PUSH2 0x3BA JUMPI PUSH2 0x3B9 PUSH2 0x4CB JUMP JUMPDEST JUMPDEST PUSH2 0x3C3 DUP3 PUSH2 0x50E JUMP JUMPDEST SWAP1 POP PUSH1 0x20 DUP2 ADD SWAP1 POP SWAP2 SWAP1 POP JUMP JUMPDEST PUSH1 0x0 DUP2 MLOAD SWAP1 POP SWAP2 SWAP1 POP JUMP JUMPDEST PUSH1 0x0 DUP3 DUP3 MSTORE PUSH1 0x20 DUP3 ADD SWAP1 POP SWAP3 SWAP2 POP POP JUMP JUMPDEST PUSH1 0x0 DUP2 SWAP1 POP SWAP3 SWAP2 POP POP JUMP JUMPDEST DUP3 DUP2 DUP4 CALLDATACOPY PUSH1 0x0 DUP4 DUP4 ADD MSTORE POP POP POP JUMP JUMPDEST PUSH1 0x0 JUMPDEST DUP4 DUP2 LT ISZERO PUSH2 0x424 JUMPI DUP1 DUP3 ADD MLOAD DUP2 DUP5 ADD MSTORE PUSH1 0x20 DUP2 ADD SWAP1 POP PUSH2 0x409 JUMP JUMPDEST DUP4 DUP2 GT ISZERO PUSH2 0x433 JUMPI PUSH1 0x0 DUP5 DUP5 ADD MSTORE JUMPDEST POP POP POP POP JUMP JUMPDEST PUSH1 0x0 PUSH1 0x2 DUP3 DIV SWAP1 POP PUSH1 0x1 DUP3 AND DUP1 PUSH2 0x451 JUMPI PUSH1 0x7F DUP3 AND SWAP2 POP JUMPDEST PUSH1 0x20 DUP3 LT DUP2 EQ ISZERO PUSH2 0x465 JUMPI PUSH2 0x464 PUSH2 0x49C JUMP JUMPDEST JUMPDEST POP SWAP2 SWAP1 POP JUMP JUMPDEST PUSH2 0x474 DUP3 PUSH2 0x50E JUMP JUMPDEST DUP2 ADD DUP2 DUP2 LT PUSH8 0xFFFFFFFFFFFFFFFF DUP3 GT OR ISZERO PUSH2 0x493 JUMPI PUSH2 0x492 PUSH2 0x4CB JUMP JUMPDEST JUMPDEST DUP1 PUSH1 0x40 MSTORE POP POP POP JUMP JUMPDEST PUSH32 0x4E487B7100000000000000000000000000000000000000000000000000000000 PUSH1 0x0 MSTORE PUSH1 0x22 PUSH1 0x4 MSTORE PUSH1 0x24 PUSH1 0x0 REVERT JUMPDEST PUSH32 0x4E487B7100000000000000000000000000000000000000000000000000000000 PUSH1 0x0 MSTORE PUSH1 0x41 PUSH1 0x4 MSTORE PUSH1 0x24 PUSH1 0x0 REVERT JUMPDEST PUSH1 0x0 DUP1 REVERT JUMPDEST PUSH1 0x0 DUP1 REVERT JUMPDEST PUSH1 0x0 DUP1 REVERT JUMPDEST PUSH1 0x0 DUP1 REVERT JUMPDEST PUSH1 0x0 PUSH1 0x1F NOT PUSH1 0x1F DUP4 ADD AND SWAP1 POP SWAP2 SWAP1 POP JUMP INVALID LOG2 PUSH5 0x6970667358 0x22 SLT KECCAK256 XOR 0xAC 0xA5 0x26 0xFC 0x21 DUP3 PUSH28 0xA750302BC11D3A7867C49FE7FF95A90F97D51FC299C734AB64736F6C PUSH4 0x43000807 STOP CALLER "
				},
				"gasEstimates": {
					"creation": {
						"codeDepositCost": "273000",
						"executionCost": "312",
						"totalCost": "273312"
					},
					"external": {
						"concatenate2(string,string)": "infinite",
						"str()": "infinite"
					}
				},
				"methodIdentifiers": {
					"concatenate2(string,string)": "0bd0eba0",
					"str()": "c15bae84"
				}
			},
			"storageLayout": {
				"storage": [
					{
						"astId": 3,
						"contract": "contracts/challenges/ch6.sol:Stuff",
						"label": "str",
						"offset": 0,
						"slot": "0",
						"type": "t_string_storage"
					}
				],
				"types": {
					"t_string_storage": {
						"encoding": "bytes",
						"label": "string",
						"numberOfBytes": "32"
					}
				}
			},
			"userdoc": {
				"kind": "user",
				"methods": {},
				"version": 1
			}
		}
	}
}