{
	"contracts/test2.sol": {
		"Property": {
			"abi": [
				{
					"inputs": [],
					"name": "getPrice",
					"outputs": [
						{
							"internalType": "int256",
							"name": "",
							"type": "int256"
						}
					],
					"stateMutability": "view",
					"type": "function"
				},
				{
					"inputs": [],
					"name": "location",
					"outputs": [
						{
							"internalType": "string",
							"name": "",
							"type": "string"
						}
					],
					"stateMutability": "view",
					"type": "function"
				},
				{
					"inputs": [
						{
							"internalType": "string",
							"name": "_location",
							"type": "string"
						}
					],
					"name": "setLocation",
					"outputs": [],
					"stateMutability": "nonpayable",
					"type": "function"
				},
				{
					"inputs": [
						{
							"internalType": "int256",
							"name": "_price",
							"type": "int256"
						}
					],
					"name": "setPrice",
					"outputs": [],
					"stateMutability": "nonpayable",
					"type": "function"
				}
			],
			"devdoc": {
				"kind": "dev",
				"methods": {},
				"version": 1
			},
			"evm": {
				"assembly": "    /* \"contracts/test2.sol\":67:440  contract Property {... */\n  mstore(0x40, 0x80)\n  callvalue\n  dup1\n  iszero\n  tag_1\n  jumpi\n  0x00\n  dup1\n  revert\ntag_1:\n  pop\n  dataSize(sub_0)\n  dup1\n  dataOffset(sub_0)\n  0x00\n  codecopy\n  0x00\n  return\nstop\n\nsub_0: assembly {\n        /* \"contracts/test2.sol\":67:440  contract Property {... */\n      mstore(0x40, 0x80)\n      callvalue\n      dup1\n      iszero\n      tag_1\n      jumpi\n      0x00\n      dup1\n      revert\n    tag_1:\n      pop\n      jumpi(tag_2, lt(calldatasize, 0x04))\n      shr(0xe0, calldataload(0x00))\n      dup1\n      0x516f279e\n      eq\n      tag_3\n      jumpi\n      dup1\n      0x827bfbdf\n      eq\n      tag_4\n      jumpi\n      dup1\n      0x98d5fdca\n      eq\n      tag_5\n      jumpi\n      dup1\n      0xf7a30806\n      eq\n      tag_6\n      jumpi\n    tag_2:\n      0x00\n      dup1\n      revert\n        /* \"contracts/test2.sol\":114:156  string constant public location = \"London\" */\n    tag_3:\n      tag_7\n      tag_8\n      jump\t// in\n    tag_7:\n      mload(0x40)\n      tag_9\n      swap2\n      swap1\n      tag_10\n      jump\t// in\n    tag_9:\n      mload(0x40)\n      dup1\n      swap2\n      sub\n      swap1\n      return\n        /* \"contracts/test2.sol\":369:438  function setLocation(string memory _location) public {... */\n    tag_4:\n      tag_11\n      0x04\n      dup1\n      calldatasize\n      sub\n      dup2\n      add\n      swap1\n      tag_12\n      swap2\n      swap1\n      tag_13\n      jump\t// in\n    tag_12:\n      tag_14\n      jump\t// in\n    tag_11:\n      stop\n        /* \"contracts/test2.sol\":289:363  function getPrice() public view returns(int) {... */\n    tag_5:\n      tag_15\n      tag_16\n      jump\t// in\n    tag_15:\n      mload(0x40)\n      tag_17\n      swap2\n      swap1\n      tag_18\n      jump\t// in\n    tag_17:\n      mload(0x40)\n      dup1\n      swap2\n      sub\n      swap1\n      return\n        /* \"contracts/test2.sol\":164:232  function setPrice(int _price) public {... */\n    tag_6:\n      tag_19\n      0x04\n      dup1\n      calldatasize\n      sub\n      dup2\n      add\n      swap1\n      tag_20\n      swap2\n      swap1\n      tag_21\n      jump\t// in\n    tag_20:\n      tag_22\n      jump\t// in\n    tag_19:\n      stop\n        /* \"contracts/test2.sol\":114:156  string constant public location = \"London\" */\n    tag_8:\n      mload(0x40)\n      dup1\n      0x40\n      add\n      0x40\n      mstore\n      dup1\n      0x06\n      dup2\n      mstore\n      0x20\n      add\n      0x4c6f6e646f6e0000000000000000000000000000000000000000000000000000\n      dup2\n      mstore\n      pop\n      dup2\n      jump\t// out\n        /* \"contracts/test2.sol\":369:438  function setLocation(string memory _location) public {... */\n    tag_14:\n      pop\n      jump\t// out\n        /* \"contracts/test2.sol\":289:363  function getPrice() public view returns(int) {... */\n    tag_16:\n        /* \"contracts/test2.sol\":329:332  int */\n      0x00\n        /* \"contracts/test2.sol\":351:356  price */\n      dup1\n      sload\n        /* \"contracts/test2.sol\":344:356  return price */\n      swap1\n      pop\n        /* \"contracts/test2.sol\":289:363  function getPrice() public view returns(int) {... */\n      swap1\n      jump\t// out\n        /* \"contracts/test2.sol\":164:232  function setPrice(int _price) public {... */\n    tag_22:\n        /* \"contracts/test2.sol\":219:225  _price */\n      dup1\n        /* \"contracts/test2.sol\":211:216  price */\n      0x00\n        /* \"contracts/test2.sol\":211:225  price = _price */\n      dup2\n      swap1\n      sstore\n      pop\n        /* \"contracts/test2.sol\":164:232  function setPrice(int _price) public {... */\n      pop\n      jump\t// out\n        /* \"#utility.yul\":7:419   */\n    tag_27:\n        /* \"#utility.yul\":85:90   */\n      0x00\n        /* \"#utility.yul\":110:176   */\n      tag_29\n        /* \"#utility.yul\":126:175   */\n      tag_30\n        /* \"#utility.yul\":168:174   */\n      dup5\n        /* \"#utility.yul\":126:175   */\n      tag_31\n      jump\t// in\n    tag_30:\n        /* \"#utility.yul\":110:176   */\n      tag_32\n      jump\t// in\n    tag_29:\n        /* \"#utility.yul\":101:176   */\n      swap1\n      pop\n        /* \"#utility.yul\":199:205   */\n      dup3\n        /* \"#utility.yul\":192:197   */\n      dup2\n        /* \"#utility.yul\":185:206   */\n      mstore\n        /* \"#utility.yul\":237:241   */\n      0x20\n        /* \"#utility.yul\":230:235   */\n      dup2\n        /* \"#utility.yul\":226:242   */\n      add\n        /* \"#utility.yul\":275:278   */\n      dup5\n        /* \"#utility.yul\":266:272   */\n      dup5\n        /* \"#utility.yul\":261:264   */\n      dup5\n        /* \"#utility.yul\":257:273   */\n      add\n        /* \"#utility.yul\":254:279   */\n      gt\n        /* \"#utility.yul\":251:363   */\n      iszero\n      tag_33\n      jumpi\n        /* \"#utility.yul\":282:361   */\n      tag_34\n      tag_35\n      jump\t// in\n    tag_34:\n        /* \"#utility.yul\":251:363   */\n    tag_33:\n        /* \"#utility.yul\":372:413   */\n      tag_36\n        /* \"#utility.yul\":406:412   */\n      dup5\n        /* \"#utility.yul\":401:404   */\n      dup3\n        /* \"#utility.yul\":396:399   */\n      dup6\n        /* \"#utility.yul\":372:413   */\n      tag_37\n      jump\t// in\n    tag_36:\n        /* \"#utility.yul\":91:419   */\n      pop\n        /* \"#utility.yul\":7:419   */\n      swap4\n      swap3\n      pop\n      pop\n      pop\n      jump\t// out\n        /* \"#utility.yul\":425:562   */\n    tag_38:\n        /* \"#utility.yul\":470:475   */\n      0x00\n        /* \"#utility.yul\":508:514   */\n      dup2\n        /* \"#utility.yul\":495:515   */\n      calldataload\n        /* \"#utility.yul\":486:515   */\n      swap1\n      pop\n        /* \"#utility.yul\":524:556   */\n      tag_40\n        /* \"#utility.yul\":550:555   */\n      dup2\n        /* \"#utility.yul\":524:556   */\n      tag_41\n      jump\t// in\n    tag_40:\n        /* \"#utility.yul\":425:562   */\n      swap3\n      swap2\n      pop\n      pop\n      jump\t// out\n        /* \"#utility.yul\":582:922   */\n    tag_42:\n        /* \"#utility.yul\":638:643   */\n      0x00\n        /* \"#utility.yul\":687:690   */\n      dup3\n        /* \"#utility.yul\":680:684   */\n      0x1f\n        /* \"#utility.yul\":672:678   */\n      dup4\n        /* \"#utility.yul\":668:685   */\n      add\n        /* \"#utility.yul\":664:691   */\n      slt\n        /* \"#utility.yul\":654:776   */\n      tag_44\n      jumpi\n        /* \"#utility.yul\":695:774   */\n      tag_45\n      tag_46\n      jump\t// in\n    tag_45:\n        /* \"#utility.yul\":654:776   */\n    tag_44:\n        /* \"#utility.yul\":812:818   */\n      dup2\n        /* \"#utility.yul\":799:819   */\n      calldataload\n        /* \"#utility.yul\":837:916   */\n      tag_47\n        /* \"#utility.yul\":912:915   */\n      dup5\n        /* \"#utility.yul\":904:910   */\n      dup3\n        /* \"#utility.yul\":897:901   */\n      0x20\n        /* \"#utility.yul\":889:895   */\n      dup7\n        /* \"#utility.yul\":885:902   */\n      add\n        /* \"#utility.yul\":837:916   */\n      tag_27\n      jump\t// in\n    tag_47:\n        /* \"#utility.yul\":828:916   */\n      swap2\n      pop\n        /* \"#utility.yul\":644:922   */\n      pop\n        /* \"#utility.yul\":582:922   */\n      swap3\n      swap2\n      pop\n      pop\n      jump\t// out\n        /* \"#utility.yul\":928:1255   */\n    tag_21:\n        /* \"#utility.yul\":986:992   */\n      0x00\n        /* \"#utility.yul\":1035:1037   */\n      0x20\n        /* \"#utility.yul\":1023:1032   */\n      dup3\n        /* \"#utility.yul\":1014:1021   */\n      dup5\n        /* \"#utility.yul\":1010:1033   */\n      sub\n        /* \"#utility.yul\":1006:1038   */\n      slt\n        /* \"#utility.yul\":1003:1122   */\n      iszero\n      tag_49\n      jumpi\n        /* \"#utility.yul\":1041:1120   */\n      tag_50\n      tag_51\n      jump\t// in\n    tag_50:\n        /* \"#utility.yul\":1003:1122   */\n    tag_49:\n        /* \"#utility.yul\":1161:1162   */\n      0x00\n        /* \"#utility.yul\":1186:1238   */\n      tag_52\n        /* \"#utility.yul\":1230:1237   */\n      dup5\n        /* \"#utility.yul\":1221:1227   */\n      dup3\n        /* \"#utility.yul\":1210:1219   */\n      dup6\n        /* \"#utility.yul\":1206:1228   */\n      add\n        /* \"#utility.yul\":1186:1238   */\n      tag_38\n      jump\t// in\n    tag_52:\n        /* \"#utility.yul\":1176:1238   */\n      swap2\n      pop\n        /* \"#utility.yul\":1132:1248   */\n      pop\n        /* \"#utility.yul\":928:1255   */\n      swap3\n      swap2\n      pop\n      pop\n      jump\t// out\n        /* \"#utility.yul\":1261:1770   */\n    tag_13:\n        /* \"#utility.yul\":1330:1336   */\n      0x00\n        /* \"#utility.yul\":1379:1381   */\n      0x20\n        /* \"#utility.yul\":1367:1376   */\n      dup3\n        /* \"#utility.yul\":1358:1365   */\n      dup5\n        /* \"#utility.yul\":1354:1377   */\n      sub\n        /* \"#utility.yul\":1350:1382   */\n      slt\n        /* \"#utility.yul\":1347:1466   */\n      iszero\n      tag_54\n      jumpi\n        /* \"#utility.yul\":1385:1464   */\n      tag_55\n      tag_51\n      jump\t// in\n    tag_55:\n        /* \"#utility.yul\":1347:1466   */\n    tag_54:\n        /* \"#utility.yul\":1533:1534   */\n      0x00\n        /* \"#utility.yul\":1522:1531   */\n      dup3\n        /* \"#utility.yul\":1518:1535   */\n      add\n        /* \"#utility.yul\":1505:1536   */\n      calldataload\n        /* \"#utility.yul\":1563:1581   */\n      0xffffffffffffffff\n        /* \"#utility.yul\":1555:1561   */\n      dup2\n        /* \"#utility.yul\":1552:1582   */\n      gt\n        /* \"#utility.yul\":1549:1666   */\n      iszero\n      tag_56\n      jumpi\n        /* \"#utility.yul\":1585:1664   */\n      tag_57\n      tag_58\n      jump\t// in\n    tag_57:\n        /* \"#utility.yul\":1549:1666   */\n    tag_56:\n        /* \"#utility.yul\":1690:1753   */\n      tag_59\n        /* \"#utility.yul\":1745:1752   */\n      dup5\n        /* \"#utility.yul\":1736:1742   */\n      dup3\n        /* \"#utility.yul\":1725:1734   */\n      dup6\n        /* \"#utility.yul\":1721:1743   */\n      add\n        /* \"#utility.yul\":1690:1753   */\n      tag_42\n      jump\t// in\n    tag_59:\n        /* \"#utility.yul\":1680:1753   */\n      swap2\n      pop\n        /* \"#utility.yul\":1476:1763   */\n      pop\n        /* \"#utility.yul\":1261:1770   */\n      swap3\n      swap2\n      pop\n      pop\n      jump\t// out\n        /* \"#utility.yul\":1776:1891   */\n    tag_60:\n        /* \"#utility.yul\":1861:1884   */\n      tag_62\n        /* \"#utility.yul\":1878:1883   */\n      dup2\n        /* \"#utility.yul\":1861:1884   */\n      tag_63\n      jump\t// in\n    tag_62:\n        /* \"#utility.yul\":1856:1859   */\n      dup3\n        /* \"#utility.yul\":1849:1885   */\n      mstore\n        /* \"#utility.yul\":1776:1891   */\n      pop\n      pop\n      jump\t// out\n        /* \"#utility.yul\":1897:2261   */\n    tag_64:\n        /* \"#utility.yul\":1985:1988   */\n      0x00\n        /* \"#utility.yul\":2013:2052   */\n      tag_66\n        /* \"#utility.yul\":2046:2051   */\n      dup3\n        /* \"#utility.yul\":2013:2052   */\n      tag_67\n      jump\t// in\n    tag_66:\n        /* \"#utility.yul\":2068:2139   */\n      tag_68\n        /* \"#utility.yul\":2132:2138   */\n      dup2\n        /* \"#utility.yul\":2127:2130   */\n      dup6\n        /* \"#utility.yul\":2068:2139   */\n      tag_69\n      jump\t// in\n    tag_68:\n        /* \"#utility.yul\":2061:2139   */\n      swap4\n      pop\n        /* \"#utility.yul\":2148:2200   */\n      tag_70\n        /* \"#utility.yul\":2193:2199   */\n      dup2\n        /* \"#utility.yul\":2188:2191   */\n      dup6\n        /* \"#utility.yul\":2181:2185   */\n      0x20\n        /* \"#utility.yul\":2174:2179   */\n      dup7\n        /* \"#utility.yul\":2170:2186   */\n      add\n        /* \"#utility.yul\":2148:2200   */\n      tag_71\n      jump\t// in\n    tag_70:\n        /* \"#utility.yul\":2225:2254   */\n      tag_72\n        /* \"#utility.yul\":2247:2253   */\n      dup2\n        /* \"#utility.yul\":2225:2254   */\n      tag_73\n      jump\t// in\n    tag_72:\n        /* \"#utility.yul\":2220:2223   */\n      dup5\n        /* \"#utility.yul\":2216:2255   */\n      add\n        /* \"#utility.yul\":2209:2255   */\n      swap2\n      pop\n        /* \"#utility.yul\":1989:2261   */\n      pop\n        /* \"#utility.yul\":1897:2261   */\n      swap3\n      swap2\n      pop\n      pop\n      jump\t// out\n        /* \"#utility.yul\":2267:2485   */\n    tag_18:\n        /* \"#utility.yul\":2358:2362   */\n      0x00\n        /* \"#utility.yul\":2396:2398   */\n      0x20\n        /* \"#utility.yul\":2385:2394   */\n      dup3\n        /* \"#utility.yul\":2381:2399   */\n      add\n        /* \"#utility.yul\":2373:2399   */\n      swap1\n      pop\n        /* \"#utility.yul\":2409:2478   */\n      tag_75\n        /* \"#utility.yul\":2475:2476   */\n      0x00\n        /* \"#utility.yul\":2464:2473   */\n      dup4\n        /* \"#utility.yul\":2460:2477   */\n      add\n        /* \"#utility.yul\":2451:2457   */\n      dup5\n        /* \"#utility.yul\":2409:2478   */\n      tag_60\n      jump\t// in\n    tag_75:\n        /* \"#utility.yul\":2267:2485   */\n      swap3\n      swap2\n      pop\n      pop\n      jump\t// out\n        /* \"#utility.yul\":2491:2804   */\n    tag_10:\n        /* \"#utility.yul\":2604:2608   */\n      0x00\n        /* \"#utility.yul\":2642:2644   */\n      0x20\n        /* \"#utility.yul\":2631:2640   */\n      dup3\n        /* \"#utility.yul\":2627:2645   */\n      add\n        /* \"#utility.yul\":2619:2645   */\n      swap1\n      pop\n        /* \"#utility.yul\":2691:2700   */\n      dup2\n        /* \"#utility.yul\":2685:2689   */\n      dup2\n        /* \"#utility.yul\":2681:2701   */\n      sub\n        /* \"#utility.yul\":2677:2678   */\n      0x00\n        /* \"#utility.yul\":2666:2675   */\n      dup4\n        /* \"#utility.yul\":2662:2679   */\n      add\n        /* \"#utility.yul\":2655:2702   */\n      mstore\n        /* \"#utility.yul\":2719:2797   */\n      tag_77\n        /* \"#utility.yul\":2792:2796   */\n      dup2\n        /* \"#utility.yul\":2783:2789   */\n      dup5\n        /* \"#utility.yul\":2719:2797   */\n      tag_64\n      jump\t// in\n    tag_77:\n        /* \"#utility.yul\":2711:2797   */\n      swap1\n      pop\n        /* \"#utility.yul\":2491:2804   */\n      swap3\n      swap2\n      pop\n      pop\n      jump\t// out\n        /* \"#utility.yul\":2810:2939   */\n    tag_32:\n        /* \"#utility.yul\":2844:2850   */\n      0x00\n        /* \"#utility.yul\":2871:2891   */\n      tag_79\n      tag_80\n      jump\t// in\n    tag_79:\n        /* \"#utility.yul\":2861:2891   */\n      swap1\n      pop\n        /* \"#utility.yul\":2900:2933   */\n      tag_81\n        /* \"#utility.yul\":2928:2932   */\n      dup3\n        /* \"#utility.yul\":2920:2926   */\n      dup3\n        /* \"#utility.yul\":2900:2933   */\n      tag_82\n      jump\t// in\n    tag_81:\n        /* \"#utility.yul\":2810:2939   */\n      swap2\n      swap1\n      pop\n      jump\t// out\n        /* \"#utility.yul\":2945:3020   */\n    tag_80:\n        /* \"#utility.yul\":2978:2984   */\n      0x00\n        /* \"#utility.yul\":3011:3013   */\n      0x40\n        /* \"#utility.yul\":3005:3014   */\n      mload\n        /* \"#utility.yul\":2995:3014   */\n      swap1\n      pop\n        /* \"#utility.yul\":2945:3020   */\n      swap1\n      jump\t// out\n        /* \"#utility.yul\":3026:3334   */\n    tag_31:\n        /* \"#utility.yul\":3088:3092   */\n      0x00\n        /* \"#utility.yul\":3178:3196   */\n      0xffffffffffffffff\n        /* \"#utility.yul\":3170:3176   */\n      dup3\n        /* \"#utility.yul\":3167:3197   */\n      gt\n        /* \"#utility.yul\":3164:3220   */\n      iszero\n      tag_85\n      jumpi\n        /* \"#utility.yul\":3200:3218   */\n      tag_86\n      tag_87\n      jump\t// in\n    tag_86:\n        /* \"#utility.yul\":3164:3220   */\n    tag_85:\n        /* \"#utility.yul\":3238:3267   */\n      tag_88\n        /* \"#utility.yul\":3260:3266   */\n      dup3\n        /* \"#utility.yul\":3238:3267   */\n      tag_73\n      jump\t// in\n    tag_88:\n        /* \"#utility.yul\":3230:3267   */\n      swap1\n      pop\n        /* \"#utility.yul\":3322:3326   */\n      0x20\n        /* \"#utility.yul\":3316:3320   */\n      dup2\n        /* \"#utility.yul\":3312:3327   */\n      add\n        /* \"#utility.yul\":3304:3327   */\n      swap1\n      pop\n        /* \"#utility.yul\":3026:3334   */\n      swap2\n      swap1\n      pop\n      jump\t// out\n        /* \"#utility.yul\":3340:3439   */\n    tag_67:\n        /* \"#utility.yul\":3392:3398   */\n      0x00\n        /* \"#utility.yul\":3426:3431   */\n      dup2\n        /* \"#utility.yul\":3420:3432   */\n      mload\n        /* \"#utility.yul\":3410:3432   */\n      swap1\n      pop\n        /* \"#utility.yul\":3340:3439   */\n      swap2\n      swap1\n      pop\n      jump\t// out\n        /* \"#utility.yul\":3445:3614   */\n    tag_69:\n        /* \"#utility.yul\":3529:3540   */\n      0x00\n        /* \"#utility.yul\":3563:3569   */\n      dup3\n        /* \"#utility.yul\":3558:3561   */\n      dup3\n        /* \"#utility.yul\":3551:3570   */\n      mstore\n        /* \"#utility.yul\":3603:3607   */\n      0x20\n        /* \"#utility.yul\":3598:3601   */\n      dup3\n        /* \"#utility.yul\":3594:3608   */\n      add\n        /* \"#utility.yul\":3579:3608   */\n      swap1\n      pop\n        /* \"#utility.yul\":3445:3614   */\n      swap3\n      swap2\n      pop\n      pop\n      jump\t// out\n        /* \"#utility.yul\":3620:3696   */\n    tag_63:\n        /* \"#utility.yul\":3656:3663   */\n      0x00\n        /* \"#utility.yul\":3685:3690   */\n      dup2\n        /* \"#utility.yul\":3674:3690   */\n      swap1\n      pop\n        /* \"#utility.yul\":3620:3696   */\n      swap2\n      swap1\n      pop\n      jump\t// out\n        /* \"#utility.yul\":3702:3856   */\n    tag_37:\n        /* \"#utility.yul\":3786:3792   */\n      dup3\n        /* \"#utility.yul\":3781:3784   */\n      dup2\n        /* \"#utility.yul\":3776:3779   */\n      dup4\n        /* \"#utility.yul\":3763:3793   */\n      calldatacopy\n        /* \"#utility.yul\":3848:3849   */\n      0x00\n        /* \"#utility.yul\":3839:3845   */\n      dup4\n        /* \"#utility.yul\":3834:3837   */\n      dup4\n        /* \"#utility.yul\":3830:3846   */\n      add\n        /* \"#utility.yul\":3823:3850   */\n      mstore\n        /* \"#utility.yul\":3702:3856   */\n      pop\n      pop\n      pop\n      jump\t// out\n        /* \"#utility.yul\":3862:4169   */\n    tag_71:\n        /* \"#utility.yul\":3930:3931   */\n      0x00\n        /* \"#utility.yul\":3940:4053   */\n    tag_94:\n        /* \"#utility.yul\":3954:3960   */\n      dup4\n        /* \"#utility.yul\":3951:3952   */\n      dup2\n        /* \"#utility.yul\":3948:3961   */\n      lt\n        /* \"#utility.yul\":3940:4053   */\n      iszero\n      tag_96\n      jumpi\n        /* \"#utility.yul\":4039:4040   */\n      dup1\n        /* \"#utility.yul\":4034:4037   */\n      dup3\n        /* \"#utility.yul\":4030:4041   */\n      add\n        /* \"#utility.yul\":4024:4042   */\n      mload\n        /* \"#utility.yul\":4020:4021   */\n      dup2\n        /* \"#utility.yul\":4015:4018   */\n      dup5\n        /* \"#utility.yul\":4011:4022   */\n      add\n        /* \"#utility.yul\":4004:4043   */\n      mstore\n        /* \"#utility.yul\":3976:3978   */\n      0x20\n        /* \"#utility.yul\":3973:3974   */\n      dup2\n        /* \"#utility.yul\":3969:3979   */\n      add\n        /* \"#utility.yul\":3964:3979   */\n      swap1\n      pop\n        /* \"#utility.yul\":3940:4053   */\n      jump(tag_94)\n    tag_96:\n        /* \"#utility.yul\":4071:4077   */\n      dup4\n        /* \"#utility.yul\":4068:4069   */\n      dup2\n        /* \"#utility.yul\":4065:4078   */\n      gt\n        /* \"#utility.yul\":4062:4163   */\n      iszero\n      tag_97\n      jumpi\n        /* \"#utility.yul\":4151:4152   */\n      0x00\n        /* \"#utility.yul\":4142:4148   */\n      dup5\n        /* \"#utility.yul\":4137:4140   */\n      dup5\n        /* \"#utility.yul\":4133:4149   */\n      add\n        /* \"#utility.yul\":4126:4153   */\n      mstore\n        /* \"#utility.yul\":4062:4163   */\n    tag_97:\n        /* \"#utility.yul\":3911:4169   */\n      pop\n        /* \"#utility.yul\":3862:4169   */\n      pop\n      pop\n      pop\n      jump\t// out\n        /* \"#utility.yul\":4175:4456   */\n    tag_82:\n        /* \"#utility.yul\":4258:4285   */\n      tag_99\n        /* \"#utility.yul\":4280:4284   */\n      dup3\n        /* \"#utility.yul\":4258:4285   */\n      tag_73\n      jump\t// in\n    tag_99:\n        /* \"#utility.yul\":4250:4256   */\n      dup2\n        /* \"#utility.yul\":4246:4286   */\n      add\n        /* \"#utility.yul\":4388:4394   */\n      dup2\n        /* \"#utility.yul\":4376:4386   */\n      dup2\n        /* \"#utility.yul\":4373:4395   */\n      lt\n        /* \"#utility.yul\":4352:4370   */\n      0xffffffffffffffff\n        /* \"#utility.yul\":4340:4350   */\n      dup3\n        /* \"#utility.yul\":4337:4371   */\n      gt\n        /* \"#utility.yul\":4334:4396   */\n      or\n        /* \"#utility.yul\":4331:4419   */\n      iszero\n      tag_100\n      jumpi\n        /* \"#utility.yul\":4399:4417   */\n      tag_101\n      tag_87\n      jump\t// in\n    tag_101:\n        /* \"#utility.yul\":4331:4419   */\n    tag_100:\n        /* \"#utility.yul\":4439:4449   */\n      dup1\n        /* \"#utility.yul\":4435:4437   */\n      0x40\n        /* \"#utility.yul\":4428:4450   */\n      mstore\n        /* \"#utility.yul\":4218:4456   */\n      pop\n        /* \"#utility.yul\":4175:4456   */\n      pop\n      pop\n      jump\t// out\n        /* \"#utility.yul\":4462:4642   */\n    tag_87:\n        /* \"#utility.yul\":4510:4587   */\n      0x4e487b7100000000000000000000000000000000000000000000000000000000\n        /* \"#utility.yul\":4507:4508   */\n      0x00\n        /* \"#utility.yul\":4500:4588   */\n      mstore\n        /* \"#utility.yul\":4607:4611   */\n      0x41\n        /* \"#utility.yul\":4604:4605   */\n      0x04\n        /* \"#utility.yul\":4597:4612   */\n      mstore\n        /* \"#utility.yul\":4631:4635   */\n      0x24\n        /* \"#utility.yul\":4628:4629   */\n      0x00\n        /* \"#utility.yul\":4621:4636   */\n      revert\n        /* \"#utility.yul\":4648:4765   */\n    tag_46:\n        /* \"#utility.yul\":4757:4758   */\n      0x00\n        /* \"#utility.yul\":4754:4755   */\n      dup1\n        /* \"#utility.yul\":4747:4759   */\n      revert\n        /* \"#utility.yul\":4771:4888   */\n    tag_35:\n        /* \"#utility.yul\":4880:4881   */\n      0x00\n        /* \"#utility.yul\":4877:4878   */\n      dup1\n        /* \"#utility.yul\":4870:4882   */\n      revert\n        /* \"#utility.yul\":4894:5011   */\n    tag_58:\n        /* \"#utility.yul\":5003:5004   */\n      0x00\n        /* \"#utility.yul\":5000:5001   */\n      dup1\n        /* \"#utility.yul\":4993:5005   */\n      revert\n        /* \"#utility.yul\":5017:5134   */\n    tag_51:\n        /* \"#utility.yul\":5126:5127   */\n      0x00\n        /* \"#utility.yul\":5123:5124   */\n      dup1\n        /* \"#utility.yul\":5116:5128   */\n      revert\n        /* \"#utility.yul\":5140:5242   */\n    tag_73:\n        /* \"#utility.yul\":5181:5187   */\n      0x00\n        /* \"#utility.yul\":5232:5234   */\n      0x1f\n        /* \"#utility.yul\":5228:5235   */\n      not\n        /* \"#utility.yul\":5223:5225   */\n      0x1f\n        /* \"#utility.yul\":5216:5221   */\n      dup4\n        /* \"#utility.yul\":5212:5226   */\n      add\n        /* \"#utility.yul\":5208:5236   */\n      and\n        /* \"#utility.yul\":5198:5236   */\n      swap1\n      pop\n        /* \"#utility.yul\":5140:5242   */\n      swap2\n      swap1\n      pop\n      jump\t// out\n        /* \"#utility.yul\":5248:5368   */\n    tag_41:\n        /* \"#utility.yul\":5320:5343   */\n      tag_109\n        /* \"#utility.yul\":5337:5342   */\n      dup2\n        /* \"#utility.yul\":5320:5343   */\n      tag_63\n      jump\t// in\n    tag_109:\n        /* \"#utility.yul\":5313:5318   */\n      dup2\n        /* \"#utility.yul\":5310:5344   */\n      eq\n        /* \"#utility.yul\":5300:5362   */\n      tag_110\n      jumpi\n        /* \"#utility.yul\":5358:5359   */\n      0x00\n        /* \"#utility.yul\":5355:5356   */\n      dup1\n        /* \"#utility.yul\":5348:5360   */\n      revert\n        /* \"#utility.yul\":5300:5362   */\n    tag_110:\n        /* \"#utility.yul\":5248:5368   */\n      pop\n      jump\t// out\n\n    auxdata: 0xa2646970667358221220126dc7e7ae99d71936903512c45344a0687fff5589e31b7c425ac20d069bbc3064736f6c63430008070033\n}\n",
				"bytecode": {
					"linkReferences": {},
					"object": "608060405234801561001057600080fd5b50610424806100206000396000f3fe608060405234801561001057600080fd5b506004361061004c5760003560e01c8063516f279e14610051578063827bfbdf1461006f57806398d5fdca1461008b578063f7a30806146100a9575b600080fd5b6100596100c5565b6040516100669190610272565b60405180910390f35b610089600480360381019061008491906101c6565b6100fe565b005b610093610101565b6040516100a09190610257565b60405180910390f35b6100c360048036038101906100be9190610199565b61010a565b005b6040518060400160405280600681526020017f4c6f6e646f6e000000000000000000000000000000000000000000000000000081525081565b50565b60008054905090565b8060008190555050565b6000610127610122846102b9565b610294565b905082815260208101848484011115610143576101426103b7565b5b61014e848285610310565b509392505050565b600081359050610165816103d7565b92915050565b600082601f8301126101805761017f6103b2565b5b8135610190848260208601610114565b91505092915050565b6000602082840312156101af576101ae6103c1565b5b60006101bd84828501610156565b91505092915050565b6000602082840312156101dc576101db6103c1565b5b600082013567ffffffffffffffff8111156101fa576101f96103bc565b5b6102068482850161016b565b91505092915050565b61021881610306565b82525050565b6000610229826102ea565b61023381856102f5565b935061024381856020860161031f565b61024c816103c6565b840191505092915050565b600060208201905061026c600083018461020f565b92915050565b6000602082019050818103600083015261028c818461021e565b905092915050565b600061029e6102af565b90506102aa8282610352565b919050565b6000604051905090565b600067ffffffffffffffff8211156102d4576102d3610383565b5b6102dd826103c6565b9050602081019050919050565b600081519050919050565b600082825260208201905092915050565b6000819050919050565b82818337600083830152505050565b60005b8381101561033d578082015181840152602081019050610322565b8381111561034c576000848401525b50505050565b61035b826103c6565b810181811067ffffffffffffffff8211171561037a57610379610383565b5b80604052505050565b7f4e487b7100000000000000000000000000000000000000000000000000000000600052604160045260246000fd5b600080fd5b600080fd5b600080fd5b600080fd5b6000601f19601f8301169050919050565b6103e081610306565b81146103eb57600080fd5b5056fea2646970667358221220126dc7e7ae99d71936903512c45344a0687fff5589e31b7c425ac20d069bbc3064736f6c63430008070033",
					"opcodes": "PUSH1 0x80 PUSH1 0x40 MSTORE CALLVALUE DUP1 ISZERO PUSH2 0x10 JUMPI PUSH1 0x0 DUP1 REVERT JUMPDEST POP PUSH2 0x424 DUP1 PUSH2 0x20 PUSH1 0x0 CODECOPY PUSH1 0x0 RETURN INVALID PUSH1 0x80 PUSH1 0x40 MSTORE CALLVALUE DUP1 ISZERO PUSH2 0x10 JUMPI PUSH1 0x0 DUP1 REVERT JUMPDEST POP PUSH1 0x4 CALLDATASIZE LT PUSH2 0x4C JUMPI PUSH1 0x0 CALLDATALOAD PUSH1 0xE0 SHR DUP1 PUSH4 0x516F279E EQ PUSH2 0x51 JUMPI DUP1 PUSH4 0x827BFBDF EQ PUSH2 0x6F JUMPI DUP1 PUSH4 0x98D5FDCA EQ PUSH2 0x8B JUMPI DUP1 PUSH4 0xF7A30806 EQ PUSH2 0xA9 JUMPI JUMPDEST PUSH1 0x0 DUP1 REVERT JUMPDEST PUSH2 0x59 PUSH2 0xC5 JUMP JUMPDEST PUSH1 0x40 MLOAD PUSH2 0x66 SWAP2 SWAP1 PUSH2 0x272 JUMP JUMPDEST PUSH1 0x40 MLOAD DUP1 SWAP2 SUB SWAP1 RETURN JUMPDEST PUSH2 0x89 PUSH1 0x4 DUP1 CALLDATASIZE SUB DUP2 ADD SWAP1 PUSH2 0x84 SWAP2 SWAP1 PUSH2 0x1C6 JUMP JUMPDEST PUSH2 0xFE JUMP JUMPDEST STOP JUMPDEST PUSH2 0x93 PUSH2 0x101 JUMP JUMPDEST PUSH1 0x40 MLOAD PUSH2 0xA0 SWAP2 SWAP1 PUSH2 0x257 JUMP JUMPDEST PUSH1 0x40 MLOAD DUP1 SWAP2 SUB SWAP1 RETURN JUMPDEST PUSH2 0xC3 PUSH1 0x4 DUP1 CALLDATASIZE SUB DUP2 ADD SWAP1 PUSH2 0xBE SWAP2 SWAP1 PUSH2 0x199 JUMP JUMPDEST PUSH2 0x10A JUMP JUMPDEST STOP JUMPDEST PUSH1 0x40 MLOAD DUP1 PUSH1 0x40 ADD PUSH1 0x40 MSTORE DUP1 PUSH1 0x6 DUP2 MSTORE PUSH1 0x20 ADD PUSH32 0x4C6F6E646F6E0000000000000000000000000000000000000000000000000000 DUP2 MSTORE POP DUP2 JUMP JUMPDEST POP JUMP JUMPDEST PUSH1 0x0 DUP1 SLOAD SWAP1 POP SWAP1 JUMP JUMPDEST DUP1 PUSH1 0x0 DUP2 SWAP1 SSTORE POP POP JUMP JUMPDEST PUSH1 0x0 PUSH2 0x127 PUSH2 0x122 DUP5 PUSH2 0x2B9 JUMP JUMPDEST PUSH2 0x294 JUMP JUMPDEST SWAP1 POP DUP3 DUP2 MSTORE PUSH1 0x20 DUP2 ADD DUP5 DUP5 DUP5 ADD GT ISZERO PUSH2 0x143 JUMPI PUSH2 0x142 PUSH2 0x3B7 JUMP JUMPDEST JUMPDEST PUSH2 0x14E DUP5 DUP3 DUP6 PUSH2 0x310 JUMP JUMPDEST POP SWAP4 SWAP3 POP POP POP JUMP JUMPDEST PUSH1 0x0 DUP2 CALLDATALOAD SWAP1 POP PUSH2 0x165 DUP2 PUSH2 0x3D7 JUMP JUMPDEST SWAP3 SWAP2 POP POP JUMP JUMPDEST PUSH1 0x0 DUP3 PUSH1 0x1F DUP4 ADD SLT PUSH2 0x180 JUMPI PUSH2 0x17F PUSH2 0x3B2 JUMP JUMPDEST JUMPDEST DUP2 CALLDATALOAD PUSH2 0x190 DUP5 DUP3 PUSH1 0x20 DUP7 ADD PUSH2 0x114 JUMP JUMPDEST SWAP2 POP POP SWAP3 SWAP2 POP POP JUMP JUMPDEST PUSH1 0x0 PUSH1 0x20 DUP3 DUP5 SUB SLT ISZERO PUSH2 0x1AF JUMPI PUSH2 0x1AE PUSH2 0x3C1 JUMP JUMPDEST JUMPDEST PUSH1 0x0 PUSH2 0x1BD DUP5 DUP3 DUP6 ADD PUSH2 0x156 JUMP JUMPDEST SWAP2 POP POP SWAP3 SWAP2 POP POP JUMP JUMPDEST PUSH1 0x0 PUSH1 0x20 DUP3 DUP5 SUB SLT ISZERO PUSH2 0x1DC JUMPI PUSH2 0x1DB PUSH2 0x3C1 JUMP JUMPDEST JUMPDEST PUSH1 0x0 DUP3 ADD CALLDATALOAD PUSH8 0xFFFFFFFFFFFFFFFF DUP2 GT ISZERO PUSH2 0x1FA JUMPI PUSH2 0x1F9 PUSH2 0x3BC JUMP JUMPDEST JUMPDEST PUSH2 0x206 DUP5 DUP3 DUP6 ADD PUSH2 0x16B JUMP JUMPDEST SWAP2 POP POP SWAP3 SWAP2 POP POP JUMP JUMPDEST PUSH2 0x218 DUP2 PUSH2 0x306 JUMP JUMPDEST DUP3 MSTORE POP POP JUMP JUMPDEST PUSH1 0x0 PUSH2 0x229 DUP3 PUSH2 0x2EA JUMP JUMPDEST PUSH2 0x233 DUP2 DUP6 PUSH2 0x2F5 JUMP JUMPDEST SWAP4 POP PUSH2 0x243 DUP2 DUP6 PUSH1 0x20 DUP7 ADD PUSH2 0x31F JUMP JUMPDEST PUSH2 0x24C DUP2 PUSH2 0x3C6 JUMP JUMPDEST DUP5 ADD SWAP2 POP POP SWAP3 SWAP2 POP POP JUMP JUMPDEST PUSH1 0x0 PUSH1 0x20 DUP3 ADD SWAP1 POP PUSH2 0x26C PUSH1 0x0 DUP4 ADD DUP5 PUSH2 0x20F JUMP JUMPDEST SWAP3 SWAP2 POP POP JUMP JUMPDEST PUSH1 0x0 PUSH1 0x20 DUP3 ADD SWAP1 POP DUP2 DUP2 SUB PUSH1 0x0 DUP4 ADD MSTORE PUSH2 0x28C DUP2 DUP5 PUSH2 0x21E JUMP JUMPDEST SWAP1 POP SWAP3 SWAP2 POP POP JUMP JUMPDEST PUSH1 0x0 PUSH2 0x29E PUSH2 0x2AF JUMP JUMPDEST SWAP1 POP PUSH2 0x2AA DUP3 DUP3 PUSH2 0x352 JUMP JUMPDEST SWAP2 SWAP1 POP JUMP JUMPDEST PUSH1 0x0 PUSH1 0x40 MLOAD SWAP1 POP SWAP1 JUMP JUMPDEST PUSH1 0x0 PUSH8 0xFFFFFFFFFFFFFFFF DUP3 GT ISZERO PUSH2 0x2D4 JUMPI PUSH2 0x2D3 PUSH2 0x383 JUMP JUMPDEST JUMPDEST PUSH2 0x2DD DUP3 PUSH2 0x3C6 JUMP JUMPDEST SWAP1 POP PUSH1 0x20 DUP2 ADD SWAP1 POP SWAP2 SWAP1 POP JUMP JUMPDEST PUSH1 0x0 DUP2 MLOAD SWAP1 POP SWAP2 SWAP1 POP JUMP JUMPDEST PUSH1 0x0 DUP3 DUP3 MSTORE PUSH1 0x20 DUP3 ADD SWAP1 POP SWAP3 SWAP2 POP POP JUMP JUMPDEST PUSH1 0x0 DUP2 SWAP1 POP SWAP2 SWAP1 POP JUMP JUMPDEST DUP3 DUP2 DUP4 CALLDATACOPY PUSH1 0x0 DUP4 DUP4 ADD MSTORE POP POP POP JUMP JUMPDEST PUSH1 0x0 JUMPDEST DUP4 DUP2 LT ISZERO PUSH2 0x33D JUMPI DUP1 DUP3 ADD MLOAD DUP2 DUP5 ADD MSTORE PUSH1 0x20 DUP2 ADD SWAP1 POP PUSH2 0x322 JUMP JUMPDEST DUP4 DUP2 GT ISZERO PUSH2 0x34C JUMPI PUSH1 0x0 DUP5 DUP5 ADD MSTORE JUMPDEST POP POP POP POP JUMP JUMPDEST PUSH2 0x35B DUP3 PUSH2 0x3C6 JUMP JUMPDEST DUP2 ADD DUP2 DUP2 LT PUSH8 0xFFFFFFFFFFFFFFFF DUP3 GT OR ISZERO PUSH2 0x37A JUMPI PUSH2 0x379 PUSH2 0x383 JUMP JUMPDEST JUMPDEST DUP1 PUSH1 0x40 MSTORE POP POP POP JUMP JUMPDEST PUSH32 0x4E487B7100000000000000000000000000000000000000000000000000000000 PUSH1 0x0 MSTORE PUSH1 0x41 PUSH1 0x4 MSTORE PUSH1 0x24 PUSH1 0x0 REVERT JUMPDEST PUSH1 0x0 DUP1 REVERT JUMPDEST PUSH1 0x0 DUP1 REVERT JUMPDEST PUSH1 0x0 DUP1 REVERT JUMPDEST PUSH1 0x0 DUP1 REVERT JUMPDEST PUSH1 0x0 PUSH1 0x1F NOT PUSH1 0x1F DUP4 ADD AND SWAP1 POP SWAP2 SWAP1 POP JUMP JUMPDEST PUSH2 0x3E0 DUP2 PUSH2 0x306 JUMP JUMPDEST DUP2 EQ PUSH2 0x3EB JUMPI PUSH1 0x0 DUP1 REVERT JUMPDEST POP JUMP INVALID LOG2 PUSH5 0x6970667358 0x22 SLT KECCAK256 SLT PUSH14 0xC7E7AE99D71936903512C45344A0 PUSH9 0x7FFF5589E31B7C425A 0xC2 0xD MOD SWAP12 0xBC ADDRESS PUSH5 0x736F6C6343 STOP ADDMOD SMOD STOP CALLER "
				},
				"gasEstimates": {
					"creation": {
						"codeDepositCost": "212000",
						"executionCost": "257",
						"totalCost": "212257"
					},
					"external": {
						"getPrice()": "2459",
						"location()": "infinite",
						"setLocation(string)": "infinite",
						"setPrice(int256)": "22564"
					}
				},
				"methodIdentifiers": {
					"getPrice()": "98d5fdca",
					"location()": "516f279e",
					"setLocation(string)": "827bfbdf",
					"setPrice(int256)": "f7a30806"
				}
			},
			"storageLayout": {
				"storage": [
					{
						"astId": 3,
						"contract": "contracts/test2.sol:Property",
						"label": "price",
						"offset": 0,
						"slot": "0",
						"type": "t_int256"
					}
				],
				"types": {
					"t_int256": {
						"encoding": "inplace",
						"label": "int256",
						"numberOfBytes": "32"
					}
				}
			},
			"userdoc": {
				"kind": "user",
				"methods": {},
				"version": 1
			}
		}
	}
}