{
	"contracts/test12.sol": {
		"Deposite": {
			"abi": [
				{
					"stateMutability": "payable",
					"type": "fallback"
				},
				{
					"inputs": [],
					"name": "getBalance",
					"outputs": [
						{
							"internalType": "uint256",
							"name": "",
							"type": "uint256"
						}
					],
					"stateMutability": "view",
					"type": "function"
				},
				{
					"inputs": [],
					"name": "sendEther",
					"outputs": [],
					"stateMutability": "payable",
					"type": "function"
				},
				{
					"inputs": [
						{
							"internalType": "address",
							"name": "recipient",
							"type": "address"
						},
						{
							"internalType": "uint256",
							"name": "amount",
							"type": "uint256"
						}
					],
					"name": "transferEther",
					"outputs": [
						{
							"internalType": "bool",
							"name": "",
							"type": "bool"
						}
					],
					"stateMutability": "nonpayable",
					"type": "function"
				},
				{
					"stateMutability": "payable",
					"type": "receive"
				}
			],
			"devdoc": {
				"kind": "dev",
				"methods": {},
				"version": 1
			},
			"evm": {
				"assembly": "    /* \"contracts/test12.sol\":67:429  contract Deposite{... */\n  mstore(0x40, 0x80)\n  callvalue\n  dup1\n  iszero\n  tag_1\n  jumpi\n  0x00\n  dup1\n  revert\ntag_1:\n  pop\n  dataSize(sub_0)\n  dup1\n  dataOffset(sub_0)\n  0x00\n  codecopy\n  0x00\n  return\nstop\n\nsub_0: assembly {\n        /* \"contracts/test12.sol\":67:429  contract Deposite{... */\n      mstore(0x40, 0x80)\n      jumpi(tag_1, lt(calldatasize, 0x04))\n      shr(0xe0, calldataload(0x00))\n      dup1\n      0x05b1137b\n      eq\n      tag_3\n      jumpi\n      dup1\n      0x0e29df22\n      eq\n      tag_4\n      jumpi\n      dup1\n      0x12065fe0\n      eq\n      tag_5\n      jumpi\n      jump(tag_2)\n    tag_1:\n      jumpi(tag_2, calldatasize)\n      stop\n    tag_2:\n      stop\n        /* \"contracts/test12.sol\":344:427  function transferEther(address recipient, uint amount) public returns(bool){... */\n    tag_3:\n      callvalue\n      dup1\n      iszero\n      tag_10\n      jumpi\n      0x00\n      dup1\n      revert\n    tag_10:\n      pop\n      tag_11\n      0x04\n      dup1\n      calldatasize\n      sub\n      dup2\n      add\n      swap1\n      tag_12\n      swap2\n      swap1\n      tag_13\n      jump\t// in\n    tag_12:\n      tag_14\n      jump\t// in\n    tag_11:\n      mload(0x40)\n      tag_15\n      swap2\n      swap1\n      tag_16\n      jump\t// in\n    tag_15:\n      mload(0x40)\n      dup1\n      swap2\n      sub\n      swap1\n      return\n        /* \"contracts/test12.sol\":267:338  function sendEther() public payable{... */\n    tag_4:\n      tag_17\n      tag_18\n      jump\t// in\n    tag_17:\n      stop\n        /* \"contracts/test12.sol\":169:261  function getBalance() public view returns(uint){... */\n    tag_5:\n      callvalue\n      dup1\n      iszero\n      tag_19\n      jumpi\n      0x00\n      dup1\n      revert\n    tag_19:\n      pop\n      tag_20\n      tag_21\n      jump\t// in\n    tag_20:\n      mload(0x40)\n      tag_22\n      swap2\n      swap1\n      tag_23\n      jump\t// in\n    tag_22:\n      mload(0x40)\n      dup1\n      swap2\n      sub\n      swap1\n      return\n        /* \"contracts/test12.sol\":344:427  function transferEther(address recipient, uint amount) public returns(bool){... */\n    tag_14:\n        /* \"contracts/test12.sol\":414:418  bool */\n      0x00\n        /* \"contracts/test12.sol\":344:427  function transferEther(address recipient, uint amount) public returns(bool){... */\n      swap3\n      swap2\n      pop\n      pop\n      jump\t// out\n        /* \"contracts/test12.sol\":267:338  function sendEther() public payable{... */\n    tag_18:\n        /* \"contracts/test12.sol\":312:318  uint x */\n      0x00\n        /* \"contracts/test12.sol\":328:331  x++ */\n      dup1\n      dup1\n      tag_26\n      swap1\n      tag_27\n      jump\t// in\n    tag_26:\n      swap2\n      pop\n      pop\n        /* \"contracts/test12.sol\":302:338  {... */\n      pop\n        /* \"contracts/test12.sol\":267:338  function sendEther() public payable{... */\n      jump\t// out\n        /* \"contracts/test12.sol\":169:261  function getBalance() public view returns(uint){... */\n    tag_21:\n        /* \"contracts/test12.sol\":211:215  uint */\n      0x00\n        /* \"contracts/test12.sol\":233:254  address(this).balance */\n      selfbalance\n        /* \"contracts/test12.sol\":226:254  return address(this).balance */\n      swap1\n      pop\n        /* \"contracts/test12.sol\":169:261  function getBalance() public view returns(uint){... */\n      swap1\n      jump\t// out\n        /* \"#utility.yul\":7:146   */\n    tag_30:\n        /* \"#utility.yul\":53:58   */\n      0x00\n        /* \"#utility.yul\":91:97   */\n      dup2\n        /* \"#utility.yul\":78:98   */\n      calldataload\n        /* \"#utility.yul\":69:98   */\n      swap1\n      pop\n        /* \"#utility.yul\":107:140   */\n      tag_32\n        /* \"#utility.yul\":134:139   */\n      dup2\n        /* \"#utility.yul\":107:140   */\n      tag_33\n      jump\t// in\n    tag_32:\n        /* \"#utility.yul\":7:146   */\n      swap3\n      swap2\n      pop\n      pop\n      jump\t// out\n        /* \"#utility.yul\":152:291   */\n    tag_34:\n        /* \"#utility.yul\":198:203   */\n      0x00\n        /* \"#utility.yul\":236:242   */\n      dup2\n        /* \"#utility.yul\":223:243   */\n      calldataload\n        /* \"#utility.yul\":214:243   */\n      swap1\n      pop\n        /* \"#utility.yul\":252:285   */\n      tag_36\n        /* \"#utility.yul\":279:284   */\n      dup2\n        /* \"#utility.yul\":252:285   */\n      tag_37\n      jump\t// in\n    tag_36:\n        /* \"#utility.yul\":152:291   */\n      swap3\n      swap2\n      pop\n      pop\n      jump\t// out\n        /* \"#utility.yul\":297:771   */\n    tag_13:\n        /* \"#utility.yul\":365:371   */\n      0x00\n        /* \"#utility.yul\":373:379   */\n      dup1\n        /* \"#utility.yul\":422:424   */\n      0x40\n        /* \"#utility.yul\":410:419   */\n      dup4\n        /* \"#utility.yul\":401:408   */\n      dup6\n        /* \"#utility.yul\":397:420   */\n      sub\n        /* \"#utility.yul\":393:425   */\n      slt\n        /* \"#utility.yul\":390:509   */\n      iszero\n      tag_39\n      jumpi\n        /* \"#utility.yul\":428:507   */\n      tag_40\n      tag_41\n      jump\t// in\n    tag_40:\n        /* \"#utility.yul\":390:509   */\n    tag_39:\n        /* \"#utility.yul\":548:549   */\n      0x00\n        /* \"#utility.yul\":573:626   */\n      tag_42\n        /* \"#utility.yul\":618:625   */\n      dup6\n        /* \"#utility.yul\":609:615   */\n      dup3\n        /* \"#utility.yul\":598:607   */\n      dup7\n        /* \"#utility.yul\":594:616   */\n      add\n        /* \"#utility.yul\":573:626   */\n      tag_30\n      jump\t// in\n    tag_42:\n        /* \"#utility.yul\":563:626   */\n      swap3\n      pop\n        /* \"#utility.yul\":519:636   */\n      pop\n        /* \"#utility.yul\":675:677   */\n      0x20\n        /* \"#utility.yul\":701:754   */\n      tag_43\n        /* \"#utility.yul\":746:753   */\n      dup6\n        /* \"#utility.yul\":737:743   */\n      dup3\n        /* \"#utility.yul\":726:735   */\n      dup7\n        /* \"#utility.yul\":722:744   */\n      add\n        /* \"#utility.yul\":701:754   */\n      tag_34\n      jump\t// in\n    tag_43:\n        /* \"#utility.yul\":691:754   */\n      swap2\n      pop\n        /* \"#utility.yul\":646:764   */\n      pop\n        /* \"#utility.yul\":297:771   */\n      swap3\n      pop\n      swap3\n      swap1\n      pop\n      jump\t// out\n        /* \"#utility.yul\":777:886   */\n    tag_44:\n        /* \"#utility.yul\":858:879   */\n      tag_46\n        /* \"#utility.yul\":873:878   */\n      dup2\n        /* \"#utility.yul\":858:879   */\n      tag_47\n      jump\t// in\n    tag_46:\n        /* \"#utility.yul\":853:856   */\n      dup3\n        /* \"#utility.yul\":846:880   */\n      mstore\n        /* \"#utility.yul\":777:886   */\n      pop\n      pop\n      jump\t// out\n        /* \"#utility.yul\":892:1010   */\n    tag_48:\n        /* \"#utility.yul\":979:1003   */\n      tag_50\n        /* \"#utility.yul\":997:1002   */\n      dup2\n        /* \"#utility.yul\":979:1003   */\n      tag_51\n      jump\t// in\n    tag_50:\n        /* \"#utility.yul\":974:977   */\n      dup3\n        /* \"#utility.yul\":967:1004   */\n      mstore\n        /* \"#utility.yul\":892:1010   */\n      pop\n      pop\n      jump\t// out\n        /* \"#utility.yul\":1016:1226   */\n    tag_16:\n        /* \"#utility.yul\":1103:1107   */\n      0x00\n        /* \"#utility.yul\":1141:1143   */\n      0x20\n        /* \"#utility.yul\":1130:1139   */\n      dup3\n        /* \"#utility.yul\":1126:1144   */\n      add\n        /* \"#utility.yul\":1118:1144   */\n      swap1\n      pop\n        /* \"#utility.yul\":1154:1219   */\n      tag_53\n        /* \"#utility.yul\":1216:1217   */\n      0x00\n        /* \"#utility.yul\":1205:1214   */\n      dup4\n        /* \"#utility.yul\":1201:1218   */\n      add\n        /* \"#utility.yul\":1192:1198   */\n      dup5\n        /* \"#utility.yul\":1154:1219   */\n      tag_44\n      jump\t// in\n    tag_53:\n        /* \"#utility.yul\":1016:1226   */\n      swap3\n      swap2\n      pop\n      pop\n      jump\t// out\n        /* \"#utility.yul\":1232:1454   */\n    tag_23:\n        /* \"#utility.yul\":1325:1329   */\n      0x00\n        /* \"#utility.yul\":1363:1365   */\n      0x20\n        /* \"#utility.yul\":1352:1361   */\n      dup3\n        /* \"#utility.yul\":1348:1366   */\n      add\n        /* \"#utility.yul\":1340:1366   */\n      swap1\n      pop\n        /* \"#utility.yul\":1376:1447   */\n      tag_55\n        /* \"#utility.yul\":1444:1445   */\n      0x00\n        /* \"#utility.yul\":1433:1442   */\n      dup4\n        /* \"#utility.yul\":1429:1446   */\n      add\n        /* \"#utility.yul\":1420:1426   */\n      dup5\n        /* \"#utility.yul\":1376:1447   */\n      tag_48\n      jump\t// in\n    tag_55:\n        /* \"#utility.yul\":1232:1454   */\n      swap3\n      swap2\n      pop\n      pop\n      jump\t// out\n        /* \"#utility.yul\":1541:1637   */\n    tag_58:\n        /* \"#utility.yul\":1578:1585   */\n      0x00\n        /* \"#utility.yul\":1607:1631   */\n      tag_60\n        /* \"#utility.yul\":1625:1630   */\n      dup3\n        /* \"#utility.yul\":1607:1631   */\n      tag_61\n      jump\t// in\n    tag_60:\n        /* \"#utility.yul\":1596:1631   */\n      swap1\n      pop\n        /* \"#utility.yul\":1541:1637   */\n      swap2\n      swap1\n      pop\n      jump\t// out\n        /* \"#utility.yul\":1643:1733   */\n    tag_47:\n        /* \"#utility.yul\":1677:1684   */\n      0x00\n        /* \"#utility.yul\":1720:1725   */\n      dup2\n        /* \"#utility.yul\":1713:1726   */\n      iszero\n        /* \"#utility.yul\":1706:1727   */\n      iszero\n        /* \"#utility.yul\":1695:1727   */\n      swap1\n      pop\n        /* \"#utility.yul\":1643:1733   */\n      swap2\n      swap1\n      pop\n      jump\t// out\n        /* \"#utility.yul\":1739:1865   */\n    tag_61:\n        /* \"#utility.yul\":1776:1783   */\n      0x00\n        /* \"#utility.yul\":1816:1858   */\n      0xffffffffffffffffffffffffffffffffffffffff\n        /* \"#utility.yul\":1809:1814   */\n      dup3\n        /* \"#utility.yul\":1805:1859   */\n      and\n        /* \"#utility.yul\":1794:1859   */\n      swap1\n      pop\n        /* \"#utility.yul\":1739:1865   */\n      swap2\n      swap1\n      pop\n      jump\t// out\n        /* \"#utility.yul\":1871:1948   */\n    tag_51:\n        /* \"#utility.yul\":1908:1915   */\n      0x00\n        /* \"#utility.yul\":1937:1942   */\n      dup2\n        /* \"#utility.yul\":1926:1942   */\n      swap1\n      pop\n        /* \"#utility.yul\":1871:1948   */\n      swap2\n      swap1\n      pop\n      jump\t// out\n        /* \"#utility.yul\":1954:2187   */\n    tag_27:\n        /* \"#utility.yul\":1993:1996   */\n      0x00\n        /* \"#utility.yul\":2016:2040   */\n      tag_66\n        /* \"#utility.yul\":2034:2039   */\n      dup3\n        /* \"#utility.yul\":2016:2040   */\n      tag_51\n      jump\t// in\n    tag_66:\n        /* \"#utility.yul\":2007:2040   */\n      swap2\n      pop\n        /* \"#utility.yul\":2062:2128   */\n      0xffffffffffffffffffffffffffffffffffffffffffffffffffffffffffffffff\n        /* \"#utility.yul\":2055:2060   */\n      dup3\n        /* \"#utility.yul\":2052:2129   */\n      eq\n        /* \"#utility.yul\":2049:2152   */\n      iszero\n      tag_67\n      jumpi\n        /* \"#utility.yul\":2132:2150   */\n      tag_68\n      tag_69\n      jump\t// in\n    tag_68:\n        /* \"#utility.yul\":2049:2152   */\n    tag_67:\n        /* \"#utility.yul\":2179:2180   */\n      0x01\n        /* \"#utility.yul\":2172:2177   */\n      dup3\n        /* \"#utility.yul\":2168:2181   */\n      add\n        /* \"#utility.yul\":2161:2181   */\n      swap1\n      pop\n        /* \"#utility.yul\":1954:2187   */\n      swap2\n      swap1\n      pop\n      jump\t// out\n        /* \"#utility.yul\":2193:2373   */\n    tag_69:\n        /* \"#utility.yul\":2241:2318   */\n      0x4e487b7100000000000000000000000000000000000000000000000000000000\n        /* \"#utility.yul\":2238:2239   */\n      0x00\n        /* \"#utility.yul\":2231:2319   */\n      mstore\n        /* \"#utility.yul\":2338:2342   */\n      0x11\n        /* \"#utility.yul\":2335:2336   */\n      0x04\n        /* \"#utility.yul\":2328:2343   */\n      mstore\n        /* \"#utility.yul\":2362:2366   */\n      0x24\n        /* \"#utility.yul\":2359:2360   */\n      0x00\n        /* \"#utility.yul\":2352:2367   */\n      revert\n        /* \"#utility.yul\":2502:2619   */\n    tag_41:\n        /* \"#utility.yul\":2611:2612   */\n      0x00\n        /* \"#utility.yul\":2608:2609   */\n      dup1\n        /* \"#utility.yul\":2601:2613   */\n      revert\n        /* \"#utility.yul\":2625:2747   */\n    tag_33:\n        /* \"#utility.yul\":2698:2722   */\n      tag_75\n        /* \"#utility.yul\":2716:2721   */\n      dup2\n        /* \"#utility.yul\":2698:2722   */\n      tag_58\n      jump\t// in\n    tag_75:\n        /* \"#utility.yul\":2691:2696   */\n      dup2\n        /* \"#utility.yul\":2688:2723   */\n      eq\n        /* \"#utility.yul\":2678:2741   */\n      tag_76\n      jumpi\n        /* \"#utility.yul\":2737:2738   */\n      0x00\n        /* \"#utility.yul\":2734:2735   */\n      dup1\n        /* \"#utility.yul\":2727:2739   */\n      revert\n        /* \"#utility.yul\":2678:2741   */\n    tag_76:\n        /* \"#utility.yul\":2625:2747   */\n      pop\n      jump\t// out\n        /* \"#utility.yul\":2753:2875   */\n    tag_37:\n        /* \"#utility.yul\":2826:2850   */\n      tag_78\n        /* \"#utility.yul\":2844:2849   */\n      dup2\n        /* \"#utility.yul\":2826:2850   */\n      tag_51\n      jump\t// in\n    tag_78:\n        /* \"#utility.yul\":2819:2824   */\n      dup2\n        /* \"#utility.yul\":2816:2851   */\n      eq\n        /* \"#utility.yul\":2806:2869   */\n      tag_79\n      jumpi\n        /* \"#utility.yul\":2865:2866   */\n      0x00\n        /* \"#utility.yul\":2862:2863   */\n      dup1\n        /* \"#utility.yul\":2855:2867   */\n      revert\n        /* \"#utility.yul\":2806:2869   */\n    tag_79:\n        /* \"#utility.yul\":2753:2875   */\n      pop\n      jump\t// out\n\n    auxdata: 0xa2646970667358221220b31e66a7d235966e45e0941e9ffa342e372195be688bb6910def5493abe0b70864736f6c63430008070033\n}\n",
				"bytecode": {
					"linkReferences": {},
					"object": "608060405234801561001057600080fd5b506102bd806100206000396000f3fe6080604052600436106100385760003560e01c806305b1137b146100415780630e29df221461007e57806312065fe0146100885761003f565b3661003f57005b005b34801561004d57600080fd5b5061006860048036038101906100639190610100565b6100b3565b604051610075919061015e565b60405180910390f35b6100866100bb565b005b34801561009457600080fd5b5061009d6100ce565b6040516100aa9190610179565b60405180910390f35b600092915050565b600080806100c8906101dc565b91505050565b600047905090565b6000813590506100e581610259565b92915050565b6000813590506100fa81610270565b92915050565b6000806040838503121561011757610116610254565b5b6000610125858286016100d6565b9250506020610136858286016100eb565b9150509250929050565b610149816101a6565b82525050565b610158816101d2565b82525050565b60006020820190506101736000830184610140565b92915050565b600060208201905061018e600083018461014f565b92915050565b600061019f826101b2565b9050919050565b60008115159050919050565b600073ffffffffffffffffffffffffffffffffffffffff82169050919050565b6000819050919050565b60006101e7826101d2565b91507fffffffffffffffffffffffffffffffffffffffffffffffffffffffffffffffff82141561021a57610219610225565b5b600182019050919050565b7f4e487b7100000000000000000000000000000000000000000000000000000000600052601160045260246000fd5b600080fd5b61026281610194565b811461026d57600080fd5b50565b610279816101d2565b811461028457600080fd5b5056fea2646970667358221220b31e66a7d235966e45e0941e9ffa342e372195be688bb6910def5493abe0b70864736f6c63430008070033",
					"opcodes": "PUSH1 0x80 PUSH1 0x40 MSTORE CALLVALUE DUP1 ISZERO PUSH2 0x10 JUMPI PUSH1 0x0 DUP1 REVERT JUMPDEST POP PUSH2 0x2BD DUP1 PUSH2 0x20 PUSH1 0x0 CODECOPY PUSH1 0x0 RETURN INVALID PUSH1 0x80 PUSH1 0x40 MSTORE PUSH1 0x4 CALLDATASIZE LT PUSH2 0x38 JUMPI PUSH1 0x0 CALLDATALOAD PUSH1 0xE0 SHR DUP1 PUSH4 0x5B1137B EQ PUSH2 0x41 JUMPI DUP1 PUSH4 0xE29DF22 EQ PUSH2 0x7E JUMPI DUP1 PUSH4 0x12065FE0 EQ PUSH2 0x88 JUMPI PUSH2 0x3F JUMP JUMPDEST CALLDATASIZE PUSH2 0x3F JUMPI STOP JUMPDEST STOP JUMPDEST CALLVALUE DUP1 ISZERO PUSH2 0x4D JUMPI PUSH1 0x0 DUP1 REVERT JUMPDEST POP PUSH2 0x68 PUSH1 0x4 DUP1 CALLDATASIZE SUB DUP2 ADD SWAP1 PUSH2 0x63 SWAP2 SWAP1 PUSH2 0x100 JUMP JUMPDEST PUSH2 0xB3 JUMP JUMPDEST PUSH1 0x40 MLOAD PUSH2 0x75 SWAP2 SWAP1 PUSH2 0x15E JUMP JUMPDEST PUSH1 0x40 MLOAD DUP1 SWAP2 SUB SWAP1 RETURN JUMPDEST PUSH2 0x86 PUSH2 0xBB JUMP JUMPDEST STOP JUMPDEST CALLVALUE DUP1 ISZERO PUSH2 0x94 JUMPI PUSH1 0x0 DUP1 REVERT JUMPDEST POP PUSH2 0x9D PUSH2 0xCE JUMP JUMPDEST PUSH1 0x40 MLOAD PUSH2 0xAA SWAP2 SWAP1 PUSH2 0x179 JUMP JUMPDEST PUSH1 0x40 MLOAD DUP1 SWAP2 SUB SWAP1 RETURN JUMPDEST PUSH1 0x0 SWAP3 SWAP2 POP POP JUMP JUMPDEST PUSH1 0x0 DUP1 DUP1 PUSH2 0xC8 SWAP1 PUSH2 0x1DC JUMP JUMPDEST SWAP2 POP POP POP JUMP JUMPDEST PUSH1 0x0 SELFBALANCE SWAP1 POP SWAP1 JUMP JUMPDEST PUSH1 0x0 DUP2 CALLDATALOAD SWAP1 POP PUSH2 0xE5 DUP2 PUSH2 0x259 JUMP JUMPDEST SWAP3 SWAP2 POP POP JUMP JUMPDEST PUSH1 0x0 DUP2 CALLDATALOAD SWAP1 POP PUSH2 0xFA DUP2 PUSH2 0x270 JUMP JUMPDEST SWAP3 SWAP2 POP POP JUMP JUMPDEST PUSH1 0x0 DUP1 PUSH1 0x40 DUP4 DUP6 SUB SLT ISZERO PUSH2 0x117 JUMPI PUSH2 0x116 PUSH2 0x254 JUMP JUMPDEST JUMPDEST PUSH1 0x0 PUSH2 0x125 DUP6 DUP3 DUP7 ADD PUSH2 0xD6 JUMP JUMPDEST SWAP3 POP POP PUSH1 0x20 PUSH2 0x136 DUP6 DUP3 DUP7 ADD PUSH2 0xEB JUMP JUMPDEST SWAP2 POP POP SWAP3 POP SWAP3 SWAP1 POP JUMP JUMPDEST PUSH2 0x149 DUP2 PUSH2 0x1A6 JUMP JUMPDEST DUP3 MSTORE POP POP JUMP JUMPDEST PUSH2 0x158 DUP2 PUSH2 0x1D2 JUMP JUMPDEST DUP3 MSTORE POP POP JUMP JUMPDEST PUSH1 0x0 PUSH1 0x20 DUP3 ADD SWAP1 POP PUSH2 0x173 PUSH1 0x0 DUP4 ADD DUP5 PUSH2 0x140 JUMP JUMPDEST SWAP3 SWAP2 POP POP JUMP JUMPDEST PUSH1 0x0 PUSH1 0x20 DUP3 ADD SWAP1 POP PUSH2 0x18E PUSH1 0x0 DUP4 ADD DUP5 PUSH2 0x14F JUMP JUMPDEST SWAP3 SWAP2 POP POP JUMP JUMPDEST PUSH1 0x0 PUSH2 0x19F DUP3 PUSH2 0x1B2 JUMP JUMPDEST SWAP1 POP SWAP2 SWAP1 POP JUMP JUMPDEST PUSH1 0x0 DUP2 ISZERO ISZERO SWAP1 POP SWAP2 SWAP1 POP JUMP JUMPDEST PUSH1 0x0 PUSH20 0xFFFFFFFFFFFFFFFFFFFFFFFFFFFFFFFFFFFFFFFF DUP3 AND SWAP1 POP SWAP2 SWAP1 POP JUMP JUMPDEST PUSH1 0x0 DUP2 SWAP1 POP SWAP2 SWAP1 POP JUMP JUMPDEST PUSH1 0x0 PUSH2 0x1E7 DUP3 PUSH2 0x1D2 JUMP JUMPDEST SWAP2 POP PUSH32 0xFFFFFFFFFFFFFFFFFFFFFFFFFFFFFFFFFFFFFFFFFFFFFFFFFFFFFFFFFFFFFFFF DUP3 EQ ISZERO PUSH2 0x21A JUMPI PUSH2 0x219 PUSH2 0x225 JUMP JUMPDEST JUMPDEST PUSH1 0x1 DUP3 ADD SWAP1 POP SWAP2 SWAP1 POP JUMP JUMPDEST PUSH32 0x4E487B7100000000000000000000000000000000000000000000000000000000 PUSH1 0x0 MSTORE PUSH1 0x11 PUSH1 0x4 MSTORE PUSH1 0x24 PUSH1 0x0 REVERT JUMPDEST PUSH1 0x0 DUP1 REVERT JUMPDEST PUSH2 0x262 DUP2 PUSH2 0x194 JUMP JUMPDEST DUP2 EQ PUSH2 0x26D JUMPI PUSH1 0x0 DUP1 REVERT JUMPDEST POP JUMP JUMPDEST PUSH2 0x279 DUP2 PUSH2 0x1D2 JUMP JUMPDEST DUP2 EQ PUSH2 0x284 JUMPI PUSH1 0x0 DUP1 REVERT JUMPDEST POP JUMP INVALID LOG2 PUSH5 0x6970667358 0x22 SLT KECCAK256 0xB3 0x1E PUSH7 0xA7D235966E45E0 SWAP5 0x1E SWAP16 STATICCALL CALLVALUE 0x2E CALLDATACOPY 0x21 SWAP6 0xBE PUSH9 0x8BB6910DEF5493ABE0 0xB7 ADDMOD PUSH5 0x736F6C6343 STOP ADDMOD SMOD STOP CALLER "
				},
				"gasEstimates": {
					"creation": {
						"codeDepositCost": "140200",
						"executionCost": "183",
						"totalCost": "140383"
					},
					"external": {
						"": "129",
						"getBalance()": "361",
						"sendEther()": "267",
						"transferEther(address,uint256)": "800"
					}
				},
				"methodIdentifiers": {
					"getBalance()": "12065fe0",
					"sendEther()": "0e29df22",
					"transferEther(address,uint256)": "05b1137b"
				}
			},
			"storageLayout": {
				"storage": [],
				"types": null
			},
			"userdoc": {
				"kind": "user",
				"methods": {},
				"version": 1
			}
		}
	}
}