{
	"contracts/test2.sol": {
		"Property": {
			"abi": [
				{
					"inputs": [
						{
							"internalType": "int256",
							"name": "_price",
							"type": "int256"
						},
						{
							"internalType": "string",
							"name": "_location",
							"type": "string"
						}
					],
					"stateMutability": "nonpayable",
					"type": "constructor"
				},
				{
					"inputs": [],
					"name": "location",
					"outputs": [
						{
							"internalType": "string",
							"name": "",
							"type": "string"
						}
					],
					"stateMutability": "view",
					"type": "function"
				},
				{
					"inputs": [],
					"name": "price",
					"outputs": [
						{
							"internalType": "int256",
							"name": "",
							"type": "int256"
						}
					],
					"stateMutability": "view",
					"type": "function"
				},
				{
					"inputs": [
						{
							"internalType": "string",
							"name": "_location",
							"type": "string"
						}
					],
					"name": "setLocation",
					"outputs": [],
					"stateMutability": "nonpayable",
					"type": "function"
				},
				{
					"inputs": [
						{
							"internalType": "int256",
							"name": "_price",
							"type": "int256"
						}
					],
					"name": "setPrice",
					"outputs": [],
					"stateMutability": "nonpayable",
					"type": "function"
				}
			],
			"devdoc": {
				"kind": "dev",
				"methods": {},
				"version": 1
			},
			"evm": {
				"assembly": "    /* \"contracts/test2.sol\":67:376  contract Property {... */\n  mstore(0x40, 0x80)\n    /* \"contracts/test2.sol\":113:146  string public location = \"London\" */\n  mload(0x40)\n  dup1\n  0x40\n  add\n  0x40\n  mstore\n  dup1\n  0x06\n  dup2\n  mstore\n  0x20\n  add\n  0x4c6f6e646f6e0000000000000000000000000000000000000000000000000000\n  dup2\n  mstore\n  pop\n  0x01\n  swap1\n  dup1\n  mload\n  swap1\n  0x20\n  add\n  swap1\n  tag_1\n  swap3\n  swap2\n  swap1\n  tag_2\n  jump\t// in\ntag_1:\n  pop\n    /* \"contracts/test2.sol\":153:204  constructor(int _price, string memory _location) {} */\n  callvalue\n  dup1\n  iszero\n  tag_3\n  jumpi\n  0x00\n  dup1\n  revert\ntag_3:\n  pop\n  mload(0x40)\n  sub(codesize, bytecodeSize)\n  dup1\n  bytecodeSize\n  dup4\n  codecopy\n  dup2\n  dup2\n  add\n  0x40\n  mstore\n  dup2\n  add\n  swap1\n  tag_4\n  swap2\n  swap1\n  tag_5\n  jump\t// in\ntag_4:\n  pop\n  pop\n    /* \"contracts/test2.sol\":67:376  contract Property {... */\n  jump(tag_8)\ntag_2:\n  dup3\n  dup1\n  sload\n  tag_9\n  swap1\n  tag_10\n  jump\t// in\ntag_9:\n  swap1\n  0x00\n  mstore\n  keccak256(0x00, 0x20)\n  swap1\n  0x1f\n  add\n  0x20\n  swap1\n  div\n  dup2\n  add\n  swap3\n  dup3\n  tag_12\n  jumpi\n  0x00\n  dup6\n  sstore\n  jump(tag_11)\ntag_12:\n  dup3\n  0x1f\n  lt\n  tag_13\n  jumpi\n  dup1\n  mload\n  not(0xff)\n  and\n  dup4\n  dup1\n  add\n  or\n  dup6\n  sstore\n  jump(tag_11)\ntag_13:\n  dup3\n  dup1\n  add\n  0x01\n  add\n  dup6\n  sstore\n  dup3\n  iszero\n  tag_11\n  jumpi\n  swap2\n  dup3\n  add\ntag_14:\n  dup3\n  dup2\n  gt\n  iszero\n  tag_15\n  jumpi\n  dup3\n  mload\n  dup3\n  sstore\n  swap2\n  0x20\n  add\n  swap2\n  swap1\n  0x01\n  add\n  swap1\n  jump(tag_14)\ntag_15:\ntag_11:\n  pop\n  swap1\n  pop\n  tag_16\n  swap2\n  swap1\n  tag_17\n  jump\t// in\ntag_16:\n  pop\n  swap1\n  jump\t// out\ntag_17:\ntag_18:\n  dup1\n  dup3\n  gt\n  iszero\n  tag_19\n  jumpi\n  0x00\n  dup2\n  0x00\n  swap1\n  sstore\n  pop\n  0x01\n  add\n  jump(tag_18)\ntag_19:\n  pop\n  swap1\n  jump\t// out\n    /* \"#utility.yul\":7:428   */\ntag_21:\n    /* \"#utility.yul\":96:101   */\n  0x00\n    /* \"#utility.yul\":121:187   */\n  tag_23\n    /* \"#utility.yul\":137:186   */\n  tag_24\n    /* \"#utility.yul\":179:185   */\n  dup5\n    /* \"#utility.yul\":137:186   */\n  tag_25\n  jump\t// in\ntag_24:\n    /* \"#utility.yul\":121:187   */\n  tag_26\n  jump\t// in\ntag_23:\n    /* \"#utility.yul\":112:187   */\n  swap1\n  pop\n    /* \"#utility.yul\":210:216   */\n  dup3\n    /* \"#utility.yul\":203:208   */\n  dup2\n    /* \"#utility.yul\":196:217   */\n  mstore\n    /* \"#utility.yul\":248:252   */\n  0x20\n    /* \"#utility.yul\":241:246   */\n  dup2\n    /* \"#utility.yul\":237:253   */\n  add\n    /* \"#utility.yul\":286:289   */\n  dup5\n    /* \"#utility.yul\":277:283   */\n  dup5\n    /* \"#utility.yul\":272:275   */\n  dup5\n    /* \"#utility.yul\":268:284   */\n  add\n    /* \"#utility.yul\":265:290   */\n  gt\n    /* \"#utility.yul\":262:374   */\n  iszero\n  tag_27\n  jumpi\n    /* \"#utility.yul\":293:372   */\n  tag_28\n  tag_29\n  jump\t// in\ntag_28:\n    /* \"#utility.yul\":262:374   */\ntag_27:\n    /* \"#utility.yul\":383:422   */\n  tag_30\n    /* \"#utility.yul\":415:421   */\n  dup5\n    /* \"#utility.yul\":410:413   */\n  dup3\n    /* \"#utility.yul\":405:408   */\n  dup6\n    /* \"#utility.yul\":383:422   */\n  tag_31\n  jump\t// in\ntag_30:\n    /* \"#utility.yul\":102:428   */\n  pop\n    /* \"#utility.yul\":7:428   */\n  swap4\n  swap3\n  pop\n  pop\n  pop\n  jump\t// out\n    /* \"#utility.yul\":434:575   */\ntag_32:\n    /* \"#utility.yul\":490:495   */\n  0x00\n    /* \"#utility.yul\":521:527   */\n  dup2\n    /* \"#utility.yul\":515:528   */\n  mload\n    /* \"#utility.yul\":506:528   */\n  swap1\n  pop\n    /* \"#utility.yul\":537:569   */\n  tag_34\n    /* \"#utility.yul\":563:568   */\n  dup2\n    /* \"#utility.yul\":537:569   */\n  tag_35\n  jump\t// in\ntag_34:\n    /* \"#utility.yul\":434:575   */\n  swap3\n  swap2\n  pop\n  pop\n  jump\t// out\n    /* \"#utility.yul\":595:950   */\ntag_36:\n    /* \"#utility.yul\":662:667   */\n  0x00\n    /* \"#utility.yul\":711:714   */\n  dup3\n    /* \"#utility.yul\":704:708   */\n  0x1f\n    /* \"#utility.yul\":696:702   */\n  dup4\n    /* \"#utility.yul\":692:709   */\n  add\n    /* \"#utility.yul\":688:715   */\n  slt\n    /* \"#utility.yul\":678:800   */\n  tag_38\n  jumpi\n    /* \"#utility.yul\":719:798   */\n  tag_39\n  tag_40\n  jump\t// in\ntag_39:\n    /* \"#utility.yul\":678:800   */\ntag_38:\n    /* \"#utility.yul\":829:835   */\n  dup2\n    /* \"#utility.yul\":823:836   */\n  mload\n    /* \"#utility.yul\":854:944   */\n  tag_41\n    /* \"#utility.yul\":940:943   */\n  dup5\n    /* \"#utility.yul\":932:938   */\n  dup3\n    /* \"#utility.yul\":925:929   */\n  0x20\n    /* \"#utility.yul\":917:923   */\n  dup7\n    /* \"#utility.yul\":913:930   */\n  add\n    /* \"#utility.yul\":854:944   */\n  tag_21\n  jump\t// in\ntag_41:\n    /* \"#utility.yul\":845:944   */\n  swap2\n  pop\n    /* \"#utility.yul\":668:950   */\n  pop\n    /* \"#utility.yul\":595:950   */\n  swap3\n  swap2\n  pop\n  pop\n  jump\t// out\n    /* \"#utility.yul\":956:1634   */\ntag_5:\n    /* \"#utility.yul\":1044:1050   */\n  0x00\n    /* \"#utility.yul\":1052:1058   */\n  dup1\n    /* \"#utility.yul\":1101:1103   */\n  0x40\n    /* \"#utility.yul\":1089:1098   */\n  dup4\n    /* \"#utility.yul\":1080:1087   */\n  dup6\n    /* \"#utility.yul\":1076:1099   */\n  sub\n    /* \"#utility.yul\":1072:1104   */\n  slt\n    /* \"#utility.yul\":1069:1188   */\n  iszero\n  tag_43\n  jumpi\n    /* \"#utility.yul\":1107:1186   */\n  tag_44\n  tag_45\n  jump\t// in\ntag_44:\n    /* \"#utility.yul\":1069:1188   */\ntag_43:\n    /* \"#utility.yul\":1227:1228   */\n  0x00\n    /* \"#utility.yul\":1252:1315   */\n  tag_46\n    /* \"#utility.yul\":1307:1314   */\n  dup6\n    /* \"#utility.yul\":1298:1304   */\n  dup3\n    /* \"#utility.yul\":1287:1296   */\n  dup7\n    /* \"#utility.yul\":1283:1305   */\n  add\n    /* \"#utility.yul\":1252:1315   */\n  tag_32\n  jump\t// in\ntag_46:\n    /* \"#utility.yul\":1242:1315   */\n  swap3\n  pop\n    /* \"#utility.yul\":1198:1325   */\n  pop\n    /* \"#utility.yul\":1385:1387   */\n  0x20\n    /* \"#utility.yul\":1374:1383   */\n  dup4\n    /* \"#utility.yul\":1370:1388   */\n  add\n    /* \"#utility.yul\":1364:1389   */\n  mload\n    /* \"#utility.yul\":1416:1434   */\n  0xffffffffffffffff\n    /* \"#utility.yul\":1408:1414   */\n  dup2\n    /* \"#utility.yul\":1405:1435   */\n  gt\n    /* \"#utility.yul\":1402:1519   */\n  iszero\n  tag_47\n  jumpi\n    /* \"#utility.yul\":1438:1517   */\n  tag_48\n  tag_49\n  jump\t// in\ntag_48:\n    /* \"#utility.yul\":1402:1519   */\ntag_47:\n    /* \"#utility.yul\":1543:1617   */\n  tag_50\n    /* \"#utility.yul\":1609:1616   */\n  dup6\n    /* \"#utility.yul\":1600:1606   */\n  dup3\n    /* \"#utility.yul\":1589:1598   */\n  dup7\n    /* \"#utility.yul\":1585:1607   */\n  add\n    /* \"#utility.yul\":1543:1617   */\n  tag_36\n  jump\t// in\ntag_50:\n    /* \"#utility.yul\":1533:1617   */\n  swap2\n  pop\n    /* \"#utility.yul\":1335:1627   */\n  pop\n    /* \"#utility.yul\":956:1634   */\n  swap3\n  pop\n  swap3\n  swap1\n  pop\n  jump\t// out\n    /* \"#utility.yul\":1640:1769   */\ntag_26:\n    /* \"#utility.yul\":1674:1680   */\n  0x00\n    /* \"#utility.yul\":1701:1721   */\n  tag_52\n  tag_53\n  jump\t// in\ntag_52:\n    /* \"#utility.yul\":1691:1721   */\n  swap1\n  pop\n    /* \"#utility.yul\":1730:1763   */\n  tag_54\n    /* \"#utility.yul\":1758:1762   */\n  dup3\n    /* \"#utility.yul\":1750:1756   */\n  dup3\n    /* \"#utility.yul\":1730:1763   */\n  tag_55\n  jump\t// in\ntag_54:\n    /* \"#utility.yul\":1640:1769   */\n  swap2\n  swap1\n  pop\n  jump\t// out\n    /* \"#utility.yul\":1775:1850   */\ntag_53:\n    /* \"#utility.yul\":1808:1814   */\n  0x00\n    /* \"#utility.yul\":1841:1843   */\n  0x40\n    /* \"#utility.yul\":1835:1844   */\n  mload\n    /* \"#utility.yul\":1825:1844   */\n  swap1\n  pop\n    /* \"#utility.yul\":1775:1850   */\n  swap1\n  jump\t// out\n    /* \"#utility.yul\":1856:2164   */\ntag_25:\n    /* \"#utility.yul\":1918:1922   */\n  0x00\n    /* \"#utility.yul\":2008:2026   */\n  0xffffffffffffffff\n    /* \"#utility.yul\":2000:2006   */\n  dup3\n    /* \"#utility.yul\":1997:2027   */\n  gt\n    /* \"#utility.yul\":1994:2050   */\n  iszero\n  tag_58\n  jumpi\n    /* \"#utility.yul\":2030:2048   */\n  tag_59\n  tag_60\n  jump\t// in\ntag_59:\n    /* \"#utility.yul\":1994:2050   */\ntag_58:\n    /* \"#utility.yul\":2068:2097   */\n  tag_61\n    /* \"#utility.yul\":2090:2096   */\n  dup3\n    /* \"#utility.yul\":2068:2097   */\n  tag_62\n  jump\t// in\ntag_61:\n    /* \"#utility.yul\":2060:2097   */\n  swap1\n  pop\n    /* \"#utility.yul\":2152:2156   */\n  0x20\n    /* \"#utility.yul\":2146:2150   */\n  dup2\n    /* \"#utility.yul\":2142:2157   */\n  add\n    /* \"#utility.yul\":2134:2157   */\n  swap1\n  pop\n    /* \"#utility.yul\":1856:2164   */\n  swap2\n  swap1\n  pop\n  jump\t// out\n    /* \"#utility.yul\":2170:2246   */\ntag_63:\n    /* \"#utility.yul\":2206:2213   */\n  0x00\n    /* \"#utility.yul\":2235:2240   */\n  dup2\n    /* \"#utility.yul\":2224:2240   */\n  swap1\n  pop\n    /* \"#utility.yul\":2170:2246   */\n  swap2\n  swap1\n  pop\n  jump\t// out\n    /* \"#utility.yul\":2252:2559   */\ntag_31:\n    /* \"#utility.yul\":2320:2321   */\n  0x00\n    /* \"#utility.yul\":2330:2443   */\ntag_66:\n    /* \"#utility.yul\":2344:2350   */\n  dup4\n    /* \"#utility.yul\":2341:2342   */\n  dup2\n    /* \"#utility.yul\":2338:2351   */\n  lt\n    /* \"#utility.yul\":2330:2443   */\n  iszero\n  tag_68\n  jumpi\n    /* \"#utility.yul\":2429:2430   */\n  dup1\n    /* \"#utility.yul\":2424:2427   */\n  dup3\n    /* \"#utility.yul\":2420:2431   */\n  add\n    /* \"#utility.yul\":2414:2432   */\n  mload\n    /* \"#utility.yul\":2410:2411   */\n  dup2\n    /* \"#utility.yul\":2405:2408   */\n  dup5\n    /* \"#utility.yul\":2401:2412   */\n  add\n    /* \"#utility.yul\":2394:2433   */\n  mstore\n    /* \"#utility.yul\":2366:2368   */\n  0x20\n    /* \"#utility.yul\":2363:2364   */\n  dup2\n    /* \"#utility.yul\":2359:2369   */\n  add\n    /* \"#utility.yul\":2354:2369   */\n  swap1\n  pop\n    /* \"#utility.yul\":2330:2443   */\n  jump(tag_66)\ntag_68:\n    /* \"#utility.yul\":2461:2467   */\n  dup4\n    /* \"#utility.yul\":2458:2459   */\n  dup2\n    /* \"#utility.yul\":2455:2468   */\n  gt\n    /* \"#utility.yul\":2452:2553   */\n  iszero\n  tag_69\n  jumpi\n    /* \"#utility.yul\":2541:2542   */\n  0x00\n    /* \"#utility.yul\":2532:2538   */\n  dup5\n    /* \"#utility.yul\":2527:2530   */\n  dup5\n    /* \"#utility.yul\":2523:2539   */\n  add\n    /* \"#utility.yul\":2516:2543   */\n  mstore\n    /* \"#utility.yul\":2452:2553   */\ntag_69:\n    /* \"#utility.yul\":2301:2559   */\n  pop\n    /* \"#utility.yul\":2252:2559   */\n  pop\n  pop\n  pop\n  jump\t// out\n    /* \"#utility.yul\":2565:2885   */\ntag_10:\n    /* \"#utility.yul\":2609:2615   */\n  0x00\n    /* \"#utility.yul\":2646:2647   */\n  0x02\n    /* \"#utility.yul\":2640:2644   */\n  dup3\n    /* \"#utility.yul\":2636:2648   */\n  div\n    /* \"#utility.yul\":2626:2648   */\n  swap1\n  pop\n    /* \"#utility.yul\":2693:2694   */\n  0x01\n    /* \"#utility.yul\":2687:2691   */\n  dup3\n    /* \"#utility.yul\":2683:2695   */\n  and\n    /* \"#utility.yul\":2714:2732   */\n  dup1\n    /* \"#utility.yul\":2704:2785   */\n  tag_71\n  jumpi\n    /* \"#utility.yul\":2770:2774   */\n  0x7f\n    /* \"#utility.yul\":2762:2768   */\n  dup3\n    /* \"#utility.yul\":2758:2775   */\n  and\n    /* \"#utility.yul\":2748:2775   */\n  swap2\n  pop\n    /* \"#utility.yul\":2704:2785   */\ntag_71:\n    /* \"#utility.yul\":2832:2834   */\n  0x20\n    /* \"#utility.yul\":2824:2830   */\n  dup3\n    /* \"#utility.yul\":2821:2835   */\n  lt\n    /* \"#utility.yul\":2801:2819   */\n  dup2\n    /* \"#utility.yul\":2798:2836   */\n  eq\n    /* \"#utility.yul\":2795:2879   */\n  iszero\n  tag_72\n  jumpi\n    /* \"#utility.yul\":2851:2869   */\n  tag_73\n  tag_74\n  jump\t// in\ntag_73:\n    /* \"#utility.yul\":2795:2879   */\ntag_72:\n    /* \"#utility.yul\":2616:2885   */\n  pop\n    /* \"#utility.yul\":2565:2885   */\n  swap2\n  swap1\n  pop\n  jump\t// out\n    /* \"#utility.yul\":2891:3172   */\ntag_55:\n    /* \"#utility.yul\":2974:3001   */\n  tag_76\n    /* \"#utility.yul\":2996:3000   */\n  dup3\n    /* \"#utility.yul\":2974:3001   */\n  tag_62\n  jump\t// in\ntag_76:\n    /* \"#utility.yul\":2966:2972   */\n  dup2\n    /* \"#utility.yul\":2962:3002   */\n  add\n    /* \"#utility.yul\":3104:3110   */\n  dup2\n    /* \"#utility.yul\":3092:3102   */\n  dup2\n    /* \"#utility.yul\":3089:3111   */\n  lt\n    /* \"#utility.yul\":3068:3086   */\n  0xffffffffffffffff\n    /* \"#utility.yul\":3056:3066   */\n  dup3\n    /* \"#utility.yul\":3053:3087   */\n  gt\n    /* \"#utility.yul\":3050:3112   */\n  or\n    /* \"#utility.yul\":3047:3135   */\n  iszero\n  tag_77\n  jumpi\n    /* \"#utility.yul\":3115:3133   */\n  tag_78\n  tag_60\n  jump\t// in\ntag_78:\n    /* \"#utility.yul\":3047:3135   */\ntag_77:\n    /* \"#utility.yul\":3155:3165   */\n  dup1\n    /* \"#utility.yul\":3151:3153   */\n  0x40\n    /* \"#utility.yul\":3144:3166   */\n  mstore\n    /* \"#utility.yul\":2934:3172   */\n  pop\n    /* \"#utility.yul\":2891:3172   */\n  pop\n  pop\n  jump\t// out\n    /* \"#utility.yul\":3178:3358   */\ntag_74:\n    /* \"#utility.yul\":3226:3303   */\n  0x4e487b7100000000000000000000000000000000000000000000000000000000\n    /* \"#utility.yul\":3223:3224   */\n  0x00\n    /* \"#utility.yul\":3216:3304   */\n  mstore\n    /* \"#utility.yul\":3323:3327   */\n  0x22\n    /* \"#utility.yul\":3320:3321   */\n  0x04\n    /* \"#utility.yul\":3313:3328   */\n  mstore\n    /* \"#utility.yul\":3347:3351   */\n  0x24\n    /* \"#utility.yul\":3344:3345   */\n  0x00\n    /* \"#utility.yul\":3337:3352   */\n  revert\n    /* \"#utility.yul\":3364:3544   */\ntag_60:\n    /* \"#utility.yul\":3412:3489   */\n  0x4e487b7100000000000000000000000000000000000000000000000000000000\n    /* \"#utility.yul\":3409:3410   */\n  0x00\n    /* \"#utility.yul\":3402:3490   */\n  mstore\n    /* \"#utility.yul\":3509:3513   */\n  0x41\n    /* \"#utility.yul\":3506:3507   */\n  0x04\n    /* \"#utility.yul\":3499:3514   */\n  mstore\n    /* \"#utility.yul\":3533:3537   */\n  0x24\n    /* \"#utility.yul\":3530:3531   */\n  0x00\n    /* \"#utility.yul\":3523:3538   */\n  revert\n    /* \"#utility.yul\":3550:3667   */\ntag_40:\n    /* \"#utility.yul\":3659:3660   */\n  0x00\n    /* \"#utility.yul\":3656:3657   */\n  dup1\n    /* \"#utility.yul\":3649:3661   */\n  revert\n    /* \"#utility.yul\":3673:3790   */\ntag_29:\n    /* \"#utility.yul\":3782:3783   */\n  0x00\n    /* \"#utility.yul\":3779:3780   */\n  dup1\n    /* \"#utility.yul\":3772:3784   */\n  revert\n    /* \"#utility.yul\":3796:3913   */\ntag_49:\n    /* \"#utility.yul\":3905:3906   */\n  0x00\n    /* \"#utility.yul\":3902:3903   */\n  dup1\n    /* \"#utility.yul\":3895:3907   */\n  revert\n    /* \"#utility.yul\":3919:4036   */\ntag_45:\n    /* \"#utility.yul\":4028:4029   */\n  0x00\n    /* \"#utility.yul\":4025:4026   */\n  dup1\n    /* \"#utility.yul\":4018:4030   */\n  revert\n    /* \"#utility.yul\":4042:4144   */\ntag_62:\n    /* \"#utility.yul\":4083:4089   */\n  0x00\n    /* \"#utility.yul\":4134:4136   */\n  0x1f\n    /* \"#utility.yul\":4130:4137   */\n  not\n    /* \"#utility.yul\":4125:4127   */\n  0x1f\n    /* \"#utility.yul\":4118:4123   */\n  dup4\n    /* \"#utility.yul\":4114:4128   */\n  add\n    /* \"#utility.yul\":4110:4138   */\n  and\n    /* \"#utility.yul\":4100:4138   */\n  swap1\n  pop\n    /* \"#utility.yul\":4042:4144   */\n  swap2\n  swap1\n  pop\n  jump\t// out\n    /* \"#utility.yul\":4150:4270   */\ntag_35:\n    /* \"#utility.yul\":4222:4245   */\n  tag_87\n    /* \"#utility.yul\":4239:4244   */\n  dup2\n    /* \"#utility.yul\":4222:4245   */\n  tag_63\n  jump\t// in\ntag_87:\n    /* \"#utility.yul\":4215:4220   */\n  dup2\n    /* \"#utility.yul\":4212:4246   */\n  eq\n    /* \"#utility.yul\":4202:4264   */\n  tag_88\n  jumpi\n    /* \"#utility.yul\":4260:4261   */\n  0x00\n    /* \"#utility.yul\":4257:4258   */\n  dup1\n    /* \"#utility.yul\":4250:4262   */\n  revert\n    /* \"#utility.yul\":4202:4264   */\ntag_88:\n    /* \"#utility.yul\":4150:4270   */\n  pop\n  jump\t// out\n    /* \"contracts/test2.sol\":67:376  contract Property {... */\ntag_8:\n  dataSize(sub_0)\n  dup1\n  dataOffset(sub_0)\n  0x00\n  codecopy\n  0x00\n  return\nstop\n\nsub_0: assembly {\n        /* \"contracts/test2.sol\":67:376  contract Property {... */\n      mstore(0x40, 0x80)\n      callvalue\n      dup1\n      iszero\n      tag_1\n      jumpi\n      0x00\n      dup1\n      revert\n    tag_1:\n      pop\n      jumpi(tag_2, lt(calldatasize, 0x04))\n      shr(0xe0, calldataload(0x00))\n      dup1\n      0x516f279e\n      eq\n      tag_3\n      jumpi\n      dup1\n      0x827bfbdf\n      eq\n      tag_4\n      jumpi\n      dup1\n      0xa035b1fe\n      eq\n      tag_5\n      jumpi\n      dup1\n      0xf7a30806\n      eq\n      tag_6\n      jumpi\n    tag_2:\n      0x00\n      dup1\n      revert\n        /* \"contracts/test2.sol\":113:146  string public location = \"London\" */\n    tag_3:\n      tag_7\n      tag_8\n      jump\t// in\n    tag_7:\n      mload(0x40)\n      tag_9\n      swap2\n      swap1\n      tag_10\n      jump\t// in\n    tag_9:\n      mload(0x40)\n      dup1\n      swap2\n      sub\n      swap1\n      return\n        /* \"contracts/test2.sol\":284:374  function setLocation(string memory _location) public {... */\n    tag_4:\n      tag_11\n      0x04\n      dup1\n      calldatasize\n      sub\n      dup2\n      add\n      swap1\n      tag_12\n      swap2\n      swap1\n      tag_13\n      jump\t// in\n    tag_12:\n      tag_14\n      jump\t// in\n    tag_11:\n      stop\n        /* \"contracts/test2.sol\":91:107  int public price */\n    tag_5:\n      tag_15\n      tag_16\n      jump\t// in\n    tag_15:\n      mload(0x40)\n      tag_17\n      swap2\n      swap1\n      tag_18\n      jump\t// in\n    tag_17:\n      mload(0x40)\n      dup1\n      swap2\n      sub\n      swap1\n      return\n        /* \"contracts/test2.sol\":210:278  function setPrice(int _price) public {... */\n    tag_6:\n      tag_19\n      0x04\n      dup1\n      calldatasize\n      sub\n      dup2\n      add\n      swap1\n      tag_20\n      swap2\n      swap1\n      tag_21\n      jump\t// in\n    tag_20:\n      tag_22\n      jump\t// in\n    tag_19:\n      stop\n        /* \"contracts/test2.sol\":113:146  string public location = \"London\" */\n    tag_8:\n      0x01\n      dup1\n      sload\n      tag_23\n      swap1\n      tag_24\n      jump\t// in\n    tag_23:\n      dup1\n      0x1f\n      add\n      0x20\n      dup1\n      swap2\n      div\n      mul\n      0x20\n      add\n      mload(0x40)\n      swap1\n      dup2\n      add\n      0x40\n      mstore\n      dup1\n      swap3\n      swap2\n      swap1\n      dup2\n      dup2\n      mstore\n      0x20\n      add\n      dup3\n      dup1\n      sload\n      tag_25\n      swap1\n      tag_24\n      jump\t// in\n    tag_25:\n      dup1\n      iszero\n      tag_26\n      jumpi\n      dup1\n      0x1f\n      lt\n      tag_27\n      jumpi\n      0x0100\n      dup1\n      dup4\n      sload\n      div\n      mul\n      dup4\n      mstore\n      swap2\n      0x20\n      add\n      swap2\n      jump(tag_26)\n    tag_27:\n      dup3\n      add\n      swap2\n      swap1\n      0x00\n      mstore\n      keccak256(0x00, 0x20)\n      swap1\n    tag_28:\n      dup2\n      sload\n      dup2\n      mstore\n      swap1\n      0x01\n      add\n      swap1\n      0x20\n      add\n      dup1\n      dup4\n      gt\n      tag_28\n      jumpi\n      dup3\n      swap1\n      sub\n      0x1f\n      and\n      dup3\n      add\n      swap2\n    tag_26:\n      pop\n      pop\n      pop\n      pop\n      pop\n      dup2\n      jump\t// out\n        /* \"contracts/test2.sol\":284:374  function setLocation(string memory _location) public {... */\n    tag_14:\n        /* \"contracts/test2.sol\":358:367  _location */\n      dup1\n        /* \"contracts/test2.sol\":347:355  location */\n      0x01\n        /* \"contracts/test2.sol\":347:367  location = _location */\n      swap1\n      dup1\n      mload\n      swap1\n      0x20\n      add\n      swap1\n      tag_30\n      swap3\n      swap2\n      swap1\n      tag_31\n      jump\t// in\n    tag_30:\n      pop\n        /* \"contracts/test2.sol\":284:374  function setLocation(string memory _location) public {... */\n      pop\n      jump\t// out\n        /* \"contracts/test2.sol\":91:107  int public price */\n    tag_16:\n      sload(0x00)\n      dup2\n      jump\t// out\n        /* \"contracts/test2.sol\":210:278  function setPrice(int _price) public {... */\n    tag_22:\n        /* \"contracts/test2.sol\":265:271  _price */\n      dup1\n        /* \"contracts/test2.sol\":257:262  price */\n      0x00\n        /* \"contracts/test2.sol\":257:271  price = _price */\n      dup2\n      swap1\n      sstore\n      pop\n        /* \"contracts/test2.sol\":210:278  function setPrice(int _price) public {... */\n      pop\n      jump\t// out\n    tag_31:\n      dup3\n      dup1\n      sload\n      tag_33\n      swap1\n      tag_24\n      jump\t// in\n    tag_33:\n      swap1\n      0x00\n      mstore\n      keccak256(0x00, 0x20)\n      swap1\n      0x1f\n      add\n      0x20\n      swap1\n      div\n      dup2\n      add\n      swap3\n      dup3\n      tag_35\n      jumpi\n      0x00\n      dup6\n      sstore\n      jump(tag_34)\n    tag_35:\n      dup3\n      0x1f\n      lt\n      tag_36\n      jumpi\n      dup1\n      mload\n      not(0xff)\n      and\n      dup4\n      dup1\n      add\n      or\n      dup6\n      sstore\n      jump(tag_34)\n    tag_36:\n      dup3\n      dup1\n      add\n      0x01\n      add\n      dup6\n      sstore\n      dup3\n      iszero\n      tag_34\n      jumpi\n      swap2\n      dup3\n      add\n    tag_37:\n      dup3\n      dup2\n      gt\n      iszero\n      tag_38\n      jumpi\n      dup3\n      mload\n      dup3\n      sstore\n      swap2\n      0x20\n      add\n      swap2\n      swap1\n      0x01\n      add\n      swap1\n      jump(tag_37)\n    tag_38:\n    tag_34:\n      pop\n      swap1\n      pop\n      tag_39\n      swap2\n      swap1\n      tag_40\n      jump\t// in\n    tag_39:\n      pop\n      swap1\n      jump\t// out\n    tag_40:\n    tag_41:\n      dup1\n      dup3\n      gt\n      iszero\n      tag_42\n      jumpi\n      0x00\n      dup2\n      0x00\n      swap1\n      sstore\n      pop\n      0x01\n      add\n      jump(tag_41)\n    tag_42:\n      pop\n      swap1\n      jump\t// out\n        /* \"#utility.yul\":7:419   */\n    tag_44:\n        /* \"#utility.yul\":85:90   */\n      0x00\n        /* \"#utility.yul\":110:176   */\n      tag_46\n        /* \"#utility.yul\":126:175   */\n      tag_47\n        /* \"#utility.yul\":168:174   */\n      dup5\n        /* \"#utility.yul\":126:175   */\n      tag_48\n      jump\t// in\n    tag_47:\n        /* \"#utility.yul\":110:176   */\n      tag_49\n      jump\t// in\n    tag_46:\n        /* \"#utility.yul\":101:176   */\n      swap1\n      pop\n        /* \"#utility.yul\":199:205   */\n      dup3\n        /* \"#utility.yul\":192:197   */\n      dup2\n        /* \"#utility.yul\":185:206   */\n      mstore\n        /* \"#utility.yul\":237:241   */\n      0x20\n        /* \"#utility.yul\":230:235   */\n      dup2\n        /* \"#utility.yul\":226:242   */\n      add\n        /* \"#utility.yul\":275:278   */\n      dup5\n        /* \"#utility.yul\":266:272   */\n      dup5\n        /* \"#utility.yul\":261:264   */\n      dup5\n        /* \"#utility.yul\":257:273   */\n      add\n        /* \"#utility.yul\":254:279   */\n      gt\n        /* \"#utility.yul\":251:363   */\n      iszero\n      tag_50\n      jumpi\n        /* \"#utility.yul\":282:361   */\n      tag_51\n      tag_52\n      jump\t// in\n    tag_51:\n        /* \"#utility.yul\":251:363   */\n    tag_50:\n        /* \"#utility.yul\":372:413   */\n      tag_53\n        /* \"#utility.yul\":406:412   */\n      dup5\n        /* \"#utility.yul\":401:404   */\n      dup3\n        /* \"#utility.yul\":396:399   */\n      dup6\n        /* \"#utility.yul\":372:413   */\n      tag_54\n      jump\t// in\n    tag_53:\n        /* \"#utility.yul\":91:419   */\n      pop\n        /* \"#utility.yul\":7:419   */\n      swap4\n      swap3\n      pop\n      pop\n      pop\n      jump\t// out\n        /* \"#utility.yul\":425:562   */\n    tag_55:\n        /* \"#utility.yul\":470:475   */\n      0x00\n        /* \"#utility.yul\":508:514   */\n      dup2\n        /* \"#utility.yul\":495:515   */\n      calldataload\n        /* \"#utility.yul\":486:515   */\n      swap1\n      pop\n        /* \"#utility.yul\":524:556   */\n      tag_57\n        /* \"#utility.yul\":550:555   */\n      dup2\n        /* \"#utility.yul\":524:556   */\n      tag_58\n      jump\t// in\n    tag_57:\n        /* \"#utility.yul\":425:562   */\n      swap3\n      swap2\n      pop\n      pop\n      jump\t// out\n        /* \"#utility.yul\":582:922   */\n    tag_59:\n        /* \"#utility.yul\":638:643   */\n      0x00\n        /* \"#utility.yul\":687:690   */\n      dup3\n        /* \"#utility.yul\":680:684   */\n      0x1f\n        /* \"#utility.yul\":672:678   */\n      dup4\n        /* \"#utility.yul\":668:685   */\n      add\n        /* \"#utility.yul\":664:691   */\n      slt\n        /* \"#utility.yul\":654:776   */\n      tag_61\n      jumpi\n        /* \"#utility.yul\":695:774   */\n      tag_62\n      tag_63\n      jump\t// in\n    tag_62:\n        /* \"#utility.yul\":654:776   */\n    tag_61:\n        /* \"#utility.yul\":812:818   */\n      dup2\n        /* \"#utility.yul\":799:819   */\n      calldataload\n        /* \"#utility.yul\":837:916   */\n      tag_64\n        /* \"#utility.yul\":912:915   */\n      dup5\n        /* \"#utility.yul\":904:910   */\n      dup3\n        /* \"#utility.yul\":897:901   */\n      0x20\n        /* \"#utility.yul\":889:895   */\n      dup7\n        /* \"#utility.yul\":885:902   */\n      add\n        /* \"#utility.yul\":837:916   */\n      tag_44\n      jump\t// in\n    tag_64:\n        /* \"#utility.yul\":828:916   */\n      swap2\n      pop\n        /* \"#utility.yul\":644:922   */\n      pop\n        /* \"#utility.yul\":582:922   */\n      swap3\n      swap2\n      pop\n      pop\n      jump\t// out\n        /* \"#utility.yul\":928:1255   */\n    tag_21:\n        /* \"#utility.yul\":986:992   */\n      0x00\n        /* \"#utility.yul\":1035:1037   */\n      0x20\n        /* \"#utility.yul\":1023:1032   */\n      dup3\n        /* \"#utility.yul\":1014:1021   */\n      dup5\n        /* \"#utility.yul\":1010:1033   */\n      sub\n        /* \"#utility.yul\":1006:1038   */\n      slt\n        /* \"#utility.yul\":1003:1122   */\n      iszero\n      tag_66\n      jumpi\n        /* \"#utility.yul\":1041:1120   */\n      tag_67\n      tag_68\n      jump\t// in\n    tag_67:\n        /* \"#utility.yul\":1003:1122   */\n    tag_66:\n        /* \"#utility.yul\":1161:1162   */\n      0x00\n        /* \"#utility.yul\":1186:1238   */\n      tag_69\n        /* \"#utility.yul\":1230:1237   */\n      dup5\n        /* \"#utility.yul\":1221:1227   */\n      dup3\n        /* \"#utility.yul\":1210:1219   */\n      dup6\n        /* \"#utility.yul\":1206:1228   */\n      add\n        /* \"#utility.yul\":1186:1238   */\n      tag_55\n      jump\t// in\n    tag_69:\n        /* \"#utility.yul\":1176:1238   */\n      swap2\n      pop\n        /* \"#utility.yul\":1132:1248   */\n      pop\n        /* \"#utility.yul\":928:1255   */\n      swap3\n      swap2\n      pop\n      pop\n      jump\t// out\n        /* \"#utility.yul\":1261:1770   */\n    tag_13:\n        /* \"#utility.yul\":1330:1336   */\n      0x00\n        /* \"#utility.yul\":1379:1381   */\n      0x20\n        /* \"#utility.yul\":1367:1376   */\n      dup3\n        /* \"#utility.yul\":1358:1365   */\n      dup5\n        /* \"#utility.yul\":1354:1377   */\n      sub\n        /* \"#utility.yul\":1350:1382   */\n      slt\n        /* \"#utility.yul\":1347:1466   */\n      iszero\n      tag_71\n      jumpi\n        /* \"#utility.yul\":1385:1464   */\n      tag_72\n      tag_68\n      jump\t// in\n    tag_72:\n        /* \"#utility.yul\":1347:1466   */\n    tag_71:\n        /* \"#utility.yul\":1533:1534   */\n      0x00\n        /* \"#utility.yul\":1522:1531   */\n      dup3\n        /* \"#utility.yul\":1518:1535   */\n      add\n        /* \"#utility.yul\":1505:1536   */\n      calldataload\n        /* \"#utility.yul\":1563:1581   */\n      0xffffffffffffffff\n        /* \"#utility.yul\":1555:1561   */\n      dup2\n        /* \"#utility.yul\":1552:1582   */\n      gt\n        /* \"#utility.yul\":1549:1666   */\n      iszero\n      tag_73\n      jumpi\n        /* \"#utility.yul\":1585:1664   */\n      tag_74\n      tag_75\n      jump\t// in\n    tag_74:\n        /* \"#utility.yul\":1549:1666   */\n    tag_73:\n        /* \"#utility.yul\":1690:1753   */\n      tag_76\n        /* \"#utility.yul\":1745:1752   */\n      dup5\n        /* \"#utility.yul\":1736:1742   */\n      dup3\n        /* \"#utility.yul\":1725:1734   */\n      dup6\n        /* \"#utility.yul\":1721:1743   */\n      add\n        /* \"#utility.yul\":1690:1753   */\n      tag_59\n      jump\t// in\n    tag_76:\n        /* \"#utility.yul\":1680:1753   */\n      swap2\n      pop\n        /* \"#utility.yul\":1476:1763   */\n      pop\n        /* \"#utility.yul\":1261:1770   */\n      swap3\n      swap2\n      pop\n      pop\n      jump\t// out\n        /* \"#utility.yul\":1776:1891   */\n    tag_77:\n        /* \"#utility.yul\":1861:1884   */\n      tag_79\n        /* \"#utility.yul\":1878:1883   */\n      dup2\n        /* \"#utility.yul\":1861:1884   */\n      tag_80\n      jump\t// in\n    tag_79:\n        /* \"#utility.yul\":1856:1859   */\n      dup3\n        /* \"#utility.yul\":1849:1885   */\n      mstore\n        /* \"#utility.yul\":1776:1891   */\n      pop\n      pop\n      jump\t// out\n        /* \"#utility.yul\":1897:2261   */\n    tag_81:\n        /* \"#utility.yul\":1985:1988   */\n      0x00\n        /* \"#utility.yul\":2013:2052   */\n      tag_83\n        /* \"#utility.yul\":2046:2051   */\n      dup3\n        /* \"#utility.yul\":2013:2052   */\n      tag_84\n      jump\t// in\n    tag_83:\n        /* \"#utility.yul\":2068:2139   */\n      tag_85\n        /* \"#utility.yul\":2132:2138   */\n      dup2\n        /* \"#utility.yul\":2127:2130   */\n      dup6\n        /* \"#utility.yul\":2068:2139   */\n      tag_86\n      jump\t// in\n    tag_85:\n        /* \"#utility.yul\":2061:2139   */\n      swap4\n      pop\n        /* \"#utility.yul\":2148:2200   */\n      tag_87\n        /* \"#utility.yul\":2193:2199   */\n      dup2\n        /* \"#utility.yul\":2188:2191   */\n      dup6\n        /* \"#utility.yul\":2181:2185   */\n      0x20\n        /* \"#utility.yul\":2174:2179   */\n      dup7\n        /* \"#utility.yul\":2170:2186   */\n      add\n        /* \"#utility.yul\":2148:2200   */\n      tag_88\n      jump\t// in\n    tag_87:\n        /* \"#utility.yul\":2225:2254   */\n      tag_89\n        /* \"#utility.yul\":2247:2253   */\n      dup2\n        /* \"#utility.yul\":2225:2254   */\n      tag_90\n      jump\t// in\n    tag_89:\n        /* \"#utility.yul\":2220:2223   */\n      dup5\n        /* \"#utility.yul\":2216:2255   */\n      add\n        /* \"#utility.yul\":2209:2255   */\n      swap2\n      pop\n        /* \"#utility.yul\":1989:2261   */\n      pop\n        /* \"#utility.yul\":1897:2261   */\n      swap3\n      swap2\n      pop\n      pop\n      jump\t// out\n        /* \"#utility.yul\":2267:2485   */\n    tag_18:\n        /* \"#utility.yul\":2358:2362   */\n      0x00\n        /* \"#utility.yul\":2396:2398   */\n      0x20\n        /* \"#utility.yul\":2385:2394   */\n      dup3\n        /* \"#utility.yul\":2381:2399   */\n      add\n        /* \"#utility.yul\":2373:2399   */\n      swap1\n      pop\n        /* \"#utility.yul\":2409:2478   */\n      tag_92\n        /* \"#utility.yul\":2475:2476   */\n      0x00\n        /* \"#utility.yul\":2464:2473   */\n      dup4\n        /* \"#utility.yul\":2460:2477   */\n      add\n        /* \"#utility.yul\":2451:2457   */\n      dup5\n        /* \"#utility.yul\":2409:2478   */\n      tag_77\n      jump\t// in\n    tag_92:\n        /* \"#utility.yul\":2267:2485   */\n      swap3\n      swap2\n      pop\n      pop\n      jump\t// out\n        /* \"#utility.yul\":2491:2804   */\n    tag_10:\n        /* \"#utility.yul\":2604:2608   */\n      0x00\n        /* \"#utility.yul\":2642:2644   */\n      0x20\n        /* \"#utility.yul\":2631:2640   */\n      dup3\n        /* \"#utility.yul\":2627:2645   */\n      add\n        /* \"#utility.yul\":2619:2645   */\n      swap1\n      pop\n        /* \"#utility.yul\":2691:2700   */\n      dup2\n        /* \"#utility.yul\":2685:2689   */\n      dup2\n        /* \"#utility.yul\":2681:2701   */\n      sub\n        /* \"#utility.yul\":2677:2678   */\n      0x00\n        /* \"#utility.yul\":2666:2675   */\n      dup4\n        /* \"#utility.yul\":2662:2679   */\n      add\n        /* \"#utility.yul\":2655:2702   */\n      mstore\n        /* \"#utility.yul\":2719:2797   */\n      tag_94\n        /* \"#utility.yul\":2792:2796   */\n      dup2\n        /* \"#utility.yul\":2783:2789   */\n      dup5\n        /* \"#utility.yul\":2719:2797   */\n      tag_81\n      jump\t// in\n    tag_94:\n        /* \"#utility.yul\":2711:2797   */\n      swap1\n      pop\n        /* \"#utility.yul\":2491:2804   */\n      swap3\n      swap2\n      pop\n      pop\n      jump\t// out\n        /* \"#utility.yul\":2810:2939   */\n    tag_49:\n        /* \"#utility.yul\":2844:2850   */\n      0x00\n        /* \"#utility.yul\":2871:2891   */\n      tag_96\n      tag_97\n      jump\t// in\n    tag_96:\n        /* \"#utility.yul\":2861:2891   */\n      swap1\n      pop\n        /* \"#utility.yul\":2900:2933   */\n      tag_98\n        /* \"#utility.yul\":2928:2932   */\n      dup3\n        /* \"#utility.yul\":2920:2926   */\n      dup3\n        /* \"#utility.yul\":2900:2933   */\n      tag_99\n      jump\t// in\n    tag_98:\n        /* \"#utility.yul\":2810:2939   */\n      swap2\n      swap1\n      pop\n      jump\t// out\n        /* \"#utility.yul\":2945:3020   */\n    tag_97:\n        /* \"#utility.yul\":2978:2984   */\n      0x00\n        /* \"#utility.yul\":3011:3013   */\n      0x40\n        /* \"#utility.yul\":3005:3014   */\n      mload\n        /* \"#utility.yul\":2995:3014   */\n      swap1\n      pop\n        /* \"#utility.yul\":2945:3020   */\n      swap1\n      jump\t// out\n        /* \"#utility.yul\":3026:3334   */\n    tag_48:\n        /* \"#utility.yul\":3088:3092   */\n      0x00\n        /* \"#utility.yul\":3178:3196   */\n      0xffffffffffffffff\n        /* \"#utility.yul\":3170:3176   */\n      dup3\n        /* \"#utility.yul\":3167:3197   */\n      gt\n        /* \"#utility.yul\":3164:3220   */\n      iszero\n      tag_102\n      jumpi\n        /* \"#utility.yul\":3200:3218   */\n      tag_103\n      tag_104\n      jump\t// in\n    tag_103:\n        /* \"#utility.yul\":3164:3220   */\n    tag_102:\n        /* \"#utility.yul\":3238:3267   */\n      tag_105\n        /* \"#utility.yul\":3260:3266   */\n      dup3\n        /* \"#utility.yul\":3238:3267   */\n      tag_90\n      jump\t// in\n    tag_105:\n        /* \"#utility.yul\":3230:3267   */\n      swap1\n      pop\n        /* \"#utility.yul\":3322:3326   */\n      0x20\n        /* \"#utility.yul\":3316:3320   */\n      dup2\n        /* \"#utility.yul\":3312:3327   */\n      add\n        /* \"#utility.yul\":3304:3327   */\n      swap1\n      pop\n        /* \"#utility.yul\":3026:3334   */\n      swap2\n      swap1\n      pop\n      jump\t// out\n        /* \"#utility.yul\":3340:3439   */\n    tag_84:\n        /* \"#utility.yul\":3392:3398   */\n      0x00\n        /* \"#utility.yul\":3426:3431   */\n      dup2\n        /* \"#utility.yul\":3420:3432   */\n      mload\n        /* \"#utility.yul\":3410:3432   */\n      swap1\n      pop\n        /* \"#utility.yul\":3340:3439   */\n      swap2\n      swap1\n      pop\n      jump\t// out\n        /* \"#utility.yul\":3445:3614   */\n    tag_86:\n        /* \"#utility.yul\":3529:3540   */\n      0x00\n        /* \"#utility.yul\":3563:3569   */\n      dup3\n        /* \"#utility.yul\":3558:3561   */\n      dup3\n        /* \"#utility.yul\":3551:3570   */\n      mstore\n        /* \"#utility.yul\":3603:3607   */\n      0x20\n        /* \"#utility.yul\":3598:3601   */\n      dup3\n        /* \"#utility.yul\":3594:3608   */\n      add\n        /* \"#utility.yul\":3579:3608   */\n      swap1\n      pop\n        /* \"#utility.yul\":3445:3614   */\n      swap3\n      swap2\n      pop\n      pop\n      jump\t// out\n        /* \"#utility.yul\":3620:3696   */\n    tag_80:\n        /* \"#utility.yul\":3656:3663   */\n      0x00\n        /* \"#utility.yul\":3685:3690   */\n      dup2\n        /* \"#utility.yul\":3674:3690   */\n      swap1\n      pop\n        /* \"#utility.yul\":3620:3696   */\n      swap2\n      swap1\n      pop\n      jump\t// out\n        /* \"#utility.yul\":3702:3856   */\n    tag_54:\n        /* \"#utility.yul\":3786:3792   */\n      dup3\n        /* \"#utility.yul\":3781:3784   */\n      dup2\n        /* \"#utility.yul\":3776:3779   */\n      dup4\n        /* \"#utility.yul\":3763:3793   */\n      calldatacopy\n        /* \"#utility.yul\":3848:3849   */\n      0x00\n        /* \"#utility.yul\":3839:3845   */\n      dup4\n        /* \"#utility.yul\":3834:3837   */\n      dup4\n        /* \"#utility.yul\":3830:3846   */\n      add\n        /* \"#utility.yul\":3823:3850   */\n      mstore\n        /* \"#utility.yul\":3702:3856   */\n      pop\n      pop\n      pop\n      jump\t// out\n        /* \"#utility.yul\":3862:4169   */\n    tag_88:\n        /* \"#utility.yul\":3930:3931   */\n      0x00\n        /* \"#utility.yul\":3940:4053   */\n    tag_111:\n        /* \"#utility.yul\":3954:3960   */\n      dup4\n        /* \"#utility.yul\":3951:3952   */\n      dup2\n        /* \"#utility.yul\":3948:3961   */\n      lt\n        /* \"#utility.yul\":3940:4053   */\n      iszero\n      tag_113\n      jumpi\n        /* \"#utility.yul\":4039:4040   */\n      dup1\n        /* \"#utility.yul\":4034:4037   */\n      dup3\n        /* \"#utility.yul\":4030:4041   */\n      add\n        /* \"#utility.yul\":4024:4042   */\n      mload\n        /* \"#utility.yul\":4020:4021   */\n      dup2\n        /* \"#utility.yul\":4015:4018   */\n      dup5\n        /* \"#utility.yul\":4011:4022   */\n      add\n        /* \"#utility.yul\":4004:4043   */\n      mstore\n        /* \"#utility.yul\":3976:3978   */\n      0x20\n        /* \"#utility.yul\":3973:3974   */\n      dup2\n        /* \"#utility.yul\":3969:3979   */\n      add\n        /* \"#utility.yul\":3964:3979   */\n      swap1\n      pop\n        /* \"#utility.yul\":3940:4053   */\n      jump(tag_111)\n    tag_113:\n        /* \"#utility.yul\":4071:4077   */\n      dup4\n        /* \"#utility.yul\":4068:4069   */\n      dup2\n        /* \"#utility.yul\":4065:4078   */\n      gt\n        /* \"#utility.yul\":4062:4163   */\n      iszero\n      tag_114\n      jumpi\n        /* \"#utility.yul\":4151:4152   */\n      0x00\n        /* \"#utility.yul\":4142:4148   */\n      dup5\n        /* \"#utility.yul\":4137:4140   */\n      dup5\n        /* \"#utility.yul\":4133:4149   */\n      add\n        /* \"#utility.yul\":4126:4153   */\n      mstore\n        /* \"#utility.yul\":4062:4163   */\n    tag_114:\n        /* \"#utility.yul\":3911:4169   */\n      pop\n        /* \"#utility.yul\":3862:4169   */\n      pop\n      pop\n      pop\n      jump\t// out\n        /* \"#utility.yul\":4175:4495   */\n    tag_24:\n        /* \"#utility.yul\":4219:4225   */\n      0x00\n        /* \"#utility.yul\":4256:4257   */\n      0x02\n        /* \"#utility.yul\":4250:4254   */\n      dup3\n        /* \"#utility.yul\":4246:4258   */\n      div\n        /* \"#utility.yul\":4236:4258   */\n      swap1\n      pop\n        /* \"#utility.yul\":4303:4304   */\n      0x01\n        /* \"#utility.yul\":4297:4301   */\n      dup3\n        /* \"#utility.yul\":4293:4305   */\n      and\n        /* \"#utility.yul\":4324:4342   */\n      dup1\n        /* \"#utility.yul\":4314:4395   */\n      tag_116\n      jumpi\n        /* \"#utility.yul\":4380:4384   */\n      0x7f\n        /* \"#utility.yul\":4372:4378   */\n      dup3\n        /* \"#utility.yul\":4368:4385   */\n      and\n        /* \"#utility.yul\":4358:4385   */\n      swap2\n      pop\n        /* \"#utility.yul\":4314:4395   */\n    tag_116:\n        /* \"#utility.yul\":4442:4444   */\n      0x20\n        /* \"#utility.yul\":4434:4440   */\n      dup3\n        /* \"#utility.yul\":4431:4445   */\n      lt\n        /* \"#utility.yul\":4411:4429   */\n      dup2\n        /* \"#utility.yul\":4408:4446   */\n      eq\n        /* \"#utility.yul\":4405:4489   */\n      iszero\n      tag_117\n      jumpi\n        /* \"#utility.yul\":4461:4479   */\n      tag_118\n      tag_119\n      jump\t// in\n    tag_118:\n        /* \"#utility.yul\":4405:4489   */\n    tag_117:\n        /* \"#utility.yul\":4226:4495   */\n      pop\n        /* \"#utility.yul\":4175:4495   */\n      swap2\n      swap1\n      pop\n      jump\t// out\n        /* \"#utility.yul\":4501:4782   */\n    tag_99:\n        /* \"#utility.yul\":4584:4611   */\n      tag_121\n        /* \"#utility.yul\":4606:4610   */\n      dup3\n        /* \"#utility.yul\":4584:4611   */\n      tag_90\n      jump\t// in\n    tag_121:\n        /* \"#utility.yul\":4576:4582   */\n      dup2\n        /* \"#utility.yul\":4572:4612   */\n      add\n        /* \"#utility.yul\":4714:4720   */\n      dup2\n        /* \"#utility.yul\":4702:4712   */\n      dup2\n        /* \"#utility.yul\":4699:4721   */\n      lt\n        /* \"#utility.yul\":4678:4696   */\n      0xffffffffffffffff\n        /* \"#utility.yul\":4666:4676   */\n      dup3\n        /* \"#utility.yul\":4663:4697   */\n      gt\n        /* \"#utility.yul\":4660:4722   */\n      or\n        /* \"#utility.yul\":4657:4745   */\n      iszero\n      tag_122\n      jumpi\n        /* \"#utility.yul\":4725:4743   */\n      tag_123\n      tag_104\n      jump\t// in\n    tag_123:\n        /* \"#utility.yul\":4657:4745   */\n    tag_122:\n        /* \"#utility.yul\":4765:4775   */\n      dup1\n        /* \"#utility.yul\":4761:4763   */\n      0x40\n        /* \"#utility.yul\":4754:4776   */\n      mstore\n        /* \"#utility.yul\":4544:4782   */\n      pop\n        /* \"#utility.yul\":4501:4782   */\n      pop\n      pop\n      jump\t// out\n        /* \"#utility.yul\":4788:4968   */\n    tag_119:\n        /* \"#utility.yul\":4836:4913   */\n      0x4e487b7100000000000000000000000000000000000000000000000000000000\n        /* \"#utility.yul\":4833:4834   */\n      0x00\n        /* \"#utility.yul\":4826:4914   */\n      mstore\n        /* \"#utility.yul\":4933:4937   */\n      0x22\n        /* \"#utility.yul\":4930:4931   */\n      0x04\n        /* \"#utility.yul\":4923:4938   */\n      mstore\n        /* \"#utility.yul\":4957:4961   */\n      0x24\n        /* \"#utility.yul\":4954:4955   */\n      0x00\n        /* \"#utility.yul\":4947:4962   */\n      revert\n        /* \"#utility.yul\":4974:5154   */\n    tag_104:\n        /* \"#utility.yul\":5022:5099   */\n      0x4e487b7100000000000000000000000000000000000000000000000000000000\n        /* \"#utility.yul\":5019:5020   */\n      0x00\n        /* \"#utility.yul\":5012:5100   */\n      mstore\n        /* \"#utility.yul\":5119:5123   */\n      0x41\n        /* \"#utility.yul\":5116:5117   */\n      0x04\n        /* \"#utility.yul\":5109:5124   */\n      mstore\n        /* \"#utility.yul\":5143:5147   */\n      0x24\n        /* \"#utility.yul\":5140:5141   */\n      0x00\n        /* \"#utility.yul\":5133:5148   */\n      revert\n        /* \"#utility.yul\":5160:5277   */\n    tag_63:\n        /* \"#utility.yul\":5269:5270   */\n      0x00\n        /* \"#utility.yul\":5266:5267   */\n      dup1\n        /* \"#utility.yul\":5259:5271   */\n      revert\n        /* \"#utility.yul\":5283:5400   */\n    tag_52:\n        /* \"#utility.yul\":5392:5393   */\n      0x00\n        /* \"#utility.yul\":5389:5390   */\n      dup1\n        /* \"#utility.yul\":5382:5394   */\n      revert\n        /* \"#utility.yul\":5406:5523   */\n    tag_75:\n        /* \"#utility.yul\":5515:5516   */\n      0x00\n        /* \"#utility.yul\":5512:5513   */\n      dup1\n        /* \"#utility.yul\":5505:5517   */\n      revert\n        /* \"#utility.yul\":5529:5646   */\n    tag_68:\n        /* \"#utility.yul\":5638:5639   */\n      0x00\n        /* \"#utility.yul\":5635:5636   */\n      dup1\n        /* \"#utility.yul\":5628:5640   */\n      revert\n        /* \"#utility.yul\":5652:5754   */\n    tag_90:\n        /* \"#utility.yul\":5693:5699   */\n      0x00\n        /* \"#utility.yul\":5744:5746   */\n      0x1f\n        /* \"#utility.yul\":5740:5747   */\n      not\n        /* \"#utility.yul\":5735:5737   */\n      0x1f\n        /* \"#utility.yul\":5728:5733   */\n      dup4\n        /* \"#utility.yul\":5724:5738   */\n      add\n        /* \"#utility.yul\":5720:5748   */\n      and\n        /* \"#utility.yul\":5710:5748   */\n      swap1\n      pop\n        /* \"#utility.yul\":5652:5754   */\n      swap2\n      swap1\n      pop\n      jump\t// out\n        /* \"#utility.yul\":5760:5880   */\n    tag_58:\n        /* \"#utility.yul\":5832:5855   */\n      tag_132\n        /* \"#utility.yul\":5849:5854   */\n      dup2\n        /* \"#utility.yul\":5832:5855   */\n      tag_80\n      jump\t// in\n    tag_132:\n        /* \"#utility.yul\":5825:5830   */\n      dup2\n        /* \"#utility.yul\":5822:5856   */\n      eq\n        /* \"#utility.yul\":5812:5874   */\n      tag_133\n      jumpi\n        /* \"#utility.yul\":5870:5871   */\n      0x00\n        /* \"#utility.yul\":5867:5868   */\n      dup1\n        /* \"#utility.yul\":5860:5872   */\n      revert\n        /* \"#utility.yul\":5812:5874   */\n    tag_133:\n        /* \"#utility.yul\":5760:5880   */\n      pop\n      jump\t// out\n\n    auxdata: 0xa26469706673582212204ea8a30db480f8e338f5e1d14f6aaf6d4030efac5525a79dce57cf4177b46eaa64736f6c63430008070033\n}\n",
				"bytecode": {
					"linkReferences": {},
					"object": "60806040526040518060400160405280600681526020017f4c6f6e646f6e000000000000000000000000000000000000000000000000000081525060019080519060200190620000519291906200008d565b503480156200005f57600080fd5b5060405162000981380380620009818339818101604052810190620000859190620001d2565b5050620003e0565b8280546200009b90620002d7565b90600052602060002090601f016020900481019282620000bf57600085556200010b565b82601f10620000da57805160ff19168380011785556200010b565b828001600101855582156200010b579182015b828111156200010a578251825591602001919060010190620000ed565b5b5090506200011a91906200011e565b5090565b5b80821115620001395760008160009055506001016200011f565b5090565b6000620001546200014e8462000261565b62000238565b905082815260208101848484011115620001735762000172620003a6565b5b62000180848285620002a1565b509392505050565b6000815190506200019981620003c6565b92915050565b600082601f830112620001b757620001b6620003a1565b5b8151620001c98482602086016200013d565b91505092915050565b60008060408385031215620001ec57620001eb620003b0565b5b6000620001fc8582860162000188565b925050602083015167ffffffffffffffff81111562000220576200021f620003ab565b5b6200022e858286016200019f565b9150509250929050565b60006200024462000257565b90506200025282826200030d565b919050565b6000604051905090565b600067ffffffffffffffff8211156200027f576200027e62000372565b5b6200028a82620003b5565b9050602081019050919050565b6000819050919050565b60005b83811015620002c1578082015181840152602081019050620002a4565b83811115620002d1576000848401525b50505050565b60006002820490506001821680620002f057607f821691505b6020821081141562000307576200030662000343565b5b50919050565b6200031882620003b5565b810181811067ffffffffffffffff821117156200033a576200033962000372565b5b80604052505050565b7f4e487b7100000000000000000000000000000000000000000000000000000000600052602260045260246000fd5b7f4e487b7100000000000000000000000000000000000000000000000000000000600052604160045260246000fd5b600080fd5b600080fd5b600080fd5b600080fd5b6000601f19601f8301169050919050565b620003d18162000297565b8114620003dd57600080fd5b50565b61059180620003f06000396000f3fe608060405234801561001057600080fd5b506004361061004c5760003560e01c8063516f279e14610051578063827bfbdf1461006f578063a035b1fe1461008b578063f7a30806146100a9575b600080fd5b6100596100c5565b604051610066919061037e565b60405180910390f35b610089600480360381019061008491906102d2565b610153565b005b61009361016d565b6040516100a09190610363565b60405180910390f35b6100c360048036038101906100be91906102a5565b610173565b005b600180546100d29061045e565b80601f01602080910402602001604051908101604052809291908181526020018280546100fe9061045e565b801561014b5780601f106101205761010080835404028352916020019161014b565b820191906000526020600020905b81548152906001019060200180831161012e57829003601f168201915b505050505081565b806001908051906020019061016992919061017d565b5050565b60005481565b8060008190555050565b8280546101899061045e565b90600052602060002090601f0160209004810192826101ab57600085556101f2565b82601f106101c457805160ff19168380011785556101f2565b828001600101855582156101f2579182015b828111156101f15782518255916020019190600101906101d6565b5b5090506101ff9190610203565b5090565b5b8082111561021c576000816000905550600101610204565b5090565b600061023361022e846103c5565b6103a0565b90508281526020810184848401111561024f5761024e610524565b5b61025a84828561041c565b509392505050565b60008135905061027181610544565b92915050565b600082601f83011261028c5761028b61051f565b5b813561029c848260208601610220565b91505092915050565b6000602082840312156102bb576102ba61052e565b5b60006102c984828501610262565b91505092915050565b6000602082840312156102e8576102e761052e565b5b600082013567ffffffffffffffff81111561030657610305610529565b5b61031284828501610277565b91505092915050565b61032481610412565b82525050565b6000610335826103f6565b61033f8185610401565b935061034f81856020860161042b565b61035881610533565b840191505092915050565b6000602082019050610378600083018461031b565b92915050565b60006020820190508181036000830152610398818461032a565b905092915050565b60006103aa6103bb565b90506103b68282610490565b919050565b6000604051905090565b600067ffffffffffffffff8211156103e0576103df6104f0565b5b6103e982610533565b9050602081019050919050565b600081519050919050565b600082825260208201905092915050565b6000819050919050565b82818337600083830152505050565b60005b8381101561044957808201518184015260208101905061042e565b83811115610458576000848401525b50505050565b6000600282049050600182168061047657607f821691505b6020821081141561048a576104896104c1565b5b50919050565b61049982610533565b810181811067ffffffffffffffff821117156104b8576104b76104f0565b5b80604052505050565b7f4e487b7100000000000000000000000000000000000000000000000000000000600052602260045260246000fd5b7f4e487b7100000000000000000000000000000000000000000000000000000000600052604160045260246000fd5b600080fd5b600080fd5b600080fd5b600080fd5b6000601f19601f8301169050919050565b61054d81610412565b811461055857600080fd5b5056fea26469706673582212204ea8a30db480f8e338f5e1d14f6aaf6d4030efac5525a79dce57cf4177b46eaa64736f6c63430008070033",
					"opcodes": "PUSH1 0x80 PUSH1 0x40 MSTORE PUSH1 0x40 MLOAD DUP1 PUSH1 0x40 ADD PUSH1 0x40 MSTORE DUP1 PUSH1 0x6 DUP2 MSTORE PUSH1 0x20 ADD PUSH32 0x4C6F6E646F6E0000000000000000000000000000000000000000000000000000 DUP2 MSTORE POP PUSH1 0x1 SWAP1 DUP1 MLOAD SWAP1 PUSH1 0x20 ADD SWAP1 PUSH3 0x51 SWAP3 SWAP2 SWAP1 PUSH3 0x8D JUMP JUMPDEST POP CALLVALUE DUP1 ISZERO PUSH3 0x5F JUMPI PUSH1 0x0 DUP1 REVERT JUMPDEST POP PUSH1 0x40 MLOAD PUSH3 0x981 CODESIZE SUB DUP1 PUSH3 0x981 DUP4 CODECOPY DUP2 DUP2 ADD PUSH1 0x40 MSTORE DUP2 ADD SWAP1 PUSH3 0x85 SWAP2 SWAP1 PUSH3 0x1D2 JUMP JUMPDEST POP POP PUSH3 0x3E0 JUMP JUMPDEST DUP3 DUP1 SLOAD PUSH3 0x9B SWAP1 PUSH3 0x2D7 JUMP JUMPDEST SWAP1 PUSH1 0x0 MSTORE PUSH1 0x20 PUSH1 0x0 KECCAK256 SWAP1 PUSH1 0x1F ADD PUSH1 0x20 SWAP1 DIV DUP2 ADD SWAP3 DUP3 PUSH3 0xBF JUMPI PUSH1 0x0 DUP6 SSTORE PUSH3 0x10B JUMP JUMPDEST DUP3 PUSH1 0x1F LT PUSH3 0xDA JUMPI DUP1 MLOAD PUSH1 0xFF NOT AND DUP4 DUP1 ADD OR DUP6 SSTORE PUSH3 0x10B JUMP JUMPDEST DUP3 DUP1 ADD PUSH1 0x1 ADD DUP6 SSTORE DUP3 ISZERO PUSH3 0x10B JUMPI SWAP2 DUP3 ADD JUMPDEST DUP3 DUP2 GT ISZERO PUSH3 0x10A JUMPI DUP3 MLOAD DUP3 SSTORE SWAP2 PUSH1 0x20 ADD SWAP2 SWAP1 PUSH1 0x1 ADD SWAP1 PUSH3 0xED JUMP JUMPDEST JUMPDEST POP SWAP1 POP PUSH3 0x11A SWAP2 SWAP1 PUSH3 0x11E JUMP JUMPDEST POP SWAP1 JUMP JUMPDEST JUMPDEST DUP1 DUP3 GT ISZERO PUSH3 0x139 JUMPI PUSH1 0x0 DUP2 PUSH1 0x0 SWAP1 SSTORE POP PUSH1 0x1 ADD PUSH3 0x11F JUMP JUMPDEST POP SWAP1 JUMP JUMPDEST PUSH1 0x0 PUSH3 0x154 PUSH3 0x14E DUP5 PUSH3 0x261 JUMP JUMPDEST PUSH3 0x238 JUMP JUMPDEST SWAP1 POP DUP3 DUP2 MSTORE PUSH1 0x20 DUP2 ADD DUP5 DUP5 DUP5 ADD GT ISZERO PUSH3 0x173 JUMPI PUSH3 0x172 PUSH3 0x3A6 JUMP JUMPDEST JUMPDEST PUSH3 0x180 DUP5 DUP3 DUP6 PUSH3 0x2A1 JUMP JUMPDEST POP SWAP4 SWAP3 POP POP POP JUMP JUMPDEST PUSH1 0x0 DUP2 MLOAD SWAP1 POP PUSH3 0x199 DUP2 PUSH3 0x3C6 JUMP JUMPDEST SWAP3 SWAP2 POP POP JUMP JUMPDEST PUSH1 0x0 DUP3 PUSH1 0x1F DUP4 ADD SLT PUSH3 0x1B7 JUMPI PUSH3 0x1B6 PUSH3 0x3A1 JUMP JUMPDEST JUMPDEST DUP2 MLOAD PUSH3 0x1C9 DUP5 DUP3 PUSH1 0x20 DUP7 ADD PUSH3 0x13D JUMP JUMPDEST SWAP2 POP POP SWAP3 SWAP2 POP POP JUMP JUMPDEST PUSH1 0x0 DUP1 PUSH1 0x40 DUP4 DUP6 SUB SLT ISZERO PUSH3 0x1EC JUMPI PUSH3 0x1EB PUSH3 0x3B0 JUMP JUMPDEST JUMPDEST PUSH1 0x0 PUSH3 0x1FC DUP6 DUP3 DUP7 ADD PUSH3 0x188 JUMP JUMPDEST SWAP3 POP POP PUSH1 0x20 DUP4 ADD MLOAD PUSH8 0xFFFFFFFFFFFFFFFF DUP2 GT ISZERO PUSH3 0x220 JUMPI PUSH3 0x21F PUSH3 0x3AB JUMP JUMPDEST JUMPDEST PUSH3 0x22E DUP6 DUP3 DUP7 ADD PUSH3 0x19F JUMP JUMPDEST SWAP2 POP POP SWAP3 POP SWAP3 SWAP1 POP JUMP JUMPDEST PUSH1 0x0 PUSH3 0x244 PUSH3 0x257 JUMP JUMPDEST SWAP1 POP PUSH3 0x252 DUP3 DUP3 PUSH3 0x30D JUMP JUMPDEST SWAP2 SWAP1 POP JUMP JUMPDEST PUSH1 0x0 PUSH1 0x40 MLOAD SWAP1 POP SWAP1 JUMP JUMPDEST PUSH1 0x0 PUSH8 0xFFFFFFFFFFFFFFFF DUP3 GT ISZERO PUSH3 0x27F JUMPI PUSH3 0x27E PUSH3 0x372 JUMP JUMPDEST JUMPDEST PUSH3 0x28A DUP3 PUSH3 0x3B5 JUMP JUMPDEST SWAP1 POP PUSH1 0x20 DUP2 ADD SWAP1 POP SWAP2 SWAP1 POP JUMP JUMPDEST PUSH1 0x0 DUP2 SWAP1 POP SWAP2 SWAP1 POP JUMP JUMPDEST PUSH1 0x0 JUMPDEST DUP4 DUP2 LT ISZERO PUSH3 0x2C1 JUMPI DUP1 DUP3 ADD MLOAD DUP2 DUP5 ADD MSTORE PUSH1 0x20 DUP2 ADD SWAP1 POP PUSH3 0x2A4 JUMP JUMPDEST DUP4 DUP2 GT ISZERO PUSH3 0x2D1 JUMPI PUSH1 0x0 DUP5 DUP5 ADD MSTORE JUMPDEST POP POP POP POP JUMP JUMPDEST PUSH1 0x0 PUSH1 0x2 DUP3 DIV SWAP1 POP PUSH1 0x1 DUP3 AND DUP1 PUSH3 0x2F0 JUMPI PUSH1 0x7F DUP3 AND SWAP2 POP JUMPDEST PUSH1 0x20 DUP3 LT DUP2 EQ ISZERO PUSH3 0x307 JUMPI PUSH3 0x306 PUSH3 0x343 JUMP JUMPDEST JUMPDEST POP SWAP2 SWAP1 POP JUMP JUMPDEST PUSH3 0x318 DUP3 PUSH3 0x3B5 JUMP JUMPDEST DUP2 ADD DUP2 DUP2 LT PUSH8 0xFFFFFFFFFFFFFFFF DUP3 GT OR ISZERO PUSH3 0x33A JUMPI PUSH3 0x339 PUSH3 0x372 JUMP JUMPDEST JUMPDEST DUP1 PUSH1 0x40 MSTORE POP POP POP JUMP JUMPDEST PUSH32 0x4E487B7100000000000000000000000000000000000000000000000000000000 PUSH1 0x0 MSTORE PUSH1 0x22 PUSH1 0x4 MSTORE PUSH1 0x24 PUSH1 0x0 REVERT JUMPDEST PUSH32 0x4E487B7100000000000000000000000000000000000000000000000000000000 PUSH1 0x0 MSTORE PUSH1 0x41 PUSH1 0x4 MSTORE PUSH1 0x24 PUSH1 0x0 REVERT JUMPDEST PUSH1 0x0 DUP1 REVERT JUMPDEST PUSH1 0x0 DUP1 REVERT JUMPDEST PUSH1 0x0 DUP1 REVERT JUMPDEST PUSH1 0x0 DUP1 REVERT JUMPDEST PUSH1 0x0 PUSH1 0x1F NOT PUSH1 0x1F DUP4 ADD AND SWAP1 POP SWAP2 SWAP1 POP JUMP JUMPDEST PUSH3 0x3D1 DUP2 PUSH3 0x297 JUMP JUMPDEST DUP2 EQ PUSH3 0x3DD JUMPI PUSH1 0x0 DUP1 REVERT JUMPDEST POP JUMP JUMPDEST PUSH2 0x591 DUP1 PUSH3 0x3F0 PUSH1 0x0 CODECOPY PUSH1 0x0 RETURN INVALID PUSH1 0x80 PUSH1 0x40 MSTORE CALLVALUE DUP1 ISZERO PUSH2 0x10 JUMPI PUSH1 0x0 DUP1 REVERT JUMPDEST POP PUSH1 0x4 CALLDATASIZE LT PUSH2 0x4C JUMPI PUSH1 0x0 CALLDATALOAD PUSH1 0xE0 SHR DUP1 PUSH4 0x516F279E EQ PUSH2 0x51 JUMPI DUP1 PUSH4 0x827BFBDF EQ PUSH2 0x6F JUMPI DUP1 PUSH4 0xA035B1FE EQ PUSH2 0x8B JUMPI DUP1 PUSH4 0xF7A30806 EQ PUSH2 0xA9 JUMPI JUMPDEST PUSH1 0x0 DUP1 REVERT JUMPDEST PUSH2 0x59 PUSH2 0xC5 JUMP JUMPDEST PUSH1 0x40 MLOAD PUSH2 0x66 SWAP2 SWAP1 PUSH2 0x37E JUMP JUMPDEST PUSH1 0x40 MLOAD DUP1 SWAP2 SUB SWAP1 RETURN JUMPDEST PUSH2 0x89 PUSH1 0x4 DUP1 CALLDATASIZE SUB DUP2 ADD SWAP1 PUSH2 0x84 SWAP2 SWAP1 PUSH2 0x2D2 JUMP JUMPDEST PUSH2 0x153 JUMP JUMPDEST STOP JUMPDEST PUSH2 0x93 PUSH2 0x16D JUMP JUMPDEST PUSH1 0x40 MLOAD PUSH2 0xA0 SWAP2 SWAP1 PUSH2 0x363 JUMP JUMPDEST PUSH1 0x40 MLOAD DUP1 SWAP2 SUB SWAP1 RETURN JUMPDEST PUSH2 0xC3 PUSH1 0x4 DUP1 CALLDATASIZE SUB DUP2 ADD SWAP1 PUSH2 0xBE SWAP2 SWAP1 PUSH2 0x2A5 JUMP JUMPDEST PUSH2 0x173 JUMP JUMPDEST STOP JUMPDEST PUSH1 0x1 DUP1 SLOAD PUSH2 0xD2 SWAP1 PUSH2 0x45E JUMP JUMPDEST DUP1 PUSH1 0x1F ADD PUSH1 0x20 DUP1 SWAP2 DIV MUL PUSH1 0x20 ADD PUSH1 0x40 MLOAD SWAP1 DUP2 ADD PUSH1 0x40 MSTORE DUP1 SWAP3 SWAP2 SWAP1 DUP2 DUP2 MSTORE PUSH1 0x20 ADD DUP3 DUP1 SLOAD PUSH2 0xFE SWAP1 PUSH2 0x45E JUMP JUMPDEST DUP1 ISZERO PUSH2 0x14B JUMPI DUP1 PUSH1 0x1F LT PUSH2 0x120 JUMPI PUSH2 0x100 DUP1 DUP4 SLOAD DIV MUL DUP4 MSTORE SWAP2 PUSH1 0x20 ADD SWAP2 PUSH2 0x14B JUMP JUMPDEST DUP3 ADD SWAP2 SWAP1 PUSH1 0x0 MSTORE PUSH1 0x20 PUSH1 0x0 KECCAK256 SWAP1 JUMPDEST DUP2 SLOAD DUP2 MSTORE SWAP1 PUSH1 0x1 ADD SWAP1 PUSH1 0x20 ADD DUP1 DUP4 GT PUSH2 0x12E JUMPI DUP3 SWAP1 SUB PUSH1 0x1F AND DUP3 ADD SWAP2 JUMPDEST POP POP POP POP POP DUP2 JUMP JUMPDEST DUP1 PUSH1 0x1 SWAP1 DUP1 MLOAD SWAP1 PUSH1 0x20 ADD SWAP1 PUSH2 0x169 SWAP3 SWAP2 SWAP1 PUSH2 0x17D JUMP JUMPDEST POP POP JUMP JUMPDEST PUSH1 0x0 SLOAD DUP2 JUMP JUMPDEST DUP1 PUSH1 0x0 DUP2 SWAP1 SSTORE POP POP JUMP JUMPDEST DUP3 DUP1 SLOAD PUSH2 0x189 SWAP1 PUSH2 0x45E JUMP JUMPDEST SWAP1 PUSH1 0x0 MSTORE PUSH1 0x20 PUSH1 0x0 KECCAK256 SWAP1 PUSH1 0x1F ADD PUSH1 0x20 SWAP1 DIV DUP2 ADD SWAP3 DUP3 PUSH2 0x1AB JUMPI PUSH1 0x0 DUP6 SSTORE PUSH2 0x1F2 JUMP JUMPDEST DUP3 PUSH1 0x1F LT PUSH2 0x1C4 JUMPI DUP1 MLOAD PUSH1 0xFF NOT AND DUP4 DUP1 ADD OR DUP6 SSTORE PUSH2 0x1F2 JUMP JUMPDEST DUP3 DUP1 ADD PUSH1 0x1 ADD DUP6 SSTORE DUP3 ISZERO PUSH2 0x1F2 JUMPI SWAP2 DUP3 ADD JUMPDEST DUP3 DUP2 GT ISZERO PUSH2 0x1F1 JUMPI DUP3 MLOAD DUP3 SSTORE SWAP2 PUSH1 0x20 ADD SWAP2 SWAP1 PUSH1 0x1 ADD SWAP1 PUSH2 0x1D6 JUMP JUMPDEST JUMPDEST POP SWAP1 POP PUSH2 0x1FF SWAP2 SWAP1 PUSH2 0x203 JUMP JUMPDEST POP SWAP1 JUMP JUMPDEST JUMPDEST DUP1 DUP3 GT ISZERO PUSH2 0x21C JUMPI PUSH1 0x0 DUP2 PUSH1 0x0 SWAP1 SSTORE POP PUSH1 0x1 ADD PUSH2 0x204 JUMP JUMPDEST POP SWAP1 JUMP JUMPDEST PUSH1 0x0 PUSH2 0x233 PUSH2 0x22E DUP5 PUSH2 0x3C5 JUMP JUMPDEST PUSH2 0x3A0 JUMP JUMPDEST SWAP1 POP DUP3 DUP2 MSTORE PUSH1 0x20 DUP2 ADD DUP5 DUP5 DUP5 ADD GT ISZERO PUSH2 0x24F JUMPI PUSH2 0x24E PUSH2 0x524 JUMP JUMPDEST JUMPDEST PUSH2 0x25A DUP5 DUP3 DUP6 PUSH2 0x41C JUMP JUMPDEST POP SWAP4 SWAP3 POP POP POP JUMP JUMPDEST PUSH1 0x0 DUP2 CALLDATALOAD SWAP1 POP PUSH2 0x271 DUP2 PUSH2 0x544 JUMP JUMPDEST SWAP3 SWAP2 POP POP JUMP JUMPDEST PUSH1 0x0 DUP3 PUSH1 0x1F DUP4 ADD SLT PUSH2 0x28C JUMPI PUSH2 0x28B PUSH2 0x51F JUMP JUMPDEST JUMPDEST DUP2 CALLDATALOAD PUSH2 0x29C DUP5 DUP3 PUSH1 0x20 DUP7 ADD PUSH2 0x220 JUMP JUMPDEST SWAP2 POP POP SWAP3 SWAP2 POP POP JUMP JUMPDEST PUSH1 0x0 PUSH1 0x20 DUP3 DUP5 SUB SLT ISZERO PUSH2 0x2BB JUMPI PUSH2 0x2BA PUSH2 0x52E JUMP JUMPDEST JUMPDEST PUSH1 0x0 PUSH2 0x2C9 DUP5 DUP3 DUP6 ADD PUSH2 0x262 JUMP JUMPDEST SWAP2 POP POP SWAP3 SWAP2 POP POP JUMP JUMPDEST PUSH1 0x0 PUSH1 0x20 DUP3 DUP5 SUB SLT ISZERO PUSH2 0x2E8 JUMPI PUSH2 0x2E7 PUSH2 0x52E JUMP JUMPDEST JUMPDEST PUSH1 0x0 DUP3 ADD CALLDATALOAD PUSH8 0xFFFFFFFFFFFFFFFF DUP2 GT ISZERO PUSH2 0x306 JUMPI PUSH2 0x305 PUSH2 0x529 JUMP JUMPDEST JUMPDEST PUSH2 0x312 DUP5 DUP3 DUP6 ADD PUSH2 0x277 JUMP JUMPDEST SWAP2 POP POP SWAP3 SWAP2 POP POP JUMP JUMPDEST PUSH2 0x324 DUP2 PUSH2 0x412 JUMP JUMPDEST DUP3 MSTORE POP POP JUMP JUMPDEST PUSH1 0x0 PUSH2 0x335 DUP3 PUSH2 0x3F6 JUMP JUMPDEST PUSH2 0x33F DUP2 DUP6 PUSH2 0x401 JUMP JUMPDEST SWAP4 POP PUSH2 0x34F DUP2 DUP6 PUSH1 0x20 DUP7 ADD PUSH2 0x42B JUMP JUMPDEST PUSH2 0x358 DUP2 PUSH2 0x533 JUMP JUMPDEST DUP5 ADD SWAP2 POP POP SWAP3 SWAP2 POP POP JUMP JUMPDEST PUSH1 0x0 PUSH1 0x20 DUP3 ADD SWAP1 POP PUSH2 0x378 PUSH1 0x0 DUP4 ADD DUP5 PUSH2 0x31B JUMP JUMPDEST SWAP3 SWAP2 POP POP JUMP JUMPDEST PUSH1 0x0 PUSH1 0x20 DUP3 ADD SWAP1 POP DUP2 DUP2 SUB PUSH1 0x0 DUP4 ADD MSTORE PUSH2 0x398 DUP2 DUP5 PUSH2 0x32A JUMP JUMPDEST SWAP1 POP SWAP3 SWAP2 POP POP JUMP JUMPDEST PUSH1 0x0 PUSH2 0x3AA PUSH2 0x3BB JUMP JUMPDEST SWAP1 POP PUSH2 0x3B6 DUP3 DUP3 PUSH2 0x490 JUMP JUMPDEST SWAP2 SWAP1 POP JUMP JUMPDEST PUSH1 0x0 PUSH1 0x40 MLOAD SWAP1 POP SWAP1 JUMP JUMPDEST PUSH1 0x0 PUSH8 0xFFFFFFFFFFFFFFFF DUP3 GT ISZERO PUSH2 0x3E0 JUMPI PUSH2 0x3DF PUSH2 0x4F0 JUMP JUMPDEST JUMPDEST PUSH2 0x3E9 DUP3 PUSH2 0x533 JUMP JUMPDEST SWAP1 POP PUSH1 0x20 DUP2 ADD SWAP1 POP SWAP2 SWAP1 POP JUMP JUMPDEST PUSH1 0x0 DUP2 MLOAD SWAP1 POP SWAP2 SWAP1 POP JUMP JUMPDEST PUSH1 0x0 DUP3 DUP3 MSTORE PUSH1 0x20 DUP3 ADD SWAP1 POP SWAP3 SWAP2 POP POP JUMP JUMPDEST PUSH1 0x0 DUP2 SWAP1 POP SWAP2 SWAP1 POP JUMP JUMPDEST DUP3 DUP2 DUP4 CALLDATACOPY PUSH1 0x0 DUP4 DUP4 ADD MSTORE POP POP POP JUMP JUMPDEST PUSH1 0x0 JUMPDEST DUP4 DUP2 LT ISZERO PUSH2 0x449 JUMPI DUP1 DUP3 ADD MLOAD DUP2 DUP5 ADD MSTORE PUSH1 0x20 DUP2 ADD SWAP1 POP PUSH2 0x42E JUMP JUMPDEST DUP4 DUP2 GT ISZERO PUSH2 0x458 JUMPI PUSH1 0x0 DUP5 DUP5 ADD MSTORE JUMPDEST POP POP POP POP JUMP JUMPDEST PUSH1 0x0 PUSH1 0x2 DUP3 DIV SWAP1 POP PUSH1 0x1 DUP3 AND DUP1 PUSH2 0x476 JUMPI PUSH1 0x7F DUP3 AND SWAP2 POP JUMPDEST PUSH1 0x20 DUP3 LT DUP2 EQ ISZERO PUSH2 0x48A JUMPI PUSH2 0x489 PUSH2 0x4C1 JUMP JUMPDEST JUMPDEST POP SWAP2 SWAP1 POP JUMP JUMPDEST PUSH2 0x499 DUP3 PUSH2 0x533 JUMP JUMPDEST DUP2 ADD DUP2 DUP2 LT PUSH8 0xFFFFFFFFFFFFFFFF DUP3 GT OR ISZERO PUSH2 0x4B8 JUMPI PUSH2 0x4B7 PUSH2 0x4F0 JUMP JUMPDEST JUMPDEST DUP1 PUSH1 0x40 MSTORE POP POP POP JUMP JUMPDEST PUSH32 0x4E487B7100000000000000000000000000000000000000000000000000000000 PUSH1 0x0 MSTORE PUSH1 0x22 PUSH1 0x4 MSTORE PUSH1 0x24 PUSH1 0x0 REVERT JUMPDEST PUSH32 0x4E487B7100000000000000000000000000000000000000000000000000000000 PUSH1 0x0 MSTORE PUSH1 0x41 PUSH1 0x4 MSTORE PUSH1 0x24 PUSH1 0x0 REVERT JUMPDEST PUSH1 0x0 DUP1 REVERT JUMPDEST PUSH1 0x0 DUP1 REVERT JUMPDEST PUSH1 0x0 DUP1 REVERT JUMPDEST PUSH1 0x0 DUP1 REVERT JUMPDEST PUSH1 0x0 PUSH1 0x1F NOT PUSH1 0x1F DUP4 ADD AND SWAP1 POP SWAP2 SWAP1 POP JUMP JUMPDEST PUSH2 0x54D DUP2 PUSH2 0x412 JUMP JUMPDEST DUP2 EQ PUSH2 0x558 JUMPI PUSH1 0x0 DUP1 REVERT JUMPDEST POP JUMP INVALID LOG2 PUSH5 0x6970667358 0x22 SLT KECCAK256 0x4E 0xA8 LOG3 0xD 0xB4 DUP1 0xF8 0xE3 CODESIZE CREATE2 0xE1 0xD1 0x4F PUSH11 0xAF6D4030EFAC5525A79DCE JUMPI 0xCF COINBASE PUSH24 0xB46EAA64736F6C6343000807003300000000000000000000 "
				},
				"gasEstimates": {
					"creation": {
						"codeDepositCost": "285000",
						"executionCost": "infinite",
						"totalCost": "infinite"
					},
					"external": {
						"location()": "infinite",
						"price()": "2451",
						"setLocation(string)": "infinite",
						"setPrice(int256)": "22564"
					}
				},
				"methodIdentifiers": {
					"location()": "516f279e",
					"price()": "a035b1fe",
					"setLocation(string)": "827bfbdf",
					"setPrice(int256)": "f7a30806"
				}
			},
			"storageLayout": {
				"storage": [
					{
						"astId": 3,
						"contract": "contracts/test2.sol:Property",
						"label": "price",
						"offset": 0,
						"slot": "0",
						"type": "t_int256"
					},
					{
						"astId": 6,
						"contract": "contracts/test2.sol:Property",
						"label": "location",
						"offset": 0,
						"slot": "1",
						"type": "t_string_storage"
					}
				],
				"types": {
					"t_int256": {
						"encoding": "inplace",
						"label": "int256",
						"numberOfBytes": "32"
					},
					"t_string_storage": {
						"encoding": "bytes",
						"label": "string",
						"numberOfBytes": "32"
					}
				}
			},
			"userdoc": {
				"kind": "user",
				"methods": {},
				"version": 1
			}
		}
	}
}