{
	"contracts/test13.sol": {
		"B": {
			"abi": [
				{
					"inputs": [],
					"name": "f2",
					"outputs": [
						{
							"internalType": "int256",
							"name": "",
							"type": "int256"
						}
					],
					"stateMutability": "view",
					"type": "function"
				},
				{
					"inputs": [],
					"name": "f4",
					"outputs": [
						{
							"internalType": "int256",
							"name": "",
							"type": "int256"
						}
					],
					"stateMutability": "view",
					"type": "function"
				},
				{
					"inputs": [],
					"name": "f5",
					"outputs": [
						{
							"internalType": "int256",
							"name": "",
							"type": "int256"
						}
					],
					"stateMutability": "pure",
					"type": "function"
				},
				{
					"inputs": [],
					"name": "get_y",
					"outputs": [
						{
							"internalType": "int256",
							"name": "",
							"type": "int256"
						}
					],
					"stateMutability": "view",
					"type": "function"
				},
				{
					"inputs": [],
					"name": "x",
					"outputs": [
						{
							"internalType": "int256",
							"name": "",
							"type": "int256"
						}
					],
					"stateMutability": "view",
					"type": "function"
				},
				{
					"inputs": [],
					"name": "xx",
					"outputs": [
						{
							"internalType": "int256",
							"name": "",
							"type": "int256"
						}
					],
					"stateMutability": "view",
					"type": "function"
				}
			],
			"devdoc": {
				"kind": "dev",
				"methods": {},
				"version": 1
			},
			"evm": {
				"assembly": "    /* \"contracts/test13.sol\":718:846  contract B is A{... */\n  mstore(0x40, 0x80)\n    /* \"contracts/test13.sol\":98:100  10 */\n  0x0a\n    /* \"contracts/test13.sol\":83:100  int public x = 10 */\n  0x00\n  sstore\n    /* \"contracts/test13.sol\":114:116  20 */\n  0x14\n    /* \"contracts/test13.sol\":106:116  int y = 20 */\n  0x01\n  sstore\n    /* \"contracts/test13.sol\":755:759  f3() */\n  tag_1\n    /* \"contracts/test13.sol\":755:757  f3 */\n  shl(0x20, tag_2)\n    /* \"contracts/test13.sol\":755:759  f3() */\n  0x20\n  shr\n  jump\t// in\ntag_1:\n    /* \"contracts/test13.sol\":739:759  int public xx = f3() */\n  0x02\n  sstore\n    /* \"contracts/test13.sol\":718:846  contract B is A{... */\n  callvalue\n  dup1\n  iszero\n  tag_3\n  jumpi\n  0x00\n  dup1\n  revert\ntag_3:\n  pop\n  jump(tag_4)\n    /* \"contracts/test13.sol\":404:469  function f3() internal view returns(int){... */\ntag_2:\n    /* \"contracts/test13.sol\":440:443  int */\n  0x00\n    /* \"contracts/test13.sol\":461:462  x */\n  dup1\n  sload\n    /* \"contracts/test13.sol\":454:462  return x */\n  swap1\n  pop\n    /* \"contracts/test13.sol\":404:469  function f3() internal view returns(int){... */\n  swap1\n  jump\t// out\n    /* \"contracts/test13.sol\":718:846  contract B is A{... */\ntag_4:\n  dataSize(sub_0)\n  dup1\n  dataOffset(sub_0)\n  0x00\n  codecopy\n  0x00\n  return\nstop\n\nsub_0: assembly {\n        /* \"contracts/test13.sol\":718:846  contract B is A{... */\n      mstore(0x40, 0x80)\n      callvalue\n      dup1\n      iszero\n      tag_1\n      jumpi\n      0x00\n      dup1\n      revert\n    tag_1:\n      pop\n      jumpi(tag_2, lt(calldatasize, 0x04))\n      shr(0xe0, calldataload(0x00))\n      dup1\n      0x0c55699c\n      eq\n      tag_3\n      jumpi\n      dup1\n      0x28d69c6d\n      eq\n      tag_4\n      jumpi\n      dup1\n      0x3c9d377d\n      eq\n      tag_5\n      jumpi\n      dup1\n      0x9942ec6f\n      eq\n      tag_6\n      jumpi\n      dup1\n      0xc3f90202\n      eq\n      tag_7\n      jumpi\n      dup1\n      0xece57b04\n      eq\n      tag_8\n      jumpi\n    tag_2:\n      0x00\n      dup1\n      revert\n        /* \"contracts/test13.sol\":83:100  int public x = 10 */\n    tag_3:\n      tag_9\n      tag_10\n      jump\t// in\n    tag_9:\n      mload(0x40)\n      tag_11\n      swap2\n      swap1\n      tag_12\n      jump\t// in\n    tag_11:\n      mload(0x40)\n      dup1\n      swap2\n      sub\n      swap1\n      return\n        /* \"contracts/test13.sol\":160:226  function get_y() public view returns(int){... */\n    tag_4:\n      tag_13\n      tag_14\n      jump\t// in\n    tag_13:\n      mload(0x40)\n      tag_15\n      swap2\n      swap1\n      tag_12\n      jump\t// in\n    tag_15:\n      mload(0x40)\n      dup1\n      swap2\n      sub\n      swap1\n      return\n        /* \"contracts/test13.sol\":615:713  function f5() public pure returns(int){... */\n    tag_5:\n      tag_16\n      tag_17\n      jump\t// in\n    tag_16:\n      mload(0x40)\n      tag_18\n      swap2\n      swap1\n      tag_12\n      jump\t// in\n    tag_18:\n      mload(0x40)\n      dup1\n      swap2\n      sub\n      swap1\n      return\n        /* \"contracts/test13.sol\":302:398  function f2() public view returns(int){... */\n    tag_6:\n      tag_19\n      tag_20\n      jump\t// in\n    tag_19:\n      mload(0x40)\n      tag_21\n      swap2\n      swap1\n      tag_12\n      jump\t// in\n    tag_21:\n      mload(0x40)\n      dup1\n      swap2\n      sub\n      swap1\n      return\n        /* \"contracts/test13.sol\":539:604  function f4() external view returns(int){... */\n    tag_7:\n      tag_22\n      tag_23\n      jump\t// in\n    tag_22:\n      mload(0x40)\n      tag_24\n      swap2\n      swap1\n      tag_12\n      jump\t// in\n    tag_24:\n      mload(0x40)\n      dup1\n      swap2\n      sub\n      swap1\n      return\n        /* \"contracts/test13.sol\":739:759  int public xx = f3() */\n    tag_8:\n      tag_25\n      tag_26\n      jump\t// in\n    tag_25:\n      mload(0x40)\n      tag_27\n      swap2\n      swap1\n      tag_12\n      jump\t// in\n    tag_27:\n      mload(0x40)\n      dup1\n      swap2\n      sub\n      swap1\n      return\n        /* \"contracts/test13.sol\":83:100  int public x = 10 */\n    tag_10:\n      sload(0x00)\n      dup2\n      jump\t// out\n        /* \"contracts/test13.sol\":160:226  function get_y() public view returns(int){... */\n    tag_14:\n        /* \"contracts/test13.sol\":197:200  int */\n      0x00\n        /* \"contracts/test13.sol\":218:219  y */\n      sload(0x01)\n        /* \"contracts/test13.sol\":211:219  return y */\n      swap1\n      pop\n        /* \"contracts/test13.sol\":160:226  function get_y() public view returns(int){... */\n      swap1\n      jump\t// out\n        /* \"contracts/test13.sol\":615:713  function f5() public pure returns(int){... */\n    tag_17:\n        /* \"contracts/test13.sol\":649:652  int */\n      0x00\n        /* \"contracts/test13.sol\":663:668  int b */\n      dup1\n        /* \"contracts/test13.sol\":705:706  b */\n      dup1\n        /* \"contracts/test13.sol\":698:706  return b */\n      swap2\n      pop\n      pop\n        /* \"contracts/test13.sol\":615:713  function f5() public pure returns(int){... */\n      swap1\n      jump\t// out\n        /* \"contracts/test13.sol\":302:398  function f2() public view returns(int){... */\n    tag_20:\n        /* \"contracts/test13.sol\":336:339  int */\n      0x00\n        /* \"contracts/test13.sol\":350:355  int a */\n      dup1\n        /* \"contracts/test13.sol\":369:373  f1() */\n      tag_31\n        /* \"contracts/test13.sol\":369:371  f1 */\n      tag_32\n        /* \"contracts/test13.sol\":369:373  f1() */\n      jump\t// in\n    tag_31:\n        /* \"contracts/test13.sol\":365:373  a = f1() */\n      swap1\n      pop\n        /* \"contracts/test13.sol\":390:391  a */\n      dup1\n        /* \"contracts/test13.sol\":383:391  return a */\n      swap2\n      pop\n      pop\n        /* \"contracts/test13.sol\":302:398  function f2() public view returns(int){... */\n      swap1\n      jump\t// out\n        /* \"contracts/test13.sol\":539:604  function f4() external view returns(int){... */\n    tag_23:\n        /* \"contracts/test13.sol\":575:578  int */\n      0x00\n        /* \"contracts/test13.sol\":596:597  x */\n      dup1\n      sload\n        /* \"contracts/test13.sol\":589:597  return x */\n      swap1\n      pop\n        /* \"contracts/test13.sol\":539:604  function f4() external view returns(int){... */\n      swap1\n      jump\t// out\n        /* \"contracts/test13.sol\":739:759  int public xx = f3() */\n    tag_26:\n      sload(0x02)\n      dup2\n      jump\t// out\n        /* \"contracts/test13.sol\":232:296  function f1() private view returns(int){... */\n    tag_32:\n        /* \"contracts/test13.sol\":267:270  int */\n      0x00\n        /* \"contracts/test13.sol\":288:289  x */\n      dup1\n      sload\n        /* \"contracts/test13.sol\":281:289  return x */\n      swap1\n      pop\n        /* \"contracts/test13.sol\":232:296  function f1() private view returns(int){... */\n      swap1\n      jump\t// out\n        /* \"#utility.yul\":7:122   */\n    tag_36:\n        /* \"#utility.yul\":92:115   */\n      tag_38\n        /* \"#utility.yul\":109:114   */\n      dup2\n        /* \"#utility.yul\":92:115   */\n      tag_39\n      jump\t// in\n    tag_38:\n        /* \"#utility.yul\":87:90   */\n      dup3\n        /* \"#utility.yul\":80:116   */\n      mstore\n        /* \"#utility.yul\":7:122   */\n      pop\n      pop\n      jump\t// out\n        /* \"#utility.yul\":128:346   */\n    tag_12:\n        /* \"#utility.yul\":219:223   */\n      0x00\n        /* \"#utility.yul\":257:259   */\n      0x20\n        /* \"#utility.yul\":246:255   */\n      dup3\n        /* \"#utility.yul\":242:260   */\n      add\n        /* \"#utility.yul\":234:260   */\n      swap1\n      pop\n        /* \"#utility.yul\":270:339   */\n      tag_41\n        /* \"#utility.yul\":336:337   */\n      0x00\n        /* \"#utility.yul\":325:334   */\n      dup4\n        /* \"#utility.yul\":321:338   */\n      add\n        /* \"#utility.yul\":312:318   */\n      dup5\n        /* \"#utility.yul\":270:339   */\n      tag_36\n      jump\t// in\n    tag_41:\n        /* \"#utility.yul\":128:346   */\n      swap3\n      swap2\n      pop\n      pop\n      jump\t// out\n        /* \"#utility.yul\":352:428   */\n    tag_39:\n        /* \"#utility.yul\":388:395   */\n      0x00\n        /* \"#utility.yul\":417:422   */\n      dup2\n        /* \"#utility.yul\":406:422   */\n      swap1\n      pop\n        /* \"#utility.yul\":352:428   */\n      swap2\n      swap1\n      pop\n      jump\t// out\n\n    auxdata: 0xa26469706673582212206d6026aed5418f31295bb933b22c3717fd5bb542a23cbb42447a19d82a2ce16564736f6c63430008070033\n}\n",
				"bytecode": {
					"linkReferences": {},
					"object": "6080604052600a600055601460015561001c61003160201b60201c565b60025534801561002b57600080fd5b5061003a565b60008054905090565b6101cb806100496000396000f3fe608060405234801561001057600080fd5b50600436106100625760003560e01c80630c55699c1461006757806328d69c6d146100855780633c9d377d146100a35780639942ec6f146100c1578063c3f90202146100df578063ece57b04146100fd575b600080fd5b61006f61011b565b60405161007c9190610170565b60405180910390f35b61008d610121565b60405161009a9190610170565b60405180910390f35b6100ab61012b565b6040516100b89190610170565b60405180910390f35b6100c9610135565b6040516100d69190610170565b60405180910390f35b6100e7610149565b6040516100f49190610170565b60405180910390f35b610105610152565b6040516101129190610170565b60405180910390f35b60005481565b6000600154905090565b6000808091505090565b600080610140610158565b90508091505090565b60008054905090565b60025481565b60008054905090565b61016a8161018b565b82525050565b60006020820190506101856000830184610161565b92915050565b600081905091905056fea26469706673582212206d6026aed5418f31295bb933b22c3717fd5bb542a23cbb42447a19d82a2ce16564736f6c63430008070033",
					"opcodes": "PUSH1 0x80 PUSH1 0x40 MSTORE PUSH1 0xA PUSH1 0x0 SSTORE PUSH1 0x14 PUSH1 0x1 SSTORE PUSH2 0x1C PUSH2 0x31 PUSH1 0x20 SHL PUSH1 0x20 SHR JUMP JUMPDEST PUSH1 0x2 SSTORE CALLVALUE DUP1 ISZERO PUSH2 0x2B JUMPI PUSH1 0x0 DUP1 REVERT JUMPDEST POP PUSH2 0x3A JUMP JUMPDEST PUSH1 0x0 DUP1 SLOAD SWAP1 POP SWAP1 JUMP JUMPDEST PUSH2 0x1CB DUP1 PUSH2 0x49 PUSH1 0x0 CODECOPY PUSH1 0x0 RETURN INVALID PUSH1 0x80 PUSH1 0x40 MSTORE CALLVALUE DUP1 ISZERO PUSH2 0x10 JUMPI PUSH1 0x0 DUP1 REVERT JUMPDEST POP PUSH1 0x4 CALLDATASIZE LT PUSH2 0x62 JUMPI PUSH1 0x0 CALLDATALOAD PUSH1 0xE0 SHR DUP1 PUSH4 0xC55699C EQ PUSH2 0x67 JUMPI DUP1 PUSH4 0x28D69C6D EQ PUSH2 0x85 JUMPI DUP1 PUSH4 0x3C9D377D EQ PUSH2 0xA3 JUMPI DUP1 PUSH4 0x9942EC6F EQ PUSH2 0xC1 JUMPI DUP1 PUSH4 0xC3F90202 EQ PUSH2 0xDF JUMPI DUP1 PUSH4 0xECE57B04 EQ PUSH2 0xFD JUMPI JUMPDEST PUSH1 0x0 DUP1 REVERT JUMPDEST PUSH2 0x6F PUSH2 0x11B JUMP JUMPDEST PUSH1 0x40 MLOAD PUSH2 0x7C SWAP2 SWAP1 PUSH2 0x170 JUMP JUMPDEST PUSH1 0x40 MLOAD DUP1 SWAP2 SUB SWAP1 RETURN JUMPDEST PUSH2 0x8D PUSH2 0x121 JUMP JUMPDEST PUSH1 0x40 MLOAD PUSH2 0x9A SWAP2 SWAP1 PUSH2 0x170 JUMP JUMPDEST PUSH1 0x40 MLOAD DUP1 SWAP2 SUB SWAP1 RETURN JUMPDEST PUSH2 0xAB PUSH2 0x12B JUMP JUMPDEST PUSH1 0x40 MLOAD PUSH2 0xB8 SWAP2 SWAP1 PUSH2 0x170 JUMP JUMPDEST PUSH1 0x40 MLOAD DUP1 SWAP2 SUB SWAP1 RETURN JUMPDEST PUSH2 0xC9 PUSH2 0x135 JUMP JUMPDEST PUSH1 0x40 MLOAD PUSH2 0xD6 SWAP2 SWAP1 PUSH2 0x170 JUMP JUMPDEST PUSH1 0x40 MLOAD DUP1 SWAP2 SUB SWAP1 RETURN JUMPDEST PUSH2 0xE7 PUSH2 0x149 JUMP JUMPDEST PUSH1 0x40 MLOAD PUSH2 0xF4 SWAP2 SWAP1 PUSH2 0x170 JUMP JUMPDEST PUSH1 0x40 MLOAD DUP1 SWAP2 SUB SWAP1 RETURN JUMPDEST PUSH2 0x105 PUSH2 0x152 JUMP JUMPDEST PUSH1 0x40 MLOAD PUSH2 0x112 SWAP2 SWAP1 PUSH2 0x170 JUMP JUMPDEST PUSH1 0x40 MLOAD DUP1 SWAP2 SUB SWAP1 RETURN JUMPDEST PUSH1 0x0 SLOAD DUP2 JUMP JUMPDEST PUSH1 0x0 PUSH1 0x1 SLOAD SWAP1 POP SWAP1 JUMP JUMPDEST PUSH1 0x0 DUP1 DUP1 SWAP2 POP POP SWAP1 JUMP JUMPDEST PUSH1 0x0 DUP1 PUSH2 0x140 PUSH2 0x158 JUMP JUMPDEST SWAP1 POP DUP1 SWAP2 POP POP SWAP1 JUMP JUMPDEST PUSH1 0x0 DUP1 SLOAD SWAP1 POP SWAP1 JUMP JUMPDEST PUSH1 0x2 SLOAD DUP2 JUMP JUMPDEST PUSH1 0x0 DUP1 SLOAD SWAP1 POP SWAP1 JUMP JUMPDEST PUSH2 0x16A DUP2 PUSH2 0x18B JUMP JUMPDEST DUP3 MSTORE POP POP JUMP JUMPDEST PUSH1 0x0 PUSH1 0x20 DUP3 ADD SWAP1 POP PUSH2 0x185 PUSH1 0x0 DUP4 ADD DUP5 PUSH2 0x161 JUMP JUMPDEST SWAP3 SWAP2 POP POP JUMP JUMPDEST PUSH1 0x0 DUP2 SWAP1 POP SWAP2 SWAP1 POP JUMP INVALID LOG2 PUSH5 0x6970667358 0x22 SLT KECCAK256 PUSH14 0x6026AED5418F31295BB933B22C37 OR REVERT JUMPDEST 0xB5 TIMESTAMP LOG2 EXTCODECOPY 0xBB TIMESTAMP DIFFICULTY PUSH27 0x19D82A2CE16564736F6C6343000807003300000000000000000000 "
				},
				"gasEstimates": {
					"creation": {
						"codeDepositCost": "91800",
						"executionCost": "infinite",
						"totalCost": "infinite"
					},
					"external": {
						"f2()": "2529",
						"f4()": "2503",
						"f5()": "364",
						"get_y()": "2437",
						"x()": "2407",
						"xx()": "2517"
					}
				},
				"methodIdentifiers": {
					"f2()": "9942ec6f",
					"f4()": "c3f90202",
					"f5()": "3c9d377d",
					"get_y()": "28d69c6d",
					"x()": "0c55699c",
					"xx()": "ece57b04"
				}
			},
			"storageLayout": {
				"storage": [
					{
						"astId": 4,
						"contract": "contracts/test13.sol:B",
						"label": "x",
						"offset": 0,
						"slot": "0",
						"type": "t_int256"
					},
					{
						"astId": 7,
						"contract": "contracts/test13.sol:B",
						"label": "y",
						"offset": 0,
						"slot": "1",
						"type": "t_int256"
					},
					{
						"astId": 73,
						"contract": "contracts/test13.sol:B",
						"label": "xx",
						"offset": 0,
						"slot": "2",
						"type": "t_int256"
					}
				],
				"types": {
					"t_int256": {
						"encoding": "inplace",
						"label": "int256",
						"numberOfBytes": "32"
					}
				}
			},
			"userdoc": {
				"kind": "user",
				"methods": {},
				"version": 1
			}
		}
	}
}