{
	"contracts/test2.sol": {
		"Property": {
			"abi": [
				{
					"inputs": [],
					"name": "f1",
					"outputs": [
						{
							"internalType": "int256",
							"name": "",
							"type": "int256"
						}
					],
					"stateMutability": "pure",
					"type": "function"
				},
				{
					"inputs": [],
					"name": "location",
					"outputs": [
						{
							"internalType": "string",
							"name": "",
							"type": "string"
						}
					],
					"stateMutability": "view",
					"type": "function"
				}
			],
			"devdoc": {
				"kind": "dev",
				"methods": {},
				"version": 1
			},
			"evm": {
				"assembly": "    /* \"contracts/test2.sol\":67:212  contract Property {... */\n  mstore(0x40, 0x80)\n  callvalue\n  dup1\n  iszero\n  tag_1\n  jumpi\n  0x00\n  dup1\n  revert\ntag_1:\n  pop\n  dataSize(sub_0)\n  dup1\n  dataOffset(sub_0)\n  0x00\n  codecopy\n  0x00\n  return\nstop\n\nsub_0: assembly {\n        /* \"contracts/test2.sol\":67:212  contract Property {... */\n      mstore(0x40, 0x80)\n      callvalue\n      dup1\n      iszero\n      tag_1\n      jumpi\n      0x00\n      dup1\n      revert\n    tag_1:\n      pop\n      jumpi(tag_2, lt(calldatasize, 0x04))\n      shr(0xe0, calldataload(0x00))\n      dup1\n      0x516f279e\n      eq\n      tag_3\n      jumpi\n      dup1\n      0xc27fc305\n      eq\n      tag_4\n      jumpi\n    tag_2:\n      0x00\n      dup1\n      revert\n        /* \"contracts/test2.sol\":114:156  string constant public location = \"London\" */\n    tag_3:\n      tag_5\n      tag_6\n      jump\t// in\n    tag_5:\n      mload(0x40)\n      tag_7\n      swap2\n      swap1\n      tag_8\n      jump\t// in\n    tag_7:\n      mload(0x40)\n      dup1\n      swap2\n      sub\n      swap1\n      return\n        /* \"contracts/test2.sol\":164:210  function f1() public pure returns(int) {... */\n    tag_4:\n      tag_9\n      tag_10\n      jump\t// in\n    tag_9:\n      mload(0x40)\n      tag_11\n      swap2\n      swap1\n      tag_12\n      jump\t// in\n    tag_11:\n      mload(0x40)\n      dup1\n      swap2\n      sub\n      swap1\n      return\n        /* \"contracts/test2.sol\":114:156  string constant public location = \"London\" */\n    tag_6:\n      mload(0x40)\n      dup1\n      0x40\n      add\n      0x40\n      mstore\n      dup1\n      0x06\n      dup2\n      mstore\n      0x20\n      add\n      0x4c6f6e646f6e0000000000000000000000000000000000000000000000000000\n      dup2\n      mstore\n      pop\n      dup2\n      jump\t// out\n        /* \"contracts/test2.sol\":164:210  function f1() public pure returns(int) {... */\n    tag_10:\n        /* \"contracts/test2.sol\":198:201  int */\n      0x00\n        /* \"contracts/test2.sol\":164:210  function f1() public pure returns(int) {... */\n      swap1\n      jump\t// out\n        /* \"#utility.yul\":7:122   */\n    tag_15:\n        /* \"#utility.yul\":92:115   */\n      tag_17\n        /* \"#utility.yul\":109:114   */\n      dup2\n        /* \"#utility.yul\":92:115   */\n      tag_18\n      jump\t// in\n    tag_17:\n        /* \"#utility.yul\":87:90   */\n      dup3\n        /* \"#utility.yul\":80:116   */\n      mstore\n        /* \"#utility.yul\":70:122   */\n      pop\n      pop\n      jump\t// out\n        /* \"#utility.yul\":128:492   */\n    tag_19:\n        /* \"#utility.yul\":216:219   */\n      0x00\n        /* \"#utility.yul\":244:283   */\n      tag_21\n        /* \"#utility.yul\":277:282   */\n      dup3\n        /* \"#utility.yul\":244:283   */\n      tag_22\n      jump\t// in\n    tag_21:\n        /* \"#utility.yul\":299:370   */\n      tag_23\n        /* \"#utility.yul\":363:369   */\n      dup2\n        /* \"#utility.yul\":358:361   */\n      dup6\n        /* \"#utility.yul\":299:370   */\n      tag_24\n      jump\t// in\n    tag_23:\n        /* \"#utility.yul\":292:370   */\n      swap4\n      pop\n        /* \"#utility.yul\":379:431   */\n      tag_25\n        /* \"#utility.yul\":424:430   */\n      dup2\n        /* \"#utility.yul\":419:422   */\n      dup6\n        /* \"#utility.yul\":412:416   */\n      0x20\n        /* \"#utility.yul\":405:410   */\n      dup7\n        /* \"#utility.yul\":401:417   */\n      add\n        /* \"#utility.yul\":379:431   */\n      tag_26\n      jump\t// in\n    tag_25:\n        /* \"#utility.yul\":456:485   */\n      tag_27\n        /* \"#utility.yul\":478:484   */\n      dup2\n        /* \"#utility.yul\":456:485   */\n      tag_28\n      jump\t// in\n    tag_27:\n        /* \"#utility.yul\":451:454   */\n      dup5\n        /* \"#utility.yul\":447:486   */\n      add\n        /* \"#utility.yul\":440:486   */\n      swap2\n      pop\n        /* \"#utility.yul\":220:492   */\n      pop\n      swap3\n      swap2\n      pop\n      pop\n      jump\t// out\n        /* \"#utility.yul\":498:716   */\n    tag_12:\n        /* \"#utility.yul\":589:593   */\n      0x00\n        /* \"#utility.yul\":627:629   */\n      0x20\n        /* \"#utility.yul\":616:625   */\n      dup3\n        /* \"#utility.yul\":612:630   */\n      add\n        /* \"#utility.yul\":604:630   */\n      swap1\n      pop\n        /* \"#utility.yul\":640:709   */\n      tag_30\n        /* \"#utility.yul\":706:707   */\n      0x00\n        /* \"#utility.yul\":695:704   */\n      dup4\n        /* \"#utility.yul\":691:708   */\n      add\n        /* \"#utility.yul\":682:688   */\n      dup5\n        /* \"#utility.yul\":640:709   */\n      tag_15\n      jump\t// in\n    tag_30:\n        /* \"#utility.yul\":594:716   */\n      swap3\n      swap2\n      pop\n      pop\n      jump\t// out\n        /* \"#utility.yul\":722:1035   */\n    tag_8:\n        /* \"#utility.yul\":835:839   */\n      0x00\n        /* \"#utility.yul\":873:875   */\n      0x20\n        /* \"#utility.yul\":862:871   */\n      dup3\n        /* \"#utility.yul\":858:876   */\n      add\n        /* \"#utility.yul\":850:876   */\n      swap1\n      pop\n        /* \"#utility.yul\":922:931   */\n      dup2\n        /* \"#utility.yul\":916:920   */\n      dup2\n        /* \"#utility.yul\":912:932   */\n      sub\n        /* \"#utility.yul\":908:909   */\n      0x00\n        /* \"#utility.yul\":897:906   */\n      dup4\n        /* \"#utility.yul\":893:910   */\n      add\n        /* \"#utility.yul\":886:933   */\n      mstore\n        /* \"#utility.yul\":950:1028   */\n      tag_32\n        /* \"#utility.yul\":1023:1027   */\n      dup2\n        /* \"#utility.yul\":1014:1020   */\n      dup5\n        /* \"#utility.yul\":950:1028   */\n      tag_19\n      jump\t// in\n    tag_32:\n        /* \"#utility.yul\":942:1028   */\n      swap1\n      pop\n        /* \"#utility.yul\":840:1035   */\n      swap3\n      swap2\n      pop\n      pop\n      jump\t// out\n        /* \"#utility.yul\":1041:1140   */\n    tag_22:\n        /* \"#utility.yul\":1093:1099   */\n      0x00\n        /* \"#utility.yul\":1127:1132   */\n      dup2\n        /* \"#utility.yul\":1121:1133   */\n      mload\n        /* \"#utility.yul\":1111:1133   */\n      swap1\n      pop\n        /* \"#utility.yul\":1100:1140   */\n      swap2\n      swap1\n      pop\n      jump\t// out\n        /* \"#utility.yul\":1146:1315   */\n    tag_24:\n        /* \"#utility.yul\":1230:1241   */\n      0x00\n        /* \"#utility.yul\":1264:1270   */\n      dup3\n        /* \"#utility.yul\":1259:1262   */\n      dup3\n        /* \"#utility.yul\":1252:1271   */\n      mstore\n        /* \"#utility.yul\":1304:1308   */\n      0x20\n        /* \"#utility.yul\":1299:1302   */\n      dup3\n        /* \"#utility.yul\":1295:1309   */\n      add\n        /* \"#utility.yul\":1280:1309   */\n      swap1\n      pop\n        /* \"#utility.yul\":1242:1315   */\n      swap3\n      swap2\n      pop\n      pop\n      jump\t// out\n        /* \"#utility.yul\":1321:1397   */\n    tag_18:\n        /* \"#utility.yul\":1357:1364   */\n      0x00\n        /* \"#utility.yul\":1386:1391   */\n      dup2\n        /* \"#utility.yul\":1375:1391   */\n      swap1\n      pop\n        /* \"#utility.yul\":1365:1397   */\n      swap2\n      swap1\n      pop\n      jump\t// out\n        /* \"#utility.yul\":1403:1710   */\n    tag_26:\n        /* \"#utility.yul\":1471:1472   */\n      0x00\n        /* \"#utility.yul\":1481:1594   */\n    tag_37:\n        /* \"#utility.yul\":1495:1501   */\n      dup4\n        /* \"#utility.yul\":1492:1493   */\n      dup2\n        /* \"#utility.yul\":1489:1502   */\n      lt\n        /* \"#utility.yul\":1481:1594   */\n      iszero\n      tag_39\n      jumpi\n        /* \"#utility.yul\":1580:1581   */\n      dup1\n        /* \"#utility.yul\":1575:1578   */\n      dup3\n        /* \"#utility.yul\":1571:1582   */\n      add\n        /* \"#utility.yul\":1565:1583   */\n      mload\n        /* \"#utility.yul\":1561:1562   */\n      dup2\n        /* \"#utility.yul\":1556:1559   */\n      dup5\n        /* \"#utility.yul\":1552:1563   */\n      add\n        /* \"#utility.yul\":1545:1584   */\n      mstore\n        /* \"#utility.yul\":1517:1519   */\n      0x20\n        /* \"#utility.yul\":1514:1515   */\n      dup2\n        /* \"#utility.yul\":1510:1520   */\n      add\n        /* \"#utility.yul\":1505:1520   */\n      swap1\n      pop\n        /* \"#utility.yul\":1481:1594   */\n      jump(tag_37)\n    tag_39:\n        /* \"#utility.yul\":1612:1618   */\n      dup4\n        /* \"#utility.yul\":1609:1610   */\n      dup2\n        /* \"#utility.yul\":1606:1619   */\n      gt\n        /* \"#utility.yul\":1603:1605   */\n      iszero\n      tag_40\n      jumpi\n        /* \"#utility.yul\":1692:1693   */\n      0x00\n        /* \"#utility.yul\":1683:1689   */\n      dup5\n        /* \"#utility.yul\":1678:1681   */\n      dup5\n        /* \"#utility.yul\":1674:1690   */\n      add\n        /* \"#utility.yul\":1667:1694   */\n      mstore\n        /* \"#utility.yul\":1603:1605   */\n    tag_40:\n        /* \"#utility.yul\":1452:1710   */\n      pop\n      pop\n      pop\n      pop\n      jump\t// out\n        /* \"#utility.yul\":1716:1818   */\n    tag_28:\n        /* \"#utility.yul\":1757:1763   */\n      0x00\n        /* \"#utility.yul\":1808:1810   */\n      0x1f\n        /* \"#utility.yul\":1804:1811   */\n      not\n        /* \"#utility.yul\":1799:1801   */\n      0x1f\n        /* \"#utility.yul\":1792:1797   */\n      dup4\n        /* \"#utility.yul\":1788:1802   */\n      add\n        /* \"#utility.yul\":1784:1812   */\n      and\n        /* \"#utility.yul\":1774:1812   */\n      swap1\n      pop\n        /* \"#utility.yul\":1764:1818   */\n      swap2\n      swap1\n      pop\n      jump\t// out\n\n    auxdata: 0xa2646970667358221220adcf74ecbd62388e99019ec1cd3753d38579047ffaafcc67425cac6911dac6b464736f6c63430008060033\n}\n",
				"bytecode": {
					"linkReferences": {},
					"object": "608060405234801561001057600080fd5b506101da806100206000396000f3fe608060405234801561001057600080fd5b50600436106100365760003560e01c8063516f279e1461003b578063c27fc30514610059575b600080fd5b610043610077565b6040516100509190610118565b60405180910390f35b6100616100b0565b60405161006e91906100fd565b60405180910390f35b6040518060400160405280600681526020017f4c6f6e646f6e000000000000000000000000000000000000000000000000000081525081565b600090565b6100be81610156565b82525050565b60006100cf8261013a565b6100d98185610145565b93506100e9818560208601610160565b6100f281610193565b840191505092915050565b600060208201905061011260008301846100b5565b92915050565b6000602082019050818103600083015261013281846100c4565b905092915050565b600081519050919050565b600082825260208201905092915050565b6000819050919050565b60005b8381101561017e578082015181840152602081019050610163565b8381111561018d576000848401525b50505050565b6000601f19601f830116905091905056fea2646970667358221220adcf74ecbd62388e99019ec1cd3753d38579047ffaafcc67425cac6911dac6b464736f6c63430008060033",
					"opcodes": "PUSH1 0x80 PUSH1 0x40 MSTORE CALLVALUE DUP1 ISZERO PUSH2 0x10 JUMPI PUSH1 0x0 DUP1 REVERT JUMPDEST POP PUSH2 0x1DA DUP1 PUSH2 0x20 PUSH1 0x0 CODECOPY PUSH1 0x0 RETURN INVALID PUSH1 0x80 PUSH1 0x40 MSTORE CALLVALUE DUP1 ISZERO PUSH2 0x10 JUMPI PUSH1 0x0 DUP1 REVERT JUMPDEST POP PUSH1 0x4 CALLDATASIZE LT PUSH2 0x36 JUMPI PUSH1 0x0 CALLDATALOAD PUSH1 0xE0 SHR DUP1 PUSH4 0x516F279E EQ PUSH2 0x3B JUMPI DUP1 PUSH4 0xC27FC305 EQ PUSH2 0x59 JUMPI JUMPDEST PUSH1 0x0 DUP1 REVERT JUMPDEST PUSH2 0x43 PUSH2 0x77 JUMP JUMPDEST PUSH1 0x40 MLOAD PUSH2 0x50 SWAP2 SWAP1 PUSH2 0x118 JUMP JUMPDEST PUSH1 0x40 MLOAD DUP1 SWAP2 SUB SWAP1 RETURN JUMPDEST PUSH2 0x61 PUSH2 0xB0 JUMP JUMPDEST PUSH1 0x40 MLOAD PUSH2 0x6E SWAP2 SWAP1 PUSH2 0xFD JUMP JUMPDEST PUSH1 0x40 MLOAD DUP1 SWAP2 SUB SWAP1 RETURN JUMPDEST PUSH1 0x40 MLOAD DUP1 PUSH1 0x40 ADD PUSH1 0x40 MSTORE DUP1 PUSH1 0x6 DUP2 MSTORE PUSH1 0x20 ADD PUSH32 0x4C6F6E646F6E0000000000000000000000000000000000000000000000000000 DUP2 MSTORE POP DUP2 JUMP JUMPDEST PUSH1 0x0 SWAP1 JUMP JUMPDEST PUSH2 0xBE DUP2 PUSH2 0x156 JUMP JUMPDEST DUP3 MSTORE POP POP JUMP JUMPDEST PUSH1 0x0 PUSH2 0xCF DUP3 PUSH2 0x13A JUMP JUMPDEST PUSH2 0xD9 DUP2 DUP6 PUSH2 0x145 JUMP JUMPDEST SWAP4 POP PUSH2 0xE9 DUP2 DUP6 PUSH1 0x20 DUP7 ADD PUSH2 0x160 JUMP JUMPDEST PUSH2 0xF2 DUP2 PUSH2 0x193 JUMP JUMPDEST DUP5 ADD SWAP2 POP POP SWAP3 SWAP2 POP POP JUMP JUMPDEST PUSH1 0x0 PUSH1 0x20 DUP3 ADD SWAP1 POP PUSH2 0x112 PUSH1 0x0 DUP4 ADD DUP5 PUSH2 0xB5 JUMP JUMPDEST SWAP3 SWAP2 POP POP JUMP JUMPDEST PUSH1 0x0 PUSH1 0x20 DUP3 ADD SWAP1 POP DUP2 DUP2 SUB PUSH1 0x0 DUP4 ADD MSTORE PUSH2 0x132 DUP2 DUP5 PUSH2 0xC4 JUMP JUMPDEST SWAP1 POP SWAP3 SWAP2 POP POP JUMP JUMPDEST PUSH1 0x0 DUP2 MLOAD SWAP1 POP SWAP2 SWAP1 POP JUMP JUMPDEST PUSH1 0x0 DUP3 DUP3 MSTORE PUSH1 0x20 DUP3 ADD SWAP1 POP SWAP3 SWAP2 POP POP JUMP JUMPDEST PUSH1 0x0 DUP2 SWAP1 POP SWAP2 SWAP1 POP JUMP JUMPDEST PUSH1 0x0 JUMPDEST DUP4 DUP2 LT ISZERO PUSH2 0x17E JUMPI DUP1 DUP3 ADD MLOAD DUP2 DUP5 ADD MSTORE PUSH1 0x20 DUP2 ADD SWAP1 POP PUSH2 0x163 JUMP JUMPDEST DUP4 DUP2 GT ISZERO PUSH2 0x18D JUMPI PUSH1 0x0 DUP5 DUP5 ADD MSTORE JUMPDEST POP POP POP POP JUMP JUMPDEST PUSH1 0x0 PUSH1 0x1F NOT PUSH1 0x1F DUP4 ADD AND SWAP1 POP SWAP2 SWAP1 POP JUMP INVALID LOG2 PUSH5 0x6970667358 0x22 SLT KECCAK256 0xAD 0xCF PUSH21 0xECBD62388E99019EC1CD3753D38579047FFAAFCC67 TIMESTAMP 0x5C 0xAC PUSH10 0x11DAC6B464736F6C6343 STOP ADDMOD MOD STOP CALLER "
				},
				"gasEstimates": {
					"creation": {
						"codeDepositCost": "94800",
						"executionCost": "141",
						"totalCost": "94941"
					},
					"external": {
						"f1()": "329",
						"location()": "infinite"
					}
				},
				"methodIdentifiers": {
					"f1()": "c27fc305",
					"location()": "516f279e"
				}
			},
			"storageLayout": {
				"storage": [
					{
						"astId": 3,
						"contract": "contracts/test2.sol:Property",
						"label": "price",
						"offset": 0,
						"slot": "0",
						"type": "t_int256"
					}
				],
				"types": {
					"t_int256": {
						"encoding": "inplace",
						"label": "int256",
						"numberOfBytes": "32"
					}
				}
			},
			"userdoc": {
				"kind": "user",
				"methods": {},
				"version": 1
			}
		}
	}
}