{
	"contracts/test7.sol": {
		"Academy": {
			"abi": [
				{
					"inputs": [
						{
							"internalType": "uint256",
							"name": "_age",
							"type": "uint256"
						},
						{
							"internalType": "string",
							"name": "_name",
							"type": "string"
						}
					],
					"stateMutability": "nonpayable",
					"type": "constructor"
				},
				{
					"inputs": [],
					"name": "academyInstructor",
					"outputs": [
						{
							"internalType": "uint256",
							"name": "age",
							"type": "uint256"
						},
						{
							"internalType": "string",
							"name": "name",
							"type": "string"
						},
						{
							"internalType": "address",
							"name": "addr",
							"type": "address"
						}
					],
					"stateMutability": "view",
					"type": "function"
				},
				{
					"inputs": [],
					"name": "academyState",
					"outputs": [
						{
							"internalType": "enum Academy.State",
							"name": "",
							"type": "uint8"
						}
					],
					"stateMutability": "view",
					"type": "function"
				},
				{
					"inputs": [
						{
							"internalType": "uint256",
							"name": "_age",
							"type": "uint256"
						},
						{
							"internalType": "string",
							"name": "_name",
							"type": "string"
						},
						{
							"internalType": "address",
							"name": "_addr",
							"type": "address"
						}
					],
					"name": "changeInstructor",
					"outputs": [],
					"stateMutability": "nonpayable",
					"type": "function"
				},
				{
					"inputs": [
						{
							"internalType": "enum Academy.State",
							"name": "_state",
							"type": "uint8"
						}
					],
					"name": "changeState",
					"outputs": [],
					"stateMutability": "nonpayable",
					"type": "function"
				}
			],
			"devdoc": {
				"kind": "dev",
				"methods": {},
				"version": 1
			},
			"evm": {
				"assembly": "    /* \"contracts/test7.sol\":147:945  contract Academy{... */\n  mstore(0x40, 0x80)\n    /* \"contracts/test7.sol\":276:286  State.Open */\n  0x00\n    /* \"contracts/test7.sol\":248:286  State public academyState = State.Open */\n  0x03\n  exp(0x0100, 0x00)\n  dup2\n  sload\n  dup2\n  0xff\n  mul\n  not\n  and\n  swap1\n  dup4\n  0x02\n  dup2\n  gt\n  iszero\n  tag_1\n  jumpi\n  tag_2\n  tag_3\n  jump\t// in\ntag_2:\ntag_1:\n  mul\n  or\n  swap1\n  sstore\n  pop\n    /* \"contracts/test7.sol\":293:466  constructor(uint _age, string memory _name){... */\n  callvalue\n  dup1\n  iszero\n  tag_4\n  jumpi\n  0x00\n  dup1\n  revert\ntag_4:\n  pop\n  mload(0x40)\n  sub(codesize, bytecodeSize)\n  dup1\n  bytecodeSize\n  dup4\n  codecopy\n  dup2\n  dup2\n  add\n  0x40\n  mstore\n  dup2\n  add\n  swap1\n  tag_5\n  swap2\n  swap1\n  tag_6\n  jump\t// in\ntag_5:\n    /* \"contracts/test7.sol\":370:374  _age */\n  dup2\n    /* \"contracts/test7.sol\":346:363  academyInstructor */\n  0x00\n    /* \"contracts/test7.sol\":346:367  academyInstructor.age */\n  dup1\n  add\n    /* \"contracts/test7.sol\":346:374  academyInstructor.age = _age */\n  dup2\n  swap1\n  sstore\n  pop\n    /* \"contracts/test7.sol\":409:414  _name */\n  dup1\n    /* \"contracts/test7.sol\":384:401  academyInstructor */\n  0x00\n    /* \"contracts/test7.sol\":384:406  academyInstructor.name */\n  0x01\n  add\n    /* \"contracts/test7.sol\":384:414  academyInstructor.name = _name */\n  swap1\n  dup1\n  mload\n  swap1\n  0x20\n  add\n  swap1\n  tag_9\n  swap3\n  swap2\n  swap1\n  tag_10\n  jump\t// in\ntag_9:\n  pop\n    /* \"contracts/test7.sol\":449:459  msg.sender */\n  caller\n    /* \"contracts/test7.sol\":424:441  academyInstructor */\n  0x00\n    /* \"contracts/test7.sol\":424:446  academyInstructor.addr */\n  0x02\n  add\n  0x00\n    /* \"contracts/test7.sol\":424:459  academyInstructor.addr = msg.sender */\n  0x0100\n  exp\n  dup2\n  sload\n  dup2\n  0xffffffffffffffffffffffffffffffffffffffff\n  mul\n  not\n  and\n  swap1\n  dup4\n  0xffffffffffffffffffffffffffffffffffffffff\n  and\n  mul\n  or\n  swap1\n  sstore\n  pop\n    /* \"contracts/test7.sol\":293:466  constructor(uint _age, string memory _name){... */\n  pop\n  pop\n    /* \"contracts/test7.sol\":147:945  contract Academy{... */\n  jump(tag_11)\ntag_10:\n  dup3\n  dup1\n  sload\n  tag_12\n  swap1\n  tag_13\n  jump\t// in\ntag_12:\n  swap1\n  0x00\n  mstore\n  keccak256(0x00, 0x20)\n  swap1\n  0x1f\n  add\n  0x20\n  swap1\n  div\n  dup2\n  add\n  swap3\n  dup3\n  tag_15\n  jumpi\n  0x00\n  dup6\n  sstore\n  jump(tag_14)\ntag_15:\n  dup3\n  0x1f\n  lt\n  tag_16\n  jumpi\n  dup1\n  mload\n  not(0xff)\n  and\n  dup4\n  dup1\n  add\n  or\n  dup6\n  sstore\n  jump(tag_14)\ntag_16:\n  dup3\n  dup1\n  add\n  0x01\n  add\n  dup6\n  sstore\n  dup3\n  iszero\n  tag_14\n  jumpi\n  swap2\n  dup3\n  add\ntag_17:\n  dup3\n  dup2\n  gt\n  iszero\n  tag_18\n  jumpi\n  dup3\n  mload\n  dup3\n  sstore\n  swap2\n  0x20\n  add\n  swap2\n  swap1\n  0x01\n  add\n  swap1\n  jump(tag_17)\ntag_18:\ntag_14:\n  pop\n  swap1\n  pop\n  tag_19\n  swap2\n  swap1\n  tag_20\n  jump\t// in\ntag_19:\n  pop\n  swap1\n  jump\t// out\ntag_20:\ntag_21:\n  dup1\n  dup3\n  gt\n  iszero\n  tag_22\n  jumpi\n  0x00\n  dup2\n  0x00\n  swap1\n  sstore\n  pop\n  0x01\n  add\n  jump(tag_21)\ntag_22:\n  pop\n  swap1\n  jump\t// out\n    /* \"#utility.yul\":7:428   */\ntag_24:\n    /* \"#utility.yul\":96:101   */\n  0x00\n    /* \"#utility.yul\":121:187   */\n  tag_26\n    /* \"#utility.yul\":137:186   */\n  tag_27\n    /* \"#utility.yul\":179:185   */\n  dup5\n    /* \"#utility.yul\":137:186   */\n  tag_28\n  jump\t// in\ntag_27:\n    /* \"#utility.yul\":121:187   */\n  tag_29\n  jump\t// in\ntag_26:\n    /* \"#utility.yul\":112:187   */\n  swap1\n  pop\n    /* \"#utility.yul\":210:216   */\n  dup3\n    /* \"#utility.yul\":203:208   */\n  dup2\n    /* \"#utility.yul\":196:217   */\n  mstore\n    /* \"#utility.yul\":248:252   */\n  0x20\n    /* \"#utility.yul\":241:246   */\n  dup2\n    /* \"#utility.yul\":237:253   */\n  add\n    /* \"#utility.yul\":286:289   */\n  dup5\n    /* \"#utility.yul\":277:283   */\n  dup5\n    /* \"#utility.yul\":272:275   */\n  dup5\n    /* \"#utility.yul\":268:284   */\n  add\n    /* \"#utility.yul\":265:290   */\n  gt\n    /* \"#utility.yul\":262:374   */\n  iszero\n  tag_30\n  jumpi\n    /* \"#utility.yul\":293:372   */\n  tag_31\n  tag_32\n  jump\t// in\ntag_31:\n    /* \"#utility.yul\":262:374   */\ntag_30:\n    /* \"#utility.yul\":383:422   */\n  tag_33\n    /* \"#utility.yul\":415:421   */\n  dup5\n    /* \"#utility.yul\":410:413   */\n  dup3\n    /* \"#utility.yul\":405:408   */\n  dup6\n    /* \"#utility.yul\":383:422   */\n  tag_34\n  jump\t// in\ntag_33:\n    /* \"#utility.yul\":102:428   */\n  pop\n    /* \"#utility.yul\":7:428   */\n  swap4\n  swap3\n  pop\n  pop\n  pop\n  jump\t// out\n    /* \"#utility.yul\":448:803   */\ntag_35:\n    /* \"#utility.yul\":515:520   */\n  0x00\n    /* \"#utility.yul\":564:567   */\n  dup3\n    /* \"#utility.yul\":557:561   */\n  0x1f\n    /* \"#utility.yul\":549:555   */\n  dup4\n    /* \"#utility.yul\":545:562   */\n  add\n    /* \"#utility.yul\":541:568   */\n  slt\n    /* \"#utility.yul\":531:653   */\n  tag_37\n  jumpi\n    /* \"#utility.yul\":572:651   */\n  tag_38\n  tag_39\n  jump\t// in\ntag_38:\n    /* \"#utility.yul\":531:653   */\ntag_37:\n    /* \"#utility.yul\":682:688   */\n  dup2\n    /* \"#utility.yul\":676:689   */\n  mload\n    /* \"#utility.yul\":707:797   */\n  tag_40\n    /* \"#utility.yul\":793:796   */\n  dup5\n    /* \"#utility.yul\":785:791   */\n  dup3\n    /* \"#utility.yul\":778:782   */\n  0x20\n    /* \"#utility.yul\":770:776   */\n  dup7\n    /* \"#utility.yul\":766:783   */\n  add\n    /* \"#utility.yul\":707:797   */\n  tag_24\n  jump\t// in\ntag_40:\n    /* \"#utility.yul\":698:797   */\n  swap2\n  pop\n    /* \"#utility.yul\":521:803   */\n  pop\n    /* \"#utility.yul\":448:803   */\n  swap3\n  swap2\n  pop\n  pop\n  jump\t// out\n    /* \"#utility.yul\":809:952   */\ntag_41:\n    /* \"#utility.yul\":866:871   */\n  0x00\n    /* \"#utility.yul\":897:903   */\n  dup2\n    /* \"#utility.yul\":891:904   */\n  mload\n    /* \"#utility.yul\":882:904   */\n  swap1\n  pop\n    /* \"#utility.yul\":913:946   */\n  tag_43\n    /* \"#utility.yul\":940:945   */\n  dup2\n    /* \"#utility.yul\":913:946   */\n  tag_44\n  jump\t// in\ntag_43:\n    /* \"#utility.yul\":809:952   */\n  swap3\n  swap2\n  pop\n  pop\n  jump\t// out\n    /* \"#utility.yul\":958:1638   */\ntag_6:\n    /* \"#utility.yul\":1047:1053   */\n  0x00\n    /* \"#utility.yul\":1055:1061   */\n  dup1\n    /* \"#utility.yul\":1104:1106   */\n  0x40\n    /* \"#utility.yul\":1092:1101   */\n  dup4\n    /* \"#utility.yul\":1083:1090   */\n  dup6\n    /* \"#utility.yul\":1079:1102   */\n  sub\n    /* \"#utility.yul\":1075:1107   */\n  slt\n    /* \"#utility.yul\":1072:1191   */\n  iszero\n  tag_46\n  jumpi\n    /* \"#utility.yul\":1110:1189   */\n  tag_47\n  tag_48\n  jump\t// in\ntag_47:\n    /* \"#utility.yul\":1072:1191   */\ntag_46:\n    /* \"#utility.yul\":1230:1231   */\n  0x00\n    /* \"#utility.yul\":1255:1319   */\n  tag_49\n    /* \"#utility.yul\":1311:1318   */\n  dup6\n    /* \"#utility.yul\":1302:1308   */\n  dup3\n    /* \"#utility.yul\":1291:1300   */\n  dup7\n    /* \"#utility.yul\":1287:1309   */\n  add\n    /* \"#utility.yul\":1255:1319   */\n  tag_41\n  jump\t// in\ntag_49:\n    /* \"#utility.yul\":1245:1319   */\n  swap3\n  pop\n    /* \"#utility.yul\":1201:1329   */\n  pop\n    /* \"#utility.yul\":1389:1391   */\n  0x20\n    /* \"#utility.yul\":1378:1387   */\n  dup4\n    /* \"#utility.yul\":1374:1392   */\n  add\n    /* \"#utility.yul\":1368:1393   */\n  mload\n    /* \"#utility.yul\":1420:1438   */\n  0xffffffffffffffff\n    /* \"#utility.yul\":1412:1418   */\n  dup2\n    /* \"#utility.yul\":1409:1439   */\n  gt\n    /* \"#utility.yul\":1406:1523   */\n  iszero\n  tag_50\n  jumpi\n    /* \"#utility.yul\":1442:1521   */\n  tag_51\n  tag_52\n  jump\t// in\ntag_51:\n    /* \"#utility.yul\":1406:1523   */\ntag_50:\n    /* \"#utility.yul\":1547:1621   */\n  tag_53\n    /* \"#utility.yul\":1613:1620   */\n  dup6\n    /* \"#utility.yul\":1604:1610   */\n  dup3\n    /* \"#utility.yul\":1593:1602   */\n  dup7\n    /* \"#utility.yul\":1589:1611   */\n  add\n    /* \"#utility.yul\":1547:1621   */\n  tag_35\n  jump\t// in\ntag_53:\n    /* \"#utility.yul\":1537:1621   */\n  swap2\n  pop\n    /* \"#utility.yul\":1339:1631   */\n  pop\n    /* \"#utility.yul\":958:1638   */\n  swap3\n  pop\n  swap3\n  swap1\n  pop\n  jump\t// out\n    /* \"#utility.yul\":1644:1773   */\ntag_29:\n    /* \"#utility.yul\":1678:1684   */\n  0x00\n    /* \"#utility.yul\":1705:1725   */\n  tag_55\n  tag_56\n  jump\t// in\ntag_55:\n    /* \"#utility.yul\":1695:1725   */\n  swap1\n  pop\n    /* \"#utility.yul\":1734:1767   */\n  tag_57\n    /* \"#utility.yul\":1762:1766   */\n  dup3\n    /* \"#utility.yul\":1754:1760   */\n  dup3\n    /* \"#utility.yul\":1734:1767   */\n  tag_58\n  jump\t// in\ntag_57:\n    /* \"#utility.yul\":1644:1773   */\n  swap2\n  swap1\n  pop\n  jump\t// out\n    /* \"#utility.yul\":1779:1854   */\ntag_56:\n    /* \"#utility.yul\":1812:1818   */\n  0x00\n    /* \"#utility.yul\":1845:1847   */\n  0x40\n    /* \"#utility.yul\":1839:1848   */\n  mload\n    /* \"#utility.yul\":1829:1848   */\n  swap1\n  pop\n    /* \"#utility.yul\":1779:1854   */\n  swap1\n  jump\t// out\n    /* \"#utility.yul\":1860:2168   */\ntag_28:\n    /* \"#utility.yul\":1922:1926   */\n  0x00\n    /* \"#utility.yul\":2012:2030   */\n  0xffffffffffffffff\n    /* \"#utility.yul\":2004:2010   */\n  dup3\n    /* \"#utility.yul\":2001:2031   */\n  gt\n    /* \"#utility.yul\":1998:2054   */\n  iszero\n  tag_61\n  jumpi\n    /* \"#utility.yul\":2034:2052   */\n  tag_62\n  tag_63\n  jump\t// in\ntag_62:\n    /* \"#utility.yul\":1998:2054   */\ntag_61:\n    /* \"#utility.yul\":2072:2101   */\n  tag_64\n    /* \"#utility.yul\":2094:2100   */\n  dup3\n    /* \"#utility.yul\":2072:2101   */\n  tag_65\n  jump\t// in\ntag_64:\n    /* \"#utility.yul\":2064:2101   */\n  swap1\n  pop\n    /* \"#utility.yul\":2156:2160   */\n  0x20\n    /* \"#utility.yul\":2150:2154   */\n  dup2\n    /* \"#utility.yul\":2146:2161   */\n  add\n    /* \"#utility.yul\":2138:2161   */\n  swap1\n  pop\n    /* \"#utility.yul\":1860:2168   */\n  swap2\n  swap1\n  pop\n  jump\t// out\n    /* \"#utility.yul\":2174:2251   */\ntag_66:\n    /* \"#utility.yul\":2211:2218   */\n  0x00\n    /* \"#utility.yul\":2240:2245   */\n  dup2\n    /* \"#utility.yul\":2229:2245   */\n  swap1\n  pop\n    /* \"#utility.yul\":2174:2251   */\n  swap2\n  swap1\n  pop\n  jump\t// out\n    /* \"#utility.yul\":2257:2564   */\ntag_34:\n    /* \"#utility.yul\":2325:2326   */\n  0x00\n    /* \"#utility.yul\":2335:2448   */\ntag_69:\n    /* \"#utility.yul\":2349:2355   */\n  dup4\n    /* \"#utility.yul\":2346:2347   */\n  dup2\n    /* \"#utility.yul\":2343:2356   */\n  lt\n    /* \"#utility.yul\":2335:2448   */\n  iszero\n  tag_71\n  jumpi\n    /* \"#utility.yul\":2434:2435   */\n  dup1\n    /* \"#utility.yul\":2429:2432   */\n  dup3\n    /* \"#utility.yul\":2425:2436   */\n  add\n    /* \"#utility.yul\":2419:2437   */\n  mload\n    /* \"#utility.yul\":2415:2416   */\n  dup2\n    /* \"#utility.yul\":2410:2413   */\n  dup5\n    /* \"#utility.yul\":2406:2417   */\n  add\n    /* \"#utility.yul\":2399:2438   */\n  mstore\n    /* \"#utility.yul\":2371:2373   */\n  0x20\n    /* \"#utility.yul\":2368:2369   */\n  dup2\n    /* \"#utility.yul\":2364:2374   */\n  add\n    /* \"#utility.yul\":2359:2374   */\n  swap1\n  pop\n    /* \"#utility.yul\":2335:2448   */\n  jump(tag_69)\ntag_71:\n    /* \"#utility.yul\":2466:2472   */\n  dup4\n    /* \"#utility.yul\":2463:2464   */\n  dup2\n    /* \"#utility.yul\":2460:2473   */\n  gt\n    /* \"#utility.yul\":2457:2558   */\n  iszero\n  tag_72\n  jumpi\n    /* \"#utility.yul\":2546:2547   */\n  0x00\n    /* \"#utility.yul\":2537:2543   */\n  dup5\n    /* \"#utility.yul\":2532:2535   */\n  dup5\n    /* \"#utility.yul\":2528:2544   */\n  add\n    /* \"#utility.yul\":2521:2548   */\n  mstore\n    /* \"#utility.yul\":2457:2558   */\ntag_72:\n    /* \"#utility.yul\":2306:2564   */\n  pop\n    /* \"#utility.yul\":2257:2564   */\n  pop\n  pop\n  pop\n  jump\t// out\n    /* \"#utility.yul\":2570:2890   */\ntag_13:\n    /* \"#utility.yul\":2614:2620   */\n  0x00\n    /* \"#utility.yul\":2651:2652   */\n  0x02\n    /* \"#utility.yul\":2645:2649   */\n  dup3\n    /* \"#utility.yul\":2641:2653   */\n  div\n    /* \"#utility.yul\":2631:2653   */\n  swap1\n  pop\n    /* \"#utility.yul\":2698:2699   */\n  0x01\n    /* \"#utility.yul\":2692:2696   */\n  dup3\n    /* \"#utility.yul\":2688:2700   */\n  and\n    /* \"#utility.yul\":2719:2737   */\n  dup1\n    /* \"#utility.yul\":2709:2790   */\n  tag_74\n  jumpi\n    /* \"#utility.yul\":2775:2779   */\n  0x7f\n    /* \"#utility.yul\":2767:2773   */\n  dup3\n    /* \"#utility.yul\":2763:2780   */\n  and\n    /* \"#utility.yul\":2753:2780   */\n  swap2\n  pop\n    /* \"#utility.yul\":2709:2790   */\ntag_74:\n    /* \"#utility.yul\":2837:2839   */\n  0x20\n    /* \"#utility.yul\":2829:2835   */\n  dup3\n    /* \"#utility.yul\":2826:2840   */\n  lt\n    /* \"#utility.yul\":2806:2824   */\n  dup2\n    /* \"#utility.yul\":2803:2841   */\n  eq\n    /* \"#utility.yul\":2800:2884   */\n  iszero\n  tag_75\n  jumpi\n    /* \"#utility.yul\":2856:2874   */\n  tag_76\n  tag_77\n  jump\t// in\ntag_76:\n    /* \"#utility.yul\":2800:2884   */\ntag_75:\n    /* \"#utility.yul\":2621:2890   */\n  pop\n    /* \"#utility.yul\":2570:2890   */\n  swap2\n  swap1\n  pop\n  jump\t// out\n    /* \"#utility.yul\":2896:3177   */\ntag_58:\n    /* \"#utility.yul\":2979:3006   */\n  tag_79\n    /* \"#utility.yul\":3001:3005   */\n  dup3\n    /* \"#utility.yul\":2979:3006   */\n  tag_65\n  jump\t// in\ntag_79:\n    /* \"#utility.yul\":2971:2977   */\n  dup2\n    /* \"#utility.yul\":2967:3007   */\n  add\n    /* \"#utility.yul\":3109:3115   */\n  dup2\n    /* \"#utility.yul\":3097:3107   */\n  dup2\n    /* \"#utility.yul\":3094:3116   */\n  lt\n    /* \"#utility.yul\":3073:3091   */\n  0xffffffffffffffff\n    /* \"#utility.yul\":3061:3071   */\n  dup3\n    /* \"#utility.yul\":3058:3092   */\n  gt\n    /* \"#utility.yul\":3055:3117   */\n  or\n    /* \"#utility.yul\":3052:3140   */\n  iszero\n  tag_80\n  jumpi\n    /* \"#utility.yul\":3120:3138   */\n  tag_81\n  tag_63\n  jump\t// in\ntag_81:\n    /* \"#utility.yul\":3052:3140   */\ntag_80:\n    /* \"#utility.yul\":3160:3170   */\n  dup1\n    /* \"#utility.yul\":3156:3158   */\n  0x40\n    /* \"#utility.yul\":3149:3171   */\n  mstore\n    /* \"#utility.yul\":2939:3177   */\n  pop\n    /* \"#utility.yul\":2896:3177   */\n  pop\n  pop\n  jump\t// out\n    /* \"#utility.yul\":3183:3363   */\ntag_3:\n    /* \"#utility.yul\":3231:3308   */\n  0x4e487b7100000000000000000000000000000000000000000000000000000000\n    /* \"#utility.yul\":3228:3229   */\n  0x00\n    /* \"#utility.yul\":3221:3309   */\n  mstore\n    /* \"#utility.yul\":3328:3332   */\n  0x21\n    /* \"#utility.yul\":3325:3326   */\n  0x04\n    /* \"#utility.yul\":3318:3333   */\n  mstore\n    /* \"#utility.yul\":3352:3356   */\n  0x24\n    /* \"#utility.yul\":3349:3350   */\n  0x00\n    /* \"#utility.yul\":3342:3357   */\n  revert\n    /* \"#utility.yul\":3369:3549   */\ntag_77:\n    /* \"#utility.yul\":3417:3494   */\n  0x4e487b7100000000000000000000000000000000000000000000000000000000\n    /* \"#utility.yul\":3414:3415   */\n  0x00\n    /* \"#utility.yul\":3407:3495   */\n  mstore\n    /* \"#utility.yul\":3514:3518   */\n  0x22\n    /* \"#utility.yul\":3511:3512   */\n  0x04\n    /* \"#utility.yul\":3504:3519   */\n  mstore\n    /* \"#utility.yul\":3538:3542   */\n  0x24\n    /* \"#utility.yul\":3535:3536   */\n  0x00\n    /* \"#utility.yul\":3528:3543   */\n  revert\n    /* \"#utility.yul\":3555:3735   */\ntag_63:\n    /* \"#utility.yul\":3603:3680   */\n  0x4e487b7100000000000000000000000000000000000000000000000000000000\n    /* \"#utility.yul\":3600:3601   */\n  0x00\n    /* \"#utility.yul\":3593:3681   */\n  mstore\n    /* \"#utility.yul\":3700:3704   */\n  0x41\n    /* \"#utility.yul\":3697:3698   */\n  0x04\n    /* \"#utility.yul\":3690:3705   */\n  mstore\n    /* \"#utility.yul\":3724:3728   */\n  0x24\n    /* \"#utility.yul\":3721:3722   */\n  0x00\n    /* \"#utility.yul\":3714:3729   */\n  revert\n    /* \"#utility.yul\":3741:3858   */\ntag_39:\n    /* \"#utility.yul\":3850:3851   */\n  0x00\n    /* \"#utility.yul\":3847:3848   */\n  dup1\n    /* \"#utility.yul\":3840:3852   */\n  revert\n    /* \"#utility.yul\":3864:3981   */\ntag_32:\n    /* \"#utility.yul\":3973:3974   */\n  0x00\n    /* \"#utility.yul\":3970:3971   */\n  dup1\n    /* \"#utility.yul\":3963:3975   */\n  revert\n    /* \"#utility.yul\":3987:4104   */\ntag_52:\n    /* \"#utility.yul\":4096:4097   */\n  0x00\n    /* \"#utility.yul\":4093:4094   */\n  dup1\n    /* \"#utility.yul\":4086:4098   */\n  revert\n    /* \"#utility.yul\":4110:4227   */\ntag_48:\n    /* \"#utility.yul\":4219:4220   */\n  0x00\n    /* \"#utility.yul\":4216:4217   */\n  dup1\n    /* \"#utility.yul\":4209:4221   */\n  revert\n    /* \"#utility.yul\":4233:4335   */\ntag_65:\n    /* \"#utility.yul\":4274:4280   */\n  0x00\n    /* \"#utility.yul\":4325:4327   */\n  0x1f\n    /* \"#utility.yul\":4321:4328   */\n  not\n    /* \"#utility.yul\":4316:4318   */\n  0x1f\n    /* \"#utility.yul\":4309:4314   */\n  dup4\n    /* \"#utility.yul\":4305:4319   */\n  add\n    /* \"#utility.yul\":4301:4329   */\n  and\n    /* \"#utility.yul\":4291:4329   */\n  swap1\n  pop\n    /* \"#utility.yul\":4233:4335   */\n  swap2\n  swap1\n  pop\n  jump\t// out\n    /* \"#utility.yul\":4341:4463   */\ntag_44:\n    /* \"#utility.yul\":4414:4438   */\n  tag_91\n    /* \"#utility.yul\":4432:4437   */\n  dup2\n    /* \"#utility.yul\":4414:4438   */\n  tag_66\n  jump\t// in\ntag_91:\n    /* \"#utility.yul\":4407:4412   */\n  dup2\n    /* \"#utility.yul\":4404:4439   */\n  eq\n    /* \"#utility.yul\":4394:4457   */\n  tag_92\n  jumpi\n    /* \"#utility.yul\":4453:4454   */\n  0x00\n    /* \"#utility.yul\":4450:4451   */\n  dup1\n    /* \"#utility.yul\":4443:4455   */\n  revert\n    /* \"#utility.yul\":4394:4457   */\ntag_92:\n    /* \"#utility.yul\":4341:4463   */\n  pop\n  jump\t// out\n    /* \"contracts/test7.sol\":147:945  contract Academy{... */\ntag_11:\n  dataSize(sub_0)\n  dup1\n  dataOffset(sub_0)\n  0x00\n  codecopy\n  0x00\n  return\nstop\n\nsub_0: assembly {\n        /* \"contracts/test7.sol\":147:945  contract Academy{... */\n      mstore(0x40, 0x80)\n      callvalue\n      dup1\n      iszero\n      tag_1\n      jumpi\n      0x00\n      dup1\n      revert\n    tag_1:\n      pop\n      jumpi(tag_2, lt(calldatasize, 0x04))\n      shr(0xe0, calldataload(0x00))\n      dup1\n      0x23b8ca9f\n      eq\n      tag_3\n      jumpi\n      dup1\n      0x268f1153\n      eq\n      tag_4\n      jumpi\n      dup1\n      0x54248841\n      eq\n      tag_5\n      jumpi\n      dup1\n      0xa46878fb\n      eq\n      tag_6\n      jumpi\n    tag_2:\n      0x00\n      dup1\n      revert\n        /* \"contracts/test7.sol\":248:286  State public academyState = State.Open */\n    tag_3:\n      tag_7\n      tag_8\n      jump\t// in\n    tag_7:\n      mload(0x40)\n      tag_9\n      swap2\n      swap1\n      tag_10\n      jump\t// in\n    tag_9:\n      mload(0x40)\n      dup1\n      swap2\n      sub\n      swap1\n      return\n        /* \"contracts/test7.sol\":864:943  function changeState(State _state) public{... */\n    tag_4:\n      tag_11\n      0x04\n      dup1\n      calldatasize\n      sub\n      dup2\n      add\n      swap1\n      tag_12\n      swap2\n      swap1\n      tag_13\n      jump\t// in\n    tag_12:\n      tag_14\n      jump\t// in\n    tag_11:\n      stop\n        /* \"contracts/test7.sol\":169:204  Instructor public academyInstructor */\n    tag_5:\n      tag_15\n      tag_16\n      jump\t// in\n    tag_15:\n      mload(0x40)\n      tag_17\n      swap4\n      swap3\n      swap2\n      swap1\n      tag_18\n      jump\t// in\n    tag_17:\n      mload(0x40)\n      dup1\n      swap2\n      sub\n      swap1\n      return\n        /* \"contracts/test7.sol\":472:858  function changeInstructor(uint _age, string memory _name, address _addr) public{... */\n    tag_6:\n      tag_19\n      0x04\n      dup1\n      calldatasize\n      sub\n      dup2\n      add\n      swap1\n      tag_20\n      swap2\n      swap1\n      tag_21\n      jump\t// in\n    tag_20:\n      tag_22\n      jump\t// in\n    tag_19:\n      stop\n        /* \"contracts/test7.sol\":248:286  State public academyState = State.Open */\n    tag_8:\n      0x03\n      0x00\n      swap1\n      sload\n      swap1\n      0x0100\n      exp\n      swap1\n      div\n      0xff\n      and\n      dup2\n      jump\t// out\n        /* \"contracts/test7.sol\":864:943  function changeState(State _state) public{... */\n    tag_14:\n        /* \"contracts/test7.sol\":930:936  _state */\n      dup1\n        /* \"contracts/test7.sol\":915:927  academyState */\n      0x03\n      0x00\n        /* \"contracts/test7.sol\":915:936  academyState = _state */\n      0x0100\n      exp\n      dup2\n      sload\n      dup2\n      0xff\n      mul\n      not\n      and\n      swap1\n      dup4\n      0x02\n      dup2\n      gt\n      iszero\n      tag_24\n      jumpi\n      tag_25\n      tag_26\n      jump\t// in\n    tag_25:\n    tag_24:\n      mul\n      or\n      swap1\n      sstore\n      pop\n        /* \"contracts/test7.sol\":864:943  function changeState(State _state) public{... */\n      pop\n      jump\t// out\n        /* \"contracts/test7.sol\":169:204  Instructor public academyInstructor */\n    tag_16:\n      0x00\n      dup1\n      0x00\n      add\n      sload\n      swap1\n      dup1\n      0x01\n      add\n      dup1\n      sload\n      tag_27\n      swap1\n      tag_28\n      jump\t// in\n    tag_27:\n      dup1\n      0x1f\n      add\n      0x20\n      dup1\n      swap2\n      div\n      mul\n      0x20\n      add\n      mload(0x40)\n      swap1\n      dup2\n      add\n      0x40\n      mstore\n      dup1\n      swap3\n      swap2\n      swap1\n      dup2\n      dup2\n      mstore\n      0x20\n      add\n      dup3\n      dup1\n      sload\n      tag_29\n      swap1\n      tag_28\n      jump\t// in\n    tag_29:\n      dup1\n      iszero\n      tag_30\n      jumpi\n      dup1\n      0x1f\n      lt\n      tag_31\n      jumpi\n      0x0100\n      dup1\n      dup4\n      sload\n      div\n      mul\n      dup4\n      mstore\n      swap2\n      0x20\n      add\n      swap2\n      jump(tag_30)\n    tag_31:\n      dup3\n      add\n      swap2\n      swap1\n      0x00\n      mstore\n      keccak256(0x00, 0x20)\n      swap1\n    tag_32:\n      dup2\n      sload\n      dup2\n      mstore\n      swap1\n      0x01\n      add\n      swap1\n      0x20\n      add\n      dup1\n      dup4\n      gt\n      tag_32\n      jumpi\n      dup3\n      swap1\n      sub\n      0x1f\n      and\n      dup3\n      add\n      swap2\n    tag_30:\n      pop\n      pop\n      pop\n      pop\n      pop\n      swap1\n      dup1\n      0x02\n      add\n      0x00\n      swap1\n      sload\n      swap1\n      0x0100\n      exp\n      swap1\n      div\n      0xffffffffffffffffffffffffffffffffffffffff\n      and\n      swap1\n      pop\n      dup4\n      jump\t// out\n        /* \"contracts/test7.sol\":472:858  function changeInstructor(uint _age, string memory _name, address _addr) public{... */\n    tag_22:\n        /* \"contracts/test7.sol\":580:590  State.Open */\n      0x00\n        /* \"contracts/test7.sol\":564:590  academyState == State.Open */\n      0x02\n      dup2\n      gt\n      iszero\n      tag_34\n      jumpi\n      tag_35\n      tag_26\n      jump\t// in\n    tag_35:\n    tag_34:\n        /* \"contracts/test7.sol\":564:576  academyState */\n      0x03\n      0x00\n      swap1\n      sload\n      swap1\n      0x0100\n      exp\n      swap1\n      div\n      0xff\n      and\n        /* \"contracts/test7.sol\":564:590  academyState == State.Open */\n      0x02\n      dup2\n      gt\n      iszero\n      tag_36\n      jumpi\n      tag_37\n      tag_26\n      jump\t// in\n    tag_37:\n    tag_36:\n      eq\n        /* \"contracts/test7.sol\":561:852  if(academyState == State.Open){... */\n      iszero\n      tag_38\n      jumpi\n        /* \"contracts/test7.sol\":605:635  Instructor memory myInstructor */\n      0x00\n        /* \"contracts/test7.sol\":638:795  Instructor(... */\n      mload(0x40)\n      dup1\n      0x60\n      add\n      0x40\n      mstore\n      dup1\n        /* \"contracts/test7.sol\":693:697  _age */\n      dup6\n        /* \"contracts/test7.sol\":638:795  Instructor(... */\n      dup2\n      mstore\n      0x20\n      add\n        /* \"contracts/test7.sol\":725:730  _name */\n      dup5\n        /* \"contracts/test7.sol\":638:795  Instructor(... */\n      dup2\n      mstore\n      0x20\n      add\n        /* \"contracts/test7.sol\":758:763  _addr */\n      dup4\n        /* \"contracts/test7.sol\":638:795  Instructor(... */\n      0xffffffffffffffffffffffffffffffffffffffff\n      and\n      dup2\n      mstore\n      pop\n        /* \"contracts/test7.sol\":605:795  Instructor memory myInstructor = Instructor(... */\n      swap1\n      pop\n        /* \"contracts/test7.sol\":829:841  myInstructor */\n      dup1\n        /* \"contracts/test7.sol\":809:826  academyInstructor */\n      0x00\n        /* \"contracts/test7.sol\":809:841  academyInstructor = myInstructor */\n      dup1\n      dup3\n      add\n      mload\n      dup2\n      0x00\n      add\n      sstore\n      0x20\n      dup3\n      add\n      mload\n      dup2\n      0x01\n      add\n      swap1\n      dup1\n      mload\n      swap1\n      0x20\n      add\n      swap1\n      tag_39\n      swap3\n      swap2\n      swap1\n      tag_40\n      jump\t// in\n    tag_39:\n      pop\n      0x40\n      dup3\n      add\n      mload\n      dup2\n      0x02\n      add\n      exp(0x0100, 0x00)\n      dup2\n      sload\n      dup2\n      0xffffffffffffffffffffffffffffffffffffffff\n      mul\n      not\n      and\n      swap1\n      dup4\n      0xffffffffffffffffffffffffffffffffffffffff\n      and\n      mul\n      or\n      swap1\n      sstore\n      pop\n      swap1\n      pop\n      pop\n        /* \"contracts/test7.sol\":591:852  {... */\n      pop\n        /* \"contracts/test7.sol\":561:852  if(academyState == State.Open){... */\n    tag_38:\n        /* \"contracts/test7.sol\":472:858  function changeInstructor(uint _age, string memory _name, address _addr) public{... */\n      pop\n      pop\n      pop\n      jump\t// out\n    tag_40:\n      dup3\n      dup1\n      sload\n      tag_41\n      swap1\n      tag_28\n      jump\t// in\n    tag_41:\n      swap1\n      0x00\n      mstore\n      keccak256(0x00, 0x20)\n      swap1\n      0x1f\n      add\n      0x20\n      swap1\n      div\n      dup2\n      add\n      swap3\n      dup3\n      tag_43\n      jumpi\n      0x00\n      dup6\n      sstore\n      jump(tag_42)\n    tag_43:\n      dup3\n      0x1f\n      lt\n      tag_44\n      jumpi\n      dup1\n      mload\n      not(0xff)\n      and\n      dup4\n      dup1\n      add\n      or\n      dup6\n      sstore\n      jump(tag_42)\n    tag_44:\n      dup3\n      dup1\n      add\n      0x01\n      add\n      dup6\n      sstore\n      dup3\n      iszero\n      tag_42\n      jumpi\n      swap2\n      dup3\n      add\n    tag_45:\n      dup3\n      dup2\n      gt\n      iszero\n      tag_46\n      jumpi\n      dup3\n      mload\n      dup3\n      sstore\n      swap2\n      0x20\n      add\n      swap2\n      swap1\n      0x01\n      add\n      swap1\n      jump(tag_45)\n    tag_46:\n    tag_42:\n      pop\n      swap1\n      pop\n      tag_47\n      swap2\n      swap1\n      tag_48\n      jump\t// in\n    tag_47:\n      pop\n      swap1\n      jump\t// out\n    tag_48:\n    tag_49:\n      dup1\n      dup3\n      gt\n      iszero\n      tag_50\n      jumpi\n      0x00\n      dup2\n      0x00\n      swap1\n      sstore\n      pop\n      0x01\n      add\n      jump(tag_49)\n    tag_50:\n      pop\n      swap1\n      jump\t// out\n        /* \"#utility.yul\":7:419   */\n    tag_52:\n        /* \"#utility.yul\":85:90   */\n      0x00\n        /* \"#utility.yul\":110:176   */\n      tag_54\n        /* \"#utility.yul\":126:175   */\n      tag_55\n        /* \"#utility.yul\":168:174   */\n      dup5\n        /* \"#utility.yul\":126:175   */\n      tag_56\n      jump\t// in\n    tag_55:\n        /* \"#utility.yul\":110:176   */\n      tag_57\n      jump\t// in\n    tag_54:\n        /* \"#utility.yul\":101:176   */\n      swap1\n      pop\n        /* \"#utility.yul\":199:205   */\n      dup3\n        /* \"#utility.yul\":192:197   */\n      dup2\n        /* \"#utility.yul\":185:206   */\n      mstore\n        /* \"#utility.yul\":237:241   */\n      0x20\n        /* \"#utility.yul\":230:235   */\n      dup2\n        /* \"#utility.yul\":226:242   */\n      add\n        /* \"#utility.yul\":275:278   */\n      dup5\n        /* \"#utility.yul\":266:272   */\n      dup5\n        /* \"#utility.yul\":261:264   */\n      dup5\n        /* \"#utility.yul\":257:273   */\n      add\n        /* \"#utility.yul\":254:279   */\n      gt\n        /* \"#utility.yul\":251:363   */\n      iszero\n      tag_58\n      jumpi\n        /* \"#utility.yul\":282:361   */\n      tag_59\n      tag_60\n      jump\t// in\n    tag_59:\n        /* \"#utility.yul\":251:363   */\n    tag_58:\n        /* \"#utility.yul\":372:413   */\n      tag_61\n        /* \"#utility.yul\":406:412   */\n      dup5\n        /* \"#utility.yul\":401:404   */\n      dup3\n        /* \"#utility.yul\":396:399   */\n      dup6\n        /* \"#utility.yul\":372:413   */\n      tag_62\n      jump\t// in\n    tag_61:\n        /* \"#utility.yul\":91:419   */\n      pop\n        /* \"#utility.yul\":7:419   */\n      swap4\n      swap3\n      pop\n      pop\n      pop\n      jump\t// out\n        /* \"#utility.yul\":425:564   */\n    tag_63:\n        /* \"#utility.yul\":471:476   */\n      0x00\n        /* \"#utility.yul\":509:515   */\n      dup2\n        /* \"#utility.yul\":496:516   */\n      calldataload\n        /* \"#utility.yul\":487:516   */\n      swap1\n      pop\n        /* \"#utility.yul\":525:558   */\n      tag_65\n        /* \"#utility.yul\":552:557   */\n      dup2\n        /* \"#utility.yul\":525:558   */\n      tag_66\n      jump\t// in\n    tag_65:\n        /* \"#utility.yul\":425:564   */\n      swap3\n      swap2\n      pop\n      pop\n      jump\t// out\n        /* \"#utility.yul\":570:725   */\n    tag_67:\n        /* \"#utility.yul\":624:629   */\n      0x00\n        /* \"#utility.yul\":662:668   */\n      dup2\n        /* \"#utility.yul\":649:669   */\n      calldataload\n        /* \"#utility.yul\":640:669   */\n      swap1\n      pop\n        /* \"#utility.yul\":678:719   */\n      tag_69\n        /* \"#utility.yul\":713:718   */\n      dup2\n        /* \"#utility.yul\":678:719   */\n      tag_70\n      jump\t// in\n    tag_69:\n        /* \"#utility.yul\":570:725   */\n      swap3\n      swap2\n      pop\n      pop\n      jump\t// out\n        /* \"#utility.yul\":745:1085   */\n    tag_71:\n        /* \"#utility.yul\":801:806   */\n      0x00\n        /* \"#utility.yul\":850:853   */\n      dup3\n        /* \"#utility.yul\":843:847   */\n      0x1f\n        /* \"#utility.yul\":835:841   */\n      dup4\n        /* \"#utility.yul\":831:848   */\n      add\n        /* \"#utility.yul\":827:854   */\n      slt\n        /* \"#utility.yul\":817:939   */\n      tag_73\n      jumpi\n        /* \"#utility.yul\":858:937   */\n      tag_74\n      tag_75\n      jump\t// in\n    tag_74:\n        /* \"#utility.yul\":817:939   */\n    tag_73:\n        /* \"#utility.yul\":975:981   */\n      dup2\n        /* \"#utility.yul\":962:982   */\n      calldataload\n        /* \"#utility.yul\":1000:1079   */\n      tag_76\n        /* \"#utility.yul\":1075:1078   */\n      dup5\n        /* \"#utility.yul\":1067:1073   */\n      dup3\n        /* \"#utility.yul\":1060:1064   */\n      0x20\n        /* \"#utility.yul\":1052:1058   */\n      dup7\n        /* \"#utility.yul\":1048:1065   */\n      add\n        /* \"#utility.yul\":1000:1079   */\n      tag_52\n      jump\t// in\n    tag_76:\n        /* \"#utility.yul\":991:1079   */\n      swap2\n      pop\n        /* \"#utility.yul\":807:1085   */\n      pop\n        /* \"#utility.yul\":745:1085   */\n      swap3\n      swap2\n      pop\n      pop\n      jump\t// out\n        /* \"#utility.yul\":1091:1230   */\n    tag_77:\n        /* \"#utility.yul\":1137:1142   */\n      0x00\n        /* \"#utility.yul\":1175:1181   */\n      dup2\n        /* \"#utility.yul\":1162:1182   */\n      calldataload\n        /* \"#utility.yul\":1153:1182   */\n      swap1\n      pop\n        /* \"#utility.yul\":1191:1224   */\n      tag_79\n        /* \"#utility.yul\":1218:1223   */\n      dup2\n        /* \"#utility.yul\":1191:1224   */\n      tag_80\n      jump\t// in\n    tag_79:\n        /* \"#utility.yul\":1091:1230   */\n      swap3\n      swap2\n      pop\n      pop\n      jump\t// out\n        /* \"#utility.yul\":1236:1581   */\n    tag_13:\n        /* \"#utility.yul\":1303:1309   */\n      0x00\n        /* \"#utility.yul\":1352:1354   */\n      0x20\n        /* \"#utility.yul\":1340:1349   */\n      dup3\n        /* \"#utility.yul\":1331:1338   */\n      dup5\n        /* \"#utility.yul\":1327:1350   */\n      sub\n        /* \"#utility.yul\":1323:1355   */\n      slt\n        /* \"#utility.yul\":1320:1439   */\n      iszero\n      tag_82\n      jumpi\n        /* \"#utility.yul\":1358:1437   */\n      tag_83\n      tag_84\n      jump\t// in\n    tag_83:\n        /* \"#utility.yul\":1320:1439   */\n    tag_82:\n        /* \"#utility.yul\":1478:1479   */\n      0x00\n        /* \"#utility.yul\":1503:1564   */\n      tag_85\n        /* \"#utility.yul\":1556:1563   */\n      dup5\n        /* \"#utility.yul\":1547:1553   */\n      dup3\n        /* \"#utility.yul\":1536:1545   */\n      dup6\n        /* \"#utility.yul\":1532:1554   */\n      add\n        /* \"#utility.yul\":1503:1564   */\n      tag_67\n      jump\t// in\n    tag_85:\n        /* \"#utility.yul\":1493:1564   */\n      swap2\n      pop\n        /* \"#utility.yul\":1449:1574   */\n      pop\n        /* \"#utility.yul\":1236:1581   */\n      swap3\n      swap2\n      pop\n      pop\n      jump\t// out\n        /* \"#utility.yul\":1587:2386   */\n    tag_21:\n        /* \"#utility.yul\":1674:1680   */\n      0x00\n        /* \"#utility.yul\":1682:1688   */\n      dup1\n        /* \"#utility.yul\":1690:1696   */\n      0x00\n        /* \"#utility.yul\":1739:1741   */\n      0x60\n        /* \"#utility.yul\":1727:1736   */\n      dup5\n        /* \"#utility.yul\":1718:1725   */\n      dup7\n        /* \"#utility.yul\":1714:1737   */\n      sub\n        /* \"#utility.yul\":1710:1742   */\n      slt\n        /* \"#utility.yul\":1707:1826   */\n      iszero\n      tag_87\n      jumpi\n        /* \"#utility.yul\":1745:1824   */\n      tag_88\n      tag_84\n      jump\t// in\n    tag_88:\n        /* \"#utility.yul\":1707:1826   */\n    tag_87:\n        /* \"#utility.yul\":1865:1866   */\n      0x00\n        /* \"#utility.yul\":1890:1943   */\n      tag_89\n        /* \"#utility.yul\":1935:1942   */\n      dup7\n        /* \"#utility.yul\":1926:1932   */\n      dup3\n        /* \"#utility.yul\":1915:1924   */\n      dup8\n        /* \"#utility.yul\":1911:1933   */\n      add\n        /* \"#utility.yul\":1890:1943   */\n      tag_77\n      jump\t// in\n    tag_89:\n        /* \"#utility.yul\":1880:1943   */\n      swap4\n      pop\n        /* \"#utility.yul\":1836:1953   */\n      pop\n        /* \"#utility.yul\":2020:2022   */\n      0x20\n        /* \"#utility.yul\":2009:2018   */\n      dup5\n        /* \"#utility.yul\":2005:2023   */\n      add\n        /* \"#utility.yul\":1992:2024   */\n      calldataload\n        /* \"#utility.yul\":2051:2069   */\n      0xffffffffffffffff\n        /* \"#utility.yul\":2043:2049   */\n      dup2\n        /* \"#utility.yul\":2040:2070   */\n      gt\n        /* \"#utility.yul\":2037:2154   */\n      iszero\n      tag_90\n      jumpi\n        /* \"#utility.yul\":2073:2152   */\n      tag_91\n      tag_92\n      jump\t// in\n    tag_91:\n        /* \"#utility.yul\":2037:2154   */\n    tag_90:\n        /* \"#utility.yul\":2178:2241   */\n      tag_93\n        /* \"#utility.yul\":2233:2240   */\n      dup7\n        /* \"#utility.yul\":2224:2230   */\n      dup3\n        /* \"#utility.yul\":2213:2222   */\n      dup8\n        /* \"#utility.yul\":2209:2231   */\n      add\n        /* \"#utility.yul\":2178:2241   */\n      tag_71\n      jump\t// in\n    tag_93:\n        /* \"#utility.yul\":2168:2241   */\n      swap3\n      pop\n        /* \"#utility.yul\":1963:2251   */\n      pop\n        /* \"#utility.yul\":2290:2292   */\n      0x40\n        /* \"#utility.yul\":2316:2369   */\n      tag_94\n        /* \"#utility.yul\":2361:2368   */\n      dup7\n        /* \"#utility.yul\":2352:2358   */\n      dup3\n        /* \"#utility.yul\":2341:2350   */\n      dup8\n        /* \"#utility.yul\":2337:2359   */\n      add\n        /* \"#utility.yul\":2316:2369   */\n      tag_63\n      jump\t// in\n    tag_94:\n        /* \"#utility.yul\":2306:2369   */\n      swap2\n      pop\n        /* \"#utility.yul\":2261:2379   */\n      pop\n        /* \"#utility.yul\":1587:2386   */\n      swap3\n      pop\n      swap3\n      pop\n      swap3\n      jump\t// out\n        /* \"#utility.yul\":2392:2510   */\n    tag_95:\n        /* \"#utility.yul\":2479:2503   */\n      tag_97\n        /* \"#utility.yul\":2497:2502   */\n      dup2\n        /* \"#utility.yul\":2479:2503   */\n      tag_98\n      jump\t// in\n    tag_97:\n        /* \"#utility.yul\":2474:2477   */\n      dup3\n        /* \"#utility.yul\":2467:2504   */\n      mstore\n        /* \"#utility.yul\":2392:2510   */\n      pop\n      pop\n      jump\t// out\n        /* \"#utility.yul\":2516:2659   */\n    tag_99:\n        /* \"#utility.yul\":2609:2652   */\n      tag_101\n        /* \"#utility.yul\":2646:2651   */\n      dup2\n        /* \"#utility.yul\":2609:2652   */\n      tag_102\n      jump\t// in\n    tag_101:\n        /* \"#utility.yul\":2604:2607   */\n      dup3\n        /* \"#utility.yul\":2597:2653   */\n      mstore\n        /* \"#utility.yul\":2516:2659   */\n      pop\n      pop\n      jump\t// out\n        /* \"#utility.yul\":2665:3029   */\n    tag_103:\n        /* \"#utility.yul\":2753:2756   */\n      0x00\n        /* \"#utility.yul\":2781:2820   */\n      tag_105\n        /* \"#utility.yul\":2814:2819   */\n      dup3\n        /* \"#utility.yul\":2781:2820   */\n      tag_106\n      jump\t// in\n    tag_105:\n        /* \"#utility.yul\":2836:2907   */\n      tag_107\n        /* \"#utility.yul\":2900:2906   */\n      dup2\n        /* \"#utility.yul\":2895:2898   */\n      dup6\n        /* \"#utility.yul\":2836:2907   */\n      tag_108\n      jump\t// in\n    tag_107:\n        /* \"#utility.yul\":2829:2907   */\n      swap4\n      pop\n        /* \"#utility.yul\":2916:2968   */\n      tag_109\n        /* \"#utility.yul\":2961:2967   */\n      dup2\n        /* \"#utility.yul\":2956:2959   */\n      dup6\n        /* \"#utility.yul\":2949:2953   */\n      0x20\n        /* \"#utility.yul\":2942:2947   */\n      dup7\n        /* \"#utility.yul\":2938:2954   */\n      add\n        /* \"#utility.yul\":2916:2968   */\n      tag_110\n      jump\t// in\n    tag_109:\n        /* \"#utility.yul\":2993:3022   */\n      tag_111\n        /* \"#utility.yul\":3015:3021   */\n      dup2\n        /* \"#utility.yul\":2993:3022   */\n      tag_112\n      jump\t// in\n    tag_111:\n        /* \"#utility.yul\":2988:2991   */\n      dup5\n        /* \"#utility.yul\":2984:3023   */\n      add\n        /* \"#utility.yul\":2977:3023   */\n      swap2\n      pop\n        /* \"#utility.yul\":2757:3029   */\n      pop\n        /* \"#utility.yul\":2665:3029   */\n      swap3\n      swap2\n      pop\n      pop\n      jump\t// out\n        /* \"#utility.yul\":3035:3153   */\n    tag_113:\n        /* \"#utility.yul\":3122:3146   */\n      tag_115\n        /* \"#utility.yul\":3140:3145   */\n      dup2\n        /* \"#utility.yul\":3122:3146   */\n      tag_116\n      jump\t// in\n    tag_115:\n        /* \"#utility.yul\":3117:3120   */\n      dup3\n        /* \"#utility.yul\":3110:3147   */\n      mstore\n        /* \"#utility.yul\":3035:3153   */\n      pop\n      pop\n      jump\t// out\n        /* \"#utility.yul\":3159:3393   */\n    tag_10:\n        /* \"#utility.yul\":3258:3262   */\n      0x00\n        /* \"#utility.yul\":3296:3298   */\n      0x20\n        /* \"#utility.yul\":3285:3294   */\n      dup3\n        /* \"#utility.yul\":3281:3299   */\n      add\n        /* \"#utility.yul\":3273:3299   */\n      swap1\n      pop\n        /* \"#utility.yul\":3309:3386   */\n      tag_118\n        /* \"#utility.yul\":3383:3384   */\n      0x00\n        /* \"#utility.yul\":3372:3381   */\n      dup4\n        /* \"#utility.yul\":3368:3385   */\n      add\n        /* \"#utility.yul\":3359:3365   */\n      dup5\n        /* \"#utility.yul\":3309:3386   */\n      tag_99\n      jump\t// in\n    tag_118:\n        /* \"#utility.yul\":3159:3393   */\n      swap3\n      swap2\n      pop\n      pop\n      jump\t// out\n        /* \"#utility.yul\":3399:3932   */\n    tag_18:\n        /* \"#utility.yul\":3568:3572   */\n      0x00\n        /* \"#utility.yul\":3606:3608   */\n      0x60\n        /* \"#utility.yul\":3595:3604   */\n      dup3\n        /* \"#utility.yul\":3591:3609   */\n      add\n        /* \"#utility.yul\":3583:3609   */\n      swap1\n      pop\n        /* \"#utility.yul\":3619:3690   */\n      tag_120\n        /* \"#utility.yul\":3687:3688   */\n      0x00\n        /* \"#utility.yul\":3676:3685   */\n      dup4\n        /* \"#utility.yul\":3672:3689   */\n      add\n        /* \"#utility.yul\":3663:3669   */\n      dup7\n        /* \"#utility.yul\":3619:3690   */\n      tag_113\n      jump\t// in\n    tag_120:\n        /* \"#utility.yul\":3737:3746   */\n      dup2\n        /* \"#utility.yul\":3731:3735   */\n      dup2\n        /* \"#utility.yul\":3727:3747   */\n      sub\n        /* \"#utility.yul\":3722:3724   */\n      0x20\n        /* \"#utility.yul\":3711:3720   */\n      dup4\n        /* \"#utility.yul\":3707:3725   */\n      add\n        /* \"#utility.yul\":3700:3748   */\n      mstore\n        /* \"#utility.yul\":3765:3843   */\n      tag_121\n        /* \"#utility.yul\":3838:3842   */\n      dup2\n        /* \"#utility.yul\":3829:3835   */\n      dup6\n        /* \"#utility.yul\":3765:3843   */\n      tag_103\n      jump\t// in\n    tag_121:\n        /* \"#utility.yul\":3757:3843   */\n      swap1\n      pop\n        /* \"#utility.yul\":3853:3925   */\n      tag_122\n        /* \"#utility.yul\":3921:3923   */\n      0x40\n        /* \"#utility.yul\":3910:3919   */\n      dup4\n        /* \"#utility.yul\":3906:3924   */\n      add\n        /* \"#utility.yul\":3897:3903   */\n      dup5\n        /* \"#utility.yul\":3853:3925   */\n      tag_95\n      jump\t// in\n    tag_122:\n        /* \"#utility.yul\":3399:3932   */\n      swap5\n      swap4\n      pop\n      pop\n      pop\n      pop\n      jump\t// out\n        /* \"#utility.yul\":3938:4067   */\n    tag_57:\n        /* \"#utility.yul\":3972:3978   */\n      0x00\n        /* \"#utility.yul\":3999:4019   */\n      tag_124\n      tag_125\n      jump\t// in\n    tag_124:\n        /* \"#utility.yul\":3989:4019   */\n      swap1\n      pop\n        /* \"#utility.yul\":4028:4061   */\n      tag_126\n        /* \"#utility.yul\":4056:4060   */\n      dup3\n        /* \"#utility.yul\":4048:4054   */\n      dup3\n        /* \"#utility.yul\":4028:4061   */\n      tag_127\n      jump\t// in\n    tag_126:\n        /* \"#utility.yul\":3938:4067   */\n      swap2\n      swap1\n      pop\n      jump\t// out\n        /* \"#utility.yul\":4073:4148   */\n    tag_125:\n        /* \"#utility.yul\":4106:4112   */\n      0x00\n        /* \"#utility.yul\":4139:4141   */\n      0x40\n        /* \"#utility.yul\":4133:4142   */\n      mload\n        /* \"#utility.yul\":4123:4142   */\n      swap1\n      pop\n        /* \"#utility.yul\":4073:4148   */\n      swap1\n      jump\t// out\n        /* \"#utility.yul\":4154:4462   */\n    tag_56:\n        /* \"#utility.yul\":4216:4220   */\n      0x00\n        /* \"#utility.yul\":4306:4324   */\n      0xffffffffffffffff\n        /* \"#utility.yul\":4298:4304   */\n      dup3\n        /* \"#utility.yul\":4295:4325   */\n      gt\n        /* \"#utility.yul\":4292:4348   */\n      iszero\n      tag_130\n      jumpi\n        /* \"#utility.yul\":4328:4346   */\n      tag_131\n      tag_132\n      jump\t// in\n    tag_131:\n        /* \"#utility.yul\":4292:4348   */\n    tag_130:\n        /* \"#utility.yul\":4366:4395   */\n      tag_133\n        /* \"#utility.yul\":4388:4394   */\n      dup3\n        /* \"#utility.yul\":4366:4395   */\n      tag_112\n      jump\t// in\n    tag_133:\n        /* \"#utility.yul\":4358:4395   */\n      swap1\n      pop\n        /* \"#utility.yul\":4450:4454   */\n      0x20\n        /* \"#utility.yul\":4444:4448   */\n      dup2\n        /* \"#utility.yul\":4440:4455   */\n      add\n        /* \"#utility.yul\":4432:4455   */\n      swap1\n      pop\n        /* \"#utility.yul\":4154:4462   */\n      swap2\n      swap1\n      pop\n      jump\t// out\n        /* \"#utility.yul\":4468:4567   */\n    tag_106:\n        /* \"#utility.yul\":4520:4526   */\n      0x00\n        /* \"#utility.yul\":4554:4559   */\n      dup2\n        /* \"#utility.yul\":4548:4560   */\n      mload\n        /* \"#utility.yul\":4538:4560   */\n      swap1\n      pop\n        /* \"#utility.yul\":4468:4567   */\n      swap2\n      swap1\n      pop\n      jump\t// out\n        /* \"#utility.yul\":4573:4742   */\n    tag_108:\n        /* \"#utility.yul\":4657:4668   */\n      0x00\n        /* \"#utility.yul\":4691:4697   */\n      dup3\n        /* \"#utility.yul\":4686:4689   */\n      dup3\n        /* \"#utility.yul\":4679:4698   */\n      mstore\n        /* \"#utility.yul\":4731:4735   */\n      0x20\n        /* \"#utility.yul\":4726:4729   */\n      dup3\n        /* \"#utility.yul\":4722:4736   */\n      add\n        /* \"#utility.yul\":4707:4736   */\n      swap1\n      pop\n        /* \"#utility.yul\":4573:4742   */\n      swap3\n      swap2\n      pop\n      pop\n      jump\t// out\n        /* \"#utility.yul\":4748:4844   */\n    tag_98:\n        /* \"#utility.yul\":4785:4792   */\n      0x00\n        /* \"#utility.yul\":4814:4838   */\n      tag_137\n        /* \"#utility.yul\":4832:4837   */\n      dup3\n        /* \"#utility.yul\":4814:4838   */\n      tag_138\n      jump\t// in\n    tag_137:\n        /* \"#utility.yul\":4803:4838   */\n      swap1\n      pop\n        /* \"#utility.yul\":4748:4844   */\n      swap2\n      swap1\n      pop\n      jump\t// out\n        /* \"#utility.yul\":4850:4977   */\n    tag_139:\n        /* \"#utility.yul\":4895:4902   */\n      0x00\n        /* \"#utility.yul\":4924:4929   */\n      dup2\n        /* \"#utility.yul\":4913:4929   */\n      swap1\n      pop\n        /* \"#utility.yul\":4930:4971   */\n      tag_141\n        /* \"#utility.yul\":4965:4970   */\n      dup3\n        /* \"#utility.yul\":4930:4971   */\n      tag_142\n      jump\t// in\n    tag_141:\n        /* \"#utility.yul\":4850:4977   */\n      swap2\n      swap1\n      pop\n      jump\t// out\n        /* \"#utility.yul\":4983:5109   */\n    tag_138:\n        /* \"#utility.yul\":5020:5027   */\n      0x00\n        /* \"#utility.yul\":5060:5102   */\n      0xffffffffffffffffffffffffffffffffffffffff\n        /* \"#utility.yul\":5053:5058   */\n      dup3\n        /* \"#utility.yul\":5049:5103   */\n      and\n        /* \"#utility.yul\":5038:5103   */\n      swap1\n      pop\n        /* \"#utility.yul\":4983:5109   */\n      swap2\n      swap1\n      pop\n      jump\t// out\n        /* \"#utility.yul\":5115:5192   */\n    tag_116:\n        /* \"#utility.yul\":5152:5159   */\n      0x00\n        /* \"#utility.yul\":5181:5186   */\n      dup2\n        /* \"#utility.yul\":5170:5186   */\n      swap1\n      pop\n        /* \"#utility.yul\":5115:5192   */\n      swap2\n      swap1\n      pop\n      jump\t// out\n        /* \"#utility.yul\":5198:5325   */\n    tag_102:\n        /* \"#utility.yul\":5254:5263   */\n      0x00\n        /* \"#utility.yul\":5287:5319   */\n      tag_146\n        /* \"#utility.yul\":5313:5318   */\n      dup3\n        /* \"#utility.yul\":5287:5319   */\n      tag_139\n      jump\t// in\n    tag_146:\n        /* \"#utility.yul\":5274:5319   */\n      swap1\n      pop\n        /* \"#utility.yul\":5198:5325   */\n      swap2\n      swap1\n      pop\n      jump\t// out\n        /* \"#utility.yul\":5331:5485   */\n    tag_62:\n        /* \"#utility.yul\":5415:5421   */\n      dup3\n        /* \"#utility.yul\":5410:5413   */\n      dup2\n        /* \"#utility.yul\":5405:5408   */\n      dup4\n        /* \"#utility.yul\":5392:5422   */\n      calldatacopy\n        /* \"#utility.yul\":5477:5478   */\n      0x00\n        /* \"#utility.yul\":5468:5474   */\n      dup4\n        /* \"#utility.yul\":5463:5466   */\n      dup4\n        /* \"#utility.yul\":5459:5475   */\n      add\n        /* \"#utility.yul\":5452:5479   */\n      mstore\n        /* \"#utility.yul\":5331:5485   */\n      pop\n      pop\n      pop\n      jump\t// out\n        /* \"#utility.yul\":5491:5798   */\n    tag_110:\n        /* \"#utility.yul\":5559:5560   */\n      0x00\n        /* \"#utility.yul\":5569:5682   */\n    tag_149:\n        /* \"#utility.yul\":5583:5589   */\n      dup4\n        /* \"#utility.yul\":5580:5581   */\n      dup2\n        /* \"#utility.yul\":5577:5590   */\n      lt\n        /* \"#utility.yul\":5569:5682   */\n      iszero\n      tag_151\n      jumpi\n        /* \"#utility.yul\":5668:5669   */\n      dup1\n        /* \"#utility.yul\":5663:5666   */\n      dup3\n        /* \"#utility.yul\":5659:5670   */\n      add\n        /* \"#utility.yul\":5653:5671   */\n      mload\n        /* \"#utility.yul\":5649:5650   */\n      dup2\n        /* \"#utility.yul\":5644:5647   */\n      dup5\n        /* \"#utility.yul\":5640:5651   */\n      add\n        /* \"#utility.yul\":5633:5672   */\n      mstore\n        /* \"#utility.yul\":5605:5607   */\n      0x20\n        /* \"#utility.yul\":5602:5603   */\n      dup2\n        /* \"#utility.yul\":5598:5608   */\n      add\n        /* \"#utility.yul\":5593:5608   */\n      swap1\n      pop\n        /* \"#utility.yul\":5569:5682   */\n      jump(tag_149)\n    tag_151:\n        /* \"#utility.yul\":5700:5706   */\n      dup4\n        /* \"#utility.yul\":5697:5698   */\n      dup2\n        /* \"#utility.yul\":5694:5707   */\n      gt\n        /* \"#utility.yul\":5691:5792   */\n      iszero\n      tag_152\n      jumpi\n        /* \"#utility.yul\":5780:5781   */\n      0x00\n        /* \"#utility.yul\":5771:5777   */\n      dup5\n        /* \"#utility.yul\":5766:5769   */\n      dup5\n        /* \"#utility.yul\":5762:5778   */\n      add\n        /* \"#utility.yul\":5755:5782   */\n      mstore\n        /* \"#utility.yul\":5691:5792   */\n    tag_152:\n        /* \"#utility.yul\":5540:5798   */\n      pop\n        /* \"#utility.yul\":5491:5798   */\n      pop\n      pop\n      pop\n      jump\t// out\n        /* \"#utility.yul\":5804:6124   */\n    tag_28:\n        /* \"#utility.yul\":5848:5854   */\n      0x00\n        /* \"#utility.yul\":5885:5886   */\n      0x02\n        /* \"#utility.yul\":5879:5883   */\n      dup3\n        /* \"#utility.yul\":5875:5887   */\n      div\n        /* \"#utility.yul\":5865:5887   */\n      swap1\n      pop\n        /* \"#utility.yul\":5932:5933   */\n      0x01\n        /* \"#utility.yul\":5926:5930   */\n      dup3\n        /* \"#utility.yul\":5922:5934   */\n      and\n        /* \"#utility.yul\":5953:5971   */\n      dup1\n        /* \"#utility.yul\":5943:6024   */\n      tag_154\n      jumpi\n        /* \"#utility.yul\":6009:6013   */\n      0x7f\n        /* \"#utility.yul\":6001:6007   */\n      dup3\n        /* \"#utility.yul\":5997:6014   */\n      and\n        /* \"#utility.yul\":5987:6014   */\n      swap2\n      pop\n        /* \"#utility.yul\":5943:6024   */\n    tag_154:\n        /* \"#utility.yul\":6071:6073   */\n      0x20\n        /* \"#utility.yul\":6063:6069   */\n      dup3\n        /* \"#utility.yul\":6060:6074   */\n      lt\n        /* \"#utility.yul\":6040:6058   */\n      dup2\n        /* \"#utility.yul\":6037:6075   */\n      eq\n        /* \"#utility.yul\":6034:6118   */\n      iszero\n      tag_155\n      jumpi\n        /* \"#utility.yul\":6090:6108   */\n      tag_156\n      tag_157\n      jump\t// in\n    tag_156:\n        /* \"#utility.yul\":6034:6118   */\n    tag_155:\n        /* \"#utility.yul\":5855:6124   */\n      pop\n        /* \"#utility.yul\":5804:6124   */\n      swap2\n      swap1\n      pop\n      jump\t// out\n        /* \"#utility.yul\":6130:6411   */\n    tag_127:\n        /* \"#utility.yul\":6213:6240   */\n      tag_159\n        /* \"#utility.yul\":6235:6239   */\n      dup3\n        /* \"#utility.yul\":6213:6240   */\n      tag_112\n      jump\t// in\n    tag_159:\n        /* \"#utility.yul\":6205:6211   */\n      dup2\n        /* \"#utility.yul\":6201:6241   */\n      add\n        /* \"#utility.yul\":6343:6349   */\n      dup2\n        /* \"#utility.yul\":6331:6341   */\n      dup2\n        /* \"#utility.yul\":6328:6350   */\n      lt\n        /* \"#utility.yul\":6307:6325   */\n      0xffffffffffffffff\n        /* \"#utility.yul\":6295:6305   */\n      dup3\n        /* \"#utility.yul\":6292:6326   */\n      gt\n        /* \"#utility.yul\":6289:6351   */\n      or\n        /* \"#utility.yul\":6286:6374   */\n      iszero\n      tag_160\n      jumpi\n        /* \"#utility.yul\":6354:6372   */\n      tag_161\n      tag_132\n      jump\t// in\n    tag_161:\n        /* \"#utility.yul\":6286:6374   */\n    tag_160:\n        /* \"#utility.yul\":6394:6404   */\n      dup1\n        /* \"#utility.yul\":6390:6392   */\n      0x40\n        /* \"#utility.yul\":6383:6405   */\n      mstore\n        /* \"#utility.yul\":6173:6411   */\n      pop\n        /* \"#utility.yul\":6130:6411   */\n      pop\n      pop\n      jump\t// out\n        /* \"#utility.yul\":6417:6597   */\n    tag_26:\n        /* \"#utility.yul\":6465:6542   */\n      0x4e487b7100000000000000000000000000000000000000000000000000000000\n        /* \"#utility.yul\":6462:6463   */\n      0x00\n        /* \"#utility.yul\":6455:6543   */\n      mstore\n        /* \"#utility.yul\":6562:6566   */\n      0x21\n        /* \"#utility.yul\":6559:6560   */\n      0x04\n        /* \"#utility.yul\":6552:6567   */\n      mstore\n        /* \"#utility.yul\":6586:6590   */\n      0x24\n        /* \"#utility.yul\":6583:6584   */\n      0x00\n        /* \"#utility.yul\":6576:6591   */\n      revert\n        /* \"#utility.yul\":6603:6783   */\n    tag_157:\n        /* \"#utility.yul\":6651:6728   */\n      0x4e487b7100000000000000000000000000000000000000000000000000000000\n        /* \"#utility.yul\":6648:6649   */\n      0x00\n        /* \"#utility.yul\":6641:6729   */\n      mstore\n        /* \"#utility.yul\":6748:6752   */\n      0x22\n        /* \"#utility.yul\":6745:6746   */\n      0x04\n        /* \"#utility.yul\":6738:6753   */\n      mstore\n        /* \"#utility.yul\":6772:6776   */\n      0x24\n        /* \"#utility.yul\":6769:6770   */\n      0x00\n        /* \"#utility.yul\":6762:6777   */\n      revert\n        /* \"#utility.yul\":6789:6969   */\n    tag_132:\n        /* \"#utility.yul\":6837:6914   */\n      0x4e487b7100000000000000000000000000000000000000000000000000000000\n        /* \"#utility.yul\":6834:6835   */\n      0x00\n        /* \"#utility.yul\":6827:6915   */\n      mstore\n        /* \"#utility.yul\":6934:6938   */\n      0x41\n        /* \"#utility.yul\":6931:6932   */\n      0x04\n        /* \"#utility.yul\":6924:6939   */\n      mstore\n        /* \"#utility.yul\":6958:6962   */\n      0x24\n        /* \"#utility.yul\":6955:6956   */\n      0x00\n        /* \"#utility.yul\":6948:6963   */\n      revert\n        /* \"#utility.yul\":6975:7092   */\n    tag_75:\n        /* \"#utility.yul\":7084:7085   */\n      0x00\n        /* \"#utility.yul\":7081:7082   */\n      dup1\n        /* \"#utility.yul\":7074:7086   */\n      revert\n        /* \"#utility.yul\":7098:7215   */\n    tag_60:\n        /* \"#utility.yul\":7207:7208   */\n      0x00\n        /* \"#utility.yul\":7204:7205   */\n      dup1\n        /* \"#utility.yul\":7197:7209   */\n      revert\n        /* \"#utility.yul\":7221:7338   */\n    tag_92:\n        /* \"#utility.yul\":7330:7331   */\n      0x00\n        /* \"#utility.yul\":7327:7328   */\n      dup1\n        /* \"#utility.yul\":7320:7332   */\n      revert\n        /* \"#utility.yul\":7344:7461   */\n    tag_84:\n        /* \"#utility.yul\":7453:7454   */\n      0x00\n        /* \"#utility.yul\":7450:7451   */\n      dup1\n        /* \"#utility.yul\":7443:7455   */\n      revert\n        /* \"#utility.yul\":7467:7569   */\n    tag_112:\n        /* \"#utility.yul\":7508:7514   */\n      0x00\n        /* \"#utility.yul\":7559:7561   */\n      0x1f\n        /* \"#utility.yul\":7555:7562   */\n      not\n        /* \"#utility.yul\":7550:7552   */\n      0x1f\n        /* \"#utility.yul\":7543:7548   */\n      dup4\n        /* \"#utility.yul\":7539:7553   */\n      add\n        /* \"#utility.yul\":7535:7563   */\n      and\n        /* \"#utility.yul\":7525:7563   */\n      swap1\n      pop\n        /* \"#utility.yul\":7467:7569   */\n      swap2\n      swap1\n      pop\n      jump\t// out\n        /* \"#utility.yul\":7575:7688   */\n    tag_142:\n        /* \"#utility.yul\":7656:7657   */\n      0x03\n        /* \"#utility.yul\":7649:7654   */\n      dup2\n        /* \"#utility.yul\":7646:7658   */\n      lt\n        /* \"#utility.yul\":7636:7682   */\n      tag_171\n      jumpi\n        /* \"#utility.yul\":7662:7680   */\n      tag_172\n      tag_26\n      jump\t// in\n    tag_172:\n        /* \"#utility.yul\":7636:7682   */\n    tag_171:\n        /* \"#utility.yul\":7575:7688   */\n      pop\n      jump\t// out\n        /* \"#utility.yul\":7694:7816   */\n    tag_66:\n        /* \"#utility.yul\":7767:7791   */\n      tag_174\n        /* \"#utility.yul\":7785:7790   */\n      dup2\n        /* \"#utility.yul\":7767:7791   */\n      tag_98\n      jump\t// in\n    tag_174:\n        /* \"#utility.yul\":7760:7765   */\n      dup2\n        /* \"#utility.yul\":7757:7792   */\n      eq\n        /* \"#utility.yul\":7747:7810   */\n      tag_175\n      jumpi\n        /* \"#utility.yul\":7806:7807   */\n      0x00\n        /* \"#utility.yul\":7803:7804   */\n      dup1\n        /* \"#utility.yul\":7796:7808   */\n      revert\n        /* \"#utility.yul\":7747:7810   */\n    tag_175:\n        /* \"#utility.yul\":7694:7816   */\n      pop\n      jump\t// out\n        /* \"#utility.yul\":7822:7929   */\n    tag_70:\n        /* \"#utility.yul\":7903:7904   */\n      0x03\n        /* \"#utility.yul\":7896:7901   */\n      dup2\n        /* \"#utility.yul\":7893:7905   */\n      lt\n        /* \"#utility.yul\":7883:7923   */\n      tag_177\n      jumpi\n        /* \"#utility.yul\":7919:7920   */\n      0x00\n        /* \"#utility.yul\":7916:7917   */\n      dup1\n        /* \"#utility.yul\":7909:7921   */\n      revert\n        /* \"#utility.yul\":7883:7923   */\n    tag_177:\n        /* \"#utility.yul\":7822:7929   */\n      pop\n      jump\t// out\n        /* \"#utility.yul\":7935:8057   */\n    tag_80:\n        /* \"#utility.yul\":8008:8032   */\n      tag_179\n        /* \"#utility.yul\":8026:8031   */\n      dup2\n        /* \"#utility.yul\":8008:8032   */\n      tag_116\n      jump\t// in\n    tag_179:\n        /* \"#utility.yul\":8001:8006   */\n      dup2\n        /* \"#utility.yul\":7998:8033   */\n      eq\n        /* \"#utility.yul\":7988:8051   */\n      tag_180\n      jumpi\n        /* \"#utility.yul\":8047:8048   */\n      0x00\n        /* \"#utility.yul\":8044:8045   */\n      dup1\n        /* \"#utility.yul\":8037:8049   */\n      revert\n        /* \"#utility.yul\":7988:8051   */\n    tag_180:\n        /* \"#utility.yul\":7935:8057   */\n      pop\n      jump\t// out\n\n    auxdata: 0xa2646970667358221220e5f9a5016f99b7f78efe4f7153fef9329232f5d0e0102d7c66d58fe9f970937864736f6c63430008070033\n}\n",
				"bytecode": {
					"linkReferences": {},
					"object": "60806040526000600360006101000a81548160ff021916908360028111156200002d576200002c6200038c565b5b02179055503480156200003f57600080fd5b5060405162000c7938038062000c7983398181016040528101906200006591906200021b565b816000800181905550806000600101908051906020019062000089929190620000d6565b5033600060020160006101000a81548173ffffffffffffffffffffffffffffffffffffffff021916908373ffffffffffffffffffffffffffffffffffffffff160217905550505062000458565b828054620000e49062000320565b90600052602060002090601f01602090048101928262000108576000855562000154565b82601f106200012357805160ff191683800117855562000154565b8280016001018555821562000154579182015b828111156200015357825182559160200191906001019062000136565b5b50905062000163919062000167565b5090565b5b808211156200018257600081600090555060010162000168565b5090565b60006200019d6200019784620002aa565b62000281565b905082815260208101848484011115620001bc57620001bb6200041e565b5b620001c9848285620002ea565b509392505050565b600082601f830112620001e957620001e862000419565b5b8151620001fb84826020860162000186565b91505092915050565b60008151905062000215816200043e565b92915050565b6000806040838503121562000235576200023462000428565b5b6000620002458582860162000204565b925050602083015167ffffffffffffffff81111562000269576200026862000423565b5b6200027785828601620001d1565b9150509250929050565b60006200028d620002a0565b90506200029b828262000356565b919050565b6000604051905090565b600067ffffffffffffffff821115620002c857620002c7620003ea565b5b620002d3826200042d565b9050602081019050919050565b6000819050919050565b60005b838110156200030a578082015181840152602081019050620002ed565b838111156200031a576000848401525b50505050565b600060028204905060018216806200033957607f821691505b6020821081141562000350576200034f620003bb565b5b50919050565b62000361826200042d565b810181811067ffffffffffffffff82111715620003835762000382620003ea565b5b80604052505050565b7f4e487b7100000000000000000000000000000000000000000000000000000000600052602160045260246000fd5b7f4e487b7100000000000000000000000000000000000000000000000000000000600052602260045260246000fd5b7f4e487b7100000000000000000000000000000000000000000000000000000000600052604160045260246000fd5b600080fd5b600080fd5b600080fd5b600080fd5b6000601f19601f8301169050919050565b6200044981620002e0565b81146200045557600080fd5b50565b61081180620004686000396000f3fe608060405234801561001057600080fd5b506004361061004c5760003560e01c806323b8ca9f14610051578063268f11531461006f578063542488411461008b578063a46878fb146100ab575b600080fd5b6100596100c7565b6040516100669190610506565b60405180910390f35b61008960048036038101906100849190610404565b6100da565b005b610093610107565b6040516100a293929190610521565b60405180910390f35b6100c560048036038101906100c09190610431565b6101c7565b005b600360009054906101000a900460ff1681565b80600360006101000a81548160ff021916908360028111156100ff576100fe6106d7565b5b021790555050565b600080600001549080600101805461011e90610674565b80601f016020809104026020016040519081016040528092919081815260200182805461014a90610674565b80156101975780601f1061016c57610100808354040283529160200191610197565b820191906000526020600020905b81548152906001019060200180831161017a57829003601f168201915b5050505050908060020160009054906101000a900473ffffffffffffffffffffffffffffffffffffffff16905083565b600060028111156101db576101da6106d7565b5b600360009054906101000a900460ff1660028111156101fd576101fc6106d7565b5b14156102ad57600060405180606001604052808581526020018481526020018373ffffffffffffffffffffffffffffffffffffffff16815250905080600080820151816000015560208201518160010190805190602001906102609291906102b2565b5060408201518160020160006101000a81548173ffffffffffffffffffffffffffffffffffffffff021916908373ffffffffffffffffffffffffffffffffffffffff160217905550905050505b505050565b8280546102be90610674565b90600052602060002090601f0160209004810192826102e05760008555610327565b82601f106102f957805160ff1916838001178555610327565b82800160010185558215610327579182015b8281111561032657825182559160200191906001019061030b565b5b5090506103349190610338565b5090565b5b80821115610351576000816000905550600101610339565b5090565b600061036861036384610584565b61055f565b90508281526020810184848401111561038457610383610769565b5b61038f848285610632565b509392505050565b6000813590506103a68161079d565b92915050565b6000813590506103bb816107b4565b92915050565b600082601f8301126103d6576103d5610764565b5b81356103e6848260208601610355565b91505092915050565b6000813590506103fe816107c4565b92915050565b60006020828403121561041a57610419610773565b5b6000610428848285016103ac565b91505092915050565b60008060006060848603121561044a57610449610773565b5b6000610458868287016103ef565b935050602084013567ffffffffffffffff8111156104795761047861076e565b5b610485868287016103c1565b925050604061049686828701610397565b9150509250925092565b6104a9816105d1565b82525050565b6104b881610620565b82525050565b60006104c9826105b5565b6104d381856105c0565b93506104e3818560208601610641565b6104ec81610778565b840191505092915050565b61050081610616565b82525050565b600060208201905061051b60008301846104af565b92915050565b600060608201905061053660008301866104f7565b818103602083015261054881856104be565b905061055760408301846104a0565b949350505050565b600061056961057a565b905061057582826106a6565b919050565b6000604051905090565b600067ffffffffffffffff82111561059f5761059e610735565b5b6105a882610778565b9050602081019050919050565b600081519050919050565b600082825260208201905092915050565b60006105dc826105f6565b9050919050565b60008190506105f182610789565b919050565b600073ffffffffffffffffffffffffffffffffffffffff82169050919050565b6000819050919050565b600061062b826105e3565b9050919050565b82818337600083830152505050565b60005b8381101561065f578082015181840152602081019050610644565b8381111561066e576000848401525b50505050565b6000600282049050600182168061068c57607f821691505b602082108114156106a05761069f610706565b5b50919050565b6106af82610778565b810181811067ffffffffffffffff821117156106ce576106cd610735565b5b80604052505050565b7f4e487b7100000000000000000000000000000000000000000000000000000000600052602160045260246000fd5b7f4e487b7100000000000000000000000000000000000000000000000000000000600052602260045260246000fd5b7f4e487b7100000000000000000000000000000000000000000000000000000000600052604160045260246000fd5b600080fd5b600080fd5b600080fd5b600080fd5b6000601f19601f8301169050919050565b6003811061079a576107996106d7565b5b50565b6107a6816105d1565b81146107b157600080fd5b50565b600381106107c157600080fd5b50565b6107cd81610616565b81146107d857600080fd5b5056fea2646970667358221220e5f9a5016f99b7f78efe4f7153fef9329232f5d0e0102d7c66d58fe9f970937864736f6c63430008070033",
					"opcodes": "PUSH1 0x80 PUSH1 0x40 MSTORE PUSH1 0x0 PUSH1 0x3 PUSH1 0x0 PUSH2 0x100 EXP DUP2 SLOAD DUP2 PUSH1 0xFF MUL NOT AND SWAP1 DUP4 PUSH1 0x2 DUP2 GT ISZERO PUSH3 0x2D JUMPI PUSH3 0x2C PUSH3 0x38C JUMP JUMPDEST JUMPDEST MUL OR SWAP1 SSTORE POP CALLVALUE DUP1 ISZERO PUSH3 0x3F JUMPI PUSH1 0x0 DUP1 REVERT JUMPDEST POP PUSH1 0x40 MLOAD PUSH3 0xC79 CODESIZE SUB DUP1 PUSH3 0xC79 DUP4 CODECOPY DUP2 DUP2 ADD PUSH1 0x40 MSTORE DUP2 ADD SWAP1 PUSH3 0x65 SWAP2 SWAP1 PUSH3 0x21B JUMP JUMPDEST DUP2 PUSH1 0x0 DUP1 ADD DUP2 SWAP1 SSTORE POP DUP1 PUSH1 0x0 PUSH1 0x1 ADD SWAP1 DUP1 MLOAD SWAP1 PUSH1 0x20 ADD SWAP1 PUSH3 0x89 SWAP3 SWAP2 SWAP1 PUSH3 0xD6 JUMP JUMPDEST POP CALLER PUSH1 0x0 PUSH1 0x2 ADD PUSH1 0x0 PUSH2 0x100 EXP DUP2 SLOAD DUP2 PUSH20 0xFFFFFFFFFFFFFFFFFFFFFFFFFFFFFFFFFFFFFFFF MUL NOT AND SWAP1 DUP4 PUSH20 0xFFFFFFFFFFFFFFFFFFFFFFFFFFFFFFFFFFFFFFFF AND MUL OR SWAP1 SSTORE POP POP POP PUSH3 0x458 JUMP JUMPDEST DUP3 DUP1 SLOAD PUSH3 0xE4 SWAP1 PUSH3 0x320 JUMP JUMPDEST SWAP1 PUSH1 0x0 MSTORE PUSH1 0x20 PUSH1 0x0 KECCAK256 SWAP1 PUSH1 0x1F ADD PUSH1 0x20 SWAP1 DIV DUP2 ADD SWAP3 DUP3 PUSH3 0x108 JUMPI PUSH1 0x0 DUP6 SSTORE PUSH3 0x154 JUMP JUMPDEST DUP3 PUSH1 0x1F LT PUSH3 0x123 JUMPI DUP1 MLOAD PUSH1 0xFF NOT AND DUP4 DUP1 ADD OR DUP6 SSTORE PUSH3 0x154 JUMP JUMPDEST DUP3 DUP1 ADD PUSH1 0x1 ADD DUP6 SSTORE DUP3 ISZERO PUSH3 0x154 JUMPI SWAP2 DUP3 ADD JUMPDEST DUP3 DUP2 GT ISZERO PUSH3 0x153 JUMPI DUP3 MLOAD DUP3 SSTORE SWAP2 PUSH1 0x20 ADD SWAP2 SWAP1 PUSH1 0x1 ADD SWAP1 PUSH3 0x136 JUMP JUMPDEST JUMPDEST POP SWAP1 POP PUSH3 0x163 SWAP2 SWAP1 PUSH3 0x167 JUMP JUMPDEST POP SWAP1 JUMP JUMPDEST JUMPDEST DUP1 DUP3 GT ISZERO PUSH3 0x182 JUMPI PUSH1 0x0 DUP2 PUSH1 0x0 SWAP1 SSTORE POP PUSH1 0x1 ADD PUSH3 0x168 JUMP JUMPDEST POP SWAP1 JUMP JUMPDEST PUSH1 0x0 PUSH3 0x19D PUSH3 0x197 DUP5 PUSH3 0x2AA JUMP JUMPDEST PUSH3 0x281 JUMP JUMPDEST SWAP1 POP DUP3 DUP2 MSTORE PUSH1 0x20 DUP2 ADD DUP5 DUP5 DUP5 ADD GT ISZERO PUSH3 0x1BC JUMPI PUSH3 0x1BB PUSH3 0x41E JUMP JUMPDEST JUMPDEST PUSH3 0x1C9 DUP5 DUP3 DUP6 PUSH3 0x2EA JUMP JUMPDEST POP SWAP4 SWAP3 POP POP POP JUMP JUMPDEST PUSH1 0x0 DUP3 PUSH1 0x1F DUP4 ADD SLT PUSH3 0x1E9 JUMPI PUSH3 0x1E8 PUSH3 0x419 JUMP JUMPDEST JUMPDEST DUP2 MLOAD PUSH3 0x1FB DUP5 DUP3 PUSH1 0x20 DUP7 ADD PUSH3 0x186 JUMP JUMPDEST SWAP2 POP POP SWAP3 SWAP2 POP POP JUMP JUMPDEST PUSH1 0x0 DUP2 MLOAD SWAP1 POP PUSH3 0x215 DUP2 PUSH3 0x43E JUMP JUMPDEST SWAP3 SWAP2 POP POP JUMP JUMPDEST PUSH1 0x0 DUP1 PUSH1 0x40 DUP4 DUP6 SUB SLT ISZERO PUSH3 0x235 JUMPI PUSH3 0x234 PUSH3 0x428 JUMP JUMPDEST JUMPDEST PUSH1 0x0 PUSH3 0x245 DUP6 DUP3 DUP7 ADD PUSH3 0x204 JUMP JUMPDEST SWAP3 POP POP PUSH1 0x20 DUP4 ADD MLOAD PUSH8 0xFFFFFFFFFFFFFFFF DUP2 GT ISZERO PUSH3 0x269 JUMPI PUSH3 0x268 PUSH3 0x423 JUMP JUMPDEST JUMPDEST PUSH3 0x277 DUP6 DUP3 DUP7 ADD PUSH3 0x1D1 JUMP JUMPDEST SWAP2 POP POP SWAP3 POP SWAP3 SWAP1 POP JUMP JUMPDEST PUSH1 0x0 PUSH3 0x28D PUSH3 0x2A0 JUMP JUMPDEST SWAP1 POP PUSH3 0x29B DUP3 DUP3 PUSH3 0x356 JUMP JUMPDEST SWAP2 SWAP1 POP JUMP JUMPDEST PUSH1 0x0 PUSH1 0x40 MLOAD SWAP1 POP SWAP1 JUMP JUMPDEST PUSH1 0x0 PUSH8 0xFFFFFFFFFFFFFFFF DUP3 GT ISZERO PUSH3 0x2C8 JUMPI PUSH3 0x2C7 PUSH3 0x3EA JUMP JUMPDEST JUMPDEST PUSH3 0x2D3 DUP3 PUSH3 0x42D JUMP JUMPDEST SWAP1 POP PUSH1 0x20 DUP2 ADD SWAP1 POP SWAP2 SWAP1 POP JUMP JUMPDEST PUSH1 0x0 DUP2 SWAP1 POP SWAP2 SWAP1 POP JUMP JUMPDEST PUSH1 0x0 JUMPDEST DUP4 DUP2 LT ISZERO PUSH3 0x30A JUMPI DUP1 DUP3 ADD MLOAD DUP2 DUP5 ADD MSTORE PUSH1 0x20 DUP2 ADD SWAP1 POP PUSH3 0x2ED JUMP JUMPDEST DUP4 DUP2 GT ISZERO PUSH3 0x31A JUMPI PUSH1 0x0 DUP5 DUP5 ADD MSTORE JUMPDEST POP POP POP POP JUMP JUMPDEST PUSH1 0x0 PUSH1 0x2 DUP3 DIV SWAP1 POP PUSH1 0x1 DUP3 AND DUP1 PUSH3 0x339 JUMPI PUSH1 0x7F DUP3 AND SWAP2 POP JUMPDEST PUSH1 0x20 DUP3 LT DUP2 EQ ISZERO PUSH3 0x350 JUMPI PUSH3 0x34F PUSH3 0x3BB JUMP JUMPDEST JUMPDEST POP SWAP2 SWAP1 POP JUMP JUMPDEST PUSH3 0x361 DUP3 PUSH3 0x42D JUMP JUMPDEST DUP2 ADD DUP2 DUP2 LT PUSH8 0xFFFFFFFFFFFFFFFF DUP3 GT OR ISZERO PUSH3 0x383 JUMPI PUSH3 0x382 PUSH3 0x3EA JUMP JUMPDEST JUMPDEST DUP1 PUSH1 0x40 MSTORE POP POP POP JUMP JUMPDEST PUSH32 0x4E487B7100000000000000000000000000000000000000000000000000000000 PUSH1 0x0 MSTORE PUSH1 0x21 PUSH1 0x4 MSTORE PUSH1 0x24 PUSH1 0x0 REVERT JUMPDEST PUSH32 0x4E487B7100000000000000000000000000000000000000000000000000000000 PUSH1 0x0 MSTORE PUSH1 0x22 PUSH1 0x4 MSTORE PUSH1 0x24 PUSH1 0x0 REVERT JUMPDEST PUSH32 0x4E487B7100000000000000000000000000000000000000000000000000000000 PUSH1 0x0 MSTORE PUSH1 0x41 PUSH1 0x4 MSTORE PUSH1 0x24 PUSH1 0x0 REVERT JUMPDEST PUSH1 0x0 DUP1 REVERT JUMPDEST PUSH1 0x0 DUP1 REVERT JUMPDEST PUSH1 0x0 DUP1 REVERT JUMPDEST PUSH1 0x0 DUP1 REVERT JUMPDEST PUSH1 0x0 PUSH1 0x1F NOT PUSH1 0x1F DUP4 ADD AND SWAP1 POP SWAP2 SWAP1 POP JUMP JUMPDEST PUSH3 0x449 DUP2 PUSH3 0x2E0 JUMP JUMPDEST DUP2 EQ PUSH3 0x455 JUMPI PUSH1 0x0 DUP1 REVERT JUMPDEST POP JUMP JUMPDEST PUSH2 0x811 DUP1 PUSH3 0x468 PUSH1 0x0 CODECOPY PUSH1 0x0 RETURN INVALID PUSH1 0x80 PUSH1 0x40 MSTORE CALLVALUE DUP1 ISZERO PUSH2 0x10 JUMPI PUSH1 0x0 DUP1 REVERT JUMPDEST POP PUSH1 0x4 CALLDATASIZE LT PUSH2 0x4C JUMPI PUSH1 0x0 CALLDATALOAD PUSH1 0xE0 SHR DUP1 PUSH4 0x23B8CA9F EQ PUSH2 0x51 JUMPI DUP1 PUSH4 0x268F1153 EQ PUSH2 0x6F JUMPI DUP1 PUSH4 0x54248841 EQ PUSH2 0x8B JUMPI DUP1 PUSH4 0xA46878FB EQ PUSH2 0xAB JUMPI JUMPDEST PUSH1 0x0 DUP1 REVERT JUMPDEST PUSH2 0x59 PUSH2 0xC7 JUMP JUMPDEST PUSH1 0x40 MLOAD PUSH2 0x66 SWAP2 SWAP1 PUSH2 0x506 JUMP JUMPDEST PUSH1 0x40 MLOAD DUP1 SWAP2 SUB SWAP1 RETURN JUMPDEST PUSH2 0x89 PUSH1 0x4 DUP1 CALLDATASIZE SUB DUP2 ADD SWAP1 PUSH2 0x84 SWAP2 SWAP1 PUSH2 0x404 JUMP JUMPDEST PUSH2 0xDA JUMP JUMPDEST STOP JUMPDEST PUSH2 0x93 PUSH2 0x107 JUMP JUMPDEST PUSH1 0x40 MLOAD PUSH2 0xA2 SWAP4 SWAP3 SWAP2 SWAP1 PUSH2 0x521 JUMP JUMPDEST PUSH1 0x40 MLOAD DUP1 SWAP2 SUB SWAP1 RETURN JUMPDEST PUSH2 0xC5 PUSH1 0x4 DUP1 CALLDATASIZE SUB DUP2 ADD SWAP1 PUSH2 0xC0 SWAP2 SWAP1 PUSH2 0x431 JUMP JUMPDEST PUSH2 0x1C7 JUMP JUMPDEST STOP JUMPDEST PUSH1 0x3 PUSH1 0x0 SWAP1 SLOAD SWAP1 PUSH2 0x100 EXP SWAP1 DIV PUSH1 0xFF AND DUP2 JUMP JUMPDEST DUP1 PUSH1 0x3 PUSH1 0x0 PUSH2 0x100 EXP DUP2 SLOAD DUP2 PUSH1 0xFF MUL NOT AND SWAP1 DUP4 PUSH1 0x2 DUP2 GT ISZERO PUSH2 0xFF JUMPI PUSH2 0xFE PUSH2 0x6D7 JUMP JUMPDEST JUMPDEST MUL OR SWAP1 SSTORE POP POP JUMP JUMPDEST PUSH1 0x0 DUP1 PUSH1 0x0 ADD SLOAD SWAP1 DUP1 PUSH1 0x1 ADD DUP1 SLOAD PUSH2 0x11E SWAP1 PUSH2 0x674 JUMP JUMPDEST DUP1 PUSH1 0x1F ADD PUSH1 0x20 DUP1 SWAP2 DIV MUL PUSH1 0x20 ADD PUSH1 0x40 MLOAD SWAP1 DUP2 ADD PUSH1 0x40 MSTORE DUP1 SWAP3 SWAP2 SWAP1 DUP2 DUP2 MSTORE PUSH1 0x20 ADD DUP3 DUP1 SLOAD PUSH2 0x14A SWAP1 PUSH2 0x674 JUMP JUMPDEST DUP1 ISZERO PUSH2 0x197 JUMPI DUP1 PUSH1 0x1F LT PUSH2 0x16C JUMPI PUSH2 0x100 DUP1 DUP4 SLOAD DIV MUL DUP4 MSTORE SWAP2 PUSH1 0x20 ADD SWAP2 PUSH2 0x197 JUMP JUMPDEST DUP3 ADD SWAP2 SWAP1 PUSH1 0x0 MSTORE PUSH1 0x20 PUSH1 0x0 KECCAK256 SWAP1 JUMPDEST DUP2 SLOAD DUP2 MSTORE SWAP1 PUSH1 0x1 ADD SWAP1 PUSH1 0x20 ADD DUP1 DUP4 GT PUSH2 0x17A JUMPI DUP3 SWAP1 SUB PUSH1 0x1F AND DUP3 ADD SWAP2 JUMPDEST POP POP POP POP POP SWAP1 DUP1 PUSH1 0x2 ADD PUSH1 0x0 SWAP1 SLOAD SWAP1 PUSH2 0x100 EXP SWAP1 DIV PUSH20 0xFFFFFFFFFFFFFFFFFFFFFFFFFFFFFFFFFFFFFFFF AND SWAP1 POP DUP4 JUMP JUMPDEST PUSH1 0x0 PUSH1 0x2 DUP2 GT ISZERO PUSH2 0x1DB JUMPI PUSH2 0x1DA PUSH2 0x6D7 JUMP JUMPDEST JUMPDEST PUSH1 0x3 PUSH1 0x0 SWAP1 SLOAD SWAP1 PUSH2 0x100 EXP SWAP1 DIV PUSH1 0xFF AND PUSH1 0x2 DUP2 GT ISZERO PUSH2 0x1FD JUMPI PUSH2 0x1FC PUSH2 0x6D7 JUMP JUMPDEST JUMPDEST EQ ISZERO PUSH2 0x2AD JUMPI PUSH1 0x0 PUSH1 0x40 MLOAD DUP1 PUSH1 0x60 ADD PUSH1 0x40 MSTORE DUP1 DUP6 DUP2 MSTORE PUSH1 0x20 ADD DUP5 DUP2 MSTORE PUSH1 0x20 ADD DUP4 PUSH20 0xFFFFFFFFFFFFFFFFFFFFFFFFFFFFFFFFFFFFFFFF AND DUP2 MSTORE POP SWAP1 POP DUP1 PUSH1 0x0 DUP1 DUP3 ADD MLOAD DUP2 PUSH1 0x0 ADD SSTORE PUSH1 0x20 DUP3 ADD MLOAD DUP2 PUSH1 0x1 ADD SWAP1 DUP1 MLOAD SWAP1 PUSH1 0x20 ADD SWAP1 PUSH2 0x260 SWAP3 SWAP2 SWAP1 PUSH2 0x2B2 JUMP JUMPDEST POP PUSH1 0x40 DUP3 ADD MLOAD DUP2 PUSH1 0x2 ADD PUSH1 0x0 PUSH2 0x100 EXP DUP2 SLOAD DUP2 PUSH20 0xFFFFFFFFFFFFFFFFFFFFFFFFFFFFFFFFFFFFFFFF MUL NOT AND SWAP1 DUP4 PUSH20 0xFFFFFFFFFFFFFFFFFFFFFFFFFFFFFFFFFFFFFFFF AND MUL OR SWAP1 SSTORE POP SWAP1 POP POP POP JUMPDEST POP POP POP JUMP JUMPDEST DUP3 DUP1 SLOAD PUSH2 0x2BE SWAP1 PUSH2 0x674 JUMP JUMPDEST SWAP1 PUSH1 0x0 MSTORE PUSH1 0x20 PUSH1 0x0 KECCAK256 SWAP1 PUSH1 0x1F ADD PUSH1 0x20 SWAP1 DIV DUP2 ADD SWAP3 DUP3 PUSH2 0x2E0 JUMPI PUSH1 0x0 DUP6 SSTORE PUSH2 0x327 JUMP JUMPDEST DUP3 PUSH1 0x1F LT PUSH2 0x2F9 JUMPI DUP1 MLOAD PUSH1 0xFF NOT AND DUP4 DUP1 ADD OR DUP6 SSTORE PUSH2 0x327 JUMP JUMPDEST DUP3 DUP1 ADD PUSH1 0x1 ADD DUP6 SSTORE DUP3 ISZERO PUSH2 0x327 JUMPI SWAP2 DUP3 ADD JUMPDEST DUP3 DUP2 GT ISZERO PUSH2 0x326 JUMPI DUP3 MLOAD DUP3 SSTORE SWAP2 PUSH1 0x20 ADD SWAP2 SWAP1 PUSH1 0x1 ADD SWAP1 PUSH2 0x30B JUMP JUMPDEST JUMPDEST POP SWAP1 POP PUSH2 0x334 SWAP2 SWAP1 PUSH2 0x338 JUMP JUMPDEST POP SWAP1 JUMP JUMPDEST JUMPDEST DUP1 DUP3 GT ISZERO PUSH2 0x351 JUMPI PUSH1 0x0 DUP2 PUSH1 0x0 SWAP1 SSTORE POP PUSH1 0x1 ADD PUSH2 0x339 JUMP JUMPDEST POP SWAP1 JUMP JUMPDEST PUSH1 0x0 PUSH2 0x368 PUSH2 0x363 DUP5 PUSH2 0x584 JUMP JUMPDEST PUSH2 0x55F JUMP JUMPDEST SWAP1 POP DUP3 DUP2 MSTORE PUSH1 0x20 DUP2 ADD DUP5 DUP5 DUP5 ADD GT ISZERO PUSH2 0x384 JUMPI PUSH2 0x383 PUSH2 0x769 JUMP JUMPDEST JUMPDEST PUSH2 0x38F DUP5 DUP3 DUP6 PUSH2 0x632 JUMP JUMPDEST POP SWAP4 SWAP3 POP POP POP JUMP JUMPDEST PUSH1 0x0 DUP2 CALLDATALOAD SWAP1 POP PUSH2 0x3A6 DUP2 PUSH2 0x79D JUMP JUMPDEST SWAP3 SWAP2 POP POP JUMP JUMPDEST PUSH1 0x0 DUP2 CALLDATALOAD SWAP1 POP PUSH2 0x3BB DUP2 PUSH2 0x7B4 JUMP JUMPDEST SWAP3 SWAP2 POP POP JUMP JUMPDEST PUSH1 0x0 DUP3 PUSH1 0x1F DUP4 ADD SLT PUSH2 0x3D6 JUMPI PUSH2 0x3D5 PUSH2 0x764 JUMP JUMPDEST JUMPDEST DUP2 CALLDATALOAD PUSH2 0x3E6 DUP5 DUP3 PUSH1 0x20 DUP7 ADD PUSH2 0x355 JUMP JUMPDEST SWAP2 POP POP SWAP3 SWAP2 POP POP JUMP JUMPDEST PUSH1 0x0 DUP2 CALLDATALOAD SWAP1 POP PUSH2 0x3FE DUP2 PUSH2 0x7C4 JUMP JUMPDEST SWAP3 SWAP2 POP POP JUMP JUMPDEST PUSH1 0x0 PUSH1 0x20 DUP3 DUP5 SUB SLT ISZERO PUSH2 0x41A JUMPI PUSH2 0x419 PUSH2 0x773 JUMP JUMPDEST JUMPDEST PUSH1 0x0 PUSH2 0x428 DUP5 DUP3 DUP6 ADD PUSH2 0x3AC JUMP JUMPDEST SWAP2 POP POP SWAP3 SWAP2 POP POP JUMP JUMPDEST PUSH1 0x0 DUP1 PUSH1 0x0 PUSH1 0x60 DUP5 DUP7 SUB SLT ISZERO PUSH2 0x44A JUMPI PUSH2 0x449 PUSH2 0x773 JUMP JUMPDEST JUMPDEST PUSH1 0x0 PUSH2 0x458 DUP7 DUP3 DUP8 ADD PUSH2 0x3EF JUMP JUMPDEST SWAP4 POP POP PUSH1 0x20 DUP5 ADD CALLDATALOAD PUSH8 0xFFFFFFFFFFFFFFFF DUP2 GT ISZERO PUSH2 0x479 JUMPI PUSH2 0x478 PUSH2 0x76E JUMP JUMPDEST JUMPDEST PUSH2 0x485 DUP7 DUP3 DUP8 ADD PUSH2 0x3C1 JUMP JUMPDEST SWAP3 POP POP PUSH1 0x40 PUSH2 0x496 DUP7 DUP3 DUP8 ADD PUSH2 0x397 JUMP JUMPDEST SWAP2 POP POP SWAP3 POP SWAP3 POP SWAP3 JUMP JUMPDEST PUSH2 0x4A9 DUP2 PUSH2 0x5D1 JUMP JUMPDEST DUP3 MSTORE POP POP JUMP JUMPDEST PUSH2 0x4B8 DUP2 PUSH2 0x620 JUMP JUMPDEST DUP3 MSTORE POP POP JUMP JUMPDEST PUSH1 0x0 PUSH2 0x4C9 DUP3 PUSH2 0x5B5 JUMP JUMPDEST PUSH2 0x4D3 DUP2 DUP6 PUSH2 0x5C0 JUMP JUMPDEST SWAP4 POP PUSH2 0x4E3 DUP2 DUP6 PUSH1 0x20 DUP7 ADD PUSH2 0x641 JUMP JUMPDEST PUSH2 0x4EC DUP2 PUSH2 0x778 JUMP JUMPDEST DUP5 ADD SWAP2 POP POP SWAP3 SWAP2 POP POP JUMP JUMPDEST PUSH2 0x500 DUP2 PUSH2 0x616 JUMP JUMPDEST DUP3 MSTORE POP POP JUMP JUMPDEST PUSH1 0x0 PUSH1 0x20 DUP3 ADD SWAP1 POP PUSH2 0x51B PUSH1 0x0 DUP4 ADD DUP5 PUSH2 0x4AF JUMP JUMPDEST SWAP3 SWAP2 POP POP JUMP JUMPDEST PUSH1 0x0 PUSH1 0x60 DUP3 ADD SWAP1 POP PUSH2 0x536 PUSH1 0x0 DUP4 ADD DUP7 PUSH2 0x4F7 JUMP JUMPDEST DUP2 DUP2 SUB PUSH1 0x20 DUP4 ADD MSTORE PUSH2 0x548 DUP2 DUP6 PUSH2 0x4BE JUMP JUMPDEST SWAP1 POP PUSH2 0x557 PUSH1 0x40 DUP4 ADD DUP5 PUSH2 0x4A0 JUMP JUMPDEST SWAP5 SWAP4 POP POP POP POP JUMP JUMPDEST PUSH1 0x0 PUSH2 0x569 PUSH2 0x57A JUMP JUMPDEST SWAP1 POP PUSH2 0x575 DUP3 DUP3 PUSH2 0x6A6 JUMP JUMPDEST SWAP2 SWAP1 POP JUMP JUMPDEST PUSH1 0x0 PUSH1 0x40 MLOAD SWAP1 POP SWAP1 JUMP JUMPDEST PUSH1 0x0 PUSH8 0xFFFFFFFFFFFFFFFF DUP3 GT ISZERO PUSH2 0x59F JUMPI PUSH2 0x59E PUSH2 0x735 JUMP JUMPDEST JUMPDEST PUSH2 0x5A8 DUP3 PUSH2 0x778 JUMP JUMPDEST SWAP1 POP PUSH1 0x20 DUP2 ADD SWAP1 POP SWAP2 SWAP1 POP JUMP JUMPDEST PUSH1 0x0 DUP2 MLOAD SWAP1 POP SWAP2 SWAP1 POP JUMP JUMPDEST PUSH1 0x0 DUP3 DUP3 MSTORE PUSH1 0x20 DUP3 ADD SWAP1 POP SWAP3 SWAP2 POP POP JUMP JUMPDEST PUSH1 0x0 PUSH2 0x5DC DUP3 PUSH2 0x5F6 JUMP JUMPDEST SWAP1 POP SWAP2 SWAP1 POP JUMP JUMPDEST PUSH1 0x0 DUP2 SWAP1 POP PUSH2 0x5F1 DUP3 PUSH2 0x789 JUMP JUMPDEST SWAP2 SWAP1 POP JUMP JUMPDEST PUSH1 0x0 PUSH20 0xFFFFFFFFFFFFFFFFFFFFFFFFFFFFFFFFFFFFFFFF DUP3 AND SWAP1 POP SWAP2 SWAP1 POP JUMP JUMPDEST PUSH1 0x0 DUP2 SWAP1 POP SWAP2 SWAP1 POP JUMP JUMPDEST PUSH1 0x0 PUSH2 0x62B DUP3 PUSH2 0x5E3 JUMP JUMPDEST SWAP1 POP SWAP2 SWAP1 POP JUMP JUMPDEST DUP3 DUP2 DUP4 CALLDATACOPY PUSH1 0x0 DUP4 DUP4 ADD MSTORE POP POP POP JUMP JUMPDEST PUSH1 0x0 JUMPDEST DUP4 DUP2 LT ISZERO PUSH2 0x65F JUMPI DUP1 DUP3 ADD MLOAD DUP2 DUP5 ADD MSTORE PUSH1 0x20 DUP2 ADD SWAP1 POP PUSH2 0x644 JUMP JUMPDEST DUP4 DUP2 GT ISZERO PUSH2 0x66E JUMPI PUSH1 0x0 DUP5 DUP5 ADD MSTORE JUMPDEST POP POP POP POP JUMP JUMPDEST PUSH1 0x0 PUSH1 0x2 DUP3 DIV SWAP1 POP PUSH1 0x1 DUP3 AND DUP1 PUSH2 0x68C JUMPI PUSH1 0x7F DUP3 AND SWAP2 POP JUMPDEST PUSH1 0x20 DUP3 LT DUP2 EQ ISZERO PUSH2 0x6A0 JUMPI PUSH2 0x69F PUSH2 0x706 JUMP JUMPDEST JUMPDEST POP SWAP2 SWAP1 POP JUMP JUMPDEST PUSH2 0x6AF DUP3 PUSH2 0x778 JUMP JUMPDEST DUP2 ADD DUP2 DUP2 LT PUSH8 0xFFFFFFFFFFFFFFFF DUP3 GT OR ISZERO PUSH2 0x6CE JUMPI PUSH2 0x6CD PUSH2 0x735 JUMP JUMPDEST JUMPDEST DUP1 PUSH1 0x40 MSTORE POP POP POP JUMP JUMPDEST PUSH32 0x4E487B7100000000000000000000000000000000000000000000000000000000 PUSH1 0x0 MSTORE PUSH1 0x21 PUSH1 0x4 MSTORE PUSH1 0x24 PUSH1 0x0 REVERT JUMPDEST PUSH32 0x4E487B7100000000000000000000000000000000000000000000000000000000 PUSH1 0x0 MSTORE PUSH1 0x22 PUSH1 0x4 MSTORE PUSH1 0x24 PUSH1 0x0 REVERT JUMPDEST PUSH32 0x4E487B7100000000000000000000000000000000000000000000000000000000 PUSH1 0x0 MSTORE PUSH1 0x41 PUSH1 0x4 MSTORE PUSH1 0x24 PUSH1 0x0 REVERT JUMPDEST PUSH1 0x0 DUP1 REVERT JUMPDEST PUSH1 0x0 DUP1 REVERT JUMPDEST PUSH1 0x0 DUP1 REVERT JUMPDEST PUSH1 0x0 DUP1 REVERT JUMPDEST PUSH1 0x0 PUSH1 0x1F NOT PUSH1 0x1F DUP4 ADD AND SWAP1 POP SWAP2 SWAP1 POP JUMP JUMPDEST PUSH1 0x3 DUP2 LT PUSH2 0x79A JUMPI PUSH2 0x799 PUSH2 0x6D7 JUMP JUMPDEST JUMPDEST POP JUMP JUMPDEST PUSH2 0x7A6 DUP2 PUSH2 0x5D1 JUMP JUMPDEST DUP2 EQ PUSH2 0x7B1 JUMPI PUSH1 0x0 DUP1 REVERT JUMPDEST POP JUMP JUMPDEST PUSH1 0x3 DUP2 LT PUSH2 0x7C1 JUMPI PUSH1 0x0 DUP1 REVERT JUMPDEST POP JUMP JUMPDEST PUSH2 0x7CD DUP2 PUSH2 0x616 JUMP JUMPDEST DUP2 EQ PUSH2 0x7D8 JUMPI PUSH1 0x0 DUP1 REVERT JUMPDEST POP JUMP INVALID LOG2 PUSH5 0x6970667358 0x22 SLT KECCAK256 0xE5 0xF9 0xA5 ADD PUSH16 0x99B7F78EFE4F7153FEF9329232F5D0E0 LT 0x2D PUSH29 0x66D58FE9F970937864736F6C6343000807003300000000000000000000 "
				},
				"gasEstimates": {
					"creation": {
						"codeDepositCost": "413000",
						"executionCost": "infinite",
						"totalCost": "infinite"
					},
					"external": {
						"academyInstructor()": "infinite",
						"academyState()": "2538",
						"changeInstructor(uint256,string,address)": "infinite",
						"changeState(uint8)": "24650"
					}
				},
				"methodIdentifiers": {
					"academyInstructor()": "54248841",
					"academyState()": "23b8ca9f",
					"changeInstructor(uint256,string,address)": "a46878fb",
					"changeState(uint8)": "268f1153"
				}
			},
			"storageLayout": {
				"storage": [
					{
						"astId": 11,
						"contract": "contracts/test7.sol:Academy",
						"label": "academyInstructor",
						"offset": 0,
						"slot": "0",
						"type": "t_struct(Instructor)8_storage"
					},
					{
						"astId": 20,
						"contract": "contracts/test7.sol:Academy",
						"label": "academyState",
						"offset": 0,
						"slot": "3",
						"type": "t_enum(State)15"
					}
				],
				"types": {
					"t_address": {
						"encoding": "inplace",
						"label": "address",
						"numberOfBytes": "20"
					},
					"t_enum(State)15": {
						"encoding": "inplace",
						"label": "enum Academy.State",
						"numberOfBytes": "1"
					},
					"t_string_storage": {
						"encoding": "bytes",
						"label": "string",
						"numberOfBytes": "32"
					},
					"t_struct(Instructor)8_storage": {
						"encoding": "inplace",
						"label": "struct Instructor",
						"members": [
							{
								"astId": 3,
								"contract": "contracts/test7.sol:Academy",
								"label": "age",
								"offset": 0,
								"slot": "0",
								"type": "t_uint256"
							},
							{
								"astId": 5,
								"contract": "contracts/test7.sol:Academy",
								"label": "name",
								"offset": 0,
								"slot": "1",
								"type": "t_string_storage"
							},
							{
								"astId": 7,
								"contract": "contracts/test7.sol:Academy",
								"label": "addr",
								"offset": 0,
								"slot": "2",
								"type": "t_address"
							}
						],
						"numberOfBytes": "96"
					},
					"t_uint256": {
						"encoding": "inplace",
						"label": "uint256",
						"numberOfBytes": "32"
					}
				}
			},
			"userdoc": {
				"kind": "user",
				"methods": {},
				"version": 1
			}
		}
	}
}