{
	"contracts/test13.sol": {
		"A": {
			"abi": [
				{
					"inputs": [],
					"name": "f2",
					"outputs": [
						{
							"internalType": "int256",
							"name": "",
							"type": "int256"
						}
					],
					"stateMutability": "view",
					"type": "function"
				},
				{
					"inputs": [],
					"name": "f4",
					"outputs": [
						{
							"internalType": "int256",
							"name": "",
							"type": "int256"
						}
					],
					"stateMutability": "view",
					"type": "function"
				},
				{
					"inputs": [],
					"name": "get_y",
					"outputs": [
						{
							"internalType": "int256",
							"name": "",
							"type": "int256"
						}
					],
					"stateMutability": "view",
					"type": "function"
				},
				{
					"inputs": [],
					"name": "x",
					"outputs": [
						{
							"internalType": "int256",
							"name": "",
							"type": "int256"
						}
					],
					"stateMutability": "view",
					"type": "function"
				}
			],
			"devdoc": {
				"kind": "dev",
				"methods": {},
				"version": 1
			},
			"evm": {
				"assembly": "    /* \"contracts/test13.sol\":67:603  contract A{... */\n  mstore(0x40, 0x80)\n    /* \"contracts/test13.sol\":98:100  10 */\n  0x0a\n    /* \"contracts/test13.sol\":83:100  int public x = 10 */\n  0x00\n  sstore\n    /* \"contracts/test13.sol\":114:116  20 */\n  0x14\n    /* \"contracts/test13.sol\":106:116  int y = 20 */\n  0x01\n  sstore\n    /* \"contracts/test13.sol\":67:603  contract A{... */\n  callvalue\n  dup1\n  iszero\n  tag_1\n  jumpi\n  0x00\n  dup1\n  revert\ntag_1:\n  pop\n  dataSize(sub_0)\n  dup1\n  dataOffset(sub_0)\n  0x00\n  codecopy\n  0x00\n  return\nstop\n\nsub_0: assembly {\n        /* \"contracts/test13.sol\":67:603  contract A{... */\n      mstore(0x40, 0x80)\n      callvalue\n      dup1\n      iszero\n      tag_1\n      jumpi\n      0x00\n      dup1\n      revert\n    tag_1:\n      pop\n      jumpi(tag_2, lt(calldatasize, 0x04))\n      shr(0xe0, calldataload(0x00))\n      dup1\n      0x0c55699c\n      eq\n      tag_3\n      jumpi\n      dup1\n      0x28d69c6d\n      eq\n      tag_4\n      jumpi\n      dup1\n      0x9942ec6f\n      eq\n      tag_5\n      jumpi\n      dup1\n      0xc3f90202\n      eq\n      tag_6\n      jumpi\n    tag_2:\n      0x00\n      dup1\n      revert\n        /* \"contracts/test13.sol\":83:100  int public x = 10 */\n    tag_3:\n      tag_7\n      tag_8\n      jump\t// in\n    tag_7:\n      mload(0x40)\n      tag_9\n      swap2\n      swap1\n      tag_10\n      jump\t// in\n    tag_9:\n      mload(0x40)\n      dup1\n      swap2\n      sub\n      swap1\n      return\n        /* \"contracts/test13.sol\":160:226  function get_y() public view returns(int){... */\n    tag_4:\n      tag_11\n      tag_12\n      jump\t// in\n    tag_11:\n      mload(0x40)\n      tag_13\n      swap2\n      swap1\n      tag_10\n      jump\t// in\n    tag_13:\n      mload(0x40)\n      dup1\n      swap2\n      sub\n      swap1\n      return\n        /* \"contracts/test13.sol\":302:398  function f2() public view returns(int){... */\n    tag_5:\n      tag_14\n      tag_15\n      jump\t// in\n    tag_14:\n      mload(0x40)\n      tag_16\n      swap2\n      swap1\n      tag_10\n      jump\t// in\n    tag_16:\n      mload(0x40)\n      dup1\n      swap2\n      sub\n      swap1\n      return\n        /* \"contracts/test13.sol\":535:600  function f4() external view returns(int){... */\n    tag_6:\n      tag_17\n      tag_18\n      jump\t// in\n    tag_17:\n      mload(0x40)\n      tag_19\n      swap2\n      swap1\n      tag_10\n      jump\t// in\n    tag_19:\n      mload(0x40)\n      dup1\n      swap2\n      sub\n      swap1\n      return\n        /* \"contracts/test13.sol\":83:100  int public x = 10 */\n    tag_8:\n      sload(0x00)\n      dup2\n      jump\t// out\n        /* \"contracts/test13.sol\":160:226  function get_y() public view returns(int){... */\n    tag_12:\n        /* \"contracts/test13.sol\":197:200  int */\n      0x00\n        /* \"contracts/test13.sol\":218:219  y */\n      sload(0x01)\n        /* \"contracts/test13.sol\":211:219  return y */\n      swap1\n      pop\n        /* \"contracts/test13.sol\":160:226  function get_y() public view returns(int){... */\n      swap1\n      jump\t// out\n        /* \"contracts/test13.sol\":302:398  function f2() public view returns(int){... */\n    tag_15:\n        /* \"contracts/test13.sol\":336:339  int */\n      0x00\n        /* \"contracts/test13.sol\":350:355  int a */\n      dup1\n        /* \"contracts/test13.sol\":369:373  f1() */\n      tag_22\n        /* \"contracts/test13.sol\":369:371  f1 */\n      tag_23\n        /* \"contracts/test13.sol\":369:373  f1() */\n      jump\t// in\n    tag_22:\n        /* \"contracts/test13.sol\":365:373  a = f1() */\n      swap1\n      pop\n        /* \"contracts/test13.sol\":390:391  a */\n      dup1\n        /* \"contracts/test13.sol\":383:391  return a */\n      swap2\n      pop\n      pop\n        /* \"contracts/test13.sol\":302:398  function f2() public view returns(int){... */\n      swap1\n      jump\t// out\n        /* \"contracts/test13.sol\":535:600  function f4() external view returns(int){... */\n    tag_18:\n        /* \"contracts/test13.sol\":571:574  int */\n      0x00\n        /* \"contracts/test13.sol\":592:593  x */\n      dup1\n      sload\n        /* \"contracts/test13.sol\":585:593  return x */\n      swap1\n      pop\n        /* \"contracts/test13.sol\":535:600  function f4() external view returns(int){... */\n      swap1\n      jump\t// out\n        /* \"contracts/test13.sol\":232:296  function f1() private view returns(int){... */\n    tag_23:\n        /* \"contracts/test13.sol\":267:270  int */\n      0x00\n        /* \"contracts/test13.sol\":288:289  x */\n      dup1\n      sload\n        /* \"contracts/test13.sol\":281:289  return x */\n      swap1\n      pop\n        /* \"contracts/test13.sol\":232:296  function f1() private view returns(int){... */\n      swap1\n      jump\t// out\n        /* \"#utility.yul\":7:122   */\n    tag_27:\n        /* \"#utility.yul\":92:115   */\n      tag_29\n        /* \"#utility.yul\":109:114   */\n      dup2\n        /* \"#utility.yul\":92:115   */\n      tag_30\n      jump\t// in\n    tag_29:\n        /* \"#utility.yul\":87:90   */\n      dup3\n        /* \"#utility.yul\":80:116   */\n      mstore\n        /* \"#utility.yul\":7:122   */\n      pop\n      pop\n      jump\t// out\n        /* \"#utility.yul\":128:346   */\n    tag_10:\n        /* \"#utility.yul\":219:223   */\n      0x00\n        /* \"#utility.yul\":257:259   */\n      0x20\n        /* \"#utility.yul\":246:255   */\n      dup3\n        /* \"#utility.yul\":242:260   */\n      add\n        /* \"#utility.yul\":234:260   */\n      swap1\n      pop\n        /* \"#utility.yul\":270:339   */\n      tag_32\n        /* \"#utility.yul\":336:337   */\n      0x00\n        /* \"#utility.yul\":325:334   */\n      dup4\n        /* \"#utility.yul\":321:338   */\n      add\n        /* \"#utility.yul\":312:318   */\n      dup5\n        /* \"#utility.yul\":270:339   */\n      tag_27\n      jump\t// in\n    tag_32:\n        /* \"#utility.yul\":128:346   */\n      swap3\n      swap2\n      pop\n      pop\n      jump\t// out\n        /* \"#utility.yul\":352:428   */\n    tag_30:\n        /* \"#utility.yul\":388:395   */\n      0x00\n        /* \"#utility.yul\":417:422   */\n      dup2\n        /* \"#utility.yul\":406:422   */\n      swap1\n      pop\n        /* \"#utility.yul\":352:428   */\n      swap2\n      swap1\n      pop\n      jump\t// out\n\n    auxdata: 0xa2646970667358221220805cec2ae5eed5dbf12ecc86c7dcac59b09f6767ff6141fc95d626c767eef6aa64736f6c63430008070033\n}\n",
				"bytecode": {
					"linkReferences": {},
					"object": "6080604052600a600055601460015534801561001a57600080fd5b506101698061002a6000396000f3fe608060405234801561001057600080fd5b506004361061004c5760003560e01c80630c55699c1461005157806328d69c6d1461006f5780639942ec6f1461008d578063c3f90202146100ab575b600080fd5b6100596100c9565b604051610066919061010e565b60405180910390f35b6100776100cf565b604051610084919061010e565b60405180910390f35b6100956100d9565b6040516100a2919061010e565b60405180910390f35b6100b36100ed565b6040516100c0919061010e565b60405180910390f35b60005481565b6000600154905090565b6000806100e46100f6565b90508091505090565b60008054905090565b60008054905090565b61010881610129565b82525050565b600060208201905061012360008301846100ff565b92915050565b600081905091905056fea2646970667358221220805cec2ae5eed5dbf12ecc86c7dcac59b09f6767ff6141fc95d626c767eef6aa64736f6c63430008070033",
					"opcodes": "PUSH1 0x80 PUSH1 0x40 MSTORE PUSH1 0xA PUSH1 0x0 SSTORE PUSH1 0x14 PUSH1 0x1 SSTORE CALLVALUE DUP1 ISZERO PUSH2 0x1A JUMPI PUSH1 0x0 DUP1 REVERT JUMPDEST POP PUSH2 0x169 DUP1 PUSH2 0x2A PUSH1 0x0 CODECOPY PUSH1 0x0 RETURN INVALID PUSH1 0x80 PUSH1 0x40 MSTORE CALLVALUE DUP1 ISZERO PUSH2 0x10 JUMPI PUSH1 0x0 DUP1 REVERT JUMPDEST POP PUSH1 0x4 CALLDATASIZE LT PUSH2 0x4C JUMPI PUSH1 0x0 CALLDATALOAD PUSH1 0xE0 SHR DUP1 PUSH4 0xC55699C EQ PUSH2 0x51 JUMPI DUP1 PUSH4 0x28D69C6D EQ PUSH2 0x6F JUMPI DUP1 PUSH4 0x9942EC6F EQ PUSH2 0x8D JUMPI DUP1 PUSH4 0xC3F90202 EQ PUSH2 0xAB JUMPI JUMPDEST PUSH1 0x0 DUP1 REVERT JUMPDEST PUSH2 0x59 PUSH2 0xC9 JUMP JUMPDEST PUSH1 0x40 MLOAD PUSH2 0x66 SWAP2 SWAP1 PUSH2 0x10E JUMP JUMPDEST PUSH1 0x40 MLOAD DUP1 SWAP2 SUB SWAP1 RETURN JUMPDEST PUSH2 0x77 PUSH2 0xCF JUMP JUMPDEST PUSH1 0x40 MLOAD PUSH2 0x84 SWAP2 SWAP1 PUSH2 0x10E JUMP JUMPDEST PUSH1 0x40 MLOAD DUP1 SWAP2 SUB SWAP1 RETURN JUMPDEST PUSH2 0x95 PUSH2 0xD9 JUMP JUMPDEST PUSH1 0x40 MLOAD PUSH2 0xA2 SWAP2 SWAP1 PUSH2 0x10E JUMP JUMPDEST PUSH1 0x40 MLOAD DUP1 SWAP2 SUB SWAP1 RETURN JUMPDEST PUSH2 0xB3 PUSH2 0xED JUMP JUMPDEST PUSH1 0x40 MLOAD PUSH2 0xC0 SWAP2 SWAP1 PUSH2 0x10E JUMP JUMPDEST PUSH1 0x40 MLOAD DUP1 SWAP2 SUB SWAP1 RETURN JUMPDEST PUSH1 0x0 SLOAD DUP2 JUMP JUMPDEST PUSH1 0x0 PUSH1 0x1 SLOAD SWAP1 POP SWAP1 JUMP JUMPDEST PUSH1 0x0 DUP1 PUSH2 0xE4 PUSH2 0xF6 JUMP JUMPDEST SWAP1 POP DUP1 SWAP2 POP POP SWAP1 JUMP JUMPDEST PUSH1 0x0 DUP1 SLOAD SWAP1 POP SWAP1 JUMP JUMPDEST PUSH1 0x0 DUP1 SLOAD SWAP1 POP SWAP1 JUMP JUMPDEST PUSH2 0x108 DUP2 PUSH2 0x129 JUMP JUMPDEST DUP3 MSTORE POP POP JUMP JUMPDEST PUSH1 0x0 PUSH1 0x20 DUP3 ADD SWAP1 POP PUSH2 0x123 PUSH1 0x0 DUP4 ADD DUP5 PUSH2 0xFF JUMP JUMPDEST SWAP3 SWAP2 POP POP JUMP JUMPDEST PUSH1 0x0 DUP2 SWAP1 POP SWAP2 SWAP1 POP JUMP INVALID LOG2 PUSH5 0x6970667358 0x22 SLT KECCAK256 DUP1 0x5C 0xEC 0x2A 0xE5 0xEE 0xD5 0xDB CALL 0x2E 0xCC DUP7 0xC7 0xDC 0xAC MSIZE 0xB0 SWAP16 PUSH8 0x67FF6141FC95D626 0xC7 PUSH8 0xEEF6AA64736F6C63 NUMBER STOP ADDMOD SMOD STOP CALLER "
				},
				"gasEstimates": {
					"creation": {
						"codeDepositCost": "72200",
						"executionCost": "44335",
						"totalCost": "116535"
					},
					"external": {
						"f2()": "2507",
						"f4()": "2481",
						"get_y()": "2437",
						"x()": "2407"
					},
					"internal": {
						"f1()": "2123",
						"f3()": "infinite"
					}
				},
				"methodIdentifiers": {
					"f2()": "9942ec6f",
					"f4()": "c3f90202",
					"get_y()": "28d69c6d",
					"x()": "0c55699c"
				}
			},
			"storageLayout": {
				"storage": [
					{
						"astId": 4,
						"contract": "contracts/test13.sol:A",
						"label": "x",
						"offset": 0,
						"slot": "0",
						"type": "t_int256"
					},
					{
						"astId": 7,
						"contract": "contracts/test13.sol:A",
						"label": "y",
						"offset": 0,
						"slot": "1",
						"type": "t_int256"
					}
				],
				"types": {
					"t_int256": {
						"encoding": "inplace",
						"label": "int256",
						"numberOfBytes": "32"
					}
				}
			},
			"userdoc": {
				"kind": "user",
				"methods": {},
				"version": 1
			}
		}
	}
}