{
	"contracts/test13.sol": {
		"A": {
			"abi": [
				{
					"inputs": [],
					"name": "f2",
					"outputs": [
						{
							"internalType": "int256",
							"name": "",
							"type": "int256"
						}
					],
					"stateMutability": "view",
					"type": "function"
				},
				{
					"inputs": [],
					"name": "f4",
					"outputs": [
						{
							"internalType": "int256",
							"name": "",
							"type": "int256"
						}
					],
					"stateMutability": "view",
					"type": "function"
				},
				{
					"inputs": [],
					"name": "f5",
					"outputs": [
						{
							"internalType": "int256",
							"name": "",
							"type": "int256"
						}
					],
					"stateMutability": "pure",
					"type": "function"
				},
				{
					"inputs": [],
					"name": "get_y",
					"outputs": [
						{
							"internalType": "int256",
							"name": "",
							"type": "int256"
						}
					],
					"stateMutability": "view",
					"type": "function"
				},
				{
					"inputs": [],
					"name": "x",
					"outputs": [
						{
							"internalType": "int256",
							"name": "",
							"type": "int256"
						}
					],
					"stateMutability": "view",
					"type": "function"
				}
			],
			"devdoc": {
				"kind": "dev",
				"methods": {},
				"version": 1
			},
			"evm": {
				"assembly": "    /* \"contracts/test13.sol\":67:716  contract A{... */\n  mstore(0x40, 0x80)\n    /* \"contracts/test13.sol\":98:100  10 */\n  0x0a\n    /* \"contracts/test13.sol\":83:100  int public x = 10 */\n  0x00\n  sstore\n    /* \"contracts/test13.sol\":114:116  20 */\n  0x14\n    /* \"contracts/test13.sol\":106:116  int y = 20 */\n  0x01\n  sstore\n    /* \"contracts/test13.sol\":67:716  contract A{... */\n  callvalue\n  dup1\n  iszero\n  tag_1\n  jumpi\n  0x00\n  dup1\n  revert\ntag_1:\n  pop\n  dataSize(sub_0)\n  dup1\n  dataOffset(sub_0)\n  0x00\n  codecopy\n  0x00\n  return\nstop\n\nsub_0: assembly {\n        /* \"contracts/test13.sol\":67:716  contract A{... */\n      mstore(0x40, 0x80)\n      callvalue\n      dup1\n      iszero\n      tag_1\n      jumpi\n      0x00\n      dup1\n      revert\n    tag_1:\n      pop\n      jumpi(tag_2, lt(calldatasize, 0x04))\n      shr(0xe0, calldataload(0x00))\n      dup1\n      0x0c55699c\n      eq\n      tag_3\n      jumpi\n      dup1\n      0x28d69c6d\n      eq\n      tag_4\n      jumpi\n      dup1\n      0x3c9d377d\n      eq\n      tag_5\n      jumpi\n      dup1\n      0x9942ec6f\n      eq\n      tag_6\n      jumpi\n      dup1\n      0xc3f90202\n      eq\n      tag_7\n      jumpi\n    tag_2:\n      0x00\n      dup1\n      revert\n        /* \"contracts/test13.sol\":83:100  int public x = 10 */\n    tag_3:\n      tag_8\n      tag_9\n      jump\t// in\n    tag_8:\n      mload(0x40)\n      tag_10\n      swap2\n      swap1\n      tag_11\n      jump\t// in\n    tag_10:\n      mload(0x40)\n      dup1\n      swap2\n      sub\n      swap1\n      return\n        /* \"contracts/test13.sol\":160:226  function get_y() public view returns(int){... */\n    tag_4:\n      tag_12\n      tag_13\n      jump\t// in\n    tag_12:\n      mload(0x40)\n      tag_14\n      swap2\n      swap1\n      tag_11\n      jump\t// in\n    tag_14:\n      mload(0x40)\n      dup1\n      swap2\n      sub\n      swap1\n      return\n        /* \"contracts/test13.sol\":615:713  function f5() public pure returns(int){... */\n    tag_5:\n      tag_15\n      tag_16\n      jump\t// in\n    tag_15:\n      mload(0x40)\n      tag_17\n      swap2\n      swap1\n      tag_11\n      jump\t// in\n    tag_17:\n      mload(0x40)\n      dup1\n      swap2\n      sub\n      swap1\n      return\n        /* \"contracts/test13.sol\":302:398  function f2() public view returns(int){... */\n    tag_6:\n      tag_18\n      tag_19\n      jump\t// in\n    tag_18:\n      mload(0x40)\n      tag_20\n      swap2\n      swap1\n      tag_11\n      jump\t// in\n    tag_20:\n      mload(0x40)\n      dup1\n      swap2\n      sub\n      swap1\n      return\n        /* \"contracts/test13.sol\":539:604  function f4() external view returns(int){... */\n    tag_7:\n      tag_21\n      tag_22\n      jump\t// in\n    tag_21:\n      mload(0x40)\n      tag_23\n      swap2\n      swap1\n      tag_11\n      jump\t// in\n    tag_23:\n      mload(0x40)\n      dup1\n      swap2\n      sub\n      swap1\n      return\n        /* \"contracts/test13.sol\":83:100  int public x = 10 */\n    tag_9:\n      sload(0x00)\n      dup2\n      jump\t// out\n        /* \"contracts/test13.sol\":160:226  function get_y() public view returns(int){... */\n    tag_13:\n        /* \"contracts/test13.sol\":197:200  int */\n      0x00\n        /* \"contracts/test13.sol\":218:219  y */\n      sload(0x01)\n        /* \"contracts/test13.sol\":211:219  return y */\n      swap1\n      pop\n        /* \"contracts/test13.sol\":160:226  function get_y() public view returns(int){... */\n      swap1\n      jump\t// out\n        /* \"contracts/test13.sol\":615:713  function f5() public pure returns(int){... */\n    tag_16:\n        /* \"contracts/test13.sol\":649:652  int */\n      0x00\n        /* \"contracts/test13.sol\":663:668  int b */\n      dup1\n        /* \"contracts/test13.sol\":705:706  b */\n      dup1\n        /* \"contracts/test13.sol\":698:706  return b */\n      swap2\n      pop\n      pop\n        /* \"contracts/test13.sol\":615:713  function f5() public pure returns(int){... */\n      swap1\n      jump\t// out\n        /* \"contracts/test13.sol\":302:398  function f2() public view returns(int){... */\n    tag_19:\n        /* \"contracts/test13.sol\":336:339  int */\n      0x00\n        /* \"contracts/test13.sol\":350:355  int a */\n      dup1\n        /* \"contracts/test13.sol\":369:373  f1() */\n      tag_27\n        /* \"contracts/test13.sol\":369:371  f1 */\n      tag_28\n        /* \"contracts/test13.sol\":369:373  f1() */\n      jump\t// in\n    tag_27:\n        /* \"contracts/test13.sol\":365:373  a = f1() */\n      swap1\n      pop\n        /* \"contracts/test13.sol\":390:391  a */\n      dup1\n        /* \"contracts/test13.sol\":383:391  return a */\n      swap2\n      pop\n      pop\n        /* \"contracts/test13.sol\":302:398  function f2() public view returns(int){... */\n      swap1\n      jump\t// out\n        /* \"contracts/test13.sol\":539:604  function f4() external view returns(int){... */\n    tag_22:\n        /* \"contracts/test13.sol\":575:578  int */\n      0x00\n        /* \"contracts/test13.sol\":596:597  x */\n      dup1\n      sload\n        /* \"contracts/test13.sol\":589:597  return x */\n      swap1\n      pop\n        /* \"contracts/test13.sol\":539:604  function f4() external view returns(int){... */\n      swap1\n      jump\t// out\n        /* \"contracts/test13.sol\":232:296  function f1() private view returns(int){... */\n    tag_28:\n        /* \"contracts/test13.sol\":267:270  int */\n      0x00\n        /* \"contracts/test13.sol\":288:289  x */\n      dup1\n      sload\n        /* \"contracts/test13.sol\":281:289  return x */\n      swap1\n      pop\n        /* \"contracts/test13.sol\":232:296  function f1() private view returns(int){... */\n      swap1\n      jump\t// out\n        /* \"#utility.yul\":7:122   */\n    tag_32:\n        /* \"#utility.yul\":92:115   */\n      tag_34\n        /* \"#utility.yul\":109:114   */\n      dup2\n        /* \"#utility.yul\":92:115   */\n      tag_35\n      jump\t// in\n    tag_34:\n        /* \"#utility.yul\":87:90   */\n      dup3\n        /* \"#utility.yul\":80:116   */\n      mstore\n        /* \"#utility.yul\":7:122   */\n      pop\n      pop\n      jump\t// out\n        /* \"#utility.yul\":128:346   */\n    tag_11:\n        /* \"#utility.yul\":219:223   */\n      0x00\n        /* \"#utility.yul\":257:259   */\n      0x20\n        /* \"#utility.yul\":246:255   */\n      dup3\n        /* \"#utility.yul\":242:260   */\n      add\n        /* \"#utility.yul\":234:260   */\n      swap1\n      pop\n        /* \"#utility.yul\":270:339   */\n      tag_37\n        /* \"#utility.yul\":336:337   */\n      0x00\n        /* \"#utility.yul\":325:334   */\n      dup4\n        /* \"#utility.yul\":321:338   */\n      add\n        /* \"#utility.yul\":312:318   */\n      dup5\n        /* \"#utility.yul\":270:339   */\n      tag_32\n      jump\t// in\n    tag_37:\n        /* \"#utility.yul\":128:346   */\n      swap3\n      swap2\n      pop\n      pop\n      jump\t// out\n        /* \"#utility.yul\":352:428   */\n    tag_35:\n        /* \"#utility.yul\":388:395   */\n      0x00\n        /* \"#utility.yul\":417:422   */\n      dup2\n        /* \"#utility.yul\":406:422   */\n      swap1\n      pop\n        /* \"#utility.yul\":352:428   */\n      swap2\n      swap1\n      pop\n      jump\t// out\n\n    auxdata: 0xa2646970667358221220d877dd3ea15c958bc30916b9bd716edac00aaa9ecd734d507770c169f1210bd564736f6c63430008070033\n}\n",
				"bytecode": {
					"linkReferences": {},
					"object": "6080604052600a600055601460015534801561001a57600080fd5b5061019c8061002a6000396000f3fe608060405234801561001057600080fd5b50600436106100575760003560e01c80630c55699c1461005c57806328d69c6d1461007a5780633c9d377d146100985780639942ec6f146100b6578063c3f90202146100d4575b600080fd5b6100646100f2565b6040516100719190610141565b60405180910390f35b6100826100f8565b60405161008f9190610141565b60405180910390f35b6100a0610102565b6040516100ad9190610141565b60405180910390f35b6100be61010c565b6040516100cb9190610141565b60405180910390f35b6100dc610120565b6040516100e99190610141565b60405180910390f35b60005481565b6000600154905090565b6000808091505090565b600080610117610129565b90508091505090565b60008054905090565b60008054905090565b61013b8161015c565b82525050565b60006020820190506101566000830184610132565b92915050565b600081905091905056fea2646970667358221220d877dd3ea15c958bc30916b9bd716edac00aaa9ecd734d507770c169f1210bd564736f6c63430008070033",
					"opcodes": "PUSH1 0x80 PUSH1 0x40 MSTORE PUSH1 0xA PUSH1 0x0 SSTORE PUSH1 0x14 PUSH1 0x1 SSTORE CALLVALUE DUP1 ISZERO PUSH2 0x1A JUMPI PUSH1 0x0 DUP1 REVERT JUMPDEST POP PUSH2 0x19C DUP1 PUSH2 0x2A PUSH1 0x0 CODECOPY PUSH1 0x0 RETURN INVALID PUSH1 0x80 PUSH1 0x40 MSTORE CALLVALUE DUP1 ISZERO PUSH2 0x10 JUMPI PUSH1 0x0 DUP1 REVERT JUMPDEST POP PUSH1 0x4 CALLDATASIZE LT PUSH2 0x57 JUMPI PUSH1 0x0 CALLDATALOAD PUSH1 0xE0 SHR DUP1 PUSH4 0xC55699C EQ PUSH2 0x5C JUMPI DUP1 PUSH4 0x28D69C6D EQ PUSH2 0x7A JUMPI DUP1 PUSH4 0x3C9D377D EQ PUSH2 0x98 JUMPI DUP1 PUSH4 0x9942EC6F EQ PUSH2 0xB6 JUMPI DUP1 PUSH4 0xC3F90202 EQ PUSH2 0xD4 JUMPI JUMPDEST PUSH1 0x0 DUP1 REVERT JUMPDEST PUSH2 0x64 PUSH2 0xF2 JUMP JUMPDEST PUSH1 0x40 MLOAD PUSH2 0x71 SWAP2 SWAP1 PUSH2 0x141 JUMP JUMPDEST PUSH1 0x40 MLOAD DUP1 SWAP2 SUB SWAP1 RETURN JUMPDEST PUSH2 0x82 PUSH2 0xF8 JUMP JUMPDEST PUSH1 0x40 MLOAD PUSH2 0x8F SWAP2 SWAP1 PUSH2 0x141 JUMP JUMPDEST PUSH1 0x40 MLOAD DUP1 SWAP2 SUB SWAP1 RETURN JUMPDEST PUSH2 0xA0 PUSH2 0x102 JUMP JUMPDEST PUSH1 0x40 MLOAD PUSH2 0xAD SWAP2 SWAP1 PUSH2 0x141 JUMP JUMPDEST PUSH1 0x40 MLOAD DUP1 SWAP2 SUB SWAP1 RETURN JUMPDEST PUSH2 0xBE PUSH2 0x10C JUMP JUMPDEST PUSH1 0x40 MLOAD PUSH2 0xCB SWAP2 SWAP1 PUSH2 0x141 JUMP JUMPDEST PUSH1 0x40 MLOAD DUP1 SWAP2 SUB SWAP1 RETURN JUMPDEST PUSH2 0xDC PUSH2 0x120 JUMP JUMPDEST PUSH1 0x40 MLOAD PUSH2 0xE9 SWAP2 SWAP1 PUSH2 0x141 JUMP JUMPDEST PUSH1 0x40 MLOAD DUP1 SWAP2 SUB SWAP1 RETURN JUMPDEST PUSH1 0x0 SLOAD DUP2 JUMP JUMPDEST PUSH1 0x0 PUSH1 0x1 SLOAD SWAP1 POP SWAP1 JUMP JUMPDEST PUSH1 0x0 DUP1 DUP1 SWAP2 POP POP SWAP1 JUMP JUMPDEST PUSH1 0x0 DUP1 PUSH2 0x117 PUSH2 0x129 JUMP JUMPDEST SWAP1 POP DUP1 SWAP2 POP POP SWAP1 JUMP JUMPDEST PUSH1 0x0 DUP1 SLOAD SWAP1 POP SWAP1 JUMP JUMPDEST PUSH1 0x0 DUP1 SLOAD SWAP1 POP SWAP1 JUMP JUMPDEST PUSH2 0x13B DUP2 PUSH2 0x15C JUMP JUMPDEST DUP3 MSTORE POP POP JUMP JUMPDEST PUSH1 0x0 PUSH1 0x20 DUP3 ADD SWAP1 POP PUSH2 0x156 PUSH1 0x0 DUP4 ADD DUP5 PUSH2 0x132 JUMP JUMPDEST SWAP3 SWAP2 POP POP JUMP JUMPDEST PUSH1 0x0 DUP2 SWAP1 POP SWAP2 SWAP1 POP JUMP INVALID LOG2 PUSH5 0x6970667358 0x22 SLT KECCAK256 0xD8 PUSH24 0xDD3EA15C958BC30916B9BD716EDAC00AAA9ECD734D507770 0xC1 PUSH10 0xF1210BD564736F6C6343 STOP ADDMOD SMOD STOP CALLER "
				},
				"gasEstimates": {
					"creation": {
						"codeDepositCost": "82400",
						"executionCost": "44341",
						"totalCost": "126741"
					},
					"external": {
						"f2()": "2529",
						"f4()": "2503",
						"f5()": "364",
						"get_y()": "2437",
						"x()": "2407"
					},
					"internal": {
						"f1()": "2123",
						"f3()": "infinite"
					}
				},
				"methodIdentifiers": {
					"f2()": "9942ec6f",
					"f4()": "c3f90202",
					"f5()": "3c9d377d",
					"get_y()": "28d69c6d",
					"x()": "0c55699c"
				}
			},
			"storageLayout": {
				"storage": [
					{
						"astId": 4,
						"contract": "contracts/test13.sol:A",
						"label": "x",
						"offset": 0,
						"slot": "0",
						"type": "t_int256"
					},
					{
						"astId": 7,
						"contract": "contracts/test13.sol:A",
						"label": "y",
						"offset": 0,
						"slot": "1",
						"type": "t_int256"
					}
				],
				"types": {
					"t_int256": {
						"encoding": "inplace",
						"label": "int256",
						"numberOfBytes": "32"
					}
				}
			},
			"userdoc": {
				"kind": "user",
				"methods": {},
				"version": 1
			}
		}
	}
}