{
	"contracts/challenges/ch5.sol": {
		"A": {
			"abi": [
				{
					"inputs": [
						{
							"internalType": "string",
							"name": "x",
							"type": "string"
						},
						{
							"internalType": "string",
							"name": "y",
							"type": "string"
						}
					],
					"name": "concatenateStrings",
					"outputs": [],
					"stateMutability": "nonpayable",
					"type": "function"
				},
				{
					"inputs": [],
					"name": "x",
					"outputs": [
						{
							"internalType": "int256",
							"name": "",
							"type": "int256"
						}
					],
					"stateMutability": "view",
					"type": "function"
				}
			],
			"devdoc": {
				"kind": "dev",
				"methods": {},
				"version": 1
			},
			"evm": {
				"assembly": "    /* \"contracts/challenges/ch5.sol\":71:272  contract A{... */\n  mstore(0x40, 0x80)\n    /* \"contracts/challenges/ch5.sol\":102:104  10 */\n  0x0a\n    /* \"contracts/challenges/ch5.sol\":87:104  int public x = 10 */\n  0x00\n  sstore\n    /* \"contracts/challenges/ch5.sol\":71:272  contract A{... */\n  callvalue\n  dup1\n  iszero\n  tag_1\n  jumpi\n  0x00\n  dup1\n  revert\ntag_1:\n  pop\n  dataSize(sub_0)\n  dup1\n  dataOffset(sub_0)\n  0x00\n  codecopy\n  0x00\n  return\nstop\n\nsub_0: assembly {\n        /* \"contracts/challenges/ch5.sol\":71:272  contract A{... */\n      mstore(0x40, 0x80)\n      callvalue\n      dup1\n      iszero\n      tag_1\n      jumpi\n      0x00\n      dup1\n      revert\n    tag_1:\n      pop\n      jumpi(tag_2, lt(calldatasize, 0x04))\n      shr(0xe0, calldataload(0x00))\n      dup1\n      0x0c55699c\n      eq\n      tag_3\n      jumpi\n      dup1\n      0x7a36b3ee\n      eq\n      tag_4\n      jumpi\n    tag_2:\n      0x00\n      dup1\n      revert\n        /* \"contracts/challenges/ch5.sol\":87:104  int public x = 10 */\n    tag_3:\n      tag_5\n      tag_6\n      jump\t// in\n    tag_5:\n      mload(0x40)\n      tag_7\n      swap2\n      swap1\n      tag_8\n      jump\t// in\n    tag_7:\n      mload(0x40)\n      dup1\n      swap2\n      sub\n      swap1\n      return\n        /* \"contracts/challenges/ch5.sol\":181:265  function concatenateStrings(string memory x, string memory y) public{... */\n    tag_4:\n      tag_9\n      0x04\n      dup1\n      calldatasize\n      sub\n      dup2\n      add\n      swap1\n      tag_10\n      swap2\n      swap1\n      tag_11\n      jump\t// in\n    tag_10:\n      tag_12\n      jump\t// in\n    tag_9:\n      stop\n        /* \"contracts/challenges/ch5.sol\":87:104  int public x = 10 */\n    tag_6:\n      sload(0x00)\n      dup2\n      jump\t// out\n        /* \"contracts/challenges/ch5.sol\":181:265  function concatenateStrings(string memory x, string memory y) public{... */\n    tag_12:\n      pop\n      pop\n      jump\t// out\n        /* \"#utility.yul\":7:419   */\n    tag_15:\n        /* \"#utility.yul\":85:90   */\n      0x00\n        /* \"#utility.yul\":110:176   */\n      tag_17\n        /* \"#utility.yul\":126:175   */\n      tag_18\n        /* \"#utility.yul\":168:174   */\n      dup5\n        /* \"#utility.yul\":126:175   */\n      tag_19\n      jump\t// in\n    tag_18:\n        /* \"#utility.yul\":110:176   */\n      tag_20\n      jump\t// in\n    tag_17:\n        /* \"#utility.yul\":101:176   */\n      swap1\n      pop\n        /* \"#utility.yul\":199:205   */\n      dup3\n        /* \"#utility.yul\":192:197   */\n      dup2\n        /* \"#utility.yul\":185:206   */\n      mstore\n        /* \"#utility.yul\":237:241   */\n      0x20\n        /* \"#utility.yul\":230:235   */\n      dup2\n        /* \"#utility.yul\":226:242   */\n      add\n        /* \"#utility.yul\":275:278   */\n      dup5\n        /* \"#utility.yul\":266:272   */\n      dup5\n        /* \"#utility.yul\":261:264   */\n      dup5\n        /* \"#utility.yul\":257:273   */\n      add\n        /* \"#utility.yul\":254:279   */\n      gt\n        /* \"#utility.yul\":251:363   */\n      iszero\n      tag_21\n      jumpi\n        /* \"#utility.yul\":282:361   */\n      tag_22\n      tag_23\n      jump\t// in\n    tag_22:\n        /* \"#utility.yul\":251:363   */\n    tag_21:\n        /* \"#utility.yul\":372:413   */\n      tag_24\n        /* \"#utility.yul\":406:412   */\n      dup5\n        /* \"#utility.yul\":401:404   */\n      dup3\n        /* \"#utility.yul\":396:399   */\n      dup6\n        /* \"#utility.yul\":372:413   */\n      tag_25\n      jump\t// in\n    tag_24:\n        /* \"#utility.yul\":91:419   */\n      pop\n        /* \"#utility.yul\":7:419   */\n      swap4\n      swap3\n      pop\n      pop\n      pop\n      jump\t// out\n        /* \"#utility.yul\":439:779   */\n    tag_26:\n        /* \"#utility.yul\":495:500   */\n      0x00\n        /* \"#utility.yul\":544:547   */\n      dup3\n        /* \"#utility.yul\":537:541   */\n      0x1f\n        /* \"#utility.yul\":529:535   */\n      dup4\n        /* \"#utility.yul\":525:542   */\n      add\n        /* \"#utility.yul\":521:548   */\n      slt\n        /* \"#utility.yul\":511:633   */\n      tag_28\n      jumpi\n        /* \"#utility.yul\":552:631   */\n      tag_29\n      tag_30\n      jump\t// in\n    tag_29:\n        /* \"#utility.yul\":511:633   */\n    tag_28:\n        /* \"#utility.yul\":669:675   */\n      dup2\n        /* \"#utility.yul\":656:676   */\n      calldataload\n        /* \"#utility.yul\":694:773   */\n      tag_31\n        /* \"#utility.yul\":769:772   */\n      dup5\n        /* \"#utility.yul\":761:767   */\n      dup3\n        /* \"#utility.yul\":754:758   */\n      0x20\n        /* \"#utility.yul\":746:752   */\n      dup7\n        /* \"#utility.yul\":742:759   */\n      add\n        /* \"#utility.yul\":694:773   */\n      tag_15\n      jump\t// in\n    tag_31:\n        /* \"#utility.yul\":685:773   */\n      swap2\n      pop\n        /* \"#utility.yul\":501:779   */\n      pop\n        /* \"#utility.yul\":439:779   */\n      swap3\n      swap2\n      pop\n      pop\n      jump\t// out\n        /* \"#utility.yul\":785:1619   */\n    tag_11:\n        /* \"#utility.yul\":873:879   */\n      0x00\n        /* \"#utility.yul\":881:887   */\n      dup1\n        /* \"#utility.yul\":930:932   */\n      0x40\n        /* \"#utility.yul\":918:927   */\n      dup4\n        /* \"#utility.yul\":909:916   */\n      dup6\n        /* \"#utility.yul\":905:928   */\n      sub\n        /* \"#utility.yul\":901:933   */\n      slt\n        /* \"#utility.yul\":898:1017   */\n      iszero\n      tag_33\n      jumpi\n        /* \"#utility.yul\":936:1015   */\n      tag_34\n      tag_35\n      jump\t// in\n    tag_34:\n        /* \"#utility.yul\":898:1017   */\n    tag_33:\n        /* \"#utility.yul\":1084:1085   */\n      0x00\n        /* \"#utility.yul\":1073:1082   */\n      dup4\n        /* \"#utility.yul\":1069:1086   */\n      add\n        /* \"#utility.yul\":1056:1087   */\n      calldataload\n        /* \"#utility.yul\":1114:1132   */\n      0xffffffffffffffff\n        /* \"#utility.yul\":1106:1112   */\n      dup2\n        /* \"#utility.yul\":1103:1133   */\n      gt\n        /* \"#utility.yul\":1100:1217   */\n      iszero\n      tag_36\n      jumpi\n        /* \"#utility.yul\":1136:1215   */\n      tag_37\n      tag_38\n      jump\t// in\n    tag_37:\n        /* \"#utility.yul\":1100:1217   */\n    tag_36:\n        /* \"#utility.yul\":1241:1304   */\n      tag_39\n        /* \"#utility.yul\":1296:1303   */\n      dup6\n        /* \"#utility.yul\":1287:1293   */\n      dup3\n        /* \"#utility.yul\":1276:1285   */\n      dup7\n        /* \"#utility.yul\":1272:1294   */\n      add\n        /* \"#utility.yul\":1241:1304   */\n      tag_26\n      jump\t// in\n    tag_39:\n        /* \"#utility.yul\":1231:1304   */\n      swap3\n      pop\n        /* \"#utility.yul\":1027:1314   */\n      pop\n        /* \"#utility.yul\":1381:1383   */\n      0x20\n        /* \"#utility.yul\":1370:1379   */\n      dup4\n        /* \"#utility.yul\":1366:1384   */\n      add\n        /* \"#utility.yul\":1353:1385   */\n      calldataload\n        /* \"#utility.yul\":1412:1430   */\n      0xffffffffffffffff\n        /* \"#utility.yul\":1404:1410   */\n      dup2\n        /* \"#utility.yul\":1401:1431   */\n      gt\n        /* \"#utility.yul\":1398:1515   */\n      iszero\n      tag_40\n      jumpi\n        /* \"#utility.yul\":1434:1513   */\n      tag_41\n      tag_38\n      jump\t// in\n    tag_41:\n        /* \"#utility.yul\":1398:1515   */\n    tag_40:\n        /* \"#utility.yul\":1539:1602   */\n      tag_42\n        /* \"#utility.yul\":1594:1601   */\n      dup6\n        /* \"#utility.yul\":1585:1591   */\n      dup3\n        /* \"#utility.yul\":1574:1583   */\n      dup7\n        /* \"#utility.yul\":1570:1592   */\n      add\n        /* \"#utility.yul\":1539:1602   */\n      tag_26\n      jump\t// in\n    tag_42:\n        /* \"#utility.yul\":1529:1602   */\n      swap2\n      pop\n        /* \"#utility.yul\":1324:1612   */\n      pop\n        /* \"#utility.yul\":785:1619   */\n      swap3\n      pop\n      swap3\n      swap1\n      pop\n      jump\t// out\n        /* \"#utility.yul\":1625:1740   */\n    tag_43:\n        /* \"#utility.yul\":1710:1733   */\n      tag_45\n        /* \"#utility.yul\":1727:1732   */\n      dup2\n        /* \"#utility.yul\":1710:1733   */\n      tag_46\n      jump\t// in\n    tag_45:\n        /* \"#utility.yul\":1705:1708   */\n      dup3\n        /* \"#utility.yul\":1698:1734   */\n      mstore\n        /* \"#utility.yul\":1625:1740   */\n      pop\n      pop\n      jump\t// out\n        /* \"#utility.yul\":1746:1964   */\n    tag_8:\n        /* \"#utility.yul\":1837:1841   */\n      0x00\n        /* \"#utility.yul\":1875:1877   */\n      0x20\n        /* \"#utility.yul\":1864:1873   */\n      dup3\n        /* \"#utility.yul\":1860:1878   */\n      add\n        /* \"#utility.yul\":1852:1878   */\n      swap1\n      pop\n        /* \"#utility.yul\":1888:1957   */\n      tag_48\n        /* \"#utility.yul\":1954:1955   */\n      0x00\n        /* \"#utility.yul\":1943:1952   */\n      dup4\n        /* \"#utility.yul\":1939:1956   */\n      add\n        /* \"#utility.yul\":1930:1936   */\n      dup5\n        /* \"#utility.yul\":1888:1957   */\n      tag_43\n      jump\t// in\n    tag_48:\n        /* \"#utility.yul\":1746:1964   */\n      swap3\n      swap2\n      pop\n      pop\n      jump\t// out\n        /* \"#utility.yul\":1970:2099   */\n    tag_20:\n        /* \"#utility.yul\":2004:2010   */\n      0x00\n        /* \"#utility.yul\":2031:2051   */\n      tag_50\n      tag_51\n      jump\t// in\n    tag_50:\n        /* \"#utility.yul\":2021:2051   */\n      swap1\n      pop\n        /* \"#utility.yul\":2060:2093   */\n      tag_52\n        /* \"#utility.yul\":2088:2092   */\n      dup3\n        /* \"#utility.yul\":2080:2086   */\n      dup3\n        /* \"#utility.yul\":2060:2093   */\n      tag_53\n      jump\t// in\n    tag_52:\n        /* \"#utility.yul\":1970:2099   */\n      swap2\n      swap1\n      pop\n      jump\t// out\n        /* \"#utility.yul\":2105:2180   */\n    tag_51:\n        /* \"#utility.yul\":2138:2144   */\n      0x00\n        /* \"#utility.yul\":2171:2173   */\n      0x40\n        /* \"#utility.yul\":2165:2174   */\n      mload\n        /* \"#utility.yul\":2155:2174   */\n      swap1\n      pop\n        /* \"#utility.yul\":2105:2180   */\n      swap1\n      jump\t// out\n        /* \"#utility.yul\":2186:2494   */\n    tag_19:\n        /* \"#utility.yul\":2248:2252   */\n      0x00\n        /* \"#utility.yul\":2338:2356   */\n      0xffffffffffffffff\n        /* \"#utility.yul\":2330:2336   */\n      dup3\n        /* \"#utility.yul\":2327:2357   */\n      gt\n        /* \"#utility.yul\":2324:2380   */\n      iszero\n      tag_56\n      jumpi\n        /* \"#utility.yul\":2360:2378   */\n      tag_57\n      tag_58\n      jump\t// in\n    tag_57:\n        /* \"#utility.yul\":2324:2380   */\n    tag_56:\n        /* \"#utility.yul\":2398:2427   */\n      tag_59\n        /* \"#utility.yul\":2420:2426   */\n      dup3\n        /* \"#utility.yul\":2398:2427   */\n      tag_60\n      jump\t// in\n    tag_59:\n        /* \"#utility.yul\":2390:2427   */\n      swap1\n      pop\n        /* \"#utility.yul\":2482:2486   */\n      0x20\n        /* \"#utility.yul\":2476:2480   */\n      dup2\n        /* \"#utility.yul\":2472:2487   */\n      add\n        /* \"#utility.yul\":2464:2487   */\n      swap1\n      pop\n        /* \"#utility.yul\":2186:2494   */\n      swap2\n      swap1\n      pop\n      jump\t// out\n        /* \"#utility.yul\":2500:2576   */\n    tag_46:\n        /* \"#utility.yul\":2536:2543   */\n      0x00\n        /* \"#utility.yul\":2565:2570   */\n      dup2\n        /* \"#utility.yul\":2554:2570   */\n      swap1\n      pop\n        /* \"#utility.yul\":2500:2576   */\n      swap2\n      swap1\n      pop\n      jump\t// out\n        /* \"#utility.yul\":2582:2736   */\n    tag_25:\n        /* \"#utility.yul\":2666:2672   */\n      dup3\n        /* \"#utility.yul\":2661:2664   */\n      dup2\n        /* \"#utility.yul\":2656:2659   */\n      dup4\n        /* \"#utility.yul\":2643:2673   */\n      calldatacopy\n        /* \"#utility.yul\":2728:2729   */\n      0x00\n        /* \"#utility.yul\":2719:2725   */\n      dup4\n        /* \"#utility.yul\":2714:2717   */\n      dup4\n        /* \"#utility.yul\":2710:2726   */\n      add\n        /* \"#utility.yul\":2703:2730   */\n      mstore\n        /* \"#utility.yul\":2582:2736   */\n      pop\n      pop\n      pop\n      jump\t// out\n        /* \"#utility.yul\":2742:3023   */\n    tag_53:\n        /* \"#utility.yul\":2825:2852   */\n      tag_64\n        /* \"#utility.yul\":2847:2851   */\n      dup3\n        /* \"#utility.yul\":2825:2852   */\n      tag_60\n      jump\t// in\n    tag_64:\n        /* \"#utility.yul\":2817:2823   */\n      dup2\n        /* \"#utility.yul\":2813:2853   */\n      add\n        /* \"#utility.yul\":2955:2961   */\n      dup2\n        /* \"#utility.yul\":2943:2953   */\n      dup2\n        /* \"#utility.yul\":2940:2962   */\n      lt\n        /* \"#utility.yul\":2919:2937   */\n      0xffffffffffffffff\n        /* \"#utility.yul\":2907:2917   */\n      dup3\n        /* \"#utility.yul\":2904:2938   */\n      gt\n        /* \"#utility.yul\":2901:2963   */\n      or\n        /* \"#utility.yul\":2898:2986   */\n      iszero\n      tag_65\n      jumpi\n        /* \"#utility.yul\":2966:2984   */\n      tag_66\n      tag_58\n      jump\t// in\n    tag_66:\n        /* \"#utility.yul\":2898:2986   */\n    tag_65:\n        /* \"#utility.yul\":3006:3016   */\n      dup1\n        /* \"#utility.yul\":3002:3004   */\n      0x40\n        /* \"#utility.yul\":2995:3017   */\n      mstore\n        /* \"#utility.yul\":2785:3023   */\n      pop\n        /* \"#utility.yul\":2742:3023   */\n      pop\n      pop\n      jump\t// out\n        /* \"#utility.yul\":3029:3209   */\n    tag_58:\n        /* \"#utility.yul\":3077:3154   */\n      0x4e487b7100000000000000000000000000000000000000000000000000000000\n        /* \"#utility.yul\":3074:3075   */\n      0x00\n        /* \"#utility.yul\":3067:3155   */\n      mstore\n        /* \"#utility.yul\":3174:3178   */\n      0x41\n        /* \"#utility.yul\":3171:3172   */\n      0x04\n        /* \"#utility.yul\":3164:3179   */\n      mstore\n        /* \"#utility.yul\":3198:3202   */\n      0x24\n        /* \"#utility.yul\":3195:3196   */\n      0x00\n        /* \"#utility.yul\":3188:3203   */\n      revert\n        /* \"#utility.yul\":3215:3332   */\n    tag_30:\n        /* \"#utility.yul\":3324:3325   */\n      0x00\n        /* \"#utility.yul\":3321:3322   */\n      dup1\n        /* \"#utility.yul\":3314:3326   */\n      revert\n        /* \"#utility.yul\":3338:3455   */\n    tag_23:\n        /* \"#utility.yul\":3447:3448   */\n      0x00\n        /* \"#utility.yul\":3444:3445   */\n      dup1\n        /* \"#utility.yul\":3437:3449   */\n      revert\n        /* \"#utility.yul\":3461:3578   */\n    tag_38:\n        /* \"#utility.yul\":3570:3571   */\n      0x00\n        /* \"#utility.yul\":3567:3568   */\n      dup1\n        /* \"#utility.yul\":3560:3572   */\n      revert\n        /* \"#utility.yul\":3584:3701   */\n    tag_35:\n        /* \"#utility.yul\":3693:3694   */\n      0x00\n        /* \"#utility.yul\":3690:3691   */\n      dup1\n        /* \"#utility.yul\":3683:3695   */\n      revert\n        /* \"#utility.yul\":3707:3809   */\n    tag_60:\n        /* \"#utility.yul\":3748:3754   */\n      0x00\n        /* \"#utility.yul\":3799:3801   */\n      0x1f\n        /* \"#utility.yul\":3795:3802   */\n      not\n        /* \"#utility.yul\":3790:3792   */\n      0x1f\n        /* \"#utility.yul\":3783:3788   */\n      dup4\n        /* \"#utility.yul\":3779:3793   */\n      add\n        /* \"#utility.yul\":3775:3803   */\n      and\n        /* \"#utility.yul\":3765:3803   */\n      swap1\n      pop\n        /* \"#utility.yul\":3707:3809   */\n      swap2\n      swap1\n      pop\n      jump\t// out\n\n    auxdata: 0xa264697066735822122058468d3b40f393303bd34bbf9f84613166161799d972a9df0f3842bb9bdefe5064736f6c63430008070033\n}\n",
				"bytecode": {
					"linkReferences": {},
					"object": "6080604052600a60005534801561001557600080fd5b506102bb806100256000396000f3fe608060405234801561001057600080fd5b50600436106100365760003560e01c80630c55699c1461003b5780637a36b3ee14610059575b600080fd5b610043610075565b6040516100509190610176565b60405180910390f35b610073600480360381019061006e91906100ef565b61007b565b005b60005481565b5050565b600061009261008d846101b6565b610191565b9050828152602081018484840111156100ae576100ad610265565b5b6100b98482856101f1565b509392505050565b600082601f8301126100d6576100d5610260565b5b81356100e684826020860161007f565b91505092915050565b600080604083850312156101065761010561026f565b5b600083013567ffffffffffffffff8111156101245761012361026a565b5b610130858286016100c1565b925050602083013567ffffffffffffffff8111156101515761015061026a565b5b61015d858286016100c1565b9150509250929050565b610170816101e7565b82525050565b600060208201905061018b6000830184610167565b92915050565b600061019b6101ac565b90506101a78282610200565b919050565b6000604051905090565b600067ffffffffffffffff8211156101d1576101d0610231565b5b6101da82610274565b9050602081019050919050565b6000819050919050565b82818337600083830152505050565b61020982610274565b810181811067ffffffffffffffff8211171561022857610227610231565b5b80604052505050565b7f4e487b7100000000000000000000000000000000000000000000000000000000600052604160045260246000fd5b600080fd5b600080fd5b600080fd5b600080fd5b6000601f19601f830116905091905056fea264697066735822122058468d3b40f393303bd34bbf9f84613166161799d972a9df0f3842bb9bdefe5064736f6c63430008070033",
					"opcodes": "PUSH1 0x80 PUSH1 0x40 MSTORE PUSH1 0xA PUSH1 0x0 SSTORE CALLVALUE DUP1 ISZERO PUSH2 0x15 JUMPI PUSH1 0x0 DUP1 REVERT JUMPDEST POP PUSH2 0x2BB DUP1 PUSH2 0x25 PUSH1 0x0 CODECOPY PUSH1 0x0 RETURN INVALID PUSH1 0x80 PUSH1 0x40 MSTORE CALLVALUE DUP1 ISZERO PUSH2 0x10 JUMPI PUSH1 0x0 DUP1 REVERT JUMPDEST POP PUSH1 0x4 CALLDATASIZE LT PUSH2 0x36 JUMPI PUSH1 0x0 CALLDATALOAD PUSH1 0xE0 SHR DUP1 PUSH4 0xC55699C EQ PUSH2 0x3B JUMPI DUP1 PUSH4 0x7A36B3EE EQ PUSH2 0x59 JUMPI JUMPDEST PUSH1 0x0 DUP1 REVERT JUMPDEST PUSH2 0x43 PUSH2 0x75 JUMP JUMPDEST PUSH1 0x40 MLOAD PUSH2 0x50 SWAP2 SWAP1 PUSH2 0x176 JUMP JUMPDEST PUSH1 0x40 MLOAD DUP1 SWAP2 SUB SWAP1 RETURN JUMPDEST PUSH2 0x73 PUSH1 0x4 DUP1 CALLDATASIZE SUB DUP2 ADD SWAP1 PUSH2 0x6E SWAP2 SWAP1 PUSH2 0xEF JUMP JUMPDEST PUSH2 0x7B JUMP JUMPDEST STOP JUMPDEST PUSH1 0x0 SLOAD DUP2 JUMP JUMPDEST POP POP JUMP JUMPDEST PUSH1 0x0 PUSH2 0x92 PUSH2 0x8D DUP5 PUSH2 0x1B6 JUMP JUMPDEST PUSH2 0x191 JUMP JUMPDEST SWAP1 POP DUP3 DUP2 MSTORE PUSH1 0x20 DUP2 ADD DUP5 DUP5 DUP5 ADD GT ISZERO PUSH2 0xAE JUMPI PUSH2 0xAD PUSH2 0x265 JUMP JUMPDEST JUMPDEST PUSH2 0xB9 DUP5 DUP3 DUP6 PUSH2 0x1F1 JUMP JUMPDEST POP SWAP4 SWAP3 POP POP POP JUMP JUMPDEST PUSH1 0x0 DUP3 PUSH1 0x1F DUP4 ADD SLT PUSH2 0xD6 JUMPI PUSH2 0xD5 PUSH2 0x260 JUMP JUMPDEST JUMPDEST DUP2 CALLDATALOAD PUSH2 0xE6 DUP5 DUP3 PUSH1 0x20 DUP7 ADD PUSH2 0x7F JUMP JUMPDEST SWAP2 POP POP SWAP3 SWAP2 POP POP JUMP JUMPDEST PUSH1 0x0 DUP1 PUSH1 0x40 DUP4 DUP6 SUB SLT ISZERO PUSH2 0x106 JUMPI PUSH2 0x105 PUSH2 0x26F JUMP JUMPDEST JUMPDEST PUSH1 0x0 DUP4 ADD CALLDATALOAD PUSH8 0xFFFFFFFFFFFFFFFF DUP2 GT ISZERO PUSH2 0x124 JUMPI PUSH2 0x123 PUSH2 0x26A JUMP JUMPDEST JUMPDEST PUSH2 0x130 DUP6 DUP3 DUP7 ADD PUSH2 0xC1 JUMP JUMPDEST SWAP3 POP POP PUSH1 0x20 DUP4 ADD CALLDATALOAD PUSH8 0xFFFFFFFFFFFFFFFF DUP2 GT ISZERO PUSH2 0x151 JUMPI PUSH2 0x150 PUSH2 0x26A JUMP JUMPDEST JUMPDEST PUSH2 0x15D DUP6 DUP3 DUP7 ADD PUSH2 0xC1 JUMP JUMPDEST SWAP2 POP POP SWAP3 POP SWAP3 SWAP1 POP JUMP JUMPDEST PUSH2 0x170 DUP2 PUSH2 0x1E7 JUMP JUMPDEST DUP3 MSTORE POP POP JUMP JUMPDEST PUSH1 0x0 PUSH1 0x20 DUP3 ADD SWAP1 POP PUSH2 0x18B PUSH1 0x0 DUP4 ADD DUP5 PUSH2 0x167 JUMP JUMPDEST SWAP3 SWAP2 POP POP JUMP JUMPDEST PUSH1 0x0 PUSH2 0x19B PUSH2 0x1AC JUMP JUMPDEST SWAP1 POP PUSH2 0x1A7 DUP3 DUP3 PUSH2 0x200 JUMP JUMPDEST SWAP2 SWAP1 POP JUMP JUMPDEST PUSH1 0x0 PUSH1 0x40 MLOAD SWAP1 POP SWAP1 JUMP JUMPDEST PUSH1 0x0 PUSH8 0xFFFFFFFFFFFFFFFF DUP3 GT ISZERO PUSH2 0x1D1 JUMPI PUSH2 0x1D0 PUSH2 0x231 JUMP JUMPDEST JUMPDEST PUSH2 0x1DA DUP3 PUSH2 0x274 JUMP JUMPDEST SWAP1 POP PUSH1 0x20 DUP2 ADD SWAP1 POP SWAP2 SWAP1 POP JUMP JUMPDEST PUSH1 0x0 DUP2 SWAP1 POP SWAP2 SWAP1 POP JUMP JUMPDEST DUP3 DUP2 DUP4 CALLDATACOPY PUSH1 0x0 DUP4 DUP4 ADD MSTORE POP POP POP JUMP JUMPDEST PUSH2 0x209 DUP3 PUSH2 0x274 JUMP JUMPDEST DUP2 ADD DUP2 DUP2 LT PUSH8 0xFFFFFFFFFFFFFFFF DUP3 GT OR ISZERO PUSH2 0x228 JUMPI PUSH2 0x227 PUSH2 0x231 JUMP JUMPDEST JUMPDEST DUP1 PUSH1 0x40 MSTORE POP POP POP JUMP JUMPDEST PUSH32 0x4E487B7100000000000000000000000000000000000000000000000000000000 PUSH1 0x0 MSTORE PUSH1 0x41 PUSH1 0x4 MSTORE PUSH1 0x24 PUSH1 0x0 REVERT JUMPDEST PUSH1 0x0 DUP1 REVERT JUMPDEST PUSH1 0x0 DUP1 REVERT JUMPDEST PUSH1 0x0 DUP1 REVERT JUMPDEST PUSH1 0x0 DUP1 REVERT JUMPDEST PUSH1 0x0 PUSH1 0x1F NOT PUSH1 0x1F DUP4 ADD AND SWAP1 POP SWAP2 SWAP1 POP JUMP INVALID LOG2 PUSH5 0x6970667358 0x22 SLT KECCAK256 PC CHAINID DUP14 EXTCODESIZE BLOCKHASH RETURN SWAP4 ADDRESS EXTCODESIZE 0xD3 0x4B 0xBF SWAP16 DUP5 PUSH2 0x3166 AND OR SWAP10 0xD9 PUSH19 0xA9DF0F3842BB9BDEFE5064736F6C6343000807 STOP CALLER "
				},
				"gasEstimates": {
					"creation": {
						"codeDepositCost": "139800",
						"executionCost": "22289",
						"totalCost": "162089"
					},
					"external": {
						"concatenateStrings(string,string)": "infinite",
						"x()": "2407"
					},
					"internal": {
						"f()": "infinite"
					}
				},
				"methodIdentifiers": {
					"concatenateStrings(string,string)": "7a36b3ee",
					"x()": "0c55699c"
				}
			},
			"storageLayout": {
				"storage": [
					{
						"astId": 4,
						"contract": "contracts/challenges/ch5.sol:A",
						"label": "x",
						"offset": 0,
						"slot": "0",
						"type": "t_int256"
					}
				],
				"types": {
					"t_int256": {
						"encoding": "inplace",
						"label": "int256",
						"numberOfBytes": "32"
					}
				}
			},
			"userdoc": {
				"kind": "user",
				"methods": {},
				"version": 1
			}
		}
	}
}