{
	"contracts/challenges/ch5.sol": {
		"B": {
			"abi": [
				{
					"inputs": [],
					"name": "str",
					"outputs": [
						{
							"internalType": "int256",
							"name": "",
							"type": "int256"
						}
					],
					"stateMutability": "view",
					"type": "function"
				},
				{
					"inputs": [],
					"name": "x",
					"outputs": [
						{
							"internalType": "int256",
							"name": "",
							"type": "int256"
						}
					],
					"stateMutability": "view",
					"type": "function"
				},
				{
					"inputs": [],
					"name": "y",
					"outputs": [
						{
							"internalType": "int256",
							"name": "",
							"type": "int256"
						}
					],
					"stateMutability": "view",
					"type": "function"
				}
			],
			"devdoc": {
				"kind": "dev",
				"methods": {},
				"version": 1
			},
			"evm": {
				"assembly": "    /* \"contracts/challenges/ch5.sol\":204:246  contract B is A{... */\n  mstore(0x40, 0x80)\n    /* \"contracts/challenges/ch5.sol\":102:104  10 */\n  0x0a\n    /* \"contracts/challenges/ch5.sol\":87:104  int public x = 10 */\n  0x00\n  sstore\n    /* \"contracts/challenges/ch5.sol\":240:243  f() */\n  tag_1\n    /* \"contracts/challenges/ch5.sol\":240:241  f */\n  shl(0x20, tag_2)\n    /* \"contracts/challenges/ch5.sol\":240:243  f() */\n  0x20\n  shr\n  jump\t// in\ntag_1:\n    /* \"contracts/challenges/ch5.sol\":225:243  int public y = f() */\n  0x02\n  sstore\n    /* \"contracts/challenges/ch5.sol\":204:246  contract B is A{... */\n  callvalue\n  dup1\n  iszero\n  tag_3\n  jumpi\n  0x00\n  dup1\n  revert\ntag_3:\n  pop\n  jump(tag_4)\n    /* \"contracts/challenges/ch5.sol\":131:195  function f() internal view returns(int){... */\ntag_2:\n    /* \"contracts/challenges/ch5.sol\":166:169  int */\n  0x00\n    /* \"contracts/challenges/ch5.sol\":187:188  x */\n  dup1\n  sload\n    /* \"contracts/challenges/ch5.sol\":180:188  return x */\n  swap1\n  pop\n    /* \"contracts/challenges/ch5.sol\":131:195  function f() internal view returns(int){... */\n  swap1\n  jump\t// out\n    /* \"contracts/challenges/ch5.sol\":204:246  contract B is A{... */\ntag_4:\n  dataSize(sub_0)\n  dup1\n  dataOffset(sub_0)\n  0x00\n  codecopy\n  0x00\n  return\nstop\n\nsub_0: assembly {\n        /* \"contracts/challenges/ch5.sol\":204:246  contract B is A{... */\n      mstore(0x40, 0x80)\n      callvalue\n      dup1\n      iszero\n      tag_1\n      jumpi\n      0x00\n      dup1\n      revert\n    tag_1:\n      pop\n      jumpi(tag_2, lt(calldatasize, 0x04))\n      shr(0xe0, calldataload(0x00))\n      dup1\n      0x0c55699c\n      eq\n      tag_3\n      jumpi\n      dup1\n      0xa56dfe4a\n      eq\n      tag_4\n      jumpi\n      dup1\n      0xc15bae84\n      eq\n      tag_5\n      jumpi\n    tag_2:\n      0x00\n      dup1\n      revert\n        /* \"contracts/challenges/ch5.sol\":87:104  int public x = 10 */\n    tag_3:\n      tag_6\n      tag_7\n      jump\t// in\n    tag_6:\n      mload(0x40)\n      tag_8\n      swap2\n      swap1\n      tag_9\n      jump\t// in\n    tag_8:\n      mload(0x40)\n      dup1\n      swap2\n      sub\n      swap1\n      return\n        /* \"contracts/challenges/ch5.sol\":225:243  int public y = f() */\n    tag_4:\n      tag_10\n      tag_11\n      jump\t// in\n    tag_10:\n      mload(0x40)\n      tag_12\n      swap2\n      swap1\n      tag_9\n      jump\t// in\n    tag_12:\n      mload(0x40)\n      dup1\n      swap2\n      sub\n      swap1\n      return\n        /* \"contracts/challenges/ch5.sol\":110:124  int public str */\n    tag_5:\n      tag_13\n      tag_14\n      jump\t// in\n    tag_13:\n      mload(0x40)\n      tag_15\n      swap2\n      swap1\n      tag_9\n      jump\t// in\n    tag_15:\n      mload(0x40)\n      dup1\n      swap2\n      sub\n      swap1\n      return\n        /* \"contracts/challenges/ch5.sol\":87:104  int public x = 10 */\n    tag_7:\n      sload(0x00)\n      dup2\n      jump\t// out\n        /* \"contracts/challenges/ch5.sol\":225:243  int public y = f() */\n    tag_11:\n      sload(0x02)\n      dup2\n      jump\t// out\n        /* \"contracts/challenges/ch5.sol\":110:124  int public str */\n    tag_14:\n      sload(0x01)\n      dup2\n      jump\t// out\n        /* \"#utility.yul\":7:122   */\n    tag_17:\n        /* \"#utility.yul\":92:115   */\n      tag_19\n        /* \"#utility.yul\":109:114   */\n      dup2\n        /* \"#utility.yul\":92:115   */\n      tag_20\n      jump\t// in\n    tag_19:\n        /* \"#utility.yul\":87:90   */\n      dup3\n        /* \"#utility.yul\":80:116   */\n      mstore\n        /* \"#utility.yul\":7:122   */\n      pop\n      pop\n      jump\t// out\n        /* \"#utility.yul\":128:346   */\n    tag_9:\n        /* \"#utility.yul\":219:223   */\n      0x00\n        /* \"#utility.yul\":257:259   */\n      0x20\n        /* \"#utility.yul\":246:255   */\n      dup3\n        /* \"#utility.yul\":242:260   */\n      add\n        /* \"#utility.yul\":234:260   */\n      swap1\n      pop\n        /* \"#utility.yul\":270:339   */\n      tag_22\n        /* \"#utility.yul\":336:337   */\n      0x00\n        /* \"#utility.yul\":325:334   */\n      dup4\n        /* \"#utility.yul\":321:338   */\n      add\n        /* \"#utility.yul\":312:318   */\n      dup5\n        /* \"#utility.yul\":270:339   */\n      tag_17\n      jump\t// in\n    tag_22:\n        /* \"#utility.yul\":128:346   */\n      swap3\n      swap2\n      pop\n      pop\n      jump\t// out\n        /* \"#utility.yul\":352:428   */\n    tag_20:\n        /* \"#utility.yul\":388:395   */\n      0x00\n        /* \"#utility.yul\":417:422   */\n      dup2\n        /* \"#utility.yul\":406:422   */\n      swap1\n      pop\n        /* \"#utility.yul\":352:428   */\n      swap2\n      swap1\n      pop\n      jump\t// out\n\n    auxdata: 0xa26469706673582212204a8364acdf2b710220f653126ac4b07e6f149ac6c5e3b0a46b52d6e78926d9a064736f6c63430008070033\n}\n",
				"bytecode": {
					"linkReferences": {},
					"object": "6080604052600a60005561001761002c60201b60201c565b60025534801561002657600080fd5b50610035565b60008054905090565b610107806100446000396000f3fe6080604052348015600f57600080fd5b5060043610603c5760003560e01c80630c55699c146041578063a56dfe4a14605b578063c15bae84146075575b600080fd5b6047608f565b6040516052919060ae565b60405180910390f35b60616095565b604051606c919060ae565b60405180910390f35b607b609b565b6040516086919060ae565b60405180910390f35b60005481565b60025481565b60015481565b60a88160c7565b82525050565b600060208201905060c1600083018460a1565b92915050565b600081905091905056fea26469706673582212204a8364acdf2b710220f653126ac4b07e6f149ac6c5e3b0a46b52d6e78926d9a064736f6c63430008070033",
					"opcodes": "PUSH1 0x80 PUSH1 0x40 MSTORE PUSH1 0xA PUSH1 0x0 SSTORE PUSH2 0x17 PUSH2 0x2C PUSH1 0x20 SHL PUSH1 0x20 SHR JUMP JUMPDEST PUSH1 0x2 SSTORE CALLVALUE DUP1 ISZERO PUSH2 0x26 JUMPI PUSH1 0x0 DUP1 REVERT JUMPDEST POP PUSH2 0x35 JUMP JUMPDEST PUSH1 0x0 DUP1 SLOAD SWAP1 POP SWAP1 JUMP JUMPDEST PUSH2 0x107 DUP1 PUSH2 0x44 PUSH1 0x0 CODECOPY PUSH1 0x0 RETURN INVALID PUSH1 0x80 PUSH1 0x40 MSTORE CALLVALUE DUP1 ISZERO PUSH1 0xF JUMPI PUSH1 0x0 DUP1 REVERT JUMPDEST POP PUSH1 0x4 CALLDATASIZE LT PUSH1 0x3C JUMPI PUSH1 0x0 CALLDATALOAD PUSH1 0xE0 SHR DUP1 PUSH4 0xC55699C EQ PUSH1 0x41 JUMPI DUP1 PUSH4 0xA56DFE4A EQ PUSH1 0x5B JUMPI DUP1 PUSH4 0xC15BAE84 EQ PUSH1 0x75 JUMPI JUMPDEST PUSH1 0x0 DUP1 REVERT JUMPDEST PUSH1 0x47 PUSH1 0x8F JUMP JUMPDEST PUSH1 0x40 MLOAD PUSH1 0x52 SWAP2 SWAP1 PUSH1 0xAE JUMP JUMPDEST PUSH1 0x40 MLOAD DUP1 SWAP2 SUB SWAP1 RETURN JUMPDEST PUSH1 0x61 PUSH1 0x95 JUMP JUMPDEST PUSH1 0x40 MLOAD PUSH1 0x6C SWAP2 SWAP1 PUSH1 0xAE JUMP JUMPDEST PUSH1 0x40 MLOAD DUP1 SWAP2 SUB SWAP1 RETURN JUMPDEST PUSH1 0x7B PUSH1 0x9B JUMP JUMPDEST PUSH1 0x40 MLOAD PUSH1 0x86 SWAP2 SWAP1 PUSH1 0xAE JUMP JUMPDEST PUSH1 0x40 MLOAD DUP1 SWAP2 SUB SWAP1 RETURN JUMPDEST PUSH1 0x0 SLOAD DUP2 JUMP JUMPDEST PUSH1 0x2 SLOAD DUP2 JUMP JUMPDEST PUSH1 0x1 SLOAD DUP2 JUMP JUMPDEST PUSH1 0xA8 DUP2 PUSH1 0xC7 JUMP JUMPDEST DUP3 MSTORE POP POP JUMP JUMPDEST PUSH1 0x0 PUSH1 0x20 DUP3 ADD SWAP1 POP PUSH1 0xC1 PUSH1 0x0 DUP4 ADD DUP5 PUSH1 0xA1 JUMP JUMPDEST SWAP3 SWAP2 POP POP JUMP JUMPDEST PUSH1 0x0 DUP2 SWAP1 POP SWAP2 SWAP1 POP JUMP INVALID LOG2 PUSH5 0x6970667358 0x22 SLT KECCAK256 0x4A DUP4 PUSH5 0xACDF2B7102 KECCAK256 0xF6 MSTORE8 SLT PUSH11 0xC4B07E6F149AC6C5E3B0A4 PUSH12 0x52D6E78926D9A064736F6C63 NUMBER STOP ADDMOD SMOD STOP CALLER "
				},
				"gasEstimates": {
					"creation": {
						"codeDepositCost": "52600",
						"executionCost": "infinite",
						"totalCost": "infinite"
					},
					"external": {
						"str()": "2451",
						"x()": "2407",
						"y()": "2429"
					}
				},
				"methodIdentifiers": {
					"str()": "c15bae84",
					"x()": "0c55699c",
					"y()": "a56dfe4a"
				}
			},
			"storageLayout": {
				"storage": [
					{
						"astId": 4,
						"contract": "contracts/challenges/ch5.sol:B",
						"label": "x",
						"offset": 0,
						"slot": "0",
						"type": "t_int256"
					},
					{
						"astId": 6,
						"contract": "contracts/challenges/ch5.sol:B",
						"label": "str",
						"offset": 0,
						"slot": "1",
						"type": "t_int256"
					},
					{
						"astId": 21,
						"contract": "contracts/challenges/ch5.sol:B",
						"label": "y",
						"offset": 0,
						"slot": "2",
						"type": "t_int256"
					}
				],
				"types": {
					"t_int256": {
						"encoding": "inplace",
						"label": "int256",
						"numberOfBytes": "32"
					}
				}
			},
			"userdoc": {
				"kind": "user",
				"methods": {},
				"version": 1
			}
		}
	}
}